{
  "_format": "hh-sol-artifact-1",
  "contractName": "GrcDiamond",
  "sourceName": "contracts/GrcDiamond.sol",
  "abi": [
    {
      "inputs": [
        {
          "internalType": "address",
          "name": "owner_",
          "type": "address"
        },
        {
          "internalType": "string",
          "name": "version_",
          "type": "string"
        }
      ],
      "stateMutability": "nonpayable",
      "type": "constructor"
    },
    {
      "anonymous": false,
      "inputs": [
        {
          "components": [
            {
              "internalType": "address",
              "name": "facetAddress",
              "type": "address"
            },
            {
              "internalType": "enum IDiamondCut.FacetCutAction",
              "name": "action",
              "type": "uint8"
            },
            {
              "internalType": "bytes4[]",
              "name": "functionSelectors",
              "type": "bytes4[]"
            }
          ],
          "indexed": false,
          "internalType": "struct IDiamondCut.FacetCut[]",
          "name": "_cut",
          "type": "tuple[]"
        },
        {
          "indexed": false,
          "internalType": "address",
          "name": "_init",
          "type": "address"
        },
        {
          "indexed": false,
          "internalType": "bytes",
          "name": "_calldata",
          "type": "bytes"
        }
      ],
      "name": "DiamondCut",
      "type": "event"
    },
    {
      "anonymous": false,
      "inputs": [
        {
          "indexed": true,
          "internalType": "address",
          "name": "previousOwner",
          "type": "address"
        },
        {
          "indexed": true,
          "internalType": "address",
          "name": "newOwner",
          "type": "address"
        }
      ],
      "name": "OwnershipTransferred",
      "type": "event"
    },
    {
      "stateMutability": "payable",
      "type": "fallback"
    },
    {
      "inputs": [
        {
          "components": [
            {
              "internalType": "address",
              "name": "facetAddress",
              "type": "address"
            },
            {
              "internalType": "enum IDiamondCut.FacetCutAction",
              "name": "action",
              "type": "uint8"
            },
            {
              "internalType": "bytes4[]",
              "name": "functionSelectors",
              "type": "bytes4[]"
            }
          ],
          "internalType": "struct IDiamondCut.FacetCut[]",
          "name": "_cut",
          "type": "tuple[]"
        },
        {
          "internalType": "address",
          "name": "_init",
          "type": "address"
        },
        {
          "internalType": "bytes",
          "name": "_calldata",
          "type": "bytes"
        }
      ],
      "name": "diamondCut",
      "outputs": [],
      "stateMutability": "nonpayable",
      "type": "function"
    },
    {
      "inputs": [
        {
          "internalType": "bytes4",
          "name": "selector",
          "type": "bytes4"
        }
      ],
      "name": "facetAddress",
      "outputs": [
        {
          "internalType": "address",
          "name": "",
          "type": "address"
        }
      ],
      "stateMutability": "view",
      "type": "function"
    },
    {
      "inputs": [],
      "name": "facetAddresses",
      "outputs": [
        {
          "internalType": "address[]",
          "name": "",
          "type": "address[]"
        }
      ],
      "stateMutability": "view",
      "type": "function"
    },
    {
      "inputs": [
        {
          "internalType": "address",
          "name": "facet",
          "type": "address"
        }
      ],
      "name": "facetFunctionSelectors",
      "outputs": [
        {
          "internalType": "bytes4[]",
          "name": "",
          "type": "bytes4[]"
        }
      ],
      "stateMutability": "view",
      "type": "function"
    },
    {
      "inputs": [],
      "name": "facets",
      "outputs": [
        {
          "internalType": "address[]",
          "name": "facetAddresses",
          "type": "address[]"
        },
        {
          "internalType": "bytes4[][]",
          "name": "selectors",
          "type": "bytes4[][]"
        }
      ],
      "stateMutability": "view",
      "type": "function"
    },
    {
      "inputs": [
        {
          "internalType": "bytes32",
          "name": "indexId",
          "type": "bytes32"
        }
      ],
      "name": "getIndexWeights",
      "outputs": [
        {
          "internalType": "uint64",
          "name": "ver",
          "type": "uint64"
        },
        {
          "internalType": "bytes32[]",
          "name": "keys",
          "type": "bytes32[]"
        },
        {
          "internalType": "uint256[]",
          "name": "weights",
          "type": "uint256[]"
        },
        {
          "internalType": "bytes32",
          "name": "dashboardHash",
          "type": "bytes32"
        }
      ],
      "stateMutability": "view",
      "type": "function"
    },
    {
      "inputs": [
        {
          "internalType": "uint64",
          "name": "period",
          "type": "uint64"
        }
      ],
      "name": "getPoR",
      "outputs": [
        {
          "internalType": "bytes32",
          "name": "merkleRoot",
          "type": "bytes32"
        },
        {
          "internalType": "string",
          "name": "ipfs",
          "type": "string"
        }
      ],
      "stateMutability": "view",
      "type": "function"
    },
    {
      "inputs": [],
      "name": "getScalarS",
      "outputs": [
        {
          "internalType": "uint256",
          "name": "",
          "type": "uint256"
        }
      ],
      "stateMutability": "view",
      "type": "function"
    },
    {
      "inputs": [],
      "name": "governanceParams",
      "outputs": [
        {
          "internalType": "uint256",
          "name": "timelockSeconds",
          "type": "uint256"
        },
        {
          "internalType": "uint256",
          "name": "quorumBps",
          "type": "uint256"
        }
      ],
      "stateMutability": "view",
      "type": "function"
    },
    {
      "inputs": [],
      "name": "grcVersion",
      "outputs": [
        {
          "internalType": "string",
          "name": "",
          "type": "string"
        }
      ],
      "stateMutability": "view",
      "type": "function"
    },
    {
      "inputs": [],
      "name": "owner",
      "outputs": [
        {
          "internalType": "address",
          "name": "",
          "type": "address"
        }
      ],
      "stateMutability": "view",
      "type": "function"
    },
    {
      "inputs": [
        {
          "internalType": "bytes4",
          "name": "interfaceId",
          "type": "bytes4"
        }
      ],
      "name": "supportsInterface",
      "outputs": [
        {
          "internalType": "bool",
          "name": "",
          "type": "bool"
        }
      ],
      "stateMutability": "view",
      "type": "function"
    },
    {
      "inputs": [
        {
          "internalType": "address",
          "name": "newOwner",
          "type": "address"
        }
      ],
      "name": "transferOwnership",
      "outputs": [],
      "stateMutability": "nonpayable",
      "type": "function"
    },
    {
      "stateMutability": "payable",
      "type": "receive"
    }
  ],
  "bytecode": "0x60806040523480156200001157600080fd5b5060405162001ecf38038062001ecf8339810160408190526200003491620000d4565b6001600160a01b038216156200004b57816200004d565b335b600480546001600160a01b0319166001600160a01b039290921691909117905560056200007b828262000259565b506004546040516001600160a01b03909116906000907f8be0079c531659141344cd1fd0a4f28419497f9722a3daafe3b4186f6b6457e0908290a3505062000325565b634e487b7160e01b600052604160045260246000fd5b60008060408385031215620000e857600080fd5b82516001600160a01b03811681146200010057600080fd5b602084810151919350906001600160401b03808211156200012057600080fd5b818601915086601f8301126200013557600080fd5b8151818111156200014a576200014a620000be565b604051601f8201601f19908116603f01168101908382118183101715620001755762000175620000be565b8160405282815289868487010111156200018e57600080fd5b600093505b82841015620001b2578484018601518185018701529285019262000193565b60008684830101528096505050505050509250929050565b600181811c90821680620001df57607f821691505b6020821081036200020057634e487b7160e01b600052602260045260246000fd5b50919050565b601f8211156200025457600081815260208120601f850160051c810160208610156200022f5750805b601f850160051c820191505b8181101562000250578281556001016200023b565b5050505b505050565b81516001600160401b03811115620002755762000275620000be565b6200028d81620002868454620001ca565b8462000206565b602080601f831160018114620002c55760008415620002ac5750858301515b600019600386901b1c1916600185901b17855562000250565b600085815260208120601f198616915b82811015620002f657888601518255948401946001909101908401620002d5565b5085821015620003155787850151600019600388901b60f8161c191681555b5050505050600190811b01905550565b611b9a80620003356000396000f3fe6080604052600436106100c65760003560e01c80636de3957d1161007f5780638da5cb5b116100595780638da5cb5b14610310578063adfca15e14610342578063cdffacc61461036f578063f2fde38b146103af576100cd565b80636de3957d1461024a5780637a0ed627146102b0578063848b182e146102d3576100cd565b806301ffc9a71461015357806310c837791461018857806311596000146101b85780631f931c1c146101e657806344c261ab1461020657806352ef6b2c14610228576100cd565b366100cd57005b600080356001600160e01b0319168152602081905260409020546001600160a01b03168061012d5760405162461bcd60e51b81526020600482015260086024820152671393d7d19050d15560c21b60448201526064015b60405180910390fd5b3660008037600080366000845af43d6000803e80801561014c573d6000f35b3d6000fd5b005b34801561015f57600080fd5b5061017361016e3660046113c0565b6103cf565b60405190151581526020015b60405180910390f35b34801561019457600080fd5b506101a86101a33660046113e2565b610457565b60405161017f94939291906113fb565b3480156101c457600080fd5b506101d86101d3366004611493565b610533565b60405161017f929190611503565b3480156101f257600080fd5b50610151610201366004611584565b6105e0565b34801561021257600080fd5b5061021b610ae3565b60405161017f9190611636565b34801561023457600080fd5b5061023d610b75565b60405161017f919061168d565b34801561025657600080fd5b507fe007241d1889ec8c05dc8b1092e6a7dc887697913faabbdc9fe930d998ad974b547fe007241d1889ec8c05dc8b1092e6a7dc887697913faabbdc9fe930d998ad974c546040805192835260208301919091520161017f565b3480156102bc57600080fd5b506102c5610bd6565b60405161017f9291906116da565b3480156102df57600080fd5b507fd6c498e0ac7e744e9a2a0e58a73120355ece1562e61b32c0aa275db953d0da4c5460405190815260200161017f565b34801561031c57600080fd5b506004546001600160a01b03165b6040516001600160a01b03909116815260200161017f565b34801561034e57600080fd5b5061036261035d36600461174c565b610da3565b60405161017f9190611767565b34801561037b57600080fd5b5061032a61038a3660046113c0565b6001600160e01b0319166000908152602081905260409020546001600160a01b031690565b3480156103bb57600080fd5b506101516103ca36600461174c565b610e3c565b60006001600160e01b031982166301ffc9a760e01b148061040057506001600160e01b031982166307e4c70760e21b145b8061041b57506001600160e01b031982166348e2b09360e01b145b8061043657506001600160e01b031982166307f5828d60e41b145b8061045157506001600160e01b0319821663ac3bbb8160e01b145b92915050565b600060608060008061046886610f19565b80546002820180546040805160208084028201810190925282815267ffffffffffffffff909416995093945091929091908301828280156104c857602002820191906000526020600020905b8154815260200190600101908083116104b4575b505050505093508060030180548060200260200160405190810160405280929190818152602001828054801561051d57602002820191906000526020600020905b815481526020019060010190808311610509575b5050505050925080600101549150509193509193565b60006060600061054284610f77565b90508060000154925080600101805461055a9061177a565b80601f01602080910402602001604051908101604052809291908181526020018280546105869061177a565b80156105d35780601f106105a8576101008083540402835291602001916105d3565b820191906000526020600020905b8154815290600101906020018083116105b657829003601f168201915b5050505050915050915091565b6004546001600160a01b031633148015906105fb5750333014155b15610672573360009081527f9f684a81ee6e6fb92a5ae5a2560bb267d45aada2be40484754980c3e16e44d98602052604081205460011690036106725760405162461bcd60e51b815260206004820152600f60248201526e4e4f5f555047524144455f524f4c4560881b6044820152606401610124565b60005b84811015610a07576000868683818110610691576106916117b4565b90506020028101906106a391906117ca565b6106ac90611869565b90506000816020015160028111156106c6576106c6611940565b14806106e757506001816020015160028111156106e5576106e5611940565b145b156107305780516001600160a01b03166107305760405162461bcd60e51b815260206004820152600a60248201526946414345545f5a45524f60b01b6044820152606401610124565b60005b8160400151518110156109f257600082604001518281518110610758576107586117b4565b602002602001015190506000600281111561077557610775611940565b8360200151600281111561078b5761078b611940565b03610832576001600160e01b031981166000908152602081905260409020546001600160a01b0316156107e95760405162461bcd60e51b815260206004820152600660248201526545584953545360d01b6044820152606401610124565b82516001600160e01b03198216600090815260208190526040902080546001600160a01b0319166001600160a01b03909216919091179055825161082d9082610fc0565b6109df565b60018360200151600281111561084a5761084a611940565b0361092b576001600160e01b031981166000908152602081905260409020546001600160a01b03166108a85760405162461bcd60e51b81526020600482015260076024820152664d495353494e4760c81b6044820152606401610124565b6001600160e01b0319811660009081526020819052604090205483516001600160a01b0391821691168114610925576108e18183611106565b83516001600160e01b03198316600090815260208190526040902080546001600160a01b0319166001600160a01b0390921691909117905583516109259083610fc0565b506109df565b60028360200151600281111561094357610943611940565b036109df576001600160e01b031981166000908152602081905260409020546001600160a01b03166109a15760405162461bcd60e51b81526020600482015260076024820152664d495353494e4760c81b6044820152606401610124565b6001600160e01b03198116600090815260208190526040902080546001600160a01b031981169091556001600160a01b03166109dd8183611106565b505b50806109ea8161196c565b915050610733565b505080806109ff9061196c565b915050610675565b507f8faa70878671ccd212d20771b795c50af8fd3ff6cf27f4bde57e5d4de0aeb6738585858585604051610a3f9594939291906119eb565b60405180910390a16001600160a01b03831615610adc57600080846001600160a01b03168484604051610a73929190611b18565b600060405180830381855af49150503d8060008114610aae576040519150601f19603f3d011682016040523d82523d6000602084013e610ab3565b606091505b5091509150818190610ad85760405162461bcd60e51b81526004016101249190611636565b5050505b5050505050565b606060058054610af29061177a565b80601f0160208091040260200160405190810160405280929190818152602001828054610b1e9061177a565b8015610b6b5780601f10610b4057610100808354040283529160200191610b6b565b820191906000526020600020905b815481529060010190602001808311610b4e57829003601f168201915b5050505050905090565b60606001805480602002602001604051908101604052809291908181526020018280548015610b6b57602002820191906000526020600020905b81546001600160a01b03168152600190910190602001808311610baf575050505050905090565b60015460609081908067ffffffffffffffff811115610bf757610bf76117ea565b604051908082528060200260200182016040528015610c20578160200160208202803683370190505b5092508067ffffffffffffffff811115610c3c57610c3c6117ea565b604051908082528060200260200182016040528015610c6f57816020015b6060815260200190600190039081610c5a5790505b50915060005b81811015610d9d57600060018281548110610c9257610c926117b4565b9060005260206000200160009054906101000a90046001600160a01b0316905080858381518110610cc557610cc56117b4565b6001600160a01b0392831660209182029290920181019190915290821660009081526002825260408082208054825181860281018601909352808352929391929091830182828015610d6357602002820191906000526020600020906000905b82829054906101000a900460e01b6001600160e01b03191681526020019060040190602082600301049283019260010382029150808411610d255790505b5050505050905080858481518110610d7d57610d7d6117b4565b602002602001018190525050508080610d959061196c565b915050610c75565b50509091565b6001600160a01b038116600090815260026020908152604091829020805483518184028101840190945280845260609392830182828015610e3057602002820191906000526020600020906000905b82829054906101000a900460e01b6001600160e01b03191681526020019060040190602082600301049283019260010382029150808411610df25790505b50505050509050919050565b6004546001600160a01b03163314610e7e5760405162461bcd60e51b815260206004820152600560248201526427aba722a960d91b6044820152606401610124565b6001600160a01b038116610ebd5760405162461bcd60e51b8152600401610124906020808252600490820152635a45524f60e01b604082015260600190565b6004546040516001600160a01b038084169216907f8be0079c531659141344cd1fd0a4f28419497f9722a3daafe3b4186f6b6457e090600090a3600480546001600160a01b0319166001600160a01b0392909216919091179055565b600080827fed67d0daff738ccf71298a47a56dc9ef98b1ffb107ed17a564642a6aed1dd4de604051602001610f58929190918252602082015260400190565b60408051601f1981840301815291905280516020909101209392505050565b6040805167ffffffffffffffff831660208201527f7f5b50c69171a0073d53951e48ad73b5f1c9430310c86e2f3d4ae27816378375918101919091526000908190606001610f58565b6001600160a01b0382166000908152600360205260408120549003611039576001805480820182557fb10e2d527612073b26eecdfd717e6a320cf44b4afac2b0732d9fcbe2b7fa0cf60180546001600160a01b0319166001600160a01b0385169081179091559054600091825260036020526040909120555b6001600160a01b0382166000908152600260205260408120905b81548110156110c357826001600160e01b031916828281548110611079576110796117b4565b90600052602060002090600891828204019190066004029054906101000a900460e01b6001600160e01b031916036110b15750505050565b806110bb8161196c565b915050611053565b508054600181018255600091825260209091206008820401805463ffffffff60079093166004026101000a928302191660e09390931c9190910291909117905550565b6001600160a01b0382166000908152600260205260408120905b815481101561125257826001600160e01b031916828281548110611146576111466117b4565b90600052602060002090600891828204019190066004029054906101000a900460e01b6001600160e01b03191603611240578154829061118890600190611b28565b81548110611198576111986117b4565b90600052602060002090600891828204019190066004029054906101000a900460e01b8282815481106111cd576111cd6117b4565b90600052602060002090600891828204019190066004026101000a81548163ffffffff021916908360e01c02179055508180548061120d5761120d611b3b565b600082815260209020600860001990920191820401805463ffffffff600460078516026101000a02191690559055611252565b8061124a8161196c565b915050611120565b508054600003611265576112658361126a565b505050565b6001600160a01b0381166000908152600360205260408120549081900361128f575050565b600061129c600183611b28565b600180549192506000916112b09190611b28565b905080821461134c576000600182815481106112ce576112ce6117b4565b600091825260209091200154600180546001600160a01b0390921692508291859081106112fd576112fd6117b4565b600091825260209091200180546001600160a01b0319166001600160a01b0392909216919091179055611331836001611b51565b6001600160a01b039091166000908152600360205260409020555b600180548061135d5761135d611b3b565b60008281526020808220830160001990810180546001600160a01b03191690559092019092556001600160a01b0395909516815260039094525050604082209190915550565b80356001600160e01b0319811681146113bb57600080fd5b919050565b6000602082840312156113d257600080fd5b6113db826113a3565b9392505050565b6000602082840312156113f457600080fd5b5035919050565b60006080820167ffffffffffffffff87168352602060808185015281875180845260a086019150828901935060005b818110156114465784518352938301939183019160010161142a565b50508481036040860152865180825290820192508187019060005b8181101561147d57825185529383019391830191600101611461565b5050505060609290920192909252949350505050565b6000602082840312156114a557600080fd5b813567ffffffffffffffff811681146113db57600080fd5b6000815180845260005b818110156114e3576020818501810151868301820152016114c7565b506000602082860101526020601f19601f83011685010191505092915050565b82815260406020820152600061151c60408301846114bd565b949350505050565b80356001600160a01b03811681146113bb57600080fd5b60008083601f84011261154d57600080fd5b50813567ffffffffffffffff81111561156557600080fd5b60208301915083602082850101111561157d57600080fd5b9250929050565b60008060008060006060868803121561159c57600080fd5b853567ffffffffffffffff808211156115b457600080fd5b818801915088601f8301126115c857600080fd5b8135818111156115d757600080fd5b8960208260051b85010111156115ec57600080fd5b6020830197508096505061160260208901611524565b9450604088013591508082111561161857600080fd5b506116258882890161153b565b969995985093965092949392505050565b6020815260006113db60208301846114bd565b600081518084526020808501945080840160005b838110156116825781516001600160a01b03168752958201959082019060010161165d565b509495945050505050565b6020815260006113db6020830184611649565b600081518084526020808501945080840160005b838110156116825781516001600160e01b031916875295820195908201906001016116b4565b6040815260006116ed6040830185611649565b6020838203818501528185518084528284019150828160051b85010183880160005b8381101561173d57601f1987840301855261172b8383516116a0565b9486019492509085019060010161170f565b50909998505050505050505050565b60006020828403121561175e57600080fd5b6113db82611524565b6020815260006113db60208301846116a0565b600181811c9082168061178e57607f821691505b6020821081036117ae57634e487b7160e01b600052602260045260246000fd5b50919050565b634e487b7160e01b600052603260045260246000fd5b60008235605e198336030181126117e057600080fd5b9190910192915050565b634e487b7160e01b600052604160045260246000fd5b6040516060810167ffffffffffffffff81118282101715611823576118236117ea565b60405290565b604051601f8201601f1916810167ffffffffffffffff81118282101715611852576118526117ea565b604052919050565b8035600381106113bb57600080fd5b60006060823603121561187b57600080fd5b611883611800565b61188c83611524565b8152602061189b81850161185a565b81830152604084013567ffffffffffffffff808211156118ba57600080fd5b9085019036601f8301126118cd57600080fd5b8135818111156118df576118df6117ea565b8060051b91506118f0848301611829565b818152918301840191848101903684111561190a57600080fd5b938501935b8385101561192f57611920856113a3565b8252938501939085019061190f565b604087015250939695505050505050565b634e487b7160e01b600052602160045260246000fd5b634e487b7160e01b600052601160045260246000fd5b60006001820161197e5761197e611956565b5060010190565b8183526000602080850194508260005b85811015611682576001600160e01b03196119af836113a3565b1687529582019590820190600101611995565b81835281816020850137506000828201602090810191909152601f909101601f19169091010190565b6060808252818101869052600090600560808085019089831b8601018a855b8b811015611ae557878303607f190184528135368e9003605e19018112611a3057600080fd5b8d016001600160a01b03611a4382611524565b1684526020611a5381830161185a565b60038110611a7157634e487b7160e01b600052602160045260246000fd5b8582015260408281013536849003601e19018112611a8e57600080fd5b90920181810192903567ffffffffffffffff811115611aac57600080fd5b80891b3603841315611abd57600080fd5b8982880152611acf8a88018286611985565b9783019796505050929092019150600101611a0a565b50506001600160a01b03891660208701528581036040870152611b0981888a6119c2565b9b9a5050505050505050505050565b8183823760009101908152919050565b8181038181111561045157610451611956565b634e487b7160e01b600052603160045260246000fd5b808201808211156104515761045161195656fea2646970667358221220a52d543407b88e4b9a8a6d9f7049f64bcb8b59761ccff3c5a3a50fe3318b39b964736f6c63430008150033",
  "linkReferences": {},
  "deployedLinkReferences": {}
}