{"contracts/facets/TriangulationFacet.sol":{"TriangulationFacet":{"abi":[{"inputs":[],"name":"ErrFeeTooHigh","type":"error"},{"inputs":[],"name":"ErrGovernanceRole","type":"error"},{"inputs":[],"name":"ErrRateUnset","type":"error"},{"anonymous":false,"inputs":[{"indexed":false,"internalType":"uint256","name":"oldFeeBps","type":"uint256"},{"indexed":false,"internalType":"uint256","name":"newFeeBps","type":"uint256"}],"name":"FeeUpdated","type":"event"},{"anonymous":false,"inputs":[{"indexed":true,"internalType":"bytes32","name":"fromAsset","type":"bytes32"},{"indexed":true,"internalType":"bytes32","name":"toAsset","type":"bytes32"},{"indexed":false,"internalType":"uint256","name":"rate","type":"uint256"}],"name":"RateSet","type":"event"},{"anonymous":false,"inputs":[{"indexed":true,"internalType":"bytes32","name":"fromAsset","type":"bytes32"},{"indexed":true,"internalType":"bytes32","name":"toAsset","type":"bytes32"},{"indexed":false,"internalType":"uint256","name":"inputAmount","type":"uint256"},{"indexed":false,"internalType":"uint256","name":"outputAmount","type":"uint256"}],"name":"Redeemed","type":"event"},{"anonymous":false,"inputs":[{"indexed":true,"internalType":"bytes32","name":"fromAsset","type":"bytes32"},{"indexed":true,"internalType":"bytes32","name":"toAsset","type":"bytes32"},{"indexed":false,"internalType":"uint256","name":"inputAmount","type":"uint256"},{"indexed":false,"internalType":"uint256","name":"outputAmount","type":"uint256"}],"name":"Triangulated","type":"event"},{"inputs":[],"name":"feeBps","outputs":[{"internalType":"uint256","name":"","type":"uint256"}],"stateMutability":"view","type":"function"},{"inputs":[{"internalType":"bytes32","name":"fromAsset","type":"bytes32"},{"internalType":"bytes32","name":"toAsset","type":"bytes32"}],"name":"getRate","outputs":[{"internalType":"uint256","name":"rate","type":"uint256"}],"stateMutability":"view","type":"function"},{"inputs":[{"internalType":"bytes32","name":"fromAsset","type":"bytes32"},{"internalType":"bytes32","name":"toAsset","type":"bytes32"},{"internalType":"uint256","name":"amount","type":"uint256"}],"name":"redeem","outputs":[{"internalType":"uint256","name":"outAmount","type":"uint256"}],"stateMutability":"nonpayable","type":"function"},{"inputs":[{"internalType":"uint256","name":"feeBps_","type":"uint256"}],"name":"setFees","outputs":[],"stateMutability":"nonpayable","type":"function"},{"inputs":[{"internalType":"bytes32","name":"fromAsset","type":"bytes32"},{"internalType":"bytes32","name":"toAsset","type":"bytes32"},{"internalType":"uint256","name":"rate","type":"uint256"}],"name":"setRate","outputs":[],"stateMutability":"nonpayable","type":"function"},{"inputs":[{"internalType":"bytes32","name":"fromAsset","type":"bytes32"},{"internalType":"bytes32","name":"toAsset","type":"bytes32"},{"internalType":"uint256","name":"amount","type":"uint256"}],"name":"triangulate","outputs":[{"internalType":"uint256","name":"outAmount","type":"uint256"}],"stateMutability":"nonpayable","type":"function"}],"evm":{"bytecode":{"linkReferences":{},"object":"608060405234801561001057600080fd5b50610700806100206000396000f3fe608060405234801561001057600080fd5b50600436106100625760003560e01c8063051fe9941461006757806324a9d853146100b15780633d18678e146100c65780637da02e6d146100db578063df4db9d5146100ee578063fd28b9c614610101575b600080fd5b61009f61007536600461058b565b600091825260008051602061068b8339815191526020908152604080842092845291905290205490565b60405190815260200160405180910390f35b6000805160206106ab8339815191525461009f565b6100d96100d43660046105ad565b610114565b005b61009f6100e93660046105c6565b610255565b61009f6100fc3660046105c6565b610346565b6100d961010f3660046105c6565b610425565b336001600160a01b0316306001600160a01b0316638da5cb5b6040518163ffffffff1660e01b8152600401602060405180830381865afa15801561015c573d6000803e3d6000fd5b505050506040513d601f19601f8201168201806040525081019061018091906105f2565b6001600160a01b0316141580156101c657503360009081527f9f684a81ee6e6fb92a5ae5a2560bb267d45aada2be40484754980c3e16e44d986020526040902054600216155b156101e45760405163030f2d0160e01b815260040160405180910390fd5b6101c281111561020757604051632e917a5b60e21b815260040160405180910390fd5b6000805160206106ab8339815191528054604080519182526020820184905280517f528d9479e9f9889a87a3c30c7f7ba537e5e59c4c85a37733b16e57c62df613029281900390910190a155565b600083815260008051602061068b833981519152602090815260408083208584529091528120546000805160206106ab833981519152908083036102ac5760405163cf412cc560e01b815260040160405180910390fd5b670de0b6b3a76400006102bf8286610638565b6102c99190610655565b925060006127108360000154856102e09190610638565b6102ea9190610655565b90506102f68185610677565b935085877f341359d52f66ee383b6b15ec2040e94c395dea2b6c8ab93ae926cbc2237a52e98787604051610334929190918252602082015260400190565b60405180910390a35050509392505050565b600083815260008051602061068b833981519152602090815260408083208584529091528120546000805160206106ab8339815191529080830361039d5760405163cf412cc560e01b815260040160405180910390fd5b670de0b6b3a76400006103b08286610638565b6103ba9190610655565b925060006127108360000154856103d19190610638565b6103db9190610655565b90506103e78185610677565b935085877f8682d2e78b5fd027850b8e4fc4f29f6a0a8cca06c99a31a069c0bbec592abd568787604051610334929190918252602082015260400190565b336001600160a01b0316306001600160a01b0316638da5cb5b6040518163ffffffff1660e01b8152600401602060405180830381865afa15801561046d573d6000803e3d6000fd5b505050506040513d601f19601f8201168201806040525081019061049191906105f2565b6001600160a01b0316141580156104d757503360009081527f9f684a81ee6e6fb92a5ae5a2560bb267d45aada2be40484754980c3e16e44d986020526040902054600216155b156104f55760405163030f2d0160e01b815260040160405180910390fd5b806000036105165760405163cf412cc560e01b815260040160405180910390fd5b600083815260008051602061068b83398151915260209081526040808320858452825291829020839055815183815291516000805160206106ab83398151915292859287927f519c20dedfa00d10e7f5aafa672eeaf02420ce07f96e9dabbf5d4d78e07a24219281900390910190a350505050565b6000806040838503121561059e57600080fd5b50508035926020909101359150565b6000602082840312156105bf57600080fd5b5035919050565b6000806000606084860312156105db57600080fd5b505081359360208301359350604090920135919050565b60006020828403121561060457600080fd5b81516001600160a01b038116811461061b57600080fd5b9392505050565b634e487b7160e01b600052601160045260246000fd5b808202811582820484141761064f5761064f610622565b92915050565b60008261067257634e487b7160e01b600052601260045260246000fd5b500490565b8181038181111561064f5761064f61062256fec7bb3c94db8505934cf43639cde1fc76ec964132b83b1fc071cef0d2c126b428c7bb3c94db8505934cf43639cde1fc76ec964132b83b1fc071cef0d2c126b427a2646970667358221220a48173165fe98a52cbd0c05e0d9495bfe8b46d9329bf3305692ba3533a7a763a64736f6c63430008150033","opcodes":"PUSH1 0x80 PUSH1 0x40 MSTORE CALLVALUE DUP1 ISZERO PUSH2 0x10 JUMPI PUSH1 0x0 DUP1 REVERT JUMPDEST POP PUSH2 0x700 DUP1 PUSH2 0x20 PUSH1 0x0 CODECOPY PUSH1 0x0 RETURN INVALID PUSH1 0x80 PUSH1 0x40 MSTORE CALLVALUE DUP1 ISZERO PUSH2 0x10 JUMPI PUSH1 0x0 DUP1 REVERT JUMPDEST POP PUSH1 0x4 CALLDATASIZE LT PUSH2 0x62 JUMPI PUSH1 0x0 CALLDATALOAD PUSH1 0xE0 SHR DUP1 PUSH4 0x51FE994 EQ PUSH2 0x67 JUMPI DUP1 PUSH4 0x24A9D853 EQ PUSH2 0xB1 JUMPI DUP1 PUSH4 0x3D18678E EQ PUSH2 0xC6 JUMPI DUP1 PUSH4 0x7DA02E6D EQ PUSH2 0xDB JUMPI DUP1 PUSH4 0xDF4DB9D5 EQ PUSH2 0xEE JUMPI DUP1 PUSH4 0xFD28B9C6 EQ PUSH2 0x101 JUMPI JUMPDEST PUSH1 0x0 DUP1 REVERT JUMPDEST PUSH2 0x9F PUSH2 0x75 CALLDATASIZE PUSH1 0x4 PUSH2 0x58B JUMP JUMPDEST PUSH1 0x0 SWAP2 DUP3 MSTORE PUSH1 0x0 DUP1 MLOAD PUSH1 0x20 PUSH2 0x68B DUP4 CODECOPY DUP2 MLOAD SWAP2 MSTORE PUSH1 0x20 SWAP1 DUP2 MSTORE PUSH1 0x40 DUP1 DUP5 KECCAK256 SWAP3 DUP5 MSTORE SWAP2 SWAP1 MSTORE SWAP1 KECCAK256 SLOAD SWAP1 JUMP JUMPDEST PUSH1 0x40 MLOAD SWAP1 DUP2 MSTORE PUSH1 0x20 ADD PUSH1 0x40 MLOAD DUP1 SWAP2 SUB SWAP1 RETURN JUMPDEST PUSH1 0x0 DUP1 MLOAD PUSH1 0x20 PUSH2 0x6AB DUP4 CODECOPY DUP2 MLOAD SWAP2 MSTORE SLOAD PUSH2 0x9F JUMP JUMPDEST PUSH2 0xD9 PUSH2 0xD4 CALLDATASIZE PUSH1 0x4 PUSH2 0x5AD JUMP JUMPDEST PUSH2 0x114 JUMP JUMPDEST STOP JUMPDEST PUSH2 0x9F PUSH2 0xE9 CALLDATASIZE PUSH1 0x4 PUSH2 0x5C6 JUMP JUMPDEST PUSH2 0x255 JUMP JUMPDEST PUSH2 0x9F PUSH2 0xFC CALLDATASIZE PUSH1 0x4 PUSH2 0x5C6 JUMP JUMPDEST PUSH2 0x346 JUMP JUMPDEST PUSH2 0xD9 PUSH2 0x10F CALLDATASIZE PUSH1 0x4 PUSH2 0x5C6 JUMP JUMPDEST PUSH2 0x425 JUMP JUMPDEST CALLER PUSH1 0x1 PUSH1 0x1 PUSH1 0xA0 SHL SUB AND ADDRESS PUSH1 0x1 PUSH1 0x1 PUSH1 0xA0 SHL SUB AND PUSH4 0x8DA5CB5B PUSH1 0x40 MLOAD DUP2 PUSH4 0xFFFFFFFF AND PUSH1 0xE0 SHL DUP2 MSTORE PUSH1 0x4 ADD PUSH1 0x20 PUSH1 0x40 MLOAD DUP1 DUP4 SUB DUP2 DUP7 GAS STATICCALL ISZERO DUP1 ISZERO PUSH2 0x15C JUMPI RETURNDATASIZE PUSH1 0x0 DUP1 RETURNDATACOPY RETURNDATASIZE PUSH1 0x0 REVERT JUMPDEST POP POP POP POP PUSH1 0x40 MLOAD RETURNDATASIZE PUSH1 0x1F NOT PUSH1 0x1F DUP3 ADD AND DUP3 ADD DUP1 PUSH1 0x40 MSTORE POP DUP2 ADD SWAP1 PUSH2 0x180 SWAP2 SWAP1 PUSH2 0x5F2 JUMP JUMPDEST PUSH1 0x1 PUSH1 0x1 PUSH1 0xA0 SHL SUB AND EQ ISZERO DUP1 ISZERO PUSH2 0x1C6 JUMPI POP CALLER PUSH1 0x0 SWAP1 DUP2 MSTORE PUSH32 0x9F684A81EE6E6FB92A5AE5A2560BB267D45AADA2BE40484754980C3E16E44D98 PUSH1 0x20 MSTORE PUSH1 0x40 SWAP1 KECCAK256 SLOAD PUSH1 0x2 AND ISZERO JUMPDEST ISZERO PUSH2 0x1E4 JUMPI PUSH1 0x40 MLOAD PUSH4 0x30F2D01 PUSH1 0xE0 SHL DUP2 MSTORE PUSH1 0x4 ADD PUSH1 0x40 MLOAD DUP1 SWAP2 SUB SWAP1 REVERT JUMPDEST PUSH2 0x1C2 DUP2 GT ISZERO PUSH2 0x207 JUMPI PUSH1 0x40 MLOAD PUSH4 0x2E917A5B PUSH1 0xE2 SHL DUP2 MSTORE PUSH1 0x4 ADD PUSH1 0x40 MLOAD DUP1 SWAP2 SUB SWAP1 REVERT JUMPDEST PUSH1 0x0 DUP1 MLOAD PUSH1 0x20 PUSH2 0x6AB DUP4 CODECOPY DUP2 MLOAD SWAP2 MSTORE DUP1 SLOAD PUSH1 0x40 DUP1 MLOAD SWAP2 DUP3 MSTORE PUSH1 0x20 DUP3 ADD DUP5 SWAP1 MSTORE DUP1 MLOAD PUSH32 0x528D9479E9F9889A87A3C30C7F7BA537E5E59C4C85A37733B16E57C62DF61302 SWAP3 DUP2 SWAP1 SUB SWAP1 SWAP2 ADD SWAP1 LOG1 SSTORE JUMP JUMPDEST PUSH1 0x0 DUP4 DUP2 MSTORE PUSH1 0x0 DUP1 MLOAD PUSH1 0x20 PUSH2 0x68B DUP4 CODECOPY DUP2 MLOAD SWAP2 MSTORE PUSH1 0x20 SWAP1 DUP2 MSTORE PUSH1 0x40 DUP1 DUP4 KECCAK256 DUP6 DUP5 MSTORE SWAP1 SWAP2 MSTORE DUP2 KECCAK256 SLOAD PUSH1 0x0 DUP1 MLOAD PUSH1 0x20 PUSH2 0x6AB DUP4 CODECOPY DUP2 MLOAD SWAP2 MSTORE SWAP1 DUP1 DUP4 SUB PUSH2 0x2AC JUMPI PUSH1 0x40 MLOAD PUSH4 0xCF412CC5 PUSH1 0xE0 SHL DUP2 MSTORE PUSH1 0x4 ADD PUSH1 0x40 MLOAD DUP1 SWAP2 SUB SWAP1 REVERT JUMPDEST PUSH8 0xDE0B6B3A7640000 PUSH2 0x2BF DUP3 DUP7 PUSH2 0x638 JUMP JUMPDEST PUSH2 0x2C9 SWAP2 SWAP1 PUSH2 0x655 JUMP JUMPDEST SWAP3 POP PUSH1 0x0 PUSH2 0x2710 DUP4 PUSH1 0x0 ADD SLOAD DUP6 PUSH2 0x2E0 SWAP2 SWAP1 PUSH2 0x638 JUMP JUMPDEST PUSH2 0x2EA SWAP2 SWAP1 PUSH2 0x655 JUMP JUMPDEST SWAP1 POP PUSH2 0x2F6 DUP2 DUP6 PUSH2 0x677 JUMP JUMPDEST SWAP4 POP DUP6 DUP8 PUSH32 0x341359D52F66EE383B6B15EC2040E94C395DEA2B6C8AB93AE926CBC2237A52E9 DUP8 DUP8 PUSH1 0x40 MLOAD PUSH2 0x334 SWAP3 SWAP2 SWAP1 SWAP2 DUP3 MSTORE PUSH1 0x20 DUP3 ADD MSTORE PUSH1 0x40 ADD SWAP1 JUMP JUMPDEST PUSH1 0x40 MLOAD DUP1 SWAP2 SUB SWAP1 LOG3 POP POP POP SWAP4 SWAP3 POP POP POP JUMP JUMPDEST PUSH1 0x0 DUP4 DUP2 MSTORE PUSH1 0x0 DUP1 MLOAD PUSH1 0x20 PUSH2 0x68B DUP4 CODECOPY DUP2 MLOAD SWAP2 MSTORE PUSH1 0x20 SWAP1 DUP2 MSTORE PUSH1 0x40 DUP1 DUP4 KECCAK256 DUP6 DUP5 MSTORE SWAP1 SWAP2 MSTORE DUP2 KECCAK256 SLOAD PUSH1 0x0 DUP1 MLOAD PUSH1 0x20 PUSH2 0x6AB DUP4 CODECOPY DUP2 MLOAD SWAP2 MSTORE SWAP1 DUP1 DUP4 SUB PUSH2 0x39D JUMPI PUSH1 0x40 MLOAD PUSH4 0xCF412CC5 PUSH1 0xE0 SHL DUP2 MSTORE PUSH1 0x4 ADD PUSH1 0x40 MLOAD DUP1 SWAP2 SUB SWAP1 REVERT JUMPDEST PUSH8 0xDE0B6B3A7640000 PUSH2 0x3B0 DUP3 DUP7 PUSH2 0x638 JUMP JUMPDEST PUSH2 0x3BA SWAP2 SWAP1 PUSH2 0x655 JUMP JUMPDEST SWAP3 POP PUSH1 0x0 PUSH2 0x2710 DUP4 PUSH1 0x0 ADD SLOAD DUP6 PUSH2 0x3D1 SWAP2 SWAP1 PUSH2 0x638 JUMP JUMPDEST PUSH2 0x3DB SWAP2 SWAP1 PUSH2 0x655 JUMP JUMPDEST SWAP1 POP PUSH2 0x3E7 DUP2 DUP6 PUSH2 0x677 JUMP JUMPDEST SWAP4 POP DUP6 DUP8 PUSH32 0x8682D2E78B5FD027850B8E4FC4F29F6A0A8CCA06C99A31A069C0BBEC592ABD56 DUP8 DUP8 PUSH1 0x40 MLOAD PUSH2 0x334 SWAP3 SWAP2 SWAP1 SWAP2 DUP3 MSTORE PUSH1 0x20 DUP3 ADD MSTORE PUSH1 0x40 ADD SWAP1 JUMP JUMPDEST CALLER PUSH1 0x1 PUSH1 0x1 PUSH1 0xA0 SHL SUB AND ADDRESS PUSH1 0x1 PUSH1 0x1 PUSH1 0xA0 SHL SUB AND PUSH4 0x8DA5CB5B PUSH1 0x40 MLOAD DUP2 PUSH4 0xFFFFFFFF AND PUSH1 0xE0 SHL DUP2 MSTORE PUSH1 0x4 ADD PUSH1 0x20 PUSH1 0x40 MLOAD DUP1 DUP4 SUB DUP2 DUP7 GAS STATICCALL ISZERO DUP1 ISZERO PUSH2 0x46D JUMPI RETURNDATASIZE PUSH1 0x0 DUP1 RETURNDATACOPY RETURNDATASIZE PUSH1 0x0 REVERT JUMPDEST POP POP POP POP PUSH1 0x40 MLOAD RETURNDATASIZE PUSH1 0x1F NOT PUSH1 0x1F DUP3 ADD AND DUP3 ADD DUP1 PUSH1 0x40 MSTORE POP DUP2 ADD SWAP1 PUSH2 0x491 SWAP2 SWAP1 PUSH2 0x5F2 JUMP JUMPDEST PUSH1 0x1 PUSH1 0x1 PUSH1 0xA0 SHL SUB AND EQ ISZERO DUP1 ISZERO PUSH2 0x4D7 JUMPI POP CALLER PUSH1 0x0 SWAP1 DUP2 MSTORE PUSH32 0x9F684A81EE6E6FB92A5AE5A2560BB267D45AADA2BE40484754980C3E16E44D98 PUSH1 0x20 MSTORE PUSH1 0x40 SWAP1 KECCAK256 SLOAD PUSH1 0x2 AND ISZERO JUMPDEST ISZERO PUSH2 0x4F5 JUMPI PUSH1 0x40 MLOAD PUSH4 0x30F2D01 PUSH1 0xE0 SHL DUP2 MSTORE PUSH1 0x4 ADD PUSH1 0x40 MLOAD DUP1 SWAP2 SUB SWAP1 REVERT JUMPDEST DUP1 PUSH1 0x0 SUB PUSH2 0x516 JUMPI PUSH1 0x40 MLOAD PUSH4 0xCF412CC5 PUSH1 0xE0 SHL DUP2 MSTORE PUSH1 0x4 ADD PUSH1 0x40 MLOAD DUP1 SWAP2 SUB SWAP1 REVERT JUMPDEST PUSH1 0x0 DUP4 DUP2 MSTORE PUSH1 0x0 DUP1 MLOAD PUSH1 0x20 PUSH2 0x68B DUP4 CODECOPY DUP2 MLOAD SWAP2 MSTORE PUSH1 0x20 SWAP1 DUP2 MSTORE PUSH1 0x40 DUP1 DUP4 KECCAK256 DUP6 DUP5 MSTORE DUP3 MSTORE SWAP2 DUP3 SWAP1 KECCAK256 DUP4 SWAP1 SSTORE DUP2 MLOAD DUP4 DUP2 MSTORE SWAP2 MLOAD PUSH1 0x0 DUP1 MLOAD PUSH1 0x20 PUSH2 0x6AB DUP4 CODECOPY DUP2 MLOAD SWAP2 MSTORE SWAP3 DUP6 SWAP3 DUP8 SWAP3 PUSH32 0x519C20DEDFA00D10E7F5AAFA672EEAF02420CE07F96E9DABBF5D4D78E07A2421 SWAP3 DUP2 SWAP1 SUB SWAP1 SWAP2 ADD SWAP1 LOG3 POP POP POP POP JUMP JUMPDEST PUSH1 0x0 DUP1 PUSH1 0x40 DUP4 DUP6 SUB SLT ISZERO PUSH2 0x59E JUMPI PUSH1 0x0 DUP1 REVERT JUMPDEST POP POP DUP1 CALLDATALOAD SWAP3 PUSH1 0x20 SWAP1 SWAP2 ADD CALLDATALOAD SWAP2 POP JUMP JUMPDEST PUSH1 0x0 PUSH1 0x20 DUP3 DUP5 SUB SLT ISZERO PUSH2 0x5BF JUMPI PUSH1 0x0 DUP1 REVERT JUMPDEST POP CALLDATALOAD SWAP2 SWAP1 POP JUMP JUMPDEST PUSH1 0x0 DUP1 PUSH1 0x0 PUSH1 0x60 DUP5 DUP7 SUB SLT ISZERO PUSH2 0x5DB JUMPI PUSH1 0x0 DUP1 REVERT JUMPDEST POP POP DUP2 CALLDATALOAD SWAP4 PUSH1 0x20 DUP4 ADD CALLDATALOAD SWAP4 POP PUSH1 0x40 SWAP1 SWAP3 ADD CALLDATALOAD SWAP2 SWAP1 POP JUMP JUMPDEST PUSH1 0x0 PUSH1 0x20 DUP3 DUP5 SUB SLT ISZERO PUSH2 0x604 JUMPI PUSH1 0x0 DUP1 REVERT JUMPDEST DUP2 MLOAD PUSH1 0x1 PUSH1 0x1 PUSH1 0xA0 SHL SUB DUP2 AND DUP2 EQ PUSH2 0x61B JUMPI PUSH1 0x0 DUP1 REVERT JUMPDEST SWAP4 SWAP3 POP POP POP JUMP JUMPDEST PUSH4 0x4E487B71 PUSH1 0xE0 SHL PUSH1 0x0 MSTORE PUSH1 0x11 PUSH1 0x4 MSTORE PUSH1 0x24 PUSH1 0x0 REVERT JUMPDEST DUP1 DUP3 MUL DUP2 ISZERO DUP3 DUP3 DIV DUP5 EQ OR PUSH2 0x64F JUMPI PUSH2 0x64F PUSH2 0x622 JUMP JUMPDEST SWAP3 SWAP2 POP POP JUMP JUMPDEST PUSH1 0x0 DUP3 PUSH2 0x672 JUMPI PUSH4 0x4E487B71 PUSH1 0xE0 SHL PUSH1 0x0 MSTORE PUSH1 0x12 PUSH1 0x4 MSTORE PUSH1 0x24 PUSH1 0x0 REVERT JUMPDEST POP DIV SWAP1 JUMP JUMPDEST DUP2 DUP2 SUB DUP2 DUP2 GT ISZERO PUSH2 0x64F JUMPI PUSH2 0x64F PUSH2 0x622 JUMP INVALID 0xC7 0xBB EXTCODECOPY SWAP5 0xDB DUP6 SDIV SWAP4 0x4C DELEGATECALL CALLDATASIZE CODECOPY 0xCD 0xE1 0xFC PUSH23 0xEC964132B83B1FC071CEF0D2C126B428C7BB3C94DB8505 SWAP4 0x4C DELEGATECALL CALLDATASIZE CODECOPY 0xCD 0xE1 0xFC PUSH23 0xEC964132B83B1FC071CEF0D2C126B427A2646970667358 0x22 SLT KECCAK256 LOG4 DUP2 PUSH20 0x165FE98A52CBD0C05E0D9495BFE8B46D9329BF33 SDIV PUSH10 0x2BA3533A7A763A64736F PUSH13 0x63430008150033000000000000 "},"methodIdentifiers":{"feeBps()":"24a9d853","getRate(bytes32,bytes32)":"051fe994","redeem(bytes32,bytes32,uint256)":"7da02e6d","setFees(uint256)":"3d18678e","setRate(bytes32,bytes32,uint256)":"fd28b9c6","triangulate(bytes32,bytes32,uint256)":"df4db9d5"}}}}}