{"contracts/facets/IndexFacet.sol":{"IndexFacet":{"abi":[{"inputs":[],"name":"ErrIndexRole","type":"error"},{"inputs":[],"name":"ErrLengthMismatch","type":"error"},{"inputs":[],"name":"ErrSumInvalid","type":"error"},{"anonymous":false,"inputs":[{"indexed":true,"internalType":"bytes32","name":"dashboardHash","type":"bytes32"},{"indexed":false,"internalType":"uint64","name":"globalVersion","type":"uint64"},{"indexed":false,"internalType":"uint256","name":"liCRI","type":"uint256"},{"indexed":false,"internalType":"uint256","name":"timestamp","type":"uint256"}],"name":"DashboardSnapshot","type":"event"},{"anonymous":false,"inputs":[{"indexed":true,"internalType":"bytes32","name":"id","type":"bytes32"},{"indexed":false,"internalType":"uint64","name":"version","type":"uint64"}],"name":"IndexWeightsUpdated","type":"event"},{"inputs":[{"internalType":"bytes32","name":"indexId","type":"bytes32"}],"name":"getIndex","outputs":[{"internalType":"uint64","name":"version","type":"uint64"},{"internalType":"bytes32[]","name":"keys","type":"bytes32[]"},{"internalType":"uint256[]","name":"weights","type":"uint256[]"},{"internalType":"bytes32","name":"dashboardHash","type":"bytes32"}],"stateMutability":"view","type":"function"},{"inputs":[{"internalType":"bytes32","name":"indexId","type":"bytes32"}],"name":"getIndexValue","outputs":[{"internalType":"uint256","name":"","type":"uint256"}],"stateMutability":"view","type":"function"},{"inputs":[],"name":"getLiCRI","outputs":[{"internalType":"uint256","name":"","type":"uint256"}],"stateMutability":"view","type":"function"},{"inputs":[{"internalType":"bytes32[]","name":"componentIds","type":"bytes32[]"},{"internalType":"uint256[]","name":"componentValues","type":"uint256[]"}],"name":"recalcLiCRI","outputs":[{"internalType":"uint256","name":"faceValueComposite","type":"uint256"}],"stateMutability":"nonpayable","type":"function"},{"inputs":[{"internalType":"bytes32","name":"dashboardHash","type":"bytes32"},{"internalType":"uint256","name":"liCRI","type":"uint256"},{"internalType":"uint64","name":"globalVersion","type":"uint64"}],"name":"setDashboardComposite","outputs":[],"stateMutability":"nonpayable","type":"function"},{"inputs":[{"internalType":"bytes32","name":"indexId","type":"bytes32"},{"internalType":"uint256","name":"value","type":"uint256"}],"name":"setIndexValue","outputs":[],"stateMutability":"nonpayable","type":"function"},{"inputs":[{"internalType":"bytes32","name":"indexId","type":"bytes32"},{"internalType":"bytes32[]","name":"keys","type":"bytes32[]"},{"internalType":"uint256[]","name":"weights","type":"uint256[]"},{"internalType":"uint64","name":"version","type":"uint64"},{"internalType":"bytes32","name":"dashboardHash","type":"bytes32"}],"name":"setWeights","outputs":[],"stateMutability":"nonpayable","type":"function"}],"evm":{"bytecode":{"linkReferences":{},"object":"608060405234801561001057600080fd5b50610b28806100206000396000f3fe608060405234801561001057600080fd5b506004361061007d5760003560e01c80638527831b1161005b5780638527831b146100d0578063a28de244146100f3578063c0af218d1461011a578063c0f2d5f71461012d57600080fd5b806351d7bc851461008257806355f62ed9146100975780637a58d26a146100bd575b600080fd5b61009561009036600461084a565b610140565b005b6100aa6100a53660046108de565b61032f565b6040519081526020015b60405180910390f35b6100956100cb3660046108f7565b610378565b6100e36100de3660046108de565b610461565b6040516100b4949392919061092c565b7fed67d0daff738ccf71298a47a56dc9ef98b1ffb107ed17a564642a6aed1dd4df546100aa565b6100aa6101283660046109c4565b61053c565b61009561013b366004610a30565b61068d565b336000908152600080516020610ad38339815191526020526040812054600416900361017f5760405163326aaca960e11b815260040160405180910390fd5b84831461019f5760405163ab3a7f9960e01b815260040160405180910390fd5b6000805b848110156101e3578585828181106101bd576101bd610a52565b90506020020135826101cf9190610a7e565b9150806101db81610a97565b9150506101a3565b5080670de0b6b3a76400001461020c5760405163044c9ce160e41b815260040160405180910390fd5b600061021789610749565b805467ffffffffffffffff191667ffffffffffffffff86161781556001810184905590506102496002820160006107a7565b6102576003820160006107a7565b60005b878110156102e4578160020189898381811061027857610278610a52565b83546001810185556000948552602094859020919094029290920135919092015550600382018787838181106102b0576102b0610a52565b83546001810185556000948552602094859020919094029290920135919092015550806102dc81610a97565b91505061025a565b5060405167ffffffffffffffff8516815289907fd0bb3ba69f84be3b2eb470a3881f792dce20c4a660a4c1833fd576d38f7fa6ca9060200160405180910390a2505050505050505050565b60008061033b83610749565b60038101549091501561036e578060030160008154811061035e5761035e610a52565b9060005260206000200154610371565b60005b9392505050565b336000908152600080516020610ad3833981519152602052604081205460041690036103b75760405163326aaca960e11b815260040160405180910390fd5b7fed67d0daff738ccf71298a47a56dc9ef98b1ffb107ed17a564642a6aed1dd4df8290557fed67d0daff738ccf71298a47a56dc9ef98b1ffb107ed17a564642a6aed1dd4de805467ffffffffffffffff831667ffffffffffffffff1990911681178255604080519182526020820185905242828201525185917f6519f20914a226ac2380da7d29c110df4a8a62167ed605e3d5b09beb78933513919081900360600190a250505050565b600060608060008061047286610749565b805460018201546002830180546040805160208084028201810190925282815267ffffffffffffffff9095169a509296509394509192908301828280156104d857602002820191906000526020600020905b8154815260200190600101908083116104c4575b505050505093508060030180548060200260200160405190810160405280929190818152602001828054801561052d57602002820191906000526020600020905b815481526020019060010190808311610519575b50505050509250509193509193565b336000908152600080516020610ad38339815191526020526040812054600416810361057b5760405163326aaca960e11b815260040160405180910390fd5b83821461059b5760405163ab3a7f9960e01b815260040160405180910390fd5b6000805b838110156105df578484828181106105b9576105b9610a52565b90506020020135826105cb9190610a7e565b9150806105d781610a97565b91505061059f565b506105ea8382610ab0565b7fed67d0daff738ccf71298a47a56dc9ef98b1ffb107ed17a564642a6aed1dd4df8190557fed67d0daff738ccf71298a47a56dc9ef98b1ffb107ed17a564642a6aed1dd4de80546040805167ffffffffffffffff90921682526020820184905242828201525192945090916000917f6519f20914a226ac2380da7d29c110df4a8a62167ed605e3d5b09beb78933513919081900360600190a25050949350505050565b336000908152600080516020610ad3833981519152602052604081205460041690036106cc5760405163326aaca960e11b815260040160405180910390fd5b60006106d783610749565b60028101549091506000036107215760028101805460018082018355600092835260208084206456414c554560d81b93019290925560039093018054938401815582529020015550565b818160030160008154811061073857610738610a52565b600091825260209091200155505050565b600080827fed67d0daff738ccf71298a47a56dc9ef98b1ffb107ed17a564642a6aed1dd4de604051602001610788929190918252602082015260400190565b60408051601f1981840301815291905280516020909101209392505050565b50805460008255906000526020600020908101906107c591906107c8565b50565b5b808211156107dd57600081556001016107c9565b5090565b60008083601f8401126107f357600080fd5b50813567ffffffffffffffff81111561080b57600080fd5b6020830191508360208260051b850101111561082657600080fd5b9250929050565b803567ffffffffffffffff8116811461084557600080fd5b919050565b600080600080600080600060a0888a03121561086557600080fd5b87359650602088013567ffffffffffffffff8082111561088457600080fd5b6108908b838c016107e1565b909850965060408a01359150808211156108a957600080fd5b506108b68a828b016107e1565b90955093506108c990506060890161082d565b91506080880135905092959891949750929550565b6000602082840312156108f057600080fd5b5035919050565b60008060006060848603121561090c57600080fd5b83359250602084013591506109236040850161082d565b90509250925092565b60006080820167ffffffffffffffff87168352602060808185015281875180845260a086019150828901935060005b818110156109775784518352938301939183019160010161095b565b50508481036040860152865180825290820192508187019060005b818110156109ae57825185529383019391830191600101610992565b5050505060609290920192909252949350505050565b600080600080604085870312156109da57600080fd5b843567ffffffffffffffff808211156109f257600080fd5b6109fe888389016107e1565b90965094506020870135915080821115610a1757600080fd5b50610a24878288016107e1565b95989497509550505050565b60008060408385031215610a4357600080fd5b50508035926020909101359150565b634e487b7160e01b600052603260045260246000fd5b634e487b7160e01b600052601160045260246000fd5b80820180821115610a9157610a91610a68565b92915050565b600060018201610aa957610aa9610a68565b5060010190565b600082610acd57634e487b7160e01b600052601260045260246000fd5b50049056fe9f684a81ee6e6fb92a5ae5a2560bb267d45aada2be40484754980c3e16e44d98a26469706673582212209f2bbeaf2ccc27ee38126edb475dc26b893628a6dea3ce3ce78518d37450002064736f6c63430008150033","opcodes":"PUSH1 0x80 PUSH1 0x40 MSTORE CALLVALUE DUP1 ISZERO PUSH2 0x10 JUMPI PUSH1 0x0 DUP1 REVERT JUMPDEST POP PUSH2 0xB28 DUP1 PUSH2 0x20 PUSH1 0x0 CODECOPY PUSH1 0x0 RETURN INVALID PUSH1 0x80 PUSH1 0x40 MSTORE CALLVALUE DUP1 ISZERO PUSH2 0x10 JUMPI PUSH1 0x0 DUP1 REVERT JUMPDEST POP PUSH1 0x4 CALLDATASIZE LT PUSH2 0x7D JUMPI PUSH1 0x0 CALLDATALOAD PUSH1 0xE0 SHR DUP1 PUSH4 0x8527831B GT PUSH2 0x5B JUMPI DUP1 PUSH4 0x8527831B EQ PUSH2 0xD0 JUMPI DUP1 PUSH4 0xA28DE244 EQ PUSH2 0xF3 JUMPI DUP1 PUSH4 0xC0AF218D EQ PUSH2 0x11A JUMPI DUP1 PUSH4 0xC0F2D5F7 EQ PUSH2 0x12D JUMPI PUSH1 0x0 DUP1 REVERT JUMPDEST DUP1 PUSH4 0x51D7BC85 EQ PUSH2 0x82 JUMPI DUP1 PUSH4 0x55F62ED9 EQ PUSH2 0x97 JUMPI DUP1 PUSH4 0x7A58D26A EQ PUSH2 0xBD JUMPI JUMPDEST PUSH1 0x0 DUP1 REVERT JUMPDEST PUSH2 0x95 PUSH2 0x90 CALLDATASIZE PUSH1 0x4 PUSH2 0x84A JUMP JUMPDEST PUSH2 0x140 JUMP JUMPDEST STOP JUMPDEST PUSH2 0xAA PUSH2 0xA5 CALLDATASIZE PUSH1 0x4 PUSH2 0x8DE JUMP JUMPDEST PUSH2 0x32F JUMP JUMPDEST PUSH1 0x40 MLOAD SWAP1 DUP2 MSTORE PUSH1 0x20 ADD JUMPDEST PUSH1 0x40 MLOAD DUP1 SWAP2 SUB SWAP1 RETURN JUMPDEST PUSH2 0x95 PUSH2 0xCB CALLDATASIZE PUSH1 0x4 PUSH2 0x8F7 JUMP JUMPDEST PUSH2 0x378 JUMP JUMPDEST PUSH2 0xE3 PUSH2 0xDE CALLDATASIZE PUSH1 0x4 PUSH2 0x8DE JUMP JUMPDEST PUSH2 0x461 JUMP JUMPDEST PUSH1 0x40 MLOAD PUSH2 0xB4 SWAP5 SWAP4 SWAP3 SWAP2 SWAP1 PUSH2 0x92C JUMP JUMPDEST PUSH32 0xED67D0DAFF738CCF71298A47A56DC9EF98B1FFB107ED17A564642A6AED1DD4DF SLOAD PUSH2 0xAA JUMP JUMPDEST PUSH2 0xAA PUSH2 0x128 CALLDATASIZE PUSH1 0x4 PUSH2 0x9C4 JUMP JUMPDEST PUSH2 0x53C JUMP JUMPDEST PUSH2 0x95 PUSH2 0x13B CALLDATASIZE PUSH1 0x4 PUSH2 0xA30 JUMP JUMPDEST PUSH2 0x68D JUMP JUMPDEST CALLER PUSH1 0x0 SWAP1 DUP2 MSTORE PUSH1 0x0 DUP1 MLOAD PUSH1 0x20 PUSH2 0xAD3 DUP4 CODECOPY DUP2 MLOAD SWAP2 MSTORE PUSH1 0x20 MSTORE PUSH1 0x40 DUP2 KECCAK256 SLOAD PUSH1 0x4 AND SWAP1 SUB PUSH2 0x17F JUMPI PUSH1 0x40 MLOAD PUSH4 0x326AACA9 PUSH1 0xE1 SHL DUP2 MSTORE PUSH1 0x4 ADD PUSH1 0x40 MLOAD DUP1 SWAP2 SUB SWAP1 REVERT JUMPDEST DUP5 DUP4 EQ PUSH2 0x19F JUMPI PUSH1 0x40 MLOAD PUSH4 0xAB3A7F99 PUSH1 0xE0 SHL DUP2 MSTORE PUSH1 0x4 ADD PUSH1 0x40 MLOAD DUP1 SWAP2 SUB SWAP1 REVERT JUMPDEST PUSH1 0x0 DUP1 JUMPDEST DUP5 DUP2 LT ISZERO PUSH2 0x1E3 JUMPI DUP6 DUP6 DUP3 DUP2 DUP2 LT PUSH2 0x1BD JUMPI PUSH2 0x1BD PUSH2 0xA52 JUMP JUMPDEST SWAP1 POP PUSH1 0x20 MUL ADD CALLDATALOAD DUP3 PUSH2 0x1CF SWAP2 SWAP1 PUSH2 0xA7E JUMP JUMPDEST SWAP2 POP DUP1 PUSH2 0x1DB DUP2 PUSH2 0xA97 JUMP JUMPDEST SWAP2 POP POP PUSH2 0x1A3 JUMP JUMPDEST POP DUP1 PUSH8 0xDE0B6B3A7640000 EQ PUSH2 0x20C JUMPI PUSH1 0x40 MLOAD PUSH4 0x44C9CE1 PUSH1 0xE4 SHL DUP2 MSTORE PUSH1 0x4 ADD PUSH1 0x40 MLOAD DUP1 SWAP2 SUB SWAP1 REVERT JUMPDEST PUSH1 0x0 PUSH2 0x217 DUP10 PUSH2 0x749 JUMP JUMPDEST DUP1 SLOAD PUSH8 0xFFFFFFFFFFFFFFFF NOT AND PUSH8 0xFFFFFFFFFFFFFFFF DUP7 AND OR DUP2 SSTORE PUSH1 0x1 DUP2 ADD DUP5 SWAP1 SSTORE SWAP1 POP PUSH2 0x249 PUSH1 0x2 DUP3 ADD PUSH1 0x0 PUSH2 0x7A7 JUMP JUMPDEST PUSH2 0x257 PUSH1 0x3 DUP3 ADD PUSH1 0x0 PUSH2 0x7A7 JUMP JUMPDEST PUSH1 0x0 JUMPDEST DUP8 DUP2 LT ISZERO PUSH2 0x2E4 JUMPI DUP2 PUSH1 0x2 ADD DUP10 DUP10 DUP4 DUP2 DUP2 LT PUSH2 0x278 JUMPI PUSH2 0x278 PUSH2 0xA52 JUMP JUMPDEST DUP4 SLOAD PUSH1 0x1 DUP2 ADD DUP6 SSTORE PUSH1 0x0 SWAP5 DUP6 MSTORE PUSH1 0x20 SWAP5 DUP6 SWAP1 KECCAK256 SWAP2 SWAP1 SWAP5 MUL SWAP3 SWAP1 SWAP3 ADD CALLDATALOAD SWAP2 SWAP1 SWAP3 ADD SSTORE POP PUSH1 0x3 DUP3 ADD DUP8 DUP8 DUP4 DUP2 DUP2 LT PUSH2 0x2B0 JUMPI PUSH2 0x2B0 PUSH2 0xA52 JUMP JUMPDEST DUP4 SLOAD PUSH1 0x1 DUP2 ADD DUP6 SSTORE PUSH1 0x0 SWAP5 DUP6 MSTORE PUSH1 0x20 SWAP5 DUP6 SWAP1 KECCAK256 SWAP2 SWAP1 SWAP5 MUL SWAP3 SWAP1 SWAP3 ADD CALLDATALOAD SWAP2 SWAP1 SWAP3 ADD SSTORE POP DUP1 PUSH2 0x2DC DUP2 PUSH2 0xA97 JUMP JUMPDEST SWAP2 POP POP PUSH2 0x25A JUMP JUMPDEST POP PUSH1 0x40 MLOAD PUSH8 0xFFFFFFFFFFFFFFFF DUP6 AND DUP2 MSTORE DUP10 SWAP1 PUSH32 0xD0BB3BA69F84BE3B2EB470A3881F792DCE20C4A660A4C1833FD576D38F7FA6CA SWAP1 PUSH1 0x20 ADD PUSH1 0x40 MLOAD DUP1 SWAP2 SUB SWAP1 LOG2 POP POP POP POP POP POP POP POP POP JUMP JUMPDEST PUSH1 0x0 DUP1 PUSH2 0x33B DUP4 PUSH2 0x749 JUMP JUMPDEST PUSH1 0x3 DUP2 ADD SLOAD SWAP1 SWAP2 POP ISZERO PUSH2 0x36E JUMPI DUP1 PUSH1 0x3 ADD PUSH1 0x0 DUP2 SLOAD DUP2 LT PUSH2 0x35E JUMPI PUSH2 0x35E PUSH2 0xA52 JUMP JUMPDEST SWAP1 PUSH1 0x0 MSTORE PUSH1 0x20 PUSH1 0x0 KECCAK256 ADD SLOAD PUSH2 0x371 JUMP JUMPDEST PUSH1 0x0 JUMPDEST SWAP4 SWAP3 POP POP POP JUMP JUMPDEST CALLER PUSH1 0x0 SWAP1 DUP2 MSTORE PUSH1 0x0 DUP1 MLOAD PUSH1 0x20 PUSH2 0xAD3 DUP4 CODECOPY DUP2 MLOAD SWAP2 MSTORE PUSH1 0x20 MSTORE PUSH1 0x40 DUP2 KECCAK256 SLOAD PUSH1 0x4 AND SWAP1 SUB PUSH2 0x3B7 JUMPI PUSH1 0x40 MLOAD PUSH4 0x326AACA9 PUSH1 0xE1 SHL DUP2 MSTORE PUSH1 0x4 ADD PUSH1 0x40 MLOAD DUP1 SWAP2 SUB SWAP1 REVERT JUMPDEST PUSH32 0xED67D0DAFF738CCF71298A47A56DC9EF98B1FFB107ED17A564642A6AED1DD4DF DUP3 SWAP1 SSTORE PUSH32 0xED67D0DAFF738CCF71298A47A56DC9EF98B1FFB107ED17A564642A6AED1DD4DE DUP1 SLOAD PUSH8 0xFFFFFFFFFFFFFFFF DUP4 AND PUSH8 0xFFFFFFFFFFFFFFFF NOT SWAP1 SWAP2 AND DUP2 OR DUP3 SSTORE PUSH1 0x40 DUP1 MLOAD SWAP2 DUP3 MSTORE PUSH1 0x20 DUP3 ADD DUP6 SWAP1 MSTORE TIMESTAMP DUP3 DUP3 ADD MSTORE MLOAD DUP6 SWAP2 PUSH32 0x6519F20914A226AC2380DA7D29C110DF4A8A62167ED605E3D5B09BEB78933513 SWAP2 SWAP1 DUP2 SWAP1 SUB PUSH1 0x60 ADD SWAP1 LOG2 POP POP POP POP JUMP JUMPDEST PUSH1 0x0 PUSH1 0x60 DUP1 PUSH1 0x0 DUP1 PUSH2 0x472 DUP7 PUSH2 0x749 JUMP JUMPDEST DUP1 SLOAD PUSH1 0x1 DUP3 ADD SLOAD PUSH1 0x2 DUP4 ADD DUP1 SLOAD PUSH1 0x40 DUP1 MLOAD PUSH1 0x20 DUP1 DUP5 MUL DUP3 ADD DUP2 ADD SWAP1 SWAP3 MSTORE DUP3 DUP2 MSTORE PUSH8 0xFFFFFFFFFFFFFFFF SWAP1 SWAP6 AND SWAP11 POP SWAP3 SWAP7 POP SWAP4 SWAP5 POP SWAP2 SWAP3 SWAP1 DUP4 ADD DUP3 DUP3 DUP1 ISZERO PUSH2 0x4D8 JUMPI PUSH1 0x20 MUL DUP3 ADD SWAP2 SWAP1 PUSH1 0x0 MSTORE PUSH1 0x20 PUSH1 0x0 KECCAK256 SWAP1 JUMPDEST DUP2 SLOAD DUP2 MSTORE PUSH1 0x20 ADD SWAP1 PUSH1 0x1 ADD SWAP1 DUP1 DUP4 GT PUSH2 0x4C4 JUMPI JUMPDEST POP POP POP POP POP SWAP4 POP DUP1 PUSH1 0x3 ADD DUP1 SLOAD DUP1 PUSH1 0x20 MUL PUSH1 0x20 ADD PUSH1 0x40 MLOAD SWAP1 DUP2 ADD PUSH1 0x40 MSTORE DUP1 SWAP3 SWAP2 SWAP1 DUP2 DUP2 MSTORE PUSH1 0x20 ADD DUP3 DUP1 SLOAD DUP1 ISZERO PUSH2 0x52D JUMPI PUSH1 0x20 MUL DUP3 ADD SWAP2 SWAP1 PUSH1 0x0 MSTORE PUSH1 0x20 PUSH1 0x0 KECCAK256 SWAP1 JUMPDEST DUP2 SLOAD DUP2 MSTORE PUSH1 0x20 ADD SWAP1 PUSH1 0x1 ADD SWAP1 DUP1 DUP4 GT PUSH2 0x519 JUMPI JUMPDEST POP POP POP POP POP SWAP3 POP POP SWAP2 SWAP4 POP SWAP2 SWAP4 JUMP JUMPDEST CALLER PUSH1 0x0 SWAP1 DUP2 MSTORE PUSH1 0x0 DUP1 MLOAD PUSH1 0x20 PUSH2 0xAD3 DUP4 CODECOPY DUP2 MLOAD SWAP2 MSTORE PUSH1 0x20 MSTORE PUSH1 0x40 DUP2 KECCAK256 SLOAD PUSH1 0x4 AND DUP2 SUB PUSH2 0x57B JUMPI PUSH1 0x40 MLOAD PUSH4 0x326AACA9 PUSH1 0xE1 SHL DUP2 MSTORE PUSH1 0x4 ADD PUSH1 0x40 MLOAD DUP1 SWAP2 SUB SWAP1 REVERT JUMPDEST DUP4 DUP3 EQ PUSH2 0x59B JUMPI PUSH1 0x40 MLOAD PUSH4 0xAB3A7F99 PUSH1 0xE0 SHL DUP2 MSTORE PUSH1 0x4 ADD PUSH1 0x40 MLOAD DUP1 SWAP2 SUB SWAP1 REVERT JUMPDEST PUSH1 0x0 DUP1 JUMPDEST DUP4 DUP2 LT ISZERO PUSH2 0x5DF JUMPI DUP5 DUP5 DUP3 DUP2 DUP2 LT PUSH2 0x5B9 JUMPI PUSH2 0x5B9 PUSH2 0xA52 JUMP JUMPDEST SWAP1 POP PUSH1 0x20 MUL ADD CALLDATALOAD DUP3 PUSH2 0x5CB SWAP2 SWAP1 PUSH2 0xA7E JUMP JUMPDEST SWAP2 POP DUP1 PUSH2 0x5D7 DUP2 PUSH2 0xA97 JUMP JUMPDEST SWAP2 POP POP PUSH2 0x59F JUMP JUMPDEST POP PUSH2 0x5EA DUP4 DUP3 PUSH2 0xAB0 JUMP JUMPDEST PUSH32 0xED67D0DAFF738CCF71298A47A56DC9EF98B1FFB107ED17A564642A6AED1DD4DF DUP2 SWAP1 SSTORE PUSH32 0xED67D0DAFF738CCF71298A47A56DC9EF98B1FFB107ED17A564642A6AED1DD4DE DUP1 SLOAD PUSH1 0x40 DUP1 MLOAD PUSH8 0xFFFFFFFFFFFFFFFF SWAP1 SWAP3 AND DUP3 MSTORE PUSH1 0x20 DUP3 ADD DUP5 SWAP1 MSTORE TIMESTAMP DUP3 DUP3 ADD MSTORE MLOAD SWAP3 SWAP5 POP SWAP1 SWAP2 PUSH1 0x0 SWAP2 PUSH32 0x6519F20914A226AC2380DA7D29C110DF4A8A62167ED605E3D5B09BEB78933513 SWAP2 SWAP1 DUP2 SWAP1 SUB PUSH1 0x60 ADD SWAP1 LOG2 POP POP SWAP5 SWAP4 POP POP POP POP JUMP JUMPDEST CALLER PUSH1 0x0 SWAP1 DUP2 MSTORE PUSH1 0x0 DUP1 MLOAD PUSH1 0x20 PUSH2 0xAD3 DUP4 CODECOPY DUP2 MLOAD SWAP2 MSTORE PUSH1 0x20 MSTORE PUSH1 0x40 DUP2 KECCAK256 SLOAD PUSH1 0x4 AND SWAP1 SUB PUSH2 0x6CC JUMPI PUSH1 0x40 MLOAD PUSH4 0x326AACA9 PUSH1 0xE1 SHL DUP2 MSTORE PUSH1 0x4 ADD PUSH1 0x40 MLOAD DUP1 SWAP2 SUB SWAP1 REVERT JUMPDEST PUSH1 0x0 PUSH2 0x6D7 DUP4 PUSH2 0x749 JUMP JUMPDEST PUSH1 0x2 DUP2 ADD SLOAD SWAP1 SWAP2 POP PUSH1 0x0 SUB PUSH2 0x721 JUMPI PUSH1 0x2 DUP2 ADD DUP1 SLOAD PUSH1 0x1 DUP1 DUP3 ADD DUP4 SSTORE PUSH1 0x0 SWAP3 DUP4 MSTORE PUSH1 0x20 DUP1 DUP5 KECCAK256 PUSH5 0x56414C5545 PUSH1 0xD8 SHL SWAP4 ADD SWAP3 SWAP1 SWAP3 SSTORE PUSH1 0x3 SWAP1 SWAP4 ADD DUP1 SLOAD SWAP4 DUP5 ADD DUP2 SSTORE DUP3 MSTORE SWAP1 KECCAK256 ADD SSTORE POP JUMP JUMPDEST DUP2 DUP2 PUSH1 0x3 ADD PUSH1 0x0 DUP2 SLOAD DUP2 LT PUSH2 0x738 JUMPI PUSH2 0x738 PUSH2 0xA52 JUMP JUMPDEST PUSH1 0x0 SWAP2 DUP3 MSTORE PUSH1 0x20 SWAP1 SWAP2 KECCAK256 ADD SSTORE POP POP POP JUMP JUMPDEST PUSH1 0x0 DUP1 DUP3 PUSH32 0xED67D0DAFF738CCF71298A47A56DC9EF98B1FFB107ED17A564642A6AED1DD4DE PUSH1 0x40 MLOAD PUSH1 0x20 ADD PUSH2 0x788 SWAP3 SWAP2 SWAP1 SWAP2 DUP3 MSTORE PUSH1 0x20 DUP3 ADD MSTORE PUSH1 0x40 ADD SWAP1 JUMP JUMPDEST PUSH1 0x40 DUP1 MLOAD PUSH1 0x1F NOT DUP2 DUP5 SUB ADD DUP2 MSTORE SWAP2 SWAP1 MSTORE DUP1 MLOAD PUSH1 0x20 SWAP1 SWAP2 ADD KECCAK256 SWAP4 SWAP3 POP POP POP JUMP JUMPDEST POP DUP1 SLOAD PUSH1 0x0 DUP3 SSTORE SWAP1 PUSH1 0x0 MSTORE PUSH1 0x20 PUSH1 0x0 KECCAK256 SWAP1 DUP2 ADD SWAP1 PUSH2 0x7C5 SWAP2 SWAP1 PUSH2 0x7C8 JUMP JUMPDEST POP JUMP JUMPDEST JUMPDEST DUP1 DUP3 GT ISZERO PUSH2 0x7DD JUMPI PUSH1 0x0 DUP2 SSTORE PUSH1 0x1 ADD PUSH2 0x7C9 JUMP JUMPDEST POP SWAP1 JUMP JUMPDEST PUSH1 0x0 DUP1 DUP4 PUSH1 0x1F DUP5 ADD SLT PUSH2 0x7F3 JUMPI PUSH1 0x0 DUP1 REVERT JUMPDEST POP DUP2 CALLDATALOAD PUSH8 0xFFFFFFFFFFFFFFFF DUP2 GT ISZERO PUSH2 0x80B JUMPI PUSH1 0x0 DUP1 REVERT JUMPDEST PUSH1 0x20 DUP4 ADD SWAP2 POP DUP4 PUSH1 0x20 DUP3 PUSH1 0x5 SHL DUP6 ADD ADD GT ISZERO PUSH2 0x826 JUMPI PUSH1 0x0 DUP1 REVERT JUMPDEST SWAP3 POP SWAP3 SWAP1 POP JUMP JUMPDEST DUP1 CALLDATALOAD PUSH8 0xFFFFFFFFFFFFFFFF DUP2 AND DUP2 EQ PUSH2 0x845 JUMPI PUSH1 0x0 DUP1 REVERT JUMPDEST SWAP2 SWAP1 POP JUMP JUMPDEST PUSH1 0x0 DUP1 PUSH1 0x0 DUP1 PUSH1 0x0 DUP1 PUSH1 0x0 PUSH1 0xA0 DUP9 DUP11 SUB SLT ISZERO PUSH2 0x865 JUMPI PUSH1 0x0 DUP1 REVERT JUMPDEST DUP8 CALLDATALOAD SWAP7 POP PUSH1 0x20 DUP9 ADD CALLDATALOAD PUSH8 0xFFFFFFFFFFFFFFFF DUP1 DUP3 GT ISZERO PUSH2 0x884 JUMPI PUSH1 0x0 DUP1 REVERT JUMPDEST PUSH2 0x890 DUP12 DUP4 DUP13 ADD PUSH2 0x7E1 JUMP JUMPDEST SWAP1 SWAP9 POP SWAP7 POP PUSH1 0x40 DUP11 ADD CALLDATALOAD SWAP2 POP DUP1 DUP3 GT ISZERO PUSH2 0x8A9 JUMPI PUSH1 0x0 DUP1 REVERT JUMPDEST POP PUSH2 0x8B6 DUP11 DUP3 DUP12 ADD PUSH2 0x7E1 JUMP JUMPDEST SWAP1 SWAP6 POP SWAP4 POP PUSH2 0x8C9 SWAP1 POP PUSH1 0x60 DUP10 ADD PUSH2 0x82D JUMP JUMPDEST SWAP2 POP PUSH1 0x80 DUP9 ADD CALLDATALOAD SWAP1 POP SWAP3 SWAP6 SWAP9 SWAP2 SWAP5 SWAP8 POP SWAP3 SWAP6 POP JUMP JUMPDEST PUSH1 0x0 PUSH1 0x20 DUP3 DUP5 SUB SLT ISZERO PUSH2 0x8F0 JUMPI PUSH1 0x0 DUP1 REVERT JUMPDEST POP CALLDATALOAD SWAP2 SWAP1 POP JUMP JUMPDEST PUSH1 0x0 DUP1 PUSH1 0x0 PUSH1 0x60 DUP5 DUP7 SUB SLT ISZERO PUSH2 0x90C JUMPI PUSH1 0x0 DUP1 REVERT JUMPDEST DUP4 CALLDATALOAD SWAP3 POP PUSH1 0x20 DUP5 ADD CALLDATALOAD SWAP2 POP PUSH2 0x923 PUSH1 0x40 DUP6 ADD PUSH2 0x82D JUMP JUMPDEST SWAP1 POP SWAP3 POP SWAP3 POP SWAP3 JUMP JUMPDEST PUSH1 0x0 PUSH1 0x80 DUP3 ADD PUSH8 0xFFFFFFFFFFFFFFFF DUP8 AND DUP4 MSTORE PUSH1 0x20 PUSH1 0x80 DUP2 DUP6 ADD MSTORE DUP2 DUP8 MLOAD DUP1 DUP5 MSTORE PUSH1 0xA0 DUP7 ADD SWAP2 POP DUP3 DUP10 ADD SWAP4 POP PUSH1 0x0 JUMPDEST DUP2 DUP2 LT ISZERO PUSH2 0x977 JUMPI DUP5 MLOAD DUP4 MSTORE SWAP4 DUP4 ADD SWAP4 SWAP2 DUP4 ADD SWAP2 PUSH1 0x1 ADD PUSH2 0x95B JUMP JUMPDEST POP POP DUP5 DUP2 SUB PUSH1 0x40 DUP7 ADD MSTORE DUP7 MLOAD DUP1 DUP3 MSTORE SWAP1 DUP3 ADD SWAP3 POP DUP2 DUP8 ADD SWAP1 PUSH1 0x0 JUMPDEST DUP2 DUP2 LT ISZERO PUSH2 0x9AE JUMPI DUP3 MLOAD DUP6 MSTORE SWAP4 DUP4 ADD SWAP4 SWAP2 DUP4 ADD SWAP2 PUSH1 0x1 ADD PUSH2 0x992 JUMP JUMPDEST POP POP POP POP PUSH1 0x60 SWAP3 SWAP1 SWAP3 ADD SWAP3 SWAP1 SWAP3 MSTORE SWAP5 SWAP4 POP POP POP POP JUMP JUMPDEST PUSH1 0x0 DUP1 PUSH1 0x0 DUP1 PUSH1 0x40 DUP6 DUP8 SUB SLT ISZERO PUSH2 0x9DA JUMPI PUSH1 0x0 DUP1 REVERT JUMPDEST DUP5 CALLDATALOAD PUSH8 0xFFFFFFFFFFFFFFFF DUP1 DUP3 GT ISZERO PUSH2 0x9F2 JUMPI PUSH1 0x0 DUP1 REVERT JUMPDEST PUSH2 0x9FE DUP9 DUP4 DUP10 ADD PUSH2 0x7E1 JUMP JUMPDEST SWAP1 SWAP7 POP SWAP5 POP PUSH1 0x20 DUP8 ADD CALLDATALOAD SWAP2 POP DUP1 DUP3 GT ISZERO PUSH2 0xA17 JUMPI PUSH1 0x0 DUP1 REVERT JUMPDEST POP PUSH2 0xA24 DUP8 DUP3 DUP9 ADD PUSH2 0x7E1 JUMP JUMPDEST SWAP6 SWAP9 SWAP5 SWAP8 POP SWAP6 POP POP POP POP JUMP JUMPDEST PUSH1 0x0 DUP1 PUSH1 0x40 DUP4 DUP6 SUB SLT ISZERO PUSH2 0xA43 JUMPI PUSH1 0x0 DUP1 REVERT JUMPDEST POP POP DUP1 CALLDATALOAD SWAP3 PUSH1 0x20 SWAP1 SWAP2 ADD CALLDATALOAD SWAP2 POP JUMP JUMPDEST PUSH4 0x4E487B71 PUSH1 0xE0 SHL PUSH1 0x0 MSTORE PUSH1 0x32 PUSH1 0x4 MSTORE PUSH1 0x24 PUSH1 0x0 REVERT JUMPDEST PUSH4 0x4E487B71 PUSH1 0xE0 SHL PUSH1 0x0 MSTORE PUSH1 0x11 PUSH1 0x4 MSTORE PUSH1 0x24 PUSH1 0x0 REVERT JUMPDEST DUP1 DUP3 ADD DUP1 DUP3 GT ISZERO PUSH2 0xA91 JUMPI PUSH2 0xA91 PUSH2 0xA68 JUMP JUMPDEST SWAP3 SWAP2 POP POP JUMP JUMPDEST PUSH1 0x0 PUSH1 0x1 DUP3 ADD PUSH2 0xAA9 JUMPI PUSH2 0xAA9 PUSH2 0xA68 JUMP JUMPDEST POP PUSH1 0x1 ADD SWAP1 JUMP JUMPDEST PUSH1 0x0 DUP3 PUSH2 0xACD JUMPI PUSH4 0x4E487B71 PUSH1 0xE0 SHL PUSH1 0x0 MSTORE PUSH1 0x12 PUSH1 0x4 MSTORE PUSH1 0x24 PUSH1 0x0 REVERT JUMPDEST POP DIV SWAP1 JUMP INVALID SWAP16 PUSH9 0x4A81EE6E6FB92A5AE5 LOG2 JUMP SIGNEXTEND 0xB2 PUSH8 0xD45AADA2BE404847 SLOAD SWAP9 0xC RETURNDATACOPY AND 0xE4 0x4D SWAP9 LOG2 PUSH5 0x6970667358 0x22 SLT KECCAK256 SWAP16 0x2B 0xBE 0xAF 0x2C 0xCC 0x27 0xEE CODESIZE SLT PUSH15 0xDB475DC26B893628A6DEA3CE3CE785 XOR 0xD3 PUSH21 0x50002064736F6C6343000815003300000000000000 "},"methodIdentifiers":{"getIndex(bytes32)":"8527831b","getIndexValue(bytes32)":"55f62ed9","getLiCRI()":"a28de244","recalcLiCRI(bytes32[],uint256[])":"c0af218d","setDashboardComposite(bytes32,uint256,uint64)":"7a58d26a","setIndexValue(bytes32,uint256)":"c0f2d5f7","setWeights(bytes32,bytes32[],uint256[],uint64,bytes32)":"51d7bc85"}}}}}