{"contracts/facets/MonetaryFacet.sol":{"MonetaryFacet":{"abi":[{"inputs":[],"name":"ErrMonetaryRole","type":"error"},{"inputs":[],"name":"ErrNotReady","type":"error"},{"anonymous":false,"inputs":[{"indexed":false,"internalType":"uint256","name":"oldScalar","type":"uint256"},{"indexed":false,"internalType":"uint256","name":"newScalar","type":"uint256"}],"name":"ScalarUpdated","type":"event"},{"inputs":[{"internalType":"address","name":"from","type":"address"},{"internalType":"uint256","name":"amount","type":"uint256"}],"name":"burnM1","outputs":[],"stateMutability":"nonpayable","type":"function"},{"inputs":[],"name":"getLayers","outputs":[{"internalType":"uint256","name":"m00","type":"uint256"},{"internalType":"uint256","name":"m0","type":"uint256"},{"internalType":"uint256","name":"m1","type":"uint256"}],"stateMutability":"view","type":"function"},{"inputs":[{"internalType":"address","name":"to","type":"address"},{"internalType":"uint256","name":"amount","type":"uint256"}],"name":"issueM0","outputs":[],"stateMutability":"nonpayable","type":"function"},{"inputs":[{"internalType":"address","name":"to","type":"address"},{"internalType":"uint256","name":"amount","type":"uint256"}],"name":"mintM1","outputs":[],"stateMutability":"nonpayable","type":"function"},{"inputs":[{"internalType":"address","name":"from","type":"address"},{"internalType":"uint256","name":"amount","type":"uint256"}],"name":"redeemM0","outputs":[],"stateMutability":"nonpayable","type":"function"},{"inputs":[{"internalType":"uint256","name":"newScalar","type":"uint256"}],"name":"setScalarS","outputs":[],"stateMutability":"nonpayable","type":"function"}],"evm":{"bytecode":{"linkReferences":{},"object":"608060405234801561001057600080fd5b506102d9806100206000396000f3fe608060405234801561001057600080fd5b50600436106100625760003560e01c8063222cb4e514610067578063380a36371461007c578063a64dee8a14610067578063a908854214610067578063bd7d28cd1461008f578063dd6b8d6c14610067575b600080fd5b61007a610075366004610252565b610114565b005b61007a61008a36600461028a565b61017e565b7fd6c498e0ac7e744e9a2a0e58a73120355ece1562e61b32c0aa275db953d0da49547fd6c498e0ac7e744e9a2a0e58a73120355ece1562e61b32c0aa275db953d0da4a547fd6c498e0ac7e744e9a2a0e58a73120355ece1562e61b32c0aa275db953d0da4b546040805193845260208401929092529082015260600160405180910390f35b3360009081527f9f684a81ee6e6fb92a5ae5a2560bb267d45aada2be40484754980c3e16e44d986020526040812054600816900361016557604051635d6c6b2360e01b815260040160405180910390fd5b604051634e395b8560e01b815260040160405180910390fd5b3360009081527f9f684a81ee6e6fb92a5ae5a2560bb267d45aada2be40484754980c3e16e44d98602052604081205460081690036101cf57604051635d6c6b2360e01b815260040160405180910390fd5b7fd6c498e0ac7e744e9a2a0e58a73120355ece1562e61b32c0aa275db953d0da4c54604080519182526020820183905280517fd6c498e0ac7e744e9a2a0e58a73120355ece1562e61b32c0aa275db953d0da49927fa154aaaa4a21ebc329cc2ba7202650d0d999f6d3132283940f33427d45ef100f92908290030190a160030155565b6000806040838503121561026557600080fd5b82356001600160a01b038116811461027c57600080fd5b946020939093013593505050565b60006020828403121561029c57600080fd5b503591905056fea264697066735822122099180932b9483ca5d23b5cfbd27e18dcebc36d6a7a4b8896a393e4627d979ee864736f6c63430008150033","opcodes":"PUSH1 0x80 PUSH1 0x40 MSTORE CALLVALUE DUP1 ISZERO PUSH2 0x10 JUMPI PUSH1 0x0 DUP1 REVERT JUMPDEST POP PUSH2 0x2D9 DUP1 PUSH2 0x20 PUSH1 0x0 CODECOPY PUSH1 0x0 RETURN INVALID PUSH1 0x80 PUSH1 0x40 MSTORE CALLVALUE DUP1 ISZERO PUSH2 0x10 JUMPI PUSH1 0x0 DUP1 REVERT JUMPDEST POP PUSH1 0x4 CALLDATASIZE LT PUSH2 0x62 JUMPI PUSH1 0x0 CALLDATALOAD PUSH1 0xE0 SHR DUP1 PUSH4 0x222CB4E5 EQ PUSH2 0x67 JUMPI DUP1 PUSH4 0x380A3637 EQ PUSH2 0x7C JUMPI DUP1 PUSH4 0xA64DEE8A EQ PUSH2 0x67 JUMPI DUP1 PUSH4 0xA9088542 EQ PUSH2 0x67 JUMPI DUP1 PUSH4 0xBD7D28CD EQ PUSH2 0x8F JUMPI DUP1 PUSH4 0xDD6B8D6C EQ PUSH2 0x67 JUMPI JUMPDEST PUSH1 0x0 DUP1 REVERT JUMPDEST PUSH2 0x7A PUSH2 0x75 CALLDATASIZE PUSH1 0x4 PUSH2 0x252 JUMP JUMPDEST PUSH2 0x114 JUMP JUMPDEST STOP JUMPDEST PUSH2 0x7A PUSH2 0x8A CALLDATASIZE PUSH1 0x4 PUSH2 0x28A JUMP JUMPDEST PUSH2 0x17E JUMP JUMPDEST PUSH32 0xD6C498E0AC7E744E9A2A0E58A73120355ECE1562E61B32C0AA275DB953D0DA49 SLOAD PUSH32 0xD6C498E0AC7E744E9A2A0E58A73120355ECE1562E61B32C0AA275DB953D0DA4A SLOAD PUSH32 0xD6C498E0AC7E744E9A2A0E58A73120355ECE1562E61B32C0AA275DB953D0DA4B SLOAD PUSH1 0x40 DUP1 MLOAD SWAP4 DUP5 MSTORE PUSH1 0x20 DUP5 ADD SWAP3 SWAP1 SWAP3 MSTORE SWAP1 DUP3 ADD MSTORE PUSH1 0x60 ADD PUSH1 0x40 MLOAD DUP1 SWAP2 SUB SWAP1 RETURN JUMPDEST CALLER PUSH1 0x0 SWAP1 DUP2 MSTORE PUSH32 0x9F684A81EE6E6FB92A5AE5A2560BB267D45AADA2BE40484754980C3E16E44D98 PUSH1 0x20 MSTORE PUSH1 0x40 DUP2 KECCAK256 SLOAD PUSH1 0x8 AND SWAP1 SUB PUSH2 0x165 JUMPI PUSH1 0x40 MLOAD PUSH4 0x5D6C6B23 PUSH1 0xE0 SHL DUP2 MSTORE PUSH1 0x4 ADD PUSH1 0x40 MLOAD DUP1 SWAP2 SUB SWAP1 REVERT JUMPDEST PUSH1 0x40 MLOAD PUSH4 0x4E395B85 PUSH1 0xE0 SHL DUP2 MSTORE PUSH1 0x4 ADD PUSH1 0x40 MLOAD DUP1 SWAP2 SUB SWAP1 REVERT JUMPDEST CALLER PUSH1 0x0 SWAP1 DUP2 MSTORE PUSH32 0x9F684A81EE6E6FB92A5AE5A2560BB267D45AADA2BE40484754980C3E16E44D98 PUSH1 0x20 MSTORE PUSH1 0x40 DUP2 KECCAK256 SLOAD PUSH1 0x8 AND SWAP1 SUB PUSH2 0x1CF JUMPI PUSH1 0x40 MLOAD PUSH4 0x5D6C6B23 PUSH1 0xE0 SHL DUP2 MSTORE PUSH1 0x4 ADD PUSH1 0x40 MLOAD DUP1 SWAP2 SUB SWAP1 REVERT JUMPDEST PUSH32 0xD6C498E0AC7E744E9A2A0E58A73120355ECE1562E61B32C0AA275DB953D0DA4C SLOAD PUSH1 0x40 DUP1 MLOAD SWAP2 DUP3 MSTORE PUSH1 0x20 DUP3 ADD DUP4 SWAP1 MSTORE DUP1 MLOAD PUSH32 0xD6C498E0AC7E744E9A2A0E58A73120355ECE1562E61B32C0AA275DB953D0DA49 SWAP3 PUSH32 0xA154AAAA4A21EBC329CC2BA7202650D0D999F6D3132283940F33427D45EF100F SWAP3 SWAP1 DUP3 SWAP1 SUB ADD SWAP1 LOG1 PUSH1 0x3 ADD SSTORE JUMP JUMPDEST PUSH1 0x0 DUP1 PUSH1 0x40 DUP4 DUP6 SUB SLT ISZERO PUSH2 0x265 JUMPI PUSH1 0x0 DUP1 REVERT JUMPDEST DUP3 CALLDATALOAD PUSH1 0x1 PUSH1 0x1 PUSH1 0xA0 SHL SUB DUP2 AND DUP2 EQ PUSH2 0x27C JUMPI PUSH1 0x0 DUP1 REVERT JUMPDEST SWAP5 PUSH1 0x20 SWAP4 SWAP1 SWAP4 ADD CALLDATALOAD SWAP4 POP POP POP JUMP JUMPDEST PUSH1 0x0 PUSH1 0x20 DUP3 DUP5 SUB SLT ISZERO PUSH2 0x29C JUMPI PUSH1 0x0 DUP1 REVERT JUMPDEST POP CALLDATALOAD SWAP2 SWAP1 POP JUMP INVALID LOG2 PUSH5 0x6970667358 0x22 SLT KECCAK256 SWAP10 XOR MULMOD ORIGIN 0xB9 BASEFEE EXTCODECOPY 0xA5 0xD2 EXTCODESIZE 0x5C 0xFB 0xD2 PUSH31 0x18DCEBC36D6A7A4B8896A393E4627D979EE864736F6C634300081500330000 "},"methodIdentifiers":{"burnM1(address,uint256)":"a64dee8a","getLayers()":"bd7d28cd","issueM0(address,uint256)":"a9088542","mintM1(address,uint256)":"dd6b8d6c","redeemM0(address,uint256)":"222cb4e5","setScalarS(uint256)":"380a3637"}}}}}