{"contracts/facets/GovernanceFacet.sol":{"GovernanceFacet":{"abi":[{"inputs":[],"name":"ErrGovernanceRole","type":"error"},{"inputs":[],"name":"ErrNoProposal","type":"error"},{"inputs":[],"name":"ErrNotReady","type":"error"},{"inputs":[],"name":"ErrProposalExists","type":"error"},{"inputs":[],"name":"ErrProposalUsed","type":"error"},{"inputs":[],"name":"ErrUpgradeRole","type":"error"},{"anonymous":false,"inputs":[{"indexed":false,"internalType":"bytes32","name":"id","type":"bytes32"}],"name":"CutExecuted","type":"event"},{"anonymous":false,"inputs":[{"indexed":false,"internalType":"bytes32","name":"id","type":"bytes32"},{"indexed":false,"internalType":"address","name":"proposer","type":"address"},{"indexed":false,"internalType":"address","name":"init","type":"address"},{"indexed":false,"internalType":"bytes","name":"initData","type":"bytes"}],"name":"CutProposed","type":"event"},{"anonymous":false,"inputs":[{"indexed":false,"internalType":"bytes32","name":"id","type":"bytes32"},{"indexed":false,"internalType":"uint256","name":"eta","type":"uint256"}],"name":"CutQueued","type":"event"},{"anonymous":false,"inputs":[{"indexed":false,"internalType":"bytes4","name":"selector","type":"bytes4"},{"indexed":false,"internalType":"bool","name":"paused","type":"bool"}],"name":"EmergencyBrake","type":"event"},{"inputs":[{"internalType":"bytes4","name":"selector","type":"bytes4"},{"internalType":"bool","name":"pause","type":"bool"}],"name":"emergencyBrake","outputs":[],"stateMutability":"nonpayable","type":"function"},{"inputs":[{"internalType":"bytes32","name":"id","type":"bytes32"}],"name":"eta","outputs":[{"internalType":"uint256","name":"","type":"uint256"}],"stateMutability":"view","type":"function"},{"inputs":[{"internalType":"bytes32","name":"id","type":"bytes32"}],"name":"executeCut","outputs":[],"stateMutability":"nonpayable","type":"function"},{"inputs":[{"internalType":"bytes32","name":"id","type":"bytes32"},{"components":[{"internalType":"address","name":"facetAddress","type":"address"},{"internalType":"enum IDiamondCut.FacetCutAction","name":"action","type":"uint8"},{"internalType":"bytes4[]","name":"functionSelectors","type":"bytes4[]"}],"internalType":"struct IDiamondCut.FacetCut[]","name":"cut","type":"tuple[]"},{"internalType":"address","name":"init","type":"address"},{"internalType":"bytes","name":"initData","type":"bytes"}],"name":"proposeCut","outputs":[],"stateMutability":"nonpayable","type":"function"},{"inputs":[{"internalType":"bytes32","name":"id","type":"bytes32"}],"name":"proposer","outputs":[{"internalType":"address","name":"","type":"address"}],"stateMutability":"view","type":"function"},{"inputs":[{"internalType":"bytes32","name":"id","type":"bytes32"}],"name":"queueCut","outputs":[],"stateMutability":"nonpayable","type":"function"},{"inputs":[],"name":"quorumBps","outputs":[{"internalType":"uint256","name":"","type":"uint256"}],"stateMutability":"view","type":"function"},{"inputs":[{"internalType":"uint256","name":"timelockSeconds","type":"uint256"},{"internalType":"uint256","name":"quorumBps","type":"uint256"}],"name":"setGovernanceParams","outputs":[],"stateMutability":"nonpayable","type":"function"},{"inputs":[],"name":"timelock","outputs":[{"internalType":"uint256","name":"","type":"uint256"}],"stateMutability":"view","type":"function"}],"evm":{"bytecode":{"linkReferences":{},"object":"608060405234801561001057600080fd5b50611398806100206000396000f3fe608060405234801561001057600080fd5b50600436106100935760003560e01c8063ac7f05f911610066578063ac7f05f914610113578063b7575c5f14610173578063cd2ddd0c14610186578063d33219b4146101ad578063e9143174146101c257600080fd5b8063088775a3146100985780631cecf99e146100d857806389210385146100ed5780638ef34cc114610100575b600080fd5b6100c56100a63660046109fb565b6000908152600080516020611323833981519152602052604090205490565b6040519081526020015b60405180910390f35b6100eb6100e6366004610a82565b6101d5565b005b6100eb6100fb366004610b3b565b610358565b6100eb61010e366004610b73565b6103df565b61015b6101213660046109fb565b60009081527fe007241d1889ec8c05dc8b1092e6a7dc887697913faabbdc9fe930d998ad975160205260409020546001600160a01b031690565b6040516001600160a01b0390911681526020016100cf565b6100eb6101813660046109fb565b6104d6565b7fe007241d1889ec8c05dc8b1092e6a7dc887697913faabbdc9fe930d998ad974c546100c5565b600080516020611343833981519152546100c5565b6100eb6101d03660046109fb565b610609565b6101dd610928565b15801561020757503360009081526000805160206113038339815191526020526040902054600216155b156102255760405163030f2d0160e01b815260040160405180910390fd5b60008681526000805160206113238339815191526020526040902054600080516020611343833981519152901561026f576040516377889cb960e11b815260040160405180910390fd5b8585604051602001610282929190610c2a565b60408051601f1981840301815291815260008981526003840160205220906102aa9082610dbd565b506000878152600482016020908152604080832080546001600160a01b0319166001600160a01b0389161790556005840190915290206102eb838583610e7d565b5060008781526006820160205260409081902080546001600160a01b0319163390811790915590517f4b6f537ec3651d114b7f1da43925340ccc5da8ae647b03b6e86a7e262291c3e491610347918a9190889088908890610f3e565b60405180910390a150505050505050565b610360610928565b15801561038a57503360009081526000805160206113038339815191526020526040902054600216155b156103a85760405163030f2d0160e01b815260040160405180910390fd5b600080516020611343833981519152919091557fe007241d1889ec8c05dc8b1092e6a7dc887697913faabbdc9fe930d998ad974c55565b6103e7610928565b15801561041157503360009081526000805160206113038339815191526020526040902054600216155b1561042f5760405163030f2d0160e01b815260040160405180910390fd5b6001600160e01b0319821660008181527fbe2039d0acebc8f39aca028faa2657d60691246a654ef49134d442fbe066df4f6020908152604091829020805460ff19168515159081179091558251938452908301527fbe2039d0acebc8f39aca028faa2657d60691246a654ef49134d442fbe066df4e917fd688aac15b110bdbdd9c1549b5030e42a2b092c356fe4f8f1ec89445413aff3791015b60405180910390a1505050565b6104de610928565b15801561050857503360009081526000805160206113038339815191526020526040902054600216155b156105265760405163030f2d0160e01b815260040160405180910390fd5b6000818152600080516020611323833981519152602052604090205460008051602061134383398151915290156105705760405163366ced8160e11b815260040160405180910390fd5b60008281526003820160205260409020805461058b90610d34565b90506000036105ad5760405163315a6ff360e11b815260040160405180910390fd5b80546000906105bc9042610f91565b600084815260028401602090815260409182902083905581518681529081018390529192507f185c36da5b944ceebbc4ad0efe1091f62afc94dff2cfe54bbc0eee969fd44aa491016104c9565b610611610928565b15801561063b57503360009081526000805160206113038339815191526020526040902054600116155b1561065957604051637a73faf760e11b815260040160405180910390fd5b600081815260008051602061132383398151915260205260409020546000805160206113438339815191529080158061069157508042105b156106af57604051634e395b8560e01b815260040160405180910390fd5b6000838152600383016020526040812080546106ca90610d34565b80601f01602080910402602001604051908101604052809291908181526020018280546106f690610d34565b80156107435780601f1061071857610100808354040283529160200191610743565b820191906000526020600020905b81548152906001019060200180831161072657829003601f168201915b505050505080602001905181019061075b9190611036565b600085815260048501602090815260408083205460058801909252822080549394506001600160a01b039091169261079290610d34565b80601f01602080910402602001604051908101604052809291908181526020018280546107be90610d34565b801561080b5780601f106107e05761010080835404028352916020019161080b565b820191906000526020600020905b8154815290600101906020018083116107ee57829003601f168201915b50506040516307e4c70760e21b81529394503093631f931c1c935061083a9250879150869086906004016111f2565b600060405180830381600087803b15801561085457600080fd5b505af1158015610868573d6000803e3d6000fd5b505050600087815260028701602090815260408083208390556003890190915281206108959250906109a5565b6000868152600486016020908152604080832080546001600160a01b03191690556005880190915281206108c8916109a5565b60008681526006860160205260409081902080546001600160a01b0319169055517fa1a0ac873c8783a53a3894276ae096d022c74a662925adc3dd1b364a5024355a906109189088815260200190565b60405180910390a1505050505050565b6000336001600160a01b0316306001600160a01b0316638da5cb5b6040518163ffffffff1660e01b8152600401602060405180830381865afa158015610972573d6000803e3d6000fd5b505050506040513d601f19601f8201168201806040525081019061099691906112de565b6001600160a01b031614905090565b5080546109b190610d34565b6000825580601f106109c1575050565b601f0160209004906000526020600020908101906109df91906109e2565b50565b5b808211156109f757600081556001016109e3565b5090565b600060208284031215610a0d57600080fd5b5035919050565b6001600160a01b03811681146109df57600080fd5b8035610a3481610a14565b919050565b60008083601f840112610a4b57600080fd5b50813567ffffffffffffffff811115610a6357600080fd5b602083019150836020828501011115610a7b57600080fd5b9250929050565b60008060008060008060808789031215610a9b57600080fd5b86359550602087013567ffffffffffffffff80821115610aba57600080fd5b818901915089601f830112610ace57600080fd5b813581811115610add57600080fd5b8a60208260051b8501011115610af257600080fd5b6020830197509550610b0660408a01610a29565b94506060890135915080821115610b1c57600080fd5b50610b2989828a01610a39565b979a9699509497509295939492505050565b60008060408385031215610b4e57600080fd5b50508035926020909101359150565b6001600160e01b0319811681146109df57600080fd5b60008060408385031215610b8657600080fd5b8235610b9181610b5d565b915060208301358015158114610ba657600080fd5b809150509250929050565b600381106109df57600080fd5b60038110610bdc57634e487b7160e01b600052602160045260246000fd5b9052565b8183526000602080850194508260005b85811015610c1f578135610c0381610b5d565b6001600160e01b03191687529582019590820190600101610bf0565b509495945050505050565b60208082528181018390526000906040808401600586811b8601830188865b89811015610d0f57888303603f190185528135368c9003605e19018112610c6f57600080fd5b8b0160608135610c7e81610a14565b6001600160a01b0316855281890135610c9681610bb1565b610ca28a870182610bbe565b5087820135601e19833603018112610cb957600080fd5b90910188810191903567ffffffffffffffff811115610cd757600080fd5b80871b3603831315610ce857600080fd5b8189870152610cfa8287018285610be0565b978a0197955050509187019150600101610c49565b50909998505050505050505050565b634e487b7160e01b600052604160045260246000fd5b600181811c90821680610d4857607f821691505b602082108103610d6857634e487b7160e01b600052602260045260246000fd5b50919050565b601f821115610db857600081815260208120601f850160051c81016020861015610d955750805b601f850160051c820191505b81811015610db457828155600101610da1565b5050505b505050565b815167ffffffffffffffff811115610dd757610dd7610d1e565b610deb81610de58454610d34565b84610d6e565b602080601f831160018114610e205760008415610e085750858301515b600019600386901b1c1916600185901b178555610db4565b600085815260208120601f198616915b82811015610e4f57888601518255948401946001909101908401610e30565b5085821015610e6d5787850151600019600388901b60f8161c191681555b5050505050600190811b01905550565b67ffffffffffffffff831115610e9557610e95610d1e565b610ea983610ea38354610d34565b83610d6e565b6000601f841160018114610edd5760008515610ec55750838201355b600019600387901b1c1916600186901b178355610f37565b600083815260209020601f19861690835b82811015610f0e5786850135825560209485019460019092019101610eee565b5086821015610f2b5760001960f88860031b161c19848701351681555b505060018560011b0183555b5050505050565b8581526001600160a01b0385811660208301528416604082015260806060820181905281018290526000828460a0840137600060a0848401015260a0601f19601f85011683010190509695505050505050565b80820180821115610fb257634e487b7160e01b600052601160045260246000fd5b92915050565b6040516060810167ffffffffffffffff81118282101715610fdb57610fdb610d1e565b60405290565b604051601f8201601f1916810167ffffffffffffffff8111828210171561100a5761100a610d1e565b604052919050565b600067ffffffffffffffff82111561102c5761102c610d1e565b5060051b60200190565b6000602080838503121561104957600080fd5b825167ffffffffffffffff8082111561106157600080fd5b818501915085601f83011261107557600080fd5b815161108861108382611012565b610fe1565b81815260059190911b830184019084810190888311156110a757600080fd5b8585015b8381101561119f578051858111156110c35760008081fd5b86016060818c03601f19018113156110db5760008081fd5b6110e3610fb8565b898301516110f081610a14565b815260408381015161110181610bb1565b828c01529183015191888311156111185760008081fd5b82840193508d603f85011261112f57600092508283fd5b8a840151925061114161108384611012565b83815260059390931b84018101928b8101908f8511156111615760008081fd5b948201945b8486101561118857855161117981610b5d565b8252948c0194908c0190611166565b9183019190915250855250509186019186016110ab565b5098975050505050505050565b6000815180845260005b818110156111d2576020818501810151868301820152016111b6565b506000602082860101526020601f19601f83011685010191505092915050565b60006060808301818452808751808352608092508286019150828160051b8701016020808b016000805b858110156112ad578a8503607f19018752825180516001600160a01b03168652848101518a87019061125087890182610bbe565b506040918201519187018b90528151908190529085019083908a8801905b808310156112985783516001600160e01b031916825292870192600192909201919087019061126e565b5098860198965050509183019160010161121c565b5050506001600160a01b038a169088015286810360408801526112d081896111ac565b9a9950505050505050505050565b6000602082840312156112f057600080fd5b81516112fb81610a14565b939250505056fe9f684a81ee6e6fb92a5ae5a2560bb267d45aada2be40484754980c3e16e44d98e007241d1889ec8c05dc8b1092e6a7dc887697913faabbdc9fe930d998ad974de007241d1889ec8c05dc8b1092e6a7dc887697913faabbdc9fe930d998ad974ba2646970667358221220825757aa5c3e8bcef6e9aad18bbda7327c8038621e259c8b0705f44ac543d94864736f6c63430008150033","opcodes":"PUSH1 0x80 PUSH1 0x40 MSTORE CALLVALUE DUP1 ISZERO PUSH2 0x10 JUMPI PUSH1 0x0 DUP1 REVERT JUMPDEST POP PUSH2 0x1398 DUP1 PUSH2 0x20 PUSH1 0x0 CODECOPY PUSH1 0x0 RETURN INVALID PUSH1 0x80 PUSH1 0x40 MSTORE CALLVALUE DUP1 ISZERO PUSH2 0x10 JUMPI PUSH1 0x0 DUP1 REVERT JUMPDEST POP PUSH1 0x4 CALLDATASIZE LT PUSH2 0x93 JUMPI PUSH1 0x0 CALLDATALOAD PUSH1 0xE0 SHR DUP1 PUSH4 0xAC7F05F9 GT PUSH2 0x66 JUMPI DUP1 PUSH4 0xAC7F05F9 EQ PUSH2 0x113 JUMPI DUP1 PUSH4 0xB7575C5F EQ PUSH2 0x173 JUMPI DUP1 PUSH4 0xCD2DDD0C EQ PUSH2 0x186 JUMPI DUP1 PUSH4 0xD33219B4 EQ PUSH2 0x1AD JUMPI DUP1 PUSH4 0xE9143174 EQ PUSH2 0x1C2 JUMPI PUSH1 0x0 DUP1 REVERT JUMPDEST DUP1 PUSH4 0x88775A3 EQ PUSH2 0x98 JUMPI DUP1 PUSH4 0x1CECF99E EQ PUSH2 0xD8 JUMPI DUP1 PUSH4 0x89210385 EQ PUSH2 0xED JUMPI DUP1 PUSH4 0x8EF34CC1 EQ PUSH2 0x100 JUMPI JUMPDEST PUSH1 0x0 DUP1 REVERT JUMPDEST PUSH2 0xC5 PUSH2 0xA6 CALLDATASIZE PUSH1 0x4 PUSH2 0x9FB JUMP JUMPDEST PUSH1 0x0 SWAP1 DUP2 MSTORE PUSH1 0x0 DUP1 MLOAD PUSH1 0x20 PUSH2 0x1323 DUP4 CODECOPY DUP2 MLOAD SWAP2 MSTORE PUSH1 0x20 MSTORE PUSH1 0x40 SWAP1 KECCAK256 SLOAD SWAP1 JUMP JUMPDEST PUSH1 0x40 MLOAD SWAP1 DUP2 MSTORE PUSH1 0x20 ADD JUMPDEST PUSH1 0x40 MLOAD DUP1 SWAP2 SUB SWAP1 RETURN JUMPDEST PUSH2 0xEB PUSH2 0xE6 CALLDATASIZE PUSH1 0x4 PUSH2 0xA82 JUMP JUMPDEST PUSH2 0x1D5 JUMP JUMPDEST STOP JUMPDEST PUSH2 0xEB PUSH2 0xFB CALLDATASIZE PUSH1 0x4 PUSH2 0xB3B JUMP JUMPDEST PUSH2 0x358 JUMP JUMPDEST PUSH2 0xEB PUSH2 0x10E CALLDATASIZE PUSH1 0x4 PUSH2 0xB73 JUMP JUMPDEST PUSH2 0x3DF JUMP JUMPDEST PUSH2 0x15B PUSH2 0x121 CALLDATASIZE PUSH1 0x4 PUSH2 0x9FB JUMP JUMPDEST PUSH1 0x0 SWAP1 DUP2 MSTORE PUSH32 0xE007241D1889EC8C05DC8B1092E6A7DC887697913FAABBDC9FE930D998AD9751 PUSH1 0x20 MSTORE PUSH1 0x40 SWAP1 KECCAK256 SLOAD PUSH1 0x1 PUSH1 0x1 PUSH1 0xA0 SHL SUB AND SWAP1 JUMP JUMPDEST PUSH1 0x40 MLOAD PUSH1 0x1 PUSH1 0x1 PUSH1 0xA0 SHL SUB SWAP1 SWAP2 AND DUP2 MSTORE PUSH1 0x20 ADD PUSH2 0xCF JUMP JUMPDEST PUSH2 0xEB PUSH2 0x181 CALLDATASIZE PUSH1 0x4 PUSH2 0x9FB JUMP JUMPDEST PUSH2 0x4D6 JUMP JUMPDEST PUSH32 0xE007241D1889EC8C05DC8B1092E6A7DC887697913FAABBDC9FE930D998AD974C SLOAD PUSH2 0xC5 JUMP JUMPDEST PUSH1 0x0 DUP1 MLOAD PUSH1 0x20 PUSH2 0x1343 DUP4 CODECOPY DUP2 MLOAD SWAP2 MSTORE SLOAD PUSH2 0xC5 JUMP JUMPDEST PUSH2 0xEB PUSH2 0x1D0 CALLDATASIZE PUSH1 0x4 PUSH2 0x9FB JUMP JUMPDEST PUSH2 0x609 JUMP JUMPDEST PUSH2 0x1DD PUSH2 0x928 JUMP JUMPDEST ISZERO DUP1 ISZERO PUSH2 0x207 JUMPI POP CALLER PUSH1 0x0 SWAP1 DUP2 MSTORE PUSH1 0x0 DUP1 MLOAD PUSH1 0x20 PUSH2 0x1303 DUP4 CODECOPY DUP2 MLOAD SWAP2 MSTORE PUSH1 0x20 MSTORE PUSH1 0x40 SWAP1 KECCAK256 SLOAD PUSH1 0x2 AND ISZERO JUMPDEST ISZERO PUSH2 0x225 JUMPI PUSH1 0x40 MLOAD PUSH4 0x30F2D01 PUSH1 0xE0 SHL DUP2 MSTORE PUSH1 0x4 ADD PUSH1 0x40 MLOAD DUP1 SWAP2 SUB SWAP1 REVERT JUMPDEST PUSH1 0x0 DUP7 DUP2 MSTORE PUSH1 0x0 DUP1 MLOAD PUSH1 0x20 PUSH2 0x1323 DUP4 CODECOPY DUP2 MLOAD SWAP2 MSTORE PUSH1 0x20 MSTORE PUSH1 0x40 SWAP1 KECCAK256 SLOAD PUSH1 0x0 DUP1 MLOAD PUSH1 0x20 PUSH2 0x1343 DUP4 CODECOPY DUP2 MLOAD SWAP2 MSTORE SWAP1 ISZERO PUSH2 0x26F JUMPI PUSH1 0x40 MLOAD PUSH4 0x77889CB9 PUSH1 0xE1 SHL DUP2 MSTORE PUSH1 0x4 ADD PUSH1 0x40 MLOAD DUP1 SWAP2 SUB SWAP1 REVERT JUMPDEST DUP6 DUP6 PUSH1 0x40 MLOAD PUSH1 0x20 ADD PUSH2 0x282 SWAP3 SWAP2 SWAP1 PUSH2 0xC2A JUMP JUMPDEST PUSH1 0x40 DUP1 MLOAD PUSH1 0x1F NOT DUP2 DUP5 SUB ADD DUP2 MSTORE SWAP2 DUP2 MSTORE PUSH1 0x0 DUP10 DUP2 MSTORE PUSH1 0x3 DUP5 ADD PUSH1 0x20 MSTORE KECCAK256 SWAP1 PUSH2 0x2AA SWAP1 DUP3 PUSH2 0xDBD JUMP JUMPDEST POP PUSH1 0x0 DUP8 DUP2 MSTORE PUSH1 0x4 DUP3 ADD PUSH1 0x20 SWAP1 DUP2 MSTORE PUSH1 0x40 DUP1 DUP4 KECCAK256 DUP1 SLOAD PUSH1 0x1 PUSH1 0x1 PUSH1 0xA0 SHL SUB NOT AND PUSH1 0x1 PUSH1 0x1 PUSH1 0xA0 SHL SUB DUP10 AND OR SWAP1 SSTORE PUSH1 0x5 DUP5 ADD SWAP1 SWAP2 MSTORE SWAP1 KECCAK256 PUSH2 0x2EB DUP4 DUP6 DUP4 PUSH2 0xE7D JUMP JUMPDEST POP PUSH1 0x0 DUP8 DUP2 MSTORE PUSH1 0x6 DUP3 ADD PUSH1 0x20 MSTORE PUSH1 0x40 SWAP1 DUP2 SWAP1 KECCAK256 DUP1 SLOAD PUSH1 0x1 PUSH1 0x1 PUSH1 0xA0 SHL SUB NOT AND CALLER SWAP1 DUP2 OR SWAP1 SWAP2 SSTORE SWAP1 MLOAD PUSH32 0x4B6F537EC3651D114B7F1DA43925340CCC5DA8AE647B03B6E86A7E262291C3E4 SWAP2 PUSH2 0x347 SWAP2 DUP11 SWAP2 SWAP1 DUP9 SWAP1 DUP9 SWAP1 DUP9 SWAP1 PUSH2 0xF3E JUMP JUMPDEST PUSH1 0x40 MLOAD DUP1 SWAP2 SUB SWAP1 LOG1 POP POP POP POP POP POP POP JUMP JUMPDEST PUSH2 0x360 PUSH2 0x928 JUMP JUMPDEST ISZERO DUP1 ISZERO PUSH2 0x38A JUMPI POP CALLER PUSH1 0x0 SWAP1 DUP2 MSTORE PUSH1 0x0 DUP1 MLOAD PUSH1 0x20 PUSH2 0x1303 DUP4 CODECOPY DUP2 MLOAD SWAP2 MSTORE PUSH1 0x20 MSTORE PUSH1 0x40 SWAP1 KECCAK256 SLOAD PUSH1 0x2 AND ISZERO JUMPDEST ISZERO PUSH2 0x3A8 JUMPI PUSH1 0x40 MLOAD PUSH4 0x30F2D01 PUSH1 0xE0 SHL DUP2 MSTORE PUSH1 0x4 ADD PUSH1 0x40 MLOAD DUP1 SWAP2 SUB SWAP1 REVERT JUMPDEST PUSH1 0x0 DUP1 MLOAD PUSH1 0x20 PUSH2 0x1343 DUP4 CODECOPY DUP2 MLOAD SWAP2 MSTORE SWAP2 SWAP1 SWAP2 SSTORE PUSH32 0xE007241D1889EC8C05DC8B1092E6A7DC887697913FAABBDC9FE930D998AD974C SSTORE JUMP JUMPDEST PUSH2 0x3E7 PUSH2 0x928 JUMP JUMPDEST ISZERO DUP1 ISZERO PUSH2 0x411 JUMPI POP CALLER PUSH1 0x0 SWAP1 DUP2 MSTORE PUSH1 0x0 DUP1 MLOAD PUSH1 0x20 PUSH2 0x1303 DUP4 CODECOPY DUP2 MLOAD SWAP2 MSTORE PUSH1 0x20 MSTORE PUSH1 0x40 SWAP1 KECCAK256 SLOAD PUSH1 0x2 AND ISZERO JUMPDEST ISZERO PUSH2 0x42F JUMPI PUSH1 0x40 MLOAD PUSH4 0x30F2D01 PUSH1 0xE0 SHL DUP2 MSTORE PUSH1 0x4 ADD PUSH1 0x40 MLOAD DUP1 SWAP2 SUB SWAP1 REVERT JUMPDEST PUSH1 0x1 PUSH1 0x1 PUSH1 0xE0 SHL SUB NOT DUP3 AND PUSH1 0x0 DUP2 DUP2 MSTORE PUSH32 0xBE2039D0ACEBC8F39ACA028FAA2657D60691246A654EF49134D442FBE066DF4F PUSH1 0x20 SWAP1 DUP2 MSTORE PUSH1 0x40 SWAP2 DUP3 SWAP1 KECCAK256 DUP1 SLOAD PUSH1 0xFF NOT AND DUP6 ISZERO ISZERO SWAP1 DUP2 OR SWAP1 SWAP2 SSTORE DUP3 MLOAD SWAP4 DUP5 MSTORE SWAP1 DUP4 ADD MSTORE PUSH32 0xBE2039D0ACEBC8F39ACA028FAA2657D60691246A654EF49134D442FBE066DF4E SWAP2 PUSH32 0xD688AAC15B110BDBDD9C1549B5030E42A2B092C356FE4F8F1EC89445413AFF37 SWAP2 ADD JUMPDEST PUSH1 0x40 MLOAD DUP1 SWAP2 SUB SWAP1 LOG1 POP POP POP JUMP JUMPDEST PUSH2 0x4DE PUSH2 0x928 JUMP JUMPDEST ISZERO DUP1 ISZERO PUSH2 0x508 JUMPI POP CALLER PUSH1 0x0 SWAP1 DUP2 MSTORE PUSH1 0x0 DUP1 MLOAD PUSH1 0x20 PUSH2 0x1303 DUP4 CODECOPY DUP2 MLOAD SWAP2 MSTORE PUSH1 0x20 MSTORE PUSH1 0x40 SWAP1 KECCAK256 SLOAD PUSH1 0x2 AND ISZERO JUMPDEST ISZERO PUSH2 0x526 JUMPI PUSH1 0x40 MLOAD PUSH4 0x30F2D01 PUSH1 0xE0 SHL DUP2 MSTORE PUSH1 0x4 ADD PUSH1 0x40 MLOAD DUP1 SWAP2 SUB SWAP1 REVERT JUMPDEST PUSH1 0x0 DUP2 DUP2 MSTORE PUSH1 0x0 DUP1 MLOAD PUSH1 0x20 PUSH2 0x1323 DUP4 CODECOPY DUP2 MLOAD SWAP2 MSTORE PUSH1 0x20 MSTORE PUSH1 0x40 SWAP1 KECCAK256 SLOAD PUSH1 0x0 DUP1 MLOAD PUSH1 0x20 PUSH2 0x1343 DUP4 CODECOPY DUP2 MLOAD SWAP2 MSTORE SWAP1 ISZERO PUSH2 0x570 JUMPI PUSH1 0x40 MLOAD PUSH4 0x366CED81 PUSH1 0xE1 SHL DUP2 MSTORE PUSH1 0x4 ADD PUSH1 0x40 MLOAD DUP1 SWAP2 SUB SWAP1 REVERT JUMPDEST PUSH1 0x0 DUP3 DUP2 MSTORE PUSH1 0x3 DUP3 ADD PUSH1 0x20 MSTORE PUSH1 0x40 SWAP1 KECCAK256 DUP1 SLOAD PUSH2 0x58B SWAP1 PUSH2 0xD34 JUMP JUMPDEST SWAP1 POP PUSH1 0x0 SUB PUSH2 0x5AD JUMPI PUSH1 0x40 MLOAD PUSH4 0x315A6FF3 PUSH1 0xE1 SHL DUP2 MSTORE PUSH1 0x4 ADD PUSH1 0x40 MLOAD DUP1 SWAP2 SUB SWAP1 REVERT JUMPDEST DUP1 SLOAD PUSH1 0x0 SWAP1 PUSH2 0x5BC SWAP1 TIMESTAMP PUSH2 0xF91 JUMP JUMPDEST PUSH1 0x0 DUP5 DUP2 MSTORE PUSH1 0x2 DUP5 ADD PUSH1 0x20 SWAP1 DUP2 MSTORE PUSH1 0x40 SWAP2 DUP3 SWAP1 KECCAK256 DUP4 SWAP1 SSTORE DUP2 MLOAD DUP7 DUP2 MSTORE SWAP1 DUP2 ADD DUP4 SWAP1 MSTORE SWAP2 SWAP3 POP PUSH32 0x185C36DA5B944CEEBBC4AD0EFE1091F62AFC94DFF2CFE54BBC0EEE969FD44AA4 SWAP2 ADD PUSH2 0x4C9 JUMP JUMPDEST PUSH2 0x611 PUSH2 0x928 JUMP JUMPDEST ISZERO DUP1 ISZERO PUSH2 0x63B JUMPI POP CALLER PUSH1 0x0 SWAP1 DUP2 MSTORE PUSH1 0x0 DUP1 MLOAD PUSH1 0x20 PUSH2 0x1303 DUP4 CODECOPY DUP2 MLOAD SWAP2 MSTORE PUSH1 0x20 MSTORE PUSH1 0x40 SWAP1 KECCAK256 SLOAD PUSH1 0x1 AND ISZERO JUMPDEST ISZERO PUSH2 0x659 JUMPI PUSH1 0x40 MLOAD PUSH4 0x7A73FAF7 PUSH1 0xE1 SHL DUP2 MSTORE PUSH1 0x4 ADD PUSH1 0x40 MLOAD DUP1 SWAP2 SUB SWAP1 REVERT JUMPDEST PUSH1 0x0 DUP2 DUP2 MSTORE PUSH1 0x0 DUP1 MLOAD PUSH1 0x20 PUSH2 0x1323 DUP4 CODECOPY DUP2 MLOAD SWAP2 MSTORE PUSH1 0x20 MSTORE PUSH1 0x40 SWAP1 KECCAK256 SLOAD PUSH1 0x0 DUP1 MLOAD PUSH1 0x20 PUSH2 0x1343 DUP4 CODECOPY DUP2 MLOAD SWAP2 MSTORE SWAP1 DUP1 ISZERO DUP1 PUSH2 0x691 JUMPI POP DUP1 TIMESTAMP LT JUMPDEST ISZERO PUSH2 0x6AF JUMPI PUSH1 0x40 MLOAD PUSH4 0x4E395B85 PUSH1 0xE0 SHL DUP2 MSTORE PUSH1 0x4 ADD PUSH1 0x40 MLOAD DUP1 SWAP2 SUB SWAP1 REVERT JUMPDEST PUSH1 0x0 DUP4 DUP2 MSTORE PUSH1 0x3 DUP4 ADD PUSH1 0x20 MSTORE PUSH1 0x40 DUP2 KECCAK256 DUP1 SLOAD PUSH2 0x6CA SWAP1 PUSH2 0xD34 JUMP JUMPDEST DUP1 PUSH1 0x1F ADD PUSH1 0x20 DUP1 SWAP2 DIV MUL PUSH1 0x20 ADD PUSH1 0x40 MLOAD SWAP1 DUP2 ADD PUSH1 0x40 MSTORE DUP1 SWAP3 SWAP2 SWAP1 DUP2 DUP2 MSTORE PUSH1 0x20 ADD DUP3 DUP1 SLOAD PUSH2 0x6F6 SWAP1 PUSH2 0xD34 JUMP JUMPDEST DUP1 ISZERO PUSH2 0x743 JUMPI DUP1 PUSH1 0x1F LT PUSH2 0x718 JUMPI PUSH2 0x100 DUP1 DUP4 SLOAD DIV MUL DUP4 MSTORE SWAP2 PUSH1 0x20 ADD SWAP2 PUSH2 0x743 JUMP JUMPDEST DUP3 ADD SWAP2 SWAP1 PUSH1 0x0 MSTORE PUSH1 0x20 PUSH1 0x0 KECCAK256 SWAP1 JUMPDEST DUP2 SLOAD DUP2 MSTORE SWAP1 PUSH1 0x1 ADD SWAP1 PUSH1 0x20 ADD DUP1 DUP4 GT PUSH2 0x726 JUMPI DUP3 SWAP1 SUB PUSH1 0x1F AND DUP3 ADD SWAP2 JUMPDEST POP POP POP POP POP DUP1 PUSH1 0x20 ADD SWAP1 MLOAD DUP2 ADD SWAP1 PUSH2 0x75B SWAP2 SWAP1 PUSH2 0x1036 JUMP JUMPDEST PUSH1 0x0 DUP6 DUP2 MSTORE PUSH1 0x4 DUP6 ADD PUSH1 0x20 SWAP1 DUP2 MSTORE PUSH1 0x40 DUP1 DUP4 KECCAK256 SLOAD PUSH1 0x5 DUP9 ADD SWAP1 SWAP3 MSTORE DUP3 KECCAK256 DUP1 SLOAD SWAP4 SWAP5 POP PUSH1 0x1 PUSH1 0x1 PUSH1 0xA0 SHL SUB SWAP1 SWAP2 AND SWAP3 PUSH2 0x792 SWAP1 PUSH2 0xD34 JUMP JUMPDEST DUP1 PUSH1 0x1F ADD PUSH1 0x20 DUP1 SWAP2 DIV MUL PUSH1 0x20 ADD PUSH1 0x40 MLOAD SWAP1 DUP2 ADD PUSH1 0x40 MSTORE DUP1 SWAP3 SWAP2 SWAP1 DUP2 DUP2 MSTORE PUSH1 0x20 ADD DUP3 DUP1 SLOAD PUSH2 0x7BE SWAP1 PUSH2 0xD34 JUMP JUMPDEST DUP1 ISZERO PUSH2 0x80B JUMPI DUP1 PUSH1 0x1F LT PUSH2 0x7E0 JUMPI PUSH2 0x100 DUP1 DUP4 SLOAD DIV MUL DUP4 MSTORE SWAP2 PUSH1 0x20 ADD SWAP2 PUSH2 0x80B JUMP JUMPDEST DUP3 ADD SWAP2 SWAP1 PUSH1 0x0 MSTORE PUSH1 0x20 PUSH1 0x0 KECCAK256 SWAP1 JUMPDEST DUP2 SLOAD DUP2 MSTORE SWAP1 PUSH1 0x1 ADD SWAP1 PUSH1 0x20 ADD DUP1 DUP4 GT PUSH2 0x7EE JUMPI DUP3 SWAP1 SUB PUSH1 0x1F AND DUP3 ADD SWAP2 JUMPDEST POP POP PUSH1 0x40 MLOAD PUSH4 0x7E4C707 PUSH1 0xE2 SHL DUP2 MSTORE SWAP4 SWAP5 POP ADDRESS SWAP4 PUSH4 0x1F931C1C SWAP4 POP PUSH2 0x83A SWAP3 POP DUP8 SWAP2 POP DUP7 SWAP1 DUP7 SWAP1 PUSH1 0x4 ADD PUSH2 0x11F2 JUMP JUMPDEST PUSH1 0x0 PUSH1 0x40 MLOAD DUP1 DUP4 SUB DUP2 PUSH1 0x0 DUP8 DUP1 EXTCODESIZE ISZERO DUP1 ISZERO PUSH2 0x854 JUMPI PUSH1 0x0 DUP1 REVERT JUMPDEST POP GAS CALL ISZERO DUP1 ISZERO PUSH2 0x868 JUMPI RETURNDATASIZE PUSH1 0x0 DUP1 RETURNDATACOPY RETURNDATASIZE PUSH1 0x0 REVERT JUMPDEST POP POP POP PUSH1 0x0 DUP8 DUP2 MSTORE PUSH1 0x2 DUP8 ADD PUSH1 0x20 SWAP1 DUP2 MSTORE PUSH1 0x40 DUP1 DUP4 KECCAK256 DUP4 SWAP1 SSTORE PUSH1 0x3 DUP10 ADD SWAP1 SWAP2 MSTORE DUP2 KECCAK256 PUSH2 0x895 SWAP3 POP SWAP1 PUSH2 0x9A5 JUMP JUMPDEST PUSH1 0x0 DUP7 DUP2 MSTORE PUSH1 0x4 DUP7 ADD PUSH1 0x20 SWAP1 DUP2 MSTORE PUSH1 0x40 DUP1 DUP4 KECCAK256 DUP1 SLOAD PUSH1 0x1 PUSH1 0x1 PUSH1 0xA0 SHL SUB NOT AND SWAP1 SSTORE PUSH1 0x5 DUP9 ADD SWAP1 SWAP2 MSTORE DUP2 KECCAK256 PUSH2 0x8C8 SWAP2 PUSH2 0x9A5 JUMP JUMPDEST PUSH1 0x0 DUP7 DUP2 MSTORE PUSH1 0x6 DUP7 ADD PUSH1 0x20 MSTORE PUSH1 0x40 SWAP1 DUP2 SWAP1 KECCAK256 DUP1 SLOAD PUSH1 0x1 PUSH1 0x1 PUSH1 0xA0 SHL SUB NOT AND SWAP1 SSTORE MLOAD PUSH32 0xA1A0AC873C8783A53A3894276AE096D022C74A662925ADC3DD1B364A5024355A SWAP1 PUSH2 0x918 SWAP1 DUP9 DUP2 MSTORE PUSH1 0x20 ADD SWAP1 JUMP JUMPDEST PUSH1 0x40 MLOAD DUP1 SWAP2 SUB SWAP1 LOG1 POP POP POP POP POP POP JUMP JUMPDEST PUSH1 0x0 CALLER PUSH1 0x1 PUSH1 0x1 PUSH1 0xA0 SHL SUB AND ADDRESS PUSH1 0x1 PUSH1 0x1 PUSH1 0xA0 SHL SUB AND PUSH4 0x8DA5CB5B PUSH1 0x40 MLOAD DUP2 PUSH4 0xFFFFFFFF AND PUSH1 0xE0 SHL DUP2 MSTORE PUSH1 0x4 ADD PUSH1 0x20 PUSH1 0x40 MLOAD DUP1 DUP4 SUB DUP2 DUP7 GAS STATICCALL ISZERO DUP1 ISZERO PUSH2 0x972 JUMPI RETURNDATASIZE PUSH1 0x0 DUP1 RETURNDATACOPY RETURNDATASIZE PUSH1 0x0 REVERT JUMPDEST POP POP POP POP PUSH1 0x40 MLOAD RETURNDATASIZE PUSH1 0x1F NOT PUSH1 0x1F DUP3 ADD AND DUP3 ADD DUP1 PUSH1 0x40 MSTORE POP DUP2 ADD SWAP1 PUSH2 0x996 SWAP2 SWAP1 PUSH2 0x12DE JUMP JUMPDEST PUSH1 0x1 PUSH1 0x1 PUSH1 0xA0 SHL SUB AND EQ SWAP1 POP SWAP1 JUMP JUMPDEST POP DUP1 SLOAD PUSH2 0x9B1 SWAP1 PUSH2 0xD34 JUMP JUMPDEST PUSH1 0x0 DUP3 SSTORE DUP1 PUSH1 0x1F LT PUSH2 0x9C1 JUMPI POP POP JUMP JUMPDEST PUSH1 0x1F ADD PUSH1 0x20 SWAP1 DIV SWAP1 PUSH1 0x0 MSTORE PUSH1 0x20 PUSH1 0x0 KECCAK256 SWAP1 DUP2 ADD SWAP1 PUSH2 0x9DF SWAP2 SWAP1 PUSH2 0x9E2 JUMP JUMPDEST POP JUMP JUMPDEST JUMPDEST DUP1 DUP3 GT ISZERO PUSH2 0x9F7 JUMPI PUSH1 0x0 DUP2 SSTORE PUSH1 0x1 ADD PUSH2 0x9E3 JUMP JUMPDEST POP SWAP1 JUMP JUMPDEST PUSH1 0x0 PUSH1 0x20 DUP3 DUP5 SUB SLT ISZERO PUSH2 0xA0D JUMPI PUSH1 0x0 DUP1 REVERT JUMPDEST POP CALLDATALOAD SWAP2 SWAP1 POP JUMP JUMPDEST PUSH1 0x1 PUSH1 0x1 PUSH1 0xA0 SHL SUB DUP2 AND DUP2 EQ PUSH2 0x9DF JUMPI PUSH1 0x0 DUP1 REVERT JUMPDEST DUP1 CALLDATALOAD PUSH2 0xA34 DUP2 PUSH2 0xA14 JUMP JUMPDEST SWAP2 SWAP1 POP JUMP JUMPDEST PUSH1 0x0 DUP1 DUP4 PUSH1 0x1F DUP5 ADD SLT PUSH2 0xA4B JUMPI PUSH1 0x0 DUP1 REVERT JUMPDEST POP DUP2 CALLDATALOAD PUSH8 0xFFFFFFFFFFFFFFFF DUP2 GT ISZERO PUSH2 0xA63 JUMPI PUSH1 0x0 DUP1 REVERT JUMPDEST PUSH1 0x20 DUP4 ADD SWAP2 POP DUP4 PUSH1 0x20 DUP3 DUP6 ADD ADD GT ISZERO PUSH2 0xA7B JUMPI PUSH1 0x0 DUP1 REVERT JUMPDEST SWAP3 POP SWAP3 SWAP1 POP JUMP JUMPDEST PUSH1 0x0 DUP1 PUSH1 0x0 DUP1 PUSH1 0x0 DUP1 PUSH1 0x80 DUP8 DUP10 SUB SLT ISZERO PUSH2 0xA9B JUMPI PUSH1 0x0 DUP1 REVERT JUMPDEST DUP7 CALLDATALOAD SWAP6 POP PUSH1 0x20 DUP8 ADD CALLDATALOAD PUSH8 0xFFFFFFFFFFFFFFFF DUP1 DUP3 GT ISZERO PUSH2 0xABA JUMPI PUSH1 0x0 DUP1 REVERT JUMPDEST DUP2 DUP10 ADD SWAP2 POP DUP10 PUSH1 0x1F DUP4 ADD SLT PUSH2 0xACE JUMPI PUSH1 0x0 DUP1 REVERT JUMPDEST DUP2 CALLDATALOAD DUP2 DUP2 GT ISZERO PUSH2 0xADD JUMPI PUSH1 0x0 DUP1 REVERT JUMPDEST DUP11 PUSH1 0x20 DUP3 PUSH1 0x5 SHL DUP6 ADD ADD GT ISZERO PUSH2 0xAF2 JUMPI PUSH1 0x0 DUP1 REVERT JUMPDEST PUSH1 0x20 DUP4 ADD SWAP8 POP SWAP6 POP PUSH2 0xB06 PUSH1 0x40 DUP11 ADD PUSH2 0xA29 JUMP JUMPDEST SWAP5 POP PUSH1 0x60 DUP10 ADD CALLDATALOAD SWAP2 POP DUP1 DUP3 GT ISZERO PUSH2 0xB1C JUMPI PUSH1 0x0 DUP1 REVERT JUMPDEST POP PUSH2 0xB29 DUP10 DUP3 DUP11 ADD PUSH2 0xA39 JUMP JUMPDEST SWAP8 SWAP11 SWAP7 SWAP10 POP SWAP5 SWAP8 POP SWAP3 SWAP6 SWAP4 SWAP5 SWAP3 POP POP POP JUMP JUMPDEST PUSH1 0x0 DUP1 PUSH1 0x40 DUP4 DUP6 SUB SLT ISZERO PUSH2 0xB4E JUMPI PUSH1 0x0 DUP1 REVERT JUMPDEST POP POP DUP1 CALLDATALOAD SWAP3 PUSH1 0x20 SWAP1 SWAP2 ADD CALLDATALOAD SWAP2 POP JUMP JUMPDEST PUSH1 0x1 PUSH1 0x1 PUSH1 0xE0 SHL SUB NOT DUP2 AND DUP2 EQ PUSH2 0x9DF JUMPI PUSH1 0x0 DUP1 REVERT JUMPDEST PUSH1 0x0 DUP1 PUSH1 0x40 DUP4 DUP6 SUB SLT ISZERO PUSH2 0xB86 JUMPI PUSH1 0x0 DUP1 REVERT JUMPDEST DUP3 CALLDATALOAD PUSH2 0xB91 DUP2 PUSH2 0xB5D JUMP JUMPDEST SWAP2 POP PUSH1 0x20 DUP4 ADD CALLDATALOAD DUP1 ISZERO ISZERO DUP2 EQ PUSH2 0xBA6 JUMPI PUSH1 0x0 DUP1 REVERT JUMPDEST DUP1 SWAP2 POP POP SWAP3 POP SWAP3 SWAP1 POP JUMP JUMPDEST PUSH1 0x3 DUP2 LT PUSH2 0x9DF JUMPI PUSH1 0x0 DUP1 REVERT JUMPDEST PUSH1 0x3 DUP2 LT PUSH2 0xBDC JUMPI PUSH4 0x4E487B71 PUSH1 0xE0 SHL PUSH1 0x0 MSTORE PUSH1 0x21 PUSH1 0x4 MSTORE PUSH1 0x24 PUSH1 0x0 REVERT JUMPDEST SWAP1 MSTORE JUMP JUMPDEST DUP2 DUP4 MSTORE PUSH1 0x0 PUSH1 0x20 DUP1 DUP6 ADD SWAP5 POP DUP3 PUSH1 0x0 JUMPDEST DUP6 DUP2 LT ISZERO PUSH2 0xC1F JUMPI DUP2 CALLDATALOAD PUSH2 0xC03 DUP2 PUSH2 0xB5D JUMP JUMPDEST PUSH1 0x1 PUSH1 0x1 PUSH1 0xE0 SHL SUB NOT AND DUP8 MSTORE SWAP6 DUP3 ADD SWAP6 SWAP1 DUP3 ADD SWAP1 PUSH1 0x1 ADD PUSH2 0xBF0 JUMP JUMPDEST POP SWAP5 SWAP6 SWAP5 POP POP POP POP POP JUMP JUMPDEST PUSH1 0x20 DUP1 DUP3 MSTORE DUP2 DUP2 ADD DUP4 SWAP1 MSTORE PUSH1 0x0 SWAP1 PUSH1 0x40 DUP1 DUP5 ADD PUSH1 0x5 DUP7 DUP2 SHL DUP7 ADD DUP4 ADD DUP9 DUP7 JUMPDEST DUP10 DUP2 LT ISZERO PUSH2 0xD0F JUMPI DUP9 DUP4 SUB PUSH1 0x3F NOT ADD DUP6 MSTORE DUP2 CALLDATALOAD CALLDATASIZE DUP13 SWAP1 SUB PUSH1 0x5E NOT ADD DUP2 SLT PUSH2 0xC6F JUMPI PUSH1 0x0 DUP1 REVERT JUMPDEST DUP12 ADD PUSH1 0x60 DUP2 CALLDATALOAD PUSH2 0xC7E DUP2 PUSH2 0xA14 JUMP JUMPDEST PUSH1 0x1 PUSH1 0x1 PUSH1 0xA0 SHL SUB AND DUP6 MSTORE DUP2 DUP10 ADD CALLDATALOAD PUSH2 0xC96 DUP2 PUSH2 0xBB1 JUMP JUMPDEST PUSH2 0xCA2 DUP11 DUP8 ADD DUP3 PUSH2 0xBBE JUMP JUMPDEST POP DUP8 DUP3 ADD CALLDATALOAD PUSH1 0x1E NOT DUP4 CALLDATASIZE SUB ADD DUP2 SLT PUSH2 0xCB9 JUMPI PUSH1 0x0 DUP1 REVERT JUMPDEST SWAP1 SWAP2 ADD DUP9 DUP2 ADD SWAP2 SWAP1 CALLDATALOAD PUSH8 0xFFFFFFFFFFFFFFFF DUP2 GT ISZERO PUSH2 0xCD7 JUMPI PUSH1 0x0 DUP1 REVERT JUMPDEST DUP1 DUP8 SHL CALLDATASIZE SUB DUP4 SGT ISZERO PUSH2 0xCE8 JUMPI PUSH1 0x0 DUP1 REVERT JUMPDEST DUP2 DUP10 DUP8 ADD MSTORE PUSH2 0xCFA DUP3 DUP8 ADD DUP3 DUP6 PUSH2 0xBE0 JUMP JUMPDEST SWAP8 DUP11 ADD SWAP8 SWAP6 POP POP POP SWAP2 DUP8 ADD SWAP2 POP PUSH1 0x1 ADD PUSH2 0xC49 JUMP JUMPDEST POP SWAP1 SWAP10 SWAP9 POP POP POP POP POP POP POP POP POP JUMP JUMPDEST PUSH4 0x4E487B71 PUSH1 0xE0 SHL PUSH1 0x0 MSTORE PUSH1 0x41 PUSH1 0x4 MSTORE PUSH1 0x24 PUSH1 0x0 REVERT JUMPDEST PUSH1 0x1 DUP2 DUP2 SHR SWAP1 DUP3 AND DUP1 PUSH2 0xD48 JUMPI PUSH1 0x7F DUP3 AND SWAP2 POP JUMPDEST PUSH1 0x20 DUP3 LT DUP2 SUB PUSH2 0xD68 JUMPI PUSH4 0x4E487B71 PUSH1 0xE0 SHL PUSH1 0x0 MSTORE PUSH1 0x22 PUSH1 0x4 MSTORE PUSH1 0x24 PUSH1 0x0 REVERT JUMPDEST POP SWAP2 SWAP1 POP JUMP JUMPDEST PUSH1 0x1F DUP3 GT ISZERO PUSH2 0xDB8 JUMPI PUSH1 0x0 DUP2 DUP2 MSTORE PUSH1 0x20 DUP2 KECCAK256 PUSH1 0x1F DUP6 ADD PUSH1 0x5 SHR DUP2 ADD PUSH1 0x20 DUP7 LT ISZERO PUSH2 0xD95 JUMPI POP DUP1 JUMPDEST PUSH1 0x1F DUP6 ADD PUSH1 0x5 SHR DUP3 ADD SWAP2 POP JUMPDEST DUP2 DUP2 LT ISZERO PUSH2 0xDB4 JUMPI DUP3 DUP2 SSTORE PUSH1 0x1 ADD PUSH2 0xDA1 JUMP JUMPDEST POP POP POP JUMPDEST POP POP POP JUMP JUMPDEST DUP2 MLOAD PUSH8 0xFFFFFFFFFFFFFFFF DUP2 GT ISZERO PUSH2 0xDD7 JUMPI PUSH2 0xDD7 PUSH2 0xD1E JUMP JUMPDEST PUSH2 0xDEB DUP2 PUSH2 0xDE5 DUP5 SLOAD PUSH2 0xD34 JUMP JUMPDEST DUP5 PUSH2 0xD6E JUMP JUMPDEST PUSH1 0x20 DUP1 PUSH1 0x1F DUP4 GT PUSH1 0x1 DUP2 EQ PUSH2 0xE20 JUMPI PUSH1 0x0 DUP5 ISZERO PUSH2 0xE08 JUMPI POP DUP6 DUP4 ADD MLOAD JUMPDEST PUSH1 0x0 NOT PUSH1 0x3 DUP7 SWAP1 SHL SHR NOT AND PUSH1 0x1 DUP6 SWAP1 SHL OR DUP6 SSTORE PUSH2 0xDB4 JUMP JUMPDEST PUSH1 0x0 DUP6 DUP2 MSTORE PUSH1 0x20 DUP2 KECCAK256 PUSH1 0x1F NOT DUP7 AND SWAP2 JUMPDEST DUP3 DUP2 LT ISZERO PUSH2 0xE4F JUMPI DUP9 DUP7 ADD MLOAD DUP3 SSTORE SWAP5 DUP5 ADD SWAP5 PUSH1 0x1 SWAP1 SWAP2 ADD SWAP1 DUP5 ADD PUSH2 0xE30 JUMP JUMPDEST POP DUP6 DUP3 LT ISZERO PUSH2 0xE6D JUMPI DUP8 DUP6 ADD MLOAD PUSH1 0x0 NOT PUSH1 0x3 DUP9 SWAP1 SHL PUSH1 0xF8 AND SHR NOT AND DUP2 SSTORE JUMPDEST POP POP POP POP POP PUSH1 0x1 SWAP1 DUP2 SHL ADD SWAP1 SSTORE POP JUMP JUMPDEST PUSH8 0xFFFFFFFFFFFFFFFF DUP4 GT ISZERO PUSH2 0xE95 JUMPI PUSH2 0xE95 PUSH2 0xD1E JUMP JUMPDEST PUSH2 0xEA9 DUP4 PUSH2 0xEA3 DUP4 SLOAD PUSH2 0xD34 JUMP JUMPDEST DUP4 PUSH2 0xD6E JUMP JUMPDEST PUSH1 0x0 PUSH1 0x1F DUP5 GT PUSH1 0x1 DUP2 EQ PUSH2 0xEDD JUMPI PUSH1 0x0 DUP6 ISZERO PUSH2 0xEC5 JUMPI POP DUP4 DUP3 ADD CALLDATALOAD JUMPDEST PUSH1 0x0 NOT PUSH1 0x3 DUP8 SWAP1 SHL SHR NOT AND PUSH1 0x1 DUP7 SWAP1 SHL OR DUP4 SSTORE PUSH2 0xF37 JUMP JUMPDEST PUSH1 0x0 DUP4 DUP2 MSTORE PUSH1 0x20 SWAP1 KECCAK256 PUSH1 0x1F NOT DUP7 AND SWAP1 DUP4 JUMPDEST DUP3 DUP2 LT ISZERO PUSH2 0xF0E JUMPI DUP7 DUP6 ADD CALLDATALOAD DUP3 SSTORE PUSH1 0x20 SWAP5 DUP6 ADD SWAP5 PUSH1 0x1 SWAP1 SWAP3 ADD SWAP2 ADD PUSH2 0xEEE JUMP JUMPDEST POP DUP7 DUP3 LT ISZERO PUSH2 0xF2B JUMPI PUSH1 0x0 NOT PUSH1 0xF8 DUP9 PUSH1 0x3 SHL AND SHR NOT DUP5 DUP8 ADD CALLDATALOAD AND DUP2 SSTORE JUMPDEST POP POP PUSH1 0x1 DUP6 PUSH1 0x1 SHL ADD DUP4 SSTORE JUMPDEST POP POP POP POP POP JUMP JUMPDEST DUP6 DUP2 MSTORE PUSH1 0x1 PUSH1 0x1 PUSH1 0xA0 SHL SUB DUP6 DUP2 AND PUSH1 0x20 DUP4 ADD MSTORE DUP5 AND PUSH1 0x40 DUP3 ADD MSTORE PUSH1 0x80 PUSH1 0x60 DUP3 ADD DUP2 SWAP1 MSTORE DUP2 ADD DUP3 SWAP1 MSTORE PUSH1 0x0 DUP3 DUP5 PUSH1 0xA0 DUP5 ADD CALLDATACOPY PUSH1 0x0 PUSH1 0xA0 DUP5 DUP5 ADD ADD MSTORE PUSH1 0xA0 PUSH1 0x1F NOT PUSH1 0x1F DUP6 ADD AND DUP4 ADD ADD SWAP1 POP SWAP7 SWAP6 POP POP POP POP POP POP JUMP JUMPDEST DUP1 DUP3 ADD DUP1 DUP3 GT ISZERO PUSH2 0xFB2 JUMPI PUSH4 0x4E487B71 PUSH1 0xE0 SHL PUSH1 0x0 MSTORE PUSH1 0x11 PUSH1 0x4 MSTORE PUSH1 0x24 PUSH1 0x0 REVERT JUMPDEST SWAP3 SWAP2 POP POP JUMP JUMPDEST PUSH1 0x40 MLOAD PUSH1 0x60 DUP2 ADD PUSH8 0xFFFFFFFFFFFFFFFF DUP2 GT DUP3 DUP3 LT OR ISZERO PUSH2 0xFDB JUMPI PUSH2 0xFDB PUSH2 0xD1E JUMP JUMPDEST PUSH1 0x40 MSTORE SWAP1 JUMP JUMPDEST PUSH1 0x40 MLOAD PUSH1 0x1F DUP3 ADD PUSH1 0x1F NOT AND DUP2 ADD PUSH8 0xFFFFFFFFFFFFFFFF DUP2 GT DUP3 DUP3 LT OR ISZERO PUSH2 0x100A JUMPI PUSH2 0x100A PUSH2 0xD1E JUMP JUMPDEST PUSH1 0x40 MSTORE SWAP2 SWAP1 POP JUMP JUMPDEST PUSH1 0x0 PUSH8 0xFFFFFFFFFFFFFFFF DUP3 GT ISZERO PUSH2 0x102C JUMPI PUSH2 0x102C PUSH2 0xD1E JUMP JUMPDEST POP PUSH1 0x5 SHL PUSH1 0x20 ADD SWAP1 JUMP JUMPDEST PUSH1 0x0 PUSH1 0x20 DUP1 DUP4 DUP6 SUB SLT ISZERO PUSH2 0x1049 JUMPI PUSH1 0x0 DUP1 REVERT JUMPDEST DUP3 MLOAD PUSH8 0xFFFFFFFFFFFFFFFF DUP1 DUP3 GT ISZERO PUSH2 0x1061 JUMPI PUSH1 0x0 DUP1 REVERT JUMPDEST DUP2 DUP6 ADD SWAP2 POP DUP6 PUSH1 0x1F DUP4 ADD SLT PUSH2 0x1075 JUMPI PUSH1 0x0 DUP1 REVERT JUMPDEST DUP2 MLOAD PUSH2 0x1088 PUSH2 0x1083 DUP3 PUSH2 0x1012 JUMP JUMPDEST PUSH2 0xFE1 JUMP JUMPDEST DUP2 DUP2 MSTORE PUSH1 0x5 SWAP2 SWAP1 SWAP2 SHL DUP4 ADD DUP5 ADD SWAP1 DUP5 DUP2 ADD SWAP1 DUP9 DUP4 GT ISZERO PUSH2 0x10A7 JUMPI PUSH1 0x0 DUP1 REVERT JUMPDEST DUP6 DUP6 ADD JUMPDEST DUP4 DUP2 LT ISZERO PUSH2 0x119F JUMPI DUP1 MLOAD DUP6 DUP2 GT ISZERO PUSH2 0x10C3 JUMPI PUSH1 0x0 DUP1 DUP2 REVERT JUMPDEST DUP7 ADD PUSH1 0x60 DUP2 DUP13 SUB PUSH1 0x1F NOT ADD DUP2 SGT ISZERO PUSH2 0x10DB JUMPI PUSH1 0x0 DUP1 DUP2 REVERT JUMPDEST PUSH2 0x10E3 PUSH2 0xFB8 JUMP JUMPDEST DUP10 DUP4 ADD MLOAD PUSH2 0x10F0 DUP2 PUSH2 0xA14 JUMP JUMPDEST DUP2 MSTORE PUSH1 0x40 DUP4 DUP2 ADD MLOAD PUSH2 0x1101 DUP2 PUSH2 0xBB1 JUMP JUMPDEST DUP3 DUP13 ADD MSTORE SWAP2 DUP4 ADD MLOAD SWAP2 DUP9 DUP4 GT ISZERO PUSH2 0x1118 JUMPI PUSH1 0x0 DUP1 DUP2 REVERT JUMPDEST DUP3 DUP5 ADD SWAP4 POP DUP14 PUSH1 0x3F DUP6 ADD SLT PUSH2 0x112F JUMPI PUSH1 0x0 SWAP3 POP DUP3 DUP4 REVERT JUMPDEST DUP11 DUP5 ADD MLOAD SWAP3 POP PUSH2 0x1141 PUSH2 0x1083 DUP5 PUSH2 0x1012 JUMP JUMPDEST DUP4 DUP2 MSTORE PUSH1 0x5 SWAP4 SWAP1 SWAP4 SHL DUP5 ADD DUP2 ADD SWAP3 DUP12 DUP2 ADD SWAP1 DUP16 DUP6 GT ISZERO PUSH2 0x1161 JUMPI PUSH1 0x0 DUP1 DUP2 REVERT JUMPDEST SWAP5 DUP3 ADD SWAP5 JUMPDEST DUP5 DUP7 LT ISZERO PUSH2 0x1188 JUMPI DUP6 MLOAD PUSH2 0x1179 DUP2 PUSH2 0xB5D JUMP JUMPDEST DUP3 MSTORE SWAP5 DUP13 ADD SWAP5 SWAP1 DUP13 ADD SWAP1 PUSH2 0x1166 JUMP JUMPDEST SWAP2 DUP4 ADD SWAP2 SWAP1 SWAP2 MSTORE POP DUP6 MSTORE POP POP SWAP2 DUP7 ADD SWAP2 DUP7 ADD PUSH2 0x10AB JUMP JUMPDEST POP SWAP9 SWAP8 POP POP POP POP POP POP POP POP JUMP JUMPDEST PUSH1 0x0 DUP2 MLOAD DUP1 DUP5 MSTORE PUSH1 0x0 JUMPDEST DUP2 DUP2 LT ISZERO PUSH2 0x11D2 JUMPI PUSH1 0x20 DUP2 DUP6 ADD DUP2 ADD MLOAD DUP7 DUP4 ADD DUP3 ADD MSTORE ADD PUSH2 0x11B6 JUMP JUMPDEST POP PUSH1 0x0 PUSH1 0x20 DUP3 DUP7 ADD ADD MSTORE PUSH1 0x20 PUSH1 0x1F NOT PUSH1 0x1F DUP4 ADD AND DUP6 ADD ADD SWAP2 POP POP SWAP3 SWAP2 POP POP JUMP JUMPDEST PUSH1 0x0 PUSH1 0x60 DUP1 DUP4 ADD DUP2 DUP5 MSTORE DUP1 DUP8 MLOAD DUP1 DUP4 MSTORE PUSH1 0x80 SWAP3 POP DUP3 DUP7 ADD SWAP2 POP DUP3 DUP2 PUSH1 0x5 SHL DUP8 ADD ADD PUSH1 0x20 DUP1 DUP12 ADD PUSH1 0x0 DUP1 JUMPDEST DUP6 DUP2 LT ISZERO PUSH2 0x12AD JUMPI DUP11 DUP6 SUB PUSH1 0x7F NOT ADD DUP8 MSTORE DUP3 MLOAD DUP1 MLOAD PUSH1 0x1 PUSH1 0x1 PUSH1 0xA0 SHL SUB AND DUP7 MSTORE DUP5 DUP2 ADD MLOAD DUP11 DUP8 ADD SWAP1 PUSH2 0x1250 DUP8 DUP10 ADD DUP3 PUSH2 0xBBE JUMP JUMPDEST POP PUSH1 0x40 SWAP2 DUP3 ADD MLOAD SWAP2 DUP8 ADD DUP12 SWAP1 MSTORE DUP2 MLOAD SWAP1 DUP2 SWAP1 MSTORE SWAP1 DUP6 ADD SWAP1 DUP4 SWAP1 DUP11 DUP9 ADD SWAP1 JUMPDEST DUP1 DUP4 LT ISZERO PUSH2 0x1298 JUMPI DUP4 MLOAD PUSH1 0x1 PUSH1 0x1 PUSH1 0xE0 SHL SUB NOT AND DUP3 MSTORE SWAP3 DUP8 ADD SWAP3 PUSH1 0x1 SWAP3 SWAP1 SWAP3 ADD SWAP2 SWAP1 DUP8 ADD SWAP1 PUSH2 0x126E JUMP JUMPDEST POP SWAP9 DUP7 ADD SWAP9 SWAP7 POP POP POP SWAP2 DUP4 ADD SWAP2 PUSH1 0x1 ADD PUSH2 0x121C JUMP JUMPDEST POP POP POP PUSH1 0x1 PUSH1 0x1 PUSH1 0xA0 SHL SUB DUP11 AND SWAP1 DUP9 ADD MSTORE DUP7 DUP2 SUB PUSH1 0x40 DUP9 ADD MSTORE PUSH2 0x12D0 DUP2 DUP10 PUSH2 0x11AC JUMP JUMPDEST SWAP11 SWAP10 POP POP POP POP POP POP POP POP POP POP JUMP JUMPDEST PUSH1 0x0 PUSH1 0x20 DUP3 DUP5 SUB SLT ISZERO PUSH2 0x12F0 JUMPI PUSH1 0x0 DUP1 REVERT JUMPDEST DUP2 MLOAD PUSH2 0x12FB DUP2 PUSH2 0xA14 JUMP JUMPDEST SWAP4 SWAP3 POP POP POP JUMP INVALID SWAP16 PUSH9 0x4A81EE6E6FB92A5AE5 LOG2 JUMP SIGNEXTEND 0xB2 PUSH8 0xD45AADA2BE404847 SLOAD SWAP9 0xC RETURNDATACOPY AND 0xE4 0x4D SWAP9 0xE0 SMOD 0x24 SAR XOR DUP10 0xEC DUP13 SDIV 0xDC DUP12 LT SWAP3 0xE6 0xA7 0xDC DUP9 PUSH23 0x97913FAABBDC9FE930D998AD974DE007241D1889EC8C05 0xDC DUP12 LT SWAP3 0xE6 0xA7 0xDC DUP9 PUSH23 0x97913FAABBDC9FE930D998AD974BA26469706673582212 KECCAK256 DUP3 JUMPI JUMPI 0xAA 0x5C RETURNDATACOPY DUP12 0xCE 0xF6 0xE9 0xAA 0xD1 DUP12 0xBD 0xA7 ORIGIN PUSH29 0x8038621E259C8B0705F44AC543D94864736F6C63430008150033000000 "},"methodIdentifiers":{"emergencyBrake(bytes4,bool)":"8ef34cc1","eta(bytes32)":"088775a3","executeCut(bytes32)":"e9143174","proposeCut(bytes32,(address,uint8,bytes4[])[],address,bytes)":"1cecf99e","proposer(bytes32)":"ac7f05f9","queueCut(bytes32)":"b7575c5f","quorumBps()":"cd2ddd0c","setGovernanceParams(uint256,uint256)":"89210385","timelock()":"d33219b4"}}}}}