{"contracts/facets/AccessFacet.sol":{"AccessFacet":{"abi":[{"inputs":[],"name":"ErrMissingRole","type":"error"},{"anonymous":false,"inputs":[{"indexed":true,"internalType":"address","name":"account","type":"address"},{"indexed":false,"internalType":"uint256","name":"roleBits","type":"uint256"}],"name":"RoleGranted","type":"event"},{"anonymous":false,"inputs":[{"indexed":true,"internalType":"address","name":"account","type":"address"},{"indexed":false,"internalType":"uint256","name":"roleBits","type":"uint256"}],"name":"RoleRevoked","type":"event"},{"inputs":[],"name":"ROLE_GOVERNANCE_BIT","outputs":[{"internalType":"uint256","name":"","type":"uint256"}],"stateMutability":"pure","type":"function"},{"inputs":[],"name":"ROLE_INDEX_BIT","outputs":[{"internalType":"uint256","name":"","type":"uint256"}],"stateMutability":"pure","type":"function"},{"inputs":[],"name":"ROLE_MONETARY_BIT","outputs":[{"internalType":"uint256","name":"","type":"uint256"}],"stateMutability":"pure","type":"function"},{"inputs":[],"name":"ROLE_UPGRADE_BIT","outputs":[{"internalType":"uint256","name":"","type":"uint256"}],"stateMutability":"pure","type":"function"},{"inputs":[{"internalType":"address","name":"account","type":"address"},{"internalType":"uint256","name":"roleBits","type":"uint256"}],"name":"grantRoles","outputs":[],"stateMutability":"nonpayable","type":"function"},{"inputs":[{"internalType":"address","name":"account","type":"address"},{"internalType":"uint256","name":"roleBits","type":"uint256"}],"name":"hasRoles","outputs":[{"internalType":"bool","name":"","type":"bool"}],"stateMutability":"view","type":"function"},{"inputs":[{"internalType":"address","name":"account","type":"address"},{"internalType":"uint256","name":"roleBits","type":"uint256"}],"name":"revokeRoles","outputs":[],"stateMutability":"nonpayable","type":"function"}],"evm":{"bytecode":{"linkReferences":{},"object":"608060405234801561001057600080fd5b506103c0806100206000396000f3fe608060405234801561001057600080fd5b506004361061007d5760003560e01c80634a4ee7b11161005b5780634a4ee7b1146100f95780636662654d1461010c578063714f2e4514610113578063b52fef661461011a57600080fd5b8063112ff489146100825780631c10893f146100d357806340300101146100e8575b600080fd5b6100be61009036600461031a565b6001600160a01b0391909116600090815260008051602061036b833981519152602052604090205481161490565b60405190151581526020015b60405180910390f35b6100e66100e136600461031a565b610121565b005b60045b6040519081526020016100ca565b6100e661010736600461031a565b6101d7565b60026100eb565b60016100eb565b60086100eb565b600261012b610285565b158015610154575033600090815260008051602061036b83398151915260205260409020548116155b156101725760405163de55e85d60e01b815260040160405180910390fd5b6001600160a01b038316600081815260008051602061036b833981519152602090815260409182902080548617905590518481527f179d9faeef78652d6b82f73b6ad9bf53b5b05d2a7f212a4ef46cb7b7d3c123db91015b60405180910390a2505050565b60026101e1610285565b15801561020a575033600090815260008051602061036b83398151915260205260409020548116155b156102285760405163de55e85d60e01b815260040160405180910390fd5b6001600160a01b038316600081815260008051602061036b83398151915260209081526040918290208054861916905590518481527f12982f922b0573398129ea86655ce1e8e425ec676c9e3d40bf5458688b1ef54491016101ca565b6000336001600160a01b0316306001600160a01b0316638da5cb5b6040518163ffffffff1660e01b8152600401602060405180830381865afa1580156102cf573d6000803e3d6000fd5b505050506040513d601f19601f820116820180604052508101906102f39190610346565b6001600160a01b031614905090565b6001600160a01b038116811461031757600080fd5b50565b6000806040838503121561032d57600080fd5b823561033881610302565b946020939093013593505050565b60006020828403121561035857600080fd5b815161036381610302565b939250505056fe9f684a81ee6e6fb92a5ae5a2560bb267d45aada2be40484754980c3e16e44d98a264697066735822122080c4e5f7181bc31fd640be25f6ea0cbf1f821c3d16a992355c712f0c44ef2db264736f6c63430008150033","opcodes":"PUSH1 0x80 PUSH1 0x40 MSTORE CALLVALUE DUP1 ISZERO PUSH2 0x10 JUMPI PUSH1 0x0 DUP1 REVERT JUMPDEST POP PUSH2 0x3C0 DUP1 PUSH2 0x20 PUSH1 0x0 CODECOPY PUSH1 0x0 RETURN INVALID PUSH1 0x80 PUSH1 0x40 MSTORE CALLVALUE DUP1 ISZERO PUSH2 0x10 JUMPI PUSH1 0x0 DUP1 REVERT JUMPDEST POP PUSH1 0x4 CALLDATASIZE LT PUSH2 0x7D JUMPI PUSH1 0x0 CALLDATALOAD PUSH1 0xE0 SHR DUP1 PUSH4 0x4A4EE7B1 GT PUSH2 0x5B JUMPI DUP1 PUSH4 0x4A4EE7B1 EQ PUSH2 0xF9 JUMPI DUP1 PUSH4 0x6662654D EQ PUSH2 0x10C JUMPI DUP1 PUSH4 0x714F2E45 EQ PUSH2 0x113 JUMPI DUP1 PUSH4 0xB52FEF66 EQ PUSH2 0x11A JUMPI PUSH1 0x0 DUP1 REVERT JUMPDEST DUP1 PUSH4 0x112FF489 EQ PUSH2 0x82 JUMPI DUP1 PUSH4 0x1C10893F EQ PUSH2 0xD3 JUMPI DUP1 PUSH4 0x40300101 EQ PUSH2 0xE8 JUMPI JUMPDEST PUSH1 0x0 DUP1 REVERT JUMPDEST PUSH2 0xBE PUSH2 0x90 CALLDATASIZE PUSH1 0x4 PUSH2 0x31A JUMP JUMPDEST PUSH1 0x1 PUSH1 0x1 PUSH1 0xA0 SHL SUB SWAP2 SWAP1 SWAP2 AND PUSH1 0x0 SWAP1 DUP2 MSTORE PUSH1 0x0 DUP1 MLOAD PUSH1 0x20 PUSH2 0x36B DUP4 CODECOPY DUP2 MLOAD SWAP2 MSTORE PUSH1 0x20 MSTORE PUSH1 0x40 SWAP1 KECCAK256 SLOAD DUP2 AND EQ SWAP1 JUMP JUMPDEST PUSH1 0x40 MLOAD SWAP1 ISZERO ISZERO DUP2 MSTORE PUSH1 0x20 ADD JUMPDEST PUSH1 0x40 MLOAD DUP1 SWAP2 SUB SWAP1 RETURN JUMPDEST PUSH2 0xE6 PUSH2 0xE1 CALLDATASIZE PUSH1 0x4 PUSH2 0x31A JUMP JUMPDEST PUSH2 0x121 JUMP JUMPDEST STOP JUMPDEST PUSH1 0x4 JUMPDEST PUSH1 0x40 MLOAD SWAP1 DUP2 MSTORE PUSH1 0x20 ADD PUSH2 0xCA JUMP JUMPDEST PUSH2 0xE6 PUSH2 0x107 CALLDATASIZE PUSH1 0x4 PUSH2 0x31A JUMP JUMPDEST PUSH2 0x1D7 JUMP JUMPDEST PUSH1 0x2 PUSH2 0xEB JUMP JUMPDEST PUSH1 0x1 PUSH2 0xEB JUMP JUMPDEST PUSH1 0x8 PUSH2 0xEB JUMP JUMPDEST PUSH1 0x2 PUSH2 0x12B PUSH2 0x285 JUMP JUMPDEST ISZERO DUP1 ISZERO PUSH2 0x154 JUMPI POP CALLER PUSH1 0x0 SWAP1 DUP2 MSTORE PUSH1 0x0 DUP1 MLOAD PUSH1 0x20 PUSH2 0x36B DUP4 CODECOPY DUP2 MLOAD SWAP2 MSTORE PUSH1 0x20 MSTORE PUSH1 0x40 SWAP1 KECCAK256 SLOAD DUP2 AND ISZERO JUMPDEST ISZERO PUSH2 0x172 JUMPI PUSH1 0x40 MLOAD PUSH4 0xDE55E85D PUSH1 0xE0 SHL DUP2 MSTORE PUSH1 0x4 ADD PUSH1 0x40 MLOAD DUP1 SWAP2 SUB SWAP1 REVERT JUMPDEST PUSH1 0x1 PUSH1 0x1 PUSH1 0xA0 SHL SUB DUP4 AND PUSH1 0x0 DUP2 DUP2 MSTORE PUSH1 0x0 DUP1 MLOAD PUSH1 0x20 PUSH2 0x36B DUP4 CODECOPY DUP2 MLOAD SWAP2 MSTORE PUSH1 0x20 SWAP1 DUP2 MSTORE PUSH1 0x40 SWAP2 DUP3 SWAP1 KECCAK256 DUP1 SLOAD DUP7 OR SWAP1 SSTORE SWAP1 MLOAD DUP5 DUP2 MSTORE PUSH32 0x179D9FAEEF78652D6B82F73B6AD9BF53B5B05D2A7F212A4EF46CB7B7D3C123DB SWAP2 ADD JUMPDEST PUSH1 0x40 MLOAD DUP1 SWAP2 SUB SWAP1 LOG2 POP POP POP JUMP JUMPDEST PUSH1 0x2 PUSH2 0x1E1 PUSH2 0x285 JUMP JUMPDEST ISZERO DUP1 ISZERO PUSH2 0x20A JUMPI POP CALLER PUSH1 0x0 SWAP1 DUP2 MSTORE PUSH1 0x0 DUP1 MLOAD PUSH1 0x20 PUSH2 0x36B DUP4 CODECOPY DUP2 MLOAD SWAP2 MSTORE PUSH1 0x20 MSTORE PUSH1 0x40 SWAP1 KECCAK256 SLOAD DUP2 AND ISZERO JUMPDEST ISZERO PUSH2 0x228 JUMPI PUSH1 0x40 MLOAD PUSH4 0xDE55E85D PUSH1 0xE0 SHL DUP2 MSTORE PUSH1 0x4 ADD PUSH1 0x40 MLOAD DUP1 SWAP2 SUB SWAP1 REVERT JUMPDEST PUSH1 0x1 PUSH1 0x1 PUSH1 0xA0 SHL SUB DUP4 AND PUSH1 0x0 DUP2 DUP2 MSTORE PUSH1 0x0 DUP1 MLOAD PUSH1 0x20 PUSH2 0x36B DUP4 CODECOPY DUP2 MLOAD SWAP2 MSTORE PUSH1 0x20 SWAP1 DUP2 MSTORE PUSH1 0x40 SWAP2 DUP3 SWAP1 KECCAK256 DUP1 SLOAD DUP7 NOT AND SWAP1 SSTORE SWAP1 MLOAD DUP5 DUP2 MSTORE PUSH32 0x12982F922B0573398129EA86655CE1E8E425EC676C9E3D40BF5458688B1EF544 SWAP2 ADD PUSH2 0x1CA JUMP JUMPDEST PUSH1 0x0 CALLER PUSH1 0x1 PUSH1 0x1 PUSH1 0xA0 SHL SUB AND ADDRESS PUSH1 0x1 PUSH1 0x1 PUSH1 0xA0 SHL SUB AND PUSH4 0x8DA5CB5B PUSH1 0x40 MLOAD DUP2 PUSH4 0xFFFFFFFF AND PUSH1 0xE0 SHL DUP2 MSTORE PUSH1 0x4 ADD PUSH1 0x20 PUSH1 0x40 MLOAD DUP1 DUP4 SUB DUP2 DUP7 GAS STATICCALL ISZERO DUP1 ISZERO PUSH2 0x2CF JUMPI RETURNDATASIZE PUSH1 0x0 DUP1 RETURNDATACOPY RETURNDATASIZE PUSH1 0x0 REVERT JUMPDEST POP POP POP POP PUSH1 0x40 MLOAD RETURNDATASIZE PUSH1 0x1F NOT PUSH1 0x1F DUP3 ADD AND DUP3 ADD DUP1 PUSH1 0x40 MSTORE POP DUP2 ADD SWAP1 PUSH2 0x2F3 SWAP2 SWAP1 PUSH2 0x346 JUMP JUMPDEST PUSH1 0x1 PUSH1 0x1 PUSH1 0xA0 SHL SUB AND EQ SWAP1 POP SWAP1 JUMP JUMPDEST PUSH1 0x1 PUSH1 0x1 PUSH1 0xA0 SHL SUB DUP2 AND DUP2 EQ PUSH2 0x317 JUMPI PUSH1 0x0 DUP1 REVERT JUMPDEST POP JUMP JUMPDEST PUSH1 0x0 DUP1 PUSH1 0x40 DUP4 DUP6 SUB SLT ISZERO PUSH2 0x32D JUMPI PUSH1 0x0 DUP1 REVERT JUMPDEST DUP3 CALLDATALOAD PUSH2 0x338 DUP2 PUSH2 0x302 JUMP JUMPDEST SWAP5 PUSH1 0x20 SWAP4 SWAP1 SWAP4 ADD CALLDATALOAD SWAP4 POP POP POP JUMP JUMPDEST PUSH1 0x0 PUSH1 0x20 DUP3 DUP5 SUB SLT ISZERO PUSH2 0x358 JUMPI PUSH1 0x0 DUP1 REVERT JUMPDEST DUP2 MLOAD PUSH2 0x363 DUP2 PUSH2 0x302 JUMP JUMPDEST SWAP4 SWAP3 POP POP POP JUMP INVALID SWAP16 PUSH9 0x4A81EE6E6FB92A5AE5 LOG2 JUMP SIGNEXTEND 0xB2 PUSH8 0xD45AADA2BE404847 SLOAD SWAP9 0xC RETURNDATACOPY AND 0xE4 0x4D SWAP9 LOG2 PUSH5 0x6970667358 0x22 SLT KECCAK256 DUP1 0xC4 0xE5 0xF7 XOR SHL 0xC3 0x1F 0xD6 BLOCKHASH 0xBE 0x25 0xF6 0xEA 0xC 0xBF 0x1F DUP3 SHR RETURNDATASIZE AND 0xA9 SWAP3 CALLDATALOAD 0x5C PUSH18 0x2F0C44EF2DB264736F6C6343000815003300 "},"methodIdentifiers":{"ROLE_GOVERNANCE_BIT()":"6662654d","ROLE_INDEX_BIT()":"40300101","ROLE_MONETARY_BIT()":"b52fef66","ROLE_UPGRADE_BIT()":"714f2e45","grantRoles(address,uint256)":"1c10893f","hasRoles(address,uint256)":"112ff489","revokeRoles(address,uint256)":"4a4ee7b1"}}}}}