{"contracts/facets/GovernanceFacet.sol":{"GovernanceFacet":{"abi":[{"anonymous":false,"inputs":[{"indexed":false,"internalType":"bytes32","name":"id","type":"bytes32"}],"name":"CutExecuted","type":"event"},{"anonymous":false,"inputs":[{"indexed":false,"internalType":"bytes32","name":"id","type":"bytes32"},{"indexed":false,"internalType":"address","name":"proposer","type":"address"},{"indexed":false,"internalType":"address","name":"init","type":"address"},{"indexed":false,"internalType":"bytes","name":"initData","type":"bytes"}],"name":"CutProposed","type":"event"},{"anonymous":false,"inputs":[{"indexed":false,"internalType":"bytes32","name":"id","type":"bytes32"},{"indexed":false,"internalType":"uint256","name":"eta","type":"uint256"}],"name":"CutQueued","type":"event"},{"anonymous":false,"inputs":[{"indexed":false,"internalType":"bytes4","name":"selector","type":"bytes4"},{"indexed":false,"internalType":"bool","name":"paused","type":"bool"}],"name":"EmergencyBrake","type":"event"},{"inputs":[{"internalType":"bytes4","name":"selector","type":"bytes4"},{"internalType":"bool","name":"pause","type":"bool"}],"name":"emergencyBrake","outputs":[],"stateMutability":"nonpayable","type":"function"},{"inputs":[{"internalType":"bytes32","name":"id","type":"bytes32"}],"name":"eta","outputs":[{"internalType":"uint256","name":"","type":"uint256"}],"stateMutability":"view","type":"function"},{"inputs":[{"internalType":"bytes32","name":"id","type":"bytes32"}],"name":"executeCut","outputs":[],"stateMutability":"nonpayable","type":"function"},{"inputs":[{"internalType":"bytes32","name":"id","type":"bytes32"},{"components":[{"internalType":"address","name":"facetAddress","type":"address"},{"internalType":"enum IDiamondCut.FacetCutAction","name":"action","type":"uint8"},{"internalType":"bytes4[]","name":"functionSelectors","type":"bytes4[]"}],"internalType":"struct IDiamondCut.FacetCut[]","name":"cut","type":"tuple[]"},{"internalType":"address","name":"init","type":"address"},{"internalType":"bytes","name":"initData","type":"bytes"}],"name":"proposeCut","outputs":[],"stateMutability":"nonpayable","type":"function"},{"inputs":[{"internalType":"bytes32","name":"id","type":"bytes32"}],"name":"proposer","outputs":[{"internalType":"address","name":"","type":"address"}],"stateMutability":"view","type":"function"},{"inputs":[{"internalType":"bytes32","name":"id","type":"bytes32"}],"name":"queueCut","outputs":[],"stateMutability":"nonpayable","type":"function"},{"inputs":[],"name":"quorumBps","outputs":[{"internalType":"uint256","name":"","type":"uint256"}],"stateMutability":"view","type":"function"},{"inputs":[],"name":"timelock","outputs":[{"internalType":"uint256","name":"","type":"uint256"}],"stateMutability":"view","type":"function"}],"evm":{"bytecode":{"linkReferences":{},"object":"608060405234801561001057600080fd5b50611380806100206000396000f3fe608060405234801561001057600080fd5b50600436106100885760003560e01c8063b7575c5f1161005b578063b7575c5f14610155578063cd2ddd0c14610168578063d33219b41461018f578063e9143174146101a457600080fd5b8063088775a31461008d5780631cecf99e146100cd5780638ef34cc1146100e2578063ac7f05f9146100f5575b600080fd5b6100ba61009b3660046109e5565b600090815260008051602061130b833981519152602052604090205490565b6040519081526020015b60405180910390f35b6100e06100db366004610a6c565b6101b7565b005b6100e06100f0366004610b3b565b61035a565b61013d6101033660046109e5565b60009081527fe007241d1889ec8c05dc8b1092e6a7dc887697913faabbdc9fe930d998ad975160205260409020546001600160a01b031690565b6040516001600160a01b0390911681526020016100c4565b6100e06101633660046109e5565b610450565b7fe007241d1889ec8c05dc8b1092e6a7dc887697913faabbdc9fe930d998ad974c546100ba565b60008051602061132b833981519152546100ba565b6100e06101b23660046109e5565b6105ba565b6101bf610912565b1580156101e957503360009081526000805160206112eb8339815191526020526040902054600216155b1561020f5760405162461bcd60e51b815260040161020690610b79565b60405180910390fd5b600086815260008051602061130b833981519152602052604090205460008051602061132b83398151915290156102715760405162461bcd60e51b815260206004820152600660248201526545584953545360d01b6044820152606401610206565b8585604051602001610284929190610c12565b60408051601f1981840301815291815260008981526003840160205220906102ac9082610da5565b506000878152600482016020908152604080832080546001600160a01b0319166001600160a01b0389161790556005840190915290206102ed838583610e65565b5060008781526006820160205260409081902080546001600160a01b0319163390811790915590517f4b6f537ec3651d114b7f1da43925340ccc5da8ae647b03b6e86a7e262291c3e491610349918a9190889088908890610f26565b60405180910390a150505050505050565b610362610912565b15801561038c57503360009081526000805160206112eb8339815191526020526040902054600216155b156103a95760405162461bcd60e51b815260040161020690610b79565b6001600160e01b0319821660008181527fbe2039d0acebc8f39aca028faa2657d60691246a654ef49134d442fbe066df4f6020908152604091829020805460ff19168515159081179091558251938452908301527fbe2039d0acebc8f39aca028faa2657d60691246a654ef49134d442fbe066df4e917fd688aac15b110bdbdd9c1549b5030e42a2b092c356fe4f8f1ec89445413aff3791015b60405180910390a1505050565b610458610912565b15801561048257503360009081526000805160206112eb8339815191526020526040902054600216155b1561049f5760405162461bcd60e51b815260040161020690610b79565b600081815260008051602061130b833981519152602052604090205460008051602061132b833981519152901561050a5760405162461bcd60e51b815260206004820152600f60248201526e1393d7d41493d417d3d497d554d151608a1b6044820152606401610206565b60008281526003820160205260408120805461052590610d1c565b90501161055e5760405162461bcd60e51b815260206004820152600760248201526604e4f5f50524f560cc1b6044820152606401610206565b805460009061056d9042610f79565b600084815260028401602090815260409182902083905581518681529081018390529192507f185c36da5b944ceebbc4ad0efe1091f62afc94dff2cfe54bbc0eee969fd44aa49101610443565b6105c2610912565b1580156105ec57503360009081526000805160206112eb8339815191526020526040902054600116155b156106265760405162461bcd60e51b815260206004820152600a6024820152694e4f5f5550475241444560b01b6044820152606401610206565b600081815260008051602061130b833981519152602052604090205460008051602061132b8339815191529080158015906106615750804210155b6106995760405162461bcd60e51b81526020600482015260096024820152684e4f545f524541445960b81b6044820152606401610206565b6000838152600383016020526040812080546106b490610d1c565b80601f01602080910402602001604051908101604052809291908181526020018280546106e090610d1c565b801561072d5780601f106107025761010080835404028352916020019161072d565b820191906000526020600020905b81548152906001019060200180831161071057829003601f168201915b5050505050806020019051810190610745919061101e565b600085815260048501602090815260408083205460058801909252822080549394506001600160a01b039091169261077c90610d1c565b80601f01602080910402602001604051908101604052809291908181526020018280546107a890610d1c565b80156107f55780601f106107ca576101008083540402835291602001916107f5565b820191906000526020600020905b8154815290600101906020018083116107d857829003601f168201915b50506040516307e4c70760e21b81529394503093631f931c1c93506108249250879150869086906004016111da565b600060405180830381600087803b15801561083e57600080fd5b505af1158015610852573d6000803e3d6000fd5b5050506000878152600287016020908152604080832083905560038901909152812061087f92509061098f565b6000868152600486016020908152604080832080546001600160a01b03191690556005880190915281206108b29161098f565b60008681526006860160205260409081902080546001600160a01b0319169055517fa1a0ac873c8783a53a3894276ae096d022c74a662925adc3dd1b364a5024355a906109029088815260200190565b60405180910390a1505050505050565b6000336001600160a01b0316306001600160a01b0316638da5cb5b6040518163ffffffff1660e01b8152600401602060405180830381865afa15801561095c573d6000803e3d6000fd5b505050506040513d601f19601f8201168201806040525081019061098091906112c6565b6001600160a01b031614905090565b50805461099b90610d1c565b6000825580601f106109ab575050565b601f0160209004906000526020600020908101906109c991906109cc565b50565b5b808211156109e157600081556001016109cd565b5090565b6000602082840312156109f757600080fd5b5035919050565b6001600160a01b03811681146109c957600080fd5b8035610a1e816109fe565b919050565b60008083601f840112610a3557600080fd5b50813567ffffffffffffffff811115610a4d57600080fd5b602083019150836020828501011115610a6557600080fd5b9250929050565b60008060008060008060808789031215610a8557600080fd5b86359550602087013567ffffffffffffffff80821115610aa457600080fd5b818901915089601f830112610ab857600080fd5b813581811115610ac757600080fd5b8a60208260051b8501011115610adc57600080fd5b6020830197509550610af060408a01610a13565b94506060890135915080821115610b0657600080fd5b50610b1389828a01610a23565b979a9699509497509295939492505050565b6001600160e01b0319811681146109c957600080fd5b60008060408385031215610b4e57600080fd5b8235610b5981610b25565b915060208301358015158114610b6e57600080fd5b809150509250929050565b6020808252600690820152652727afa3a7ab60d11b604082015260600190565b600381106109c957600080fd5b60038110610bc457634e487b7160e01b600052602160045260246000fd5b9052565b8183526000602080850194508260005b85811015610c07578135610beb81610b25565b6001600160e01b03191687529582019590820190600101610bd8565b509495945050505050565b60208082528181018390526000906040808401600586811b8601830188865b89811015610cf757888303603f190185528135368c9003605e19018112610c5757600080fd5b8b0160608135610c66816109fe565b6001600160a01b0316855281890135610c7e81610b99565b610c8a8a870182610ba6565b5087820135601e19833603018112610ca157600080fd5b90910188810191903567ffffffffffffffff811115610cbf57600080fd5b80871b3603831315610cd057600080fd5b8189870152610ce28287018285610bc8565b978a0197955050509187019150600101610c31565b50909998505050505050505050565b634e487b7160e01b600052604160045260246000fd5b600181811c90821680610d3057607f821691505b602082108103610d5057634e487b7160e01b600052602260045260246000fd5b50919050565b601f821115610da057600081815260208120601f850160051c81016020861015610d7d5750805b601f850160051c820191505b81811015610d9c57828155600101610d89565b5050505b505050565b815167ffffffffffffffff811115610dbf57610dbf610d06565b610dd381610dcd8454610d1c565b84610d56565b602080601f831160018114610e085760008415610df05750858301515b600019600386901b1c1916600185901b178555610d9c565b600085815260208120601f198616915b82811015610e3757888601518255948401946001909101908401610e18565b5085821015610e555787850151600019600388901b60f8161c191681555b5050505050600190811b01905550565b67ffffffffffffffff831115610e7d57610e7d610d06565b610e9183610e8b8354610d1c565b83610d56565b6000601f841160018114610ec55760008515610ead5750838201355b600019600387901b1c1916600186901b178355610f1f565b600083815260209020601f19861690835b82811015610ef65786850135825560209485019460019092019101610ed6565b5086821015610f135760001960f88860031b161c19848701351681555b505060018560011b0183555b5050505050565b8581526001600160a01b0385811660208301528416604082015260806060820181905281018290526000828460a0840137600060a0848401015260a0601f19601f85011683010190509695505050505050565b80820180821115610f9a57634e487b7160e01b600052601160045260246000fd5b92915050565b6040516060810167ffffffffffffffff81118282101715610fc357610fc3610d06565b60405290565b604051601f8201601f1916810167ffffffffffffffff81118282101715610ff257610ff2610d06565b604052919050565b600067ffffffffffffffff82111561101457611014610d06565b5060051b60200190565b6000602080838503121561103157600080fd5b825167ffffffffffffffff8082111561104957600080fd5b818501915085601f83011261105d57600080fd5b815161107061106b82610ffa565b610fc9565b81815260059190911b8301840190848101908883111561108f57600080fd5b8585015b83811015611187578051858111156110ab5760008081fd5b86016060818c03601f19018113156110c35760008081fd5b6110cb610fa0565b898301516110d8816109fe565b81526040838101516110e981610b99565b828c01529183015191888311156111005760008081fd5b82840193508d603f85011261111757600092508283fd5b8a840151925061112961106b84610ffa565b83815260059390931b84018101928b8101908f8511156111495760008081fd5b948201945b8486101561117057855161116181610b25565b8252948c0194908c019061114e565b918301919091525085525050918601918601611093565b5098975050505050505050565b6000815180845260005b818110156111ba5760208185018101518683018201520161119e565b506000602082860101526020601f19601f83011685010191505092915050565b60006060808301818452808751808352608092508286019150828160051b8701016020808b016000805b85811015611295578a8503607f19018752825180516001600160a01b03168652848101518a87019061123887890182610ba6565b506040918201519187018b90528151908190529085019083908a8801905b808310156112805783516001600160e01b0319168252928701926001929092019190870190611256565b50988601989650505091830191600101611204565b5050506001600160a01b038a169088015286810360408801526112b88189611194565b9a9950505050505050505050565b6000602082840312156112d857600080fd5b81516112e3816109fe565b939250505056fe9f684a81ee6e6fb92a5ae5a2560bb267d45aada2be40484754980c3e16e44d98e007241d1889ec8c05dc8b1092e6a7dc887697913faabbdc9fe930d998ad974de007241d1889ec8c05dc8b1092e6a7dc887697913faabbdc9fe930d998ad974ba26469706673582212205040cfd2abaca7fbca1ba8ee612bb836b29a4d3892e9c52f746d41ddb1c3571464736f6c63430008150033","opcodes":"PUSH1 0x80 PUSH1 0x40 MSTORE CALLVALUE DUP1 ISZERO PUSH2 0x10 JUMPI PUSH1 0x0 DUP1 REVERT JUMPDEST POP PUSH2 0x1380 DUP1 PUSH2 0x20 PUSH1 0x0 CODECOPY PUSH1 0x0 RETURN INVALID PUSH1 0x80 PUSH1 0x40 MSTORE CALLVALUE DUP1 ISZERO PUSH2 0x10 JUMPI PUSH1 0x0 DUP1 REVERT JUMPDEST POP PUSH1 0x4 CALLDATASIZE LT PUSH2 0x88 JUMPI PUSH1 0x0 CALLDATALOAD PUSH1 0xE0 SHR DUP1 PUSH4 0xB7575C5F GT PUSH2 0x5B JUMPI DUP1 PUSH4 0xB7575C5F EQ PUSH2 0x155 JUMPI DUP1 PUSH4 0xCD2DDD0C EQ PUSH2 0x168 JUMPI DUP1 PUSH4 0xD33219B4 EQ PUSH2 0x18F JUMPI DUP1 PUSH4 0xE9143174 EQ PUSH2 0x1A4 JUMPI PUSH1 0x0 DUP1 REVERT JUMPDEST DUP1 PUSH4 0x88775A3 EQ PUSH2 0x8D JUMPI DUP1 PUSH4 0x1CECF99E EQ PUSH2 0xCD JUMPI DUP1 PUSH4 0x8EF34CC1 EQ PUSH2 0xE2 JUMPI DUP1 PUSH4 0xAC7F05F9 EQ PUSH2 0xF5 JUMPI JUMPDEST PUSH1 0x0 DUP1 REVERT JUMPDEST PUSH2 0xBA PUSH2 0x9B CALLDATASIZE PUSH1 0x4 PUSH2 0x9E5 JUMP JUMPDEST PUSH1 0x0 SWAP1 DUP2 MSTORE PUSH1 0x0 DUP1 MLOAD PUSH1 0x20 PUSH2 0x130B DUP4 CODECOPY DUP2 MLOAD SWAP2 MSTORE PUSH1 0x20 MSTORE PUSH1 0x40 SWAP1 KECCAK256 SLOAD SWAP1 JUMP JUMPDEST PUSH1 0x40 MLOAD SWAP1 DUP2 MSTORE PUSH1 0x20 ADD JUMPDEST PUSH1 0x40 MLOAD DUP1 SWAP2 SUB SWAP1 RETURN JUMPDEST PUSH2 0xE0 PUSH2 0xDB CALLDATASIZE PUSH1 0x4 PUSH2 0xA6C JUMP JUMPDEST PUSH2 0x1B7 JUMP JUMPDEST STOP JUMPDEST PUSH2 0xE0 PUSH2 0xF0 CALLDATASIZE PUSH1 0x4 PUSH2 0xB3B JUMP JUMPDEST PUSH2 0x35A JUMP JUMPDEST PUSH2 0x13D PUSH2 0x103 CALLDATASIZE PUSH1 0x4 PUSH2 0x9E5 JUMP JUMPDEST PUSH1 0x0 SWAP1 DUP2 MSTORE PUSH32 0xE007241D1889EC8C05DC8B1092E6A7DC887697913FAABBDC9FE930D998AD9751 PUSH1 0x20 MSTORE PUSH1 0x40 SWAP1 KECCAK256 SLOAD PUSH1 0x1 PUSH1 0x1 PUSH1 0xA0 SHL SUB AND SWAP1 JUMP JUMPDEST PUSH1 0x40 MLOAD PUSH1 0x1 PUSH1 0x1 PUSH1 0xA0 SHL SUB SWAP1 SWAP2 AND DUP2 MSTORE PUSH1 0x20 ADD PUSH2 0xC4 JUMP JUMPDEST PUSH2 0xE0 PUSH2 0x163 CALLDATASIZE PUSH1 0x4 PUSH2 0x9E5 JUMP JUMPDEST PUSH2 0x450 JUMP JUMPDEST PUSH32 0xE007241D1889EC8C05DC8B1092E6A7DC887697913FAABBDC9FE930D998AD974C SLOAD PUSH2 0xBA JUMP JUMPDEST PUSH1 0x0 DUP1 MLOAD PUSH1 0x20 PUSH2 0x132B DUP4 CODECOPY DUP2 MLOAD SWAP2 MSTORE SLOAD PUSH2 0xBA JUMP JUMPDEST PUSH2 0xE0 PUSH2 0x1B2 CALLDATASIZE PUSH1 0x4 PUSH2 0x9E5 JUMP JUMPDEST PUSH2 0x5BA JUMP JUMPDEST PUSH2 0x1BF PUSH2 0x912 JUMP JUMPDEST ISZERO DUP1 ISZERO PUSH2 0x1E9 JUMPI POP CALLER PUSH1 0x0 SWAP1 DUP2 MSTORE PUSH1 0x0 DUP1 MLOAD PUSH1 0x20 PUSH2 0x12EB DUP4 CODECOPY DUP2 MLOAD SWAP2 MSTORE PUSH1 0x20 MSTORE PUSH1 0x40 SWAP1 KECCAK256 SLOAD PUSH1 0x2 AND ISZERO JUMPDEST ISZERO PUSH2 0x20F JUMPI PUSH1 0x40 MLOAD PUSH3 0x461BCD PUSH1 0xE5 SHL DUP2 MSTORE PUSH1 0x4 ADD PUSH2 0x206 SWAP1 PUSH2 0xB79 JUMP JUMPDEST PUSH1 0x40 MLOAD DUP1 SWAP2 SUB SWAP1 REVERT JUMPDEST PUSH1 0x0 DUP7 DUP2 MSTORE PUSH1 0x0 DUP1 MLOAD PUSH1 0x20 PUSH2 0x130B DUP4 CODECOPY DUP2 MLOAD SWAP2 MSTORE PUSH1 0x20 MSTORE PUSH1 0x40 SWAP1 KECCAK256 SLOAD PUSH1 0x0 DUP1 MLOAD PUSH1 0x20 PUSH2 0x132B DUP4 CODECOPY DUP2 MLOAD SWAP2 MSTORE SWAP1 ISZERO PUSH2 0x271 JUMPI PUSH1 0x40 MLOAD PUSH3 0x461BCD PUSH1 0xE5 SHL DUP2 MSTORE PUSH1 0x20 PUSH1 0x4 DUP3 ADD MSTORE PUSH1 0x6 PUSH1 0x24 DUP3 ADD MSTORE PUSH6 0x455849535453 PUSH1 0xD0 SHL PUSH1 0x44 DUP3 ADD MSTORE PUSH1 0x64 ADD PUSH2 0x206 JUMP JUMPDEST DUP6 DUP6 PUSH1 0x40 MLOAD PUSH1 0x20 ADD PUSH2 0x284 SWAP3 SWAP2 SWAP1 PUSH2 0xC12 JUMP JUMPDEST PUSH1 0x40 DUP1 MLOAD PUSH1 0x1F NOT DUP2 DUP5 SUB ADD DUP2 MSTORE SWAP2 DUP2 MSTORE PUSH1 0x0 DUP10 DUP2 MSTORE PUSH1 0x3 DUP5 ADD PUSH1 0x20 MSTORE KECCAK256 SWAP1 PUSH2 0x2AC SWAP1 DUP3 PUSH2 0xDA5 JUMP JUMPDEST POP PUSH1 0x0 DUP8 DUP2 MSTORE PUSH1 0x4 DUP3 ADD PUSH1 0x20 SWAP1 DUP2 MSTORE PUSH1 0x40 DUP1 DUP4 KECCAK256 DUP1 SLOAD PUSH1 0x1 PUSH1 0x1 PUSH1 0xA0 SHL SUB NOT AND PUSH1 0x1 PUSH1 0x1 PUSH1 0xA0 SHL SUB DUP10 AND OR SWAP1 SSTORE PUSH1 0x5 DUP5 ADD SWAP1 SWAP2 MSTORE SWAP1 KECCAK256 PUSH2 0x2ED DUP4 DUP6 DUP4 PUSH2 0xE65 JUMP JUMPDEST POP PUSH1 0x0 DUP8 DUP2 MSTORE PUSH1 0x6 DUP3 ADD PUSH1 0x20 MSTORE PUSH1 0x40 SWAP1 DUP2 SWAP1 KECCAK256 DUP1 SLOAD PUSH1 0x1 PUSH1 0x1 PUSH1 0xA0 SHL SUB NOT AND CALLER SWAP1 DUP2 OR SWAP1 SWAP2 SSTORE SWAP1 MLOAD PUSH32 0x4B6F537EC3651D114B7F1DA43925340CCC5DA8AE647B03B6E86A7E262291C3E4 SWAP2 PUSH2 0x349 SWAP2 DUP11 SWAP2 SWAP1 DUP9 SWAP1 DUP9 SWAP1 DUP9 SWAP1 PUSH2 0xF26 JUMP JUMPDEST PUSH1 0x40 MLOAD DUP1 SWAP2 SUB SWAP1 LOG1 POP POP POP POP POP POP POP JUMP JUMPDEST PUSH2 0x362 PUSH2 0x912 JUMP JUMPDEST ISZERO DUP1 ISZERO PUSH2 0x38C JUMPI POP CALLER PUSH1 0x0 SWAP1 DUP2 MSTORE PUSH1 0x0 DUP1 MLOAD PUSH1 0x20 PUSH2 0x12EB DUP4 CODECOPY DUP2 MLOAD SWAP2 MSTORE PUSH1 0x20 MSTORE PUSH1 0x40 SWAP1 KECCAK256 SLOAD PUSH1 0x2 AND ISZERO JUMPDEST ISZERO PUSH2 0x3A9 JUMPI PUSH1 0x40 MLOAD PUSH3 0x461BCD PUSH1 0xE5 SHL DUP2 MSTORE PUSH1 0x4 ADD PUSH2 0x206 SWAP1 PUSH2 0xB79 JUMP JUMPDEST PUSH1 0x1 PUSH1 0x1 PUSH1 0xE0 SHL SUB NOT DUP3 AND PUSH1 0x0 DUP2 DUP2 MSTORE PUSH32 0xBE2039D0ACEBC8F39ACA028FAA2657D60691246A654EF49134D442FBE066DF4F PUSH1 0x20 SWAP1 DUP2 MSTORE PUSH1 0x40 SWAP2 DUP3 SWAP1 KECCAK256 DUP1 SLOAD PUSH1 0xFF NOT AND DUP6 ISZERO ISZERO SWAP1 DUP2 OR SWAP1 SWAP2 SSTORE DUP3 MLOAD SWAP4 DUP5 MSTORE SWAP1 DUP4 ADD MSTORE PUSH32 0xBE2039D0ACEBC8F39ACA028FAA2657D60691246A654EF49134D442FBE066DF4E SWAP2 PUSH32 0xD688AAC15B110BDBDD9C1549B5030E42A2B092C356FE4F8F1EC89445413AFF37 SWAP2 ADD JUMPDEST PUSH1 0x40 MLOAD DUP1 SWAP2 SUB SWAP1 LOG1 POP POP POP JUMP JUMPDEST PUSH2 0x458 PUSH2 0x912 JUMP JUMPDEST ISZERO DUP1 ISZERO PUSH2 0x482 JUMPI POP CALLER PUSH1 0x0 SWAP1 DUP2 MSTORE PUSH1 0x0 DUP1 MLOAD PUSH1 0x20 PUSH2 0x12EB DUP4 CODECOPY DUP2 MLOAD SWAP2 MSTORE PUSH1 0x20 MSTORE PUSH1 0x40 SWAP1 KECCAK256 SLOAD PUSH1 0x2 AND ISZERO JUMPDEST ISZERO PUSH2 0x49F JUMPI PUSH1 0x40 MLOAD PUSH3 0x461BCD PUSH1 0xE5 SHL DUP2 MSTORE PUSH1 0x4 ADD PUSH2 0x206 SWAP1 PUSH2 0xB79 JUMP JUMPDEST PUSH1 0x0 DUP2 DUP2 MSTORE PUSH1 0x0 DUP1 MLOAD PUSH1 0x20 PUSH2 0x130B DUP4 CODECOPY DUP2 MLOAD SWAP2 MSTORE PUSH1 0x20 MSTORE PUSH1 0x40 SWAP1 KECCAK256 SLOAD PUSH1 0x0 DUP1 MLOAD PUSH1 0x20 PUSH2 0x132B DUP4 CODECOPY DUP2 MLOAD SWAP2 MSTORE SWAP1 ISZERO PUSH2 0x50A JUMPI PUSH1 0x40 MLOAD PUSH3 0x461BCD PUSH1 0xE5 SHL DUP2 MSTORE PUSH1 0x20 PUSH1 0x4 DUP3 ADD MSTORE PUSH1 0xF PUSH1 0x24 DUP3 ADD MSTORE PUSH15 0x1393D7D41493D417D3D497D554D151 PUSH1 0x8A SHL PUSH1 0x44 DUP3 ADD MSTORE PUSH1 0x64 ADD PUSH2 0x206 JUMP JUMPDEST PUSH1 0x0 DUP3 DUP2 MSTORE PUSH1 0x3 DUP3 ADD PUSH1 0x20 MSTORE PUSH1 0x40 DUP2 KECCAK256 DUP1 SLOAD PUSH2 0x525 SWAP1 PUSH2 0xD1C JUMP JUMPDEST SWAP1 POP GT PUSH2 0x55E JUMPI PUSH1 0x40 MLOAD PUSH3 0x461BCD PUSH1 0xE5 SHL DUP2 MSTORE PUSH1 0x20 PUSH1 0x4 DUP3 ADD MSTORE PUSH1 0x7 PUSH1 0x24 DUP3 ADD MSTORE PUSH7 0x4E4F5F50524F5 PUSH1 0xCC SHL PUSH1 0x44 DUP3 ADD MSTORE PUSH1 0x64 ADD PUSH2 0x206 JUMP JUMPDEST DUP1 SLOAD PUSH1 0x0 SWAP1 PUSH2 0x56D SWAP1 TIMESTAMP PUSH2 0xF79 JUMP JUMPDEST PUSH1 0x0 DUP5 DUP2 MSTORE PUSH1 0x2 DUP5 ADD PUSH1 0x20 SWAP1 DUP2 MSTORE PUSH1 0x40 SWAP2 DUP3 SWAP1 KECCAK256 DUP4 SWAP1 SSTORE DUP2 MLOAD DUP7 DUP2 MSTORE SWAP1 DUP2 ADD DUP4 SWAP1 MSTORE SWAP2 SWAP3 POP PUSH32 0x185C36DA5B944CEEBBC4AD0EFE1091F62AFC94DFF2CFE54BBC0EEE969FD44AA4 SWAP2 ADD PUSH2 0x443 JUMP JUMPDEST PUSH2 0x5C2 PUSH2 0x912 JUMP JUMPDEST ISZERO DUP1 ISZERO PUSH2 0x5EC JUMPI POP CALLER PUSH1 0x0 SWAP1 DUP2 MSTORE PUSH1 0x0 DUP1 MLOAD PUSH1 0x20 PUSH2 0x12EB DUP4 CODECOPY DUP2 MLOAD SWAP2 MSTORE PUSH1 0x20 MSTORE PUSH1 0x40 SWAP1 KECCAK256 SLOAD PUSH1 0x1 AND ISZERO JUMPDEST ISZERO PUSH2 0x626 JUMPI PUSH1 0x40 MLOAD PUSH3 0x461BCD PUSH1 0xE5 SHL DUP2 MSTORE PUSH1 0x20 PUSH1 0x4 DUP3 ADD MSTORE PUSH1 0xA PUSH1 0x24 DUP3 ADD MSTORE PUSH10 0x4E4F5F55504752414445 PUSH1 0xB0 SHL PUSH1 0x44 DUP3 ADD MSTORE PUSH1 0x64 ADD PUSH2 0x206 JUMP JUMPDEST PUSH1 0x0 DUP2 DUP2 MSTORE PUSH1 0x0 DUP1 MLOAD PUSH1 0x20 PUSH2 0x130B DUP4 CODECOPY DUP2 MLOAD SWAP2 MSTORE PUSH1 0x20 MSTORE PUSH1 0x40 SWAP1 KECCAK256 SLOAD PUSH1 0x0 DUP1 MLOAD PUSH1 0x20 PUSH2 0x132B DUP4 CODECOPY DUP2 MLOAD SWAP2 MSTORE SWAP1 DUP1 ISZERO DUP1 ISZERO SWAP1 PUSH2 0x661 JUMPI POP DUP1 TIMESTAMP LT ISZERO JUMPDEST PUSH2 0x699 JUMPI PUSH1 0x40 MLOAD PUSH3 0x461BCD PUSH1 0xE5 SHL DUP2 MSTORE PUSH1 0x20 PUSH1 0x4 DUP3 ADD MSTORE PUSH1 0x9 PUSH1 0x24 DUP3 ADD MSTORE PUSH9 0x4E4F545F5245414459 PUSH1 0xB8 SHL PUSH1 0x44 DUP3 ADD MSTORE PUSH1 0x64 ADD PUSH2 0x206 JUMP JUMPDEST PUSH1 0x0 DUP4 DUP2 MSTORE PUSH1 0x3 DUP4 ADD PUSH1 0x20 MSTORE PUSH1 0x40 DUP2 KECCAK256 DUP1 SLOAD PUSH2 0x6B4 SWAP1 PUSH2 0xD1C JUMP JUMPDEST DUP1 PUSH1 0x1F ADD PUSH1 0x20 DUP1 SWAP2 DIV MUL PUSH1 0x20 ADD PUSH1 0x40 MLOAD SWAP1 DUP2 ADD PUSH1 0x40 MSTORE DUP1 SWAP3 SWAP2 SWAP1 DUP2 DUP2 MSTORE PUSH1 0x20 ADD DUP3 DUP1 SLOAD PUSH2 0x6E0 SWAP1 PUSH2 0xD1C JUMP JUMPDEST DUP1 ISZERO PUSH2 0x72D JUMPI DUP1 PUSH1 0x1F LT PUSH2 0x702 JUMPI PUSH2 0x100 DUP1 DUP4 SLOAD DIV MUL DUP4 MSTORE SWAP2 PUSH1 0x20 ADD SWAP2 PUSH2 0x72D JUMP JUMPDEST DUP3 ADD SWAP2 SWAP1 PUSH1 0x0 MSTORE PUSH1 0x20 PUSH1 0x0 KECCAK256 SWAP1 JUMPDEST DUP2 SLOAD DUP2 MSTORE SWAP1 PUSH1 0x1 ADD SWAP1 PUSH1 0x20 ADD DUP1 DUP4 GT PUSH2 0x710 JUMPI DUP3 SWAP1 SUB PUSH1 0x1F AND DUP3 ADD SWAP2 JUMPDEST POP POP POP POP POP DUP1 PUSH1 0x20 ADD SWAP1 MLOAD DUP2 ADD SWAP1 PUSH2 0x745 SWAP2 SWAP1 PUSH2 0x101E JUMP JUMPDEST PUSH1 0x0 DUP6 DUP2 MSTORE PUSH1 0x4 DUP6 ADD PUSH1 0x20 SWAP1 DUP2 MSTORE PUSH1 0x40 DUP1 DUP4 KECCAK256 SLOAD PUSH1 0x5 DUP9 ADD SWAP1 SWAP3 MSTORE DUP3 KECCAK256 DUP1 SLOAD SWAP4 SWAP5 POP PUSH1 0x1 PUSH1 0x1 PUSH1 0xA0 SHL SUB SWAP1 SWAP2 AND SWAP3 PUSH2 0x77C SWAP1 PUSH2 0xD1C JUMP JUMPDEST DUP1 PUSH1 0x1F ADD PUSH1 0x20 DUP1 SWAP2 DIV MUL PUSH1 0x20 ADD PUSH1 0x40 MLOAD SWAP1 DUP2 ADD PUSH1 0x40 MSTORE DUP1 SWAP3 SWAP2 SWAP1 DUP2 DUP2 MSTORE PUSH1 0x20 ADD DUP3 DUP1 SLOAD PUSH2 0x7A8 SWAP1 PUSH2 0xD1C JUMP JUMPDEST DUP1 ISZERO PUSH2 0x7F5 JUMPI DUP1 PUSH1 0x1F LT PUSH2 0x7CA JUMPI PUSH2 0x100 DUP1 DUP4 SLOAD DIV MUL DUP4 MSTORE SWAP2 PUSH1 0x20 ADD SWAP2 PUSH2 0x7F5 JUMP JUMPDEST DUP3 ADD SWAP2 SWAP1 PUSH1 0x0 MSTORE PUSH1 0x20 PUSH1 0x0 KECCAK256 SWAP1 JUMPDEST DUP2 SLOAD DUP2 MSTORE SWAP1 PUSH1 0x1 ADD SWAP1 PUSH1 0x20 ADD DUP1 DUP4 GT PUSH2 0x7D8 JUMPI DUP3 SWAP1 SUB PUSH1 0x1F AND DUP3 ADD SWAP2 JUMPDEST POP POP PUSH1 0x40 MLOAD PUSH4 0x7E4C707 PUSH1 0xE2 SHL DUP2 MSTORE SWAP4 SWAP5 POP ADDRESS SWAP4 PUSH4 0x1F931C1C SWAP4 POP PUSH2 0x824 SWAP3 POP DUP8 SWAP2 POP DUP7 SWAP1 DUP7 SWAP1 PUSH1 0x4 ADD PUSH2 0x11DA JUMP JUMPDEST PUSH1 0x0 PUSH1 0x40 MLOAD DUP1 DUP4 SUB DUP2 PUSH1 0x0 DUP8 DUP1 EXTCODESIZE ISZERO DUP1 ISZERO PUSH2 0x83E JUMPI PUSH1 0x0 DUP1 REVERT JUMPDEST POP GAS CALL ISZERO DUP1 ISZERO PUSH2 0x852 JUMPI RETURNDATASIZE PUSH1 0x0 DUP1 RETURNDATACOPY RETURNDATASIZE PUSH1 0x0 REVERT JUMPDEST POP POP POP PUSH1 0x0 DUP8 DUP2 MSTORE PUSH1 0x2 DUP8 ADD PUSH1 0x20 SWAP1 DUP2 MSTORE PUSH1 0x40 DUP1 DUP4 KECCAK256 DUP4 SWAP1 SSTORE PUSH1 0x3 DUP10 ADD SWAP1 SWAP2 MSTORE DUP2 KECCAK256 PUSH2 0x87F SWAP3 POP SWAP1 PUSH2 0x98F JUMP JUMPDEST PUSH1 0x0 DUP7 DUP2 MSTORE PUSH1 0x4 DUP7 ADD PUSH1 0x20 SWAP1 DUP2 MSTORE PUSH1 0x40 DUP1 DUP4 KECCAK256 DUP1 SLOAD PUSH1 0x1 PUSH1 0x1 PUSH1 0xA0 SHL SUB NOT AND SWAP1 SSTORE PUSH1 0x5 DUP9 ADD SWAP1 SWAP2 MSTORE DUP2 KECCAK256 PUSH2 0x8B2 SWAP2 PUSH2 0x98F JUMP JUMPDEST PUSH1 0x0 DUP7 DUP2 MSTORE PUSH1 0x6 DUP7 ADD PUSH1 0x20 MSTORE PUSH1 0x40 SWAP1 DUP2 SWAP1 KECCAK256 DUP1 SLOAD PUSH1 0x1 PUSH1 0x1 PUSH1 0xA0 SHL SUB NOT AND SWAP1 SSTORE MLOAD PUSH32 0xA1A0AC873C8783A53A3894276AE096D022C74A662925ADC3DD1B364A5024355A SWAP1 PUSH2 0x902 SWAP1 DUP9 DUP2 MSTORE PUSH1 0x20 ADD SWAP1 JUMP JUMPDEST PUSH1 0x40 MLOAD DUP1 SWAP2 SUB SWAP1 LOG1 POP POP POP POP POP POP JUMP JUMPDEST PUSH1 0x0 CALLER PUSH1 0x1 PUSH1 0x1 PUSH1 0xA0 SHL SUB AND ADDRESS PUSH1 0x1 PUSH1 0x1 PUSH1 0xA0 SHL SUB AND PUSH4 0x8DA5CB5B PUSH1 0x40 MLOAD DUP2 PUSH4 0xFFFFFFFF AND PUSH1 0xE0 SHL DUP2 MSTORE PUSH1 0x4 ADD PUSH1 0x20 PUSH1 0x40 MLOAD DUP1 DUP4 SUB DUP2 DUP7 GAS STATICCALL ISZERO DUP1 ISZERO PUSH2 0x95C JUMPI RETURNDATASIZE PUSH1 0x0 DUP1 RETURNDATACOPY RETURNDATASIZE PUSH1 0x0 REVERT JUMPDEST POP POP POP POP PUSH1 0x40 MLOAD RETURNDATASIZE PUSH1 0x1F NOT PUSH1 0x1F DUP3 ADD AND DUP3 ADD DUP1 PUSH1 0x40 MSTORE POP DUP2 ADD SWAP1 PUSH2 0x980 SWAP2 SWAP1 PUSH2 0x12C6 JUMP JUMPDEST PUSH1 0x1 PUSH1 0x1 PUSH1 0xA0 SHL SUB AND EQ SWAP1 POP SWAP1 JUMP JUMPDEST POP DUP1 SLOAD PUSH2 0x99B SWAP1 PUSH2 0xD1C JUMP JUMPDEST PUSH1 0x0 DUP3 SSTORE DUP1 PUSH1 0x1F LT PUSH2 0x9AB JUMPI POP POP JUMP JUMPDEST PUSH1 0x1F ADD PUSH1 0x20 SWAP1 DIV SWAP1 PUSH1 0x0 MSTORE PUSH1 0x20 PUSH1 0x0 KECCAK256 SWAP1 DUP2 ADD SWAP1 PUSH2 0x9C9 SWAP2 SWAP1 PUSH2 0x9CC JUMP JUMPDEST POP JUMP JUMPDEST JUMPDEST DUP1 DUP3 GT ISZERO PUSH2 0x9E1 JUMPI PUSH1 0x0 DUP2 SSTORE PUSH1 0x1 ADD PUSH2 0x9CD JUMP JUMPDEST POP SWAP1 JUMP JUMPDEST PUSH1 0x0 PUSH1 0x20 DUP3 DUP5 SUB SLT ISZERO PUSH2 0x9F7 JUMPI PUSH1 0x0 DUP1 REVERT JUMPDEST POP CALLDATALOAD SWAP2 SWAP1 POP JUMP JUMPDEST PUSH1 0x1 PUSH1 0x1 PUSH1 0xA0 SHL SUB DUP2 AND DUP2 EQ PUSH2 0x9C9 JUMPI PUSH1 0x0 DUP1 REVERT JUMPDEST DUP1 CALLDATALOAD PUSH2 0xA1E DUP2 PUSH2 0x9FE JUMP JUMPDEST SWAP2 SWAP1 POP JUMP JUMPDEST PUSH1 0x0 DUP1 DUP4 PUSH1 0x1F DUP5 ADD SLT PUSH2 0xA35 JUMPI PUSH1 0x0 DUP1 REVERT JUMPDEST POP DUP2 CALLDATALOAD PUSH8 0xFFFFFFFFFFFFFFFF DUP2 GT ISZERO PUSH2 0xA4D JUMPI PUSH1 0x0 DUP1 REVERT JUMPDEST PUSH1 0x20 DUP4 ADD SWAP2 POP DUP4 PUSH1 0x20 DUP3 DUP6 ADD ADD GT ISZERO PUSH2 0xA65 JUMPI PUSH1 0x0 DUP1 REVERT JUMPDEST SWAP3 POP SWAP3 SWAP1 POP JUMP JUMPDEST PUSH1 0x0 DUP1 PUSH1 0x0 DUP1 PUSH1 0x0 DUP1 PUSH1 0x80 DUP8 DUP10 SUB SLT ISZERO PUSH2 0xA85 JUMPI PUSH1 0x0 DUP1 REVERT JUMPDEST DUP7 CALLDATALOAD SWAP6 POP PUSH1 0x20 DUP8 ADD CALLDATALOAD PUSH8 0xFFFFFFFFFFFFFFFF DUP1 DUP3 GT ISZERO PUSH2 0xAA4 JUMPI PUSH1 0x0 DUP1 REVERT JUMPDEST DUP2 DUP10 ADD SWAP2 POP DUP10 PUSH1 0x1F DUP4 ADD SLT PUSH2 0xAB8 JUMPI PUSH1 0x0 DUP1 REVERT JUMPDEST DUP2 CALLDATALOAD DUP2 DUP2 GT ISZERO PUSH2 0xAC7 JUMPI PUSH1 0x0 DUP1 REVERT JUMPDEST DUP11 PUSH1 0x20 DUP3 PUSH1 0x5 SHL DUP6 ADD ADD GT ISZERO PUSH2 0xADC JUMPI PUSH1 0x0 DUP1 REVERT JUMPDEST PUSH1 0x20 DUP4 ADD SWAP8 POP SWAP6 POP PUSH2 0xAF0 PUSH1 0x40 DUP11 ADD PUSH2 0xA13 JUMP JUMPDEST SWAP5 POP PUSH1 0x60 DUP10 ADD CALLDATALOAD SWAP2 POP DUP1 DUP3 GT ISZERO PUSH2 0xB06 JUMPI PUSH1 0x0 DUP1 REVERT JUMPDEST POP PUSH2 0xB13 DUP10 DUP3 DUP11 ADD PUSH2 0xA23 JUMP JUMPDEST SWAP8 SWAP11 SWAP7 SWAP10 POP SWAP5 SWAP8 POP SWAP3 SWAP6 SWAP4 SWAP5 SWAP3 POP POP POP JUMP JUMPDEST PUSH1 0x1 PUSH1 0x1 PUSH1 0xE0 SHL SUB NOT DUP2 AND DUP2 EQ PUSH2 0x9C9 JUMPI PUSH1 0x0 DUP1 REVERT JUMPDEST PUSH1 0x0 DUP1 PUSH1 0x40 DUP4 DUP6 SUB SLT ISZERO PUSH2 0xB4E JUMPI PUSH1 0x0 DUP1 REVERT JUMPDEST DUP3 CALLDATALOAD PUSH2 0xB59 DUP2 PUSH2 0xB25 JUMP JUMPDEST SWAP2 POP PUSH1 0x20 DUP4 ADD CALLDATALOAD DUP1 ISZERO ISZERO DUP2 EQ PUSH2 0xB6E JUMPI PUSH1 0x0 DUP1 REVERT JUMPDEST DUP1 SWAP2 POP POP SWAP3 POP SWAP3 SWAP1 POP JUMP JUMPDEST PUSH1 0x20 DUP1 DUP3 MSTORE PUSH1 0x6 SWAP1 DUP3 ADD MSTORE PUSH6 0x2727AFA3A7AB PUSH1 0xD1 SHL PUSH1 0x40 DUP3 ADD MSTORE PUSH1 0x60 ADD SWAP1 JUMP JUMPDEST PUSH1 0x3 DUP2 LT PUSH2 0x9C9 JUMPI PUSH1 0x0 DUP1 REVERT JUMPDEST PUSH1 0x3 DUP2 LT PUSH2 0xBC4 JUMPI PUSH4 0x4E487B71 PUSH1 0xE0 SHL PUSH1 0x0 MSTORE PUSH1 0x21 PUSH1 0x4 MSTORE PUSH1 0x24 PUSH1 0x0 REVERT JUMPDEST SWAP1 MSTORE JUMP JUMPDEST DUP2 DUP4 MSTORE PUSH1 0x0 PUSH1 0x20 DUP1 DUP6 ADD SWAP5 POP DUP3 PUSH1 0x0 JUMPDEST DUP6 DUP2 LT ISZERO PUSH2 0xC07 JUMPI DUP2 CALLDATALOAD PUSH2 0xBEB DUP2 PUSH2 0xB25 JUMP JUMPDEST PUSH1 0x1 PUSH1 0x1 PUSH1 0xE0 SHL SUB NOT AND DUP8 MSTORE SWAP6 DUP3 ADD SWAP6 SWAP1 DUP3 ADD SWAP1 PUSH1 0x1 ADD PUSH2 0xBD8 JUMP JUMPDEST POP SWAP5 SWAP6 SWAP5 POP POP POP POP POP JUMP JUMPDEST PUSH1 0x20 DUP1 DUP3 MSTORE DUP2 DUP2 ADD DUP4 SWAP1 MSTORE PUSH1 0x0 SWAP1 PUSH1 0x40 DUP1 DUP5 ADD PUSH1 0x5 DUP7 DUP2 SHL DUP7 ADD DUP4 ADD DUP9 DUP7 JUMPDEST DUP10 DUP2 LT ISZERO PUSH2 0xCF7 JUMPI DUP9 DUP4 SUB PUSH1 0x3F NOT ADD DUP6 MSTORE DUP2 CALLDATALOAD CALLDATASIZE DUP13 SWAP1 SUB PUSH1 0x5E NOT ADD DUP2 SLT PUSH2 0xC57 JUMPI PUSH1 0x0 DUP1 REVERT JUMPDEST DUP12 ADD PUSH1 0x60 DUP2 CALLDATALOAD PUSH2 0xC66 DUP2 PUSH2 0x9FE JUMP JUMPDEST PUSH1 0x1 PUSH1 0x1 PUSH1 0xA0 SHL SUB AND DUP6 MSTORE DUP2 DUP10 ADD CALLDATALOAD PUSH2 0xC7E DUP2 PUSH2 0xB99 JUMP JUMPDEST PUSH2 0xC8A DUP11 DUP8 ADD DUP3 PUSH2 0xBA6 JUMP JUMPDEST POP DUP8 DUP3 ADD CALLDATALOAD PUSH1 0x1E NOT DUP4 CALLDATASIZE SUB ADD DUP2 SLT PUSH2 0xCA1 JUMPI PUSH1 0x0 DUP1 REVERT JUMPDEST SWAP1 SWAP2 ADD DUP9 DUP2 ADD SWAP2 SWAP1 CALLDATALOAD PUSH8 0xFFFFFFFFFFFFFFFF DUP2 GT ISZERO PUSH2 0xCBF JUMPI PUSH1 0x0 DUP1 REVERT JUMPDEST DUP1 DUP8 SHL CALLDATASIZE SUB DUP4 SGT ISZERO PUSH2 0xCD0 JUMPI PUSH1 0x0 DUP1 REVERT JUMPDEST DUP2 DUP10 DUP8 ADD MSTORE PUSH2 0xCE2 DUP3 DUP8 ADD DUP3 DUP6 PUSH2 0xBC8 JUMP JUMPDEST SWAP8 DUP11 ADD SWAP8 SWAP6 POP POP POP SWAP2 DUP8 ADD SWAP2 POP PUSH1 0x1 ADD PUSH2 0xC31 JUMP JUMPDEST POP SWAP1 SWAP10 SWAP9 POP POP POP POP POP POP POP POP POP JUMP JUMPDEST PUSH4 0x4E487B71 PUSH1 0xE0 SHL PUSH1 0x0 MSTORE PUSH1 0x41 PUSH1 0x4 MSTORE PUSH1 0x24 PUSH1 0x0 REVERT JUMPDEST PUSH1 0x1 DUP2 DUP2 SHR SWAP1 DUP3 AND DUP1 PUSH2 0xD30 JUMPI PUSH1 0x7F DUP3 AND SWAP2 POP JUMPDEST PUSH1 0x20 DUP3 LT DUP2 SUB PUSH2 0xD50 JUMPI PUSH4 0x4E487B71 PUSH1 0xE0 SHL PUSH1 0x0 MSTORE PUSH1 0x22 PUSH1 0x4 MSTORE PUSH1 0x24 PUSH1 0x0 REVERT JUMPDEST POP SWAP2 SWAP1 POP JUMP JUMPDEST PUSH1 0x1F DUP3 GT ISZERO PUSH2 0xDA0 JUMPI PUSH1 0x0 DUP2 DUP2 MSTORE PUSH1 0x20 DUP2 KECCAK256 PUSH1 0x1F DUP6 ADD PUSH1 0x5 SHR DUP2 ADD PUSH1 0x20 DUP7 LT ISZERO PUSH2 0xD7D JUMPI POP DUP1 JUMPDEST PUSH1 0x1F DUP6 ADD PUSH1 0x5 SHR DUP3 ADD SWAP2 POP JUMPDEST DUP2 DUP2 LT ISZERO PUSH2 0xD9C JUMPI DUP3 DUP2 SSTORE PUSH1 0x1 ADD PUSH2 0xD89 JUMP JUMPDEST POP POP POP JUMPDEST POP POP POP JUMP JUMPDEST DUP2 MLOAD PUSH8 0xFFFFFFFFFFFFFFFF DUP2 GT ISZERO PUSH2 0xDBF JUMPI PUSH2 0xDBF PUSH2 0xD06 JUMP JUMPDEST PUSH2 0xDD3 DUP2 PUSH2 0xDCD DUP5 SLOAD PUSH2 0xD1C JUMP JUMPDEST DUP5 PUSH2 0xD56 JUMP JUMPDEST PUSH1 0x20 DUP1 PUSH1 0x1F DUP4 GT PUSH1 0x1 DUP2 EQ PUSH2 0xE08 JUMPI PUSH1 0x0 DUP5 ISZERO PUSH2 0xDF0 JUMPI POP DUP6 DUP4 ADD MLOAD JUMPDEST PUSH1 0x0 NOT PUSH1 0x3 DUP7 SWAP1 SHL SHR NOT AND PUSH1 0x1 DUP6 SWAP1 SHL OR DUP6 SSTORE PUSH2 0xD9C JUMP JUMPDEST PUSH1 0x0 DUP6 DUP2 MSTORE PUSH1 0x20 DUP2 KECCAK256 PUSH1 0x1F NOT DUP7 AND SWAP2 JUMPDEST DUP3 DUP2 LT ISZERO PUSH2 0xE37 JUMPI DUP9 DUP7 ADD MLOAD DUP3 SSTORE SWAP5 DUP5 ADD SWAP5 PUSH1 0x1 SWAP1 SWAP2 ADD SWAP1 DUP5 ADD PUSH2 0xE18 JUMP JUMPDEST POP DUP6 DUP3 LT ISZERO PUSH2 0xE55 JUMPI DUP8 DUP6 ADD MLOAD PUSH1 0x0 NOT PUSH1 0x3 DUP9 SWAP1 SHL PUSH1 0xF8 AND SHR NOT AND DUP2 SSTORE JUMPDEST POP POP POP POP POP PUSH1 0x1 SWAP1 DUP2 SHL ADD SWAP1 SSTORE POP JUMP JUMPDEST PUSH8 0xFFFFFFFFFFFFFFFF DUP4 GT ISZERO PUSH2 0xE7D JUMPI PUSH2 0xE7D PUSH2 0xD06 JUMP JUMPDEST PUSH2 0xE91 DUP4 PUSH2 0xE8B DUP4 SLOAD PUSH2 0xD1C JUMP JUMPDEST DUP4 PUSH2 0xD56 JUMP JUMPDEST PUSH1 0x0 PUSH1 0x1F DUP5 GT PUSH1 0x1 DUP2 EQ PUSH2 0xEC5 JUMPI PUSH1 0x0 DUP6 ISZERO PUSH2 0xEAD JUMPI POP DUP4 DUP3 ADD CALLDATALOAD JUMPDEST PUSH1 0x0 NOT PUSH1 0x3 DUP8 SWAP1 SHL SHR NOT AND PUSH1 0x1 DUP7 SWAP1 SHL OR DUP4 SSTORE PUSH2 0xF1F JUMP JUMPDEST PUSH1 0x0 DUP4 DUP2 MSTORE PUSH1 0x20 SWAP1 KECCAK256 PUSH1 0x1F NOT DUP7 AND SWAP1 DUP4 JUMPDEST DUP3 DUP2 LT ISZERO PUSH2 0xEF6 JUMPI DUP7 DUP6 ADD CALLDATALOAD DUP3 SSTORE PUSH1 0x20 SWAP5 DUP6 ADD SWAP5 PUSH1 0x1 SWAP1 SWAP3 ADD SWAP2 ADD PUSH2 0xED6 JUMP JUMPDEST POP DUP7 DUP3 LT ISZERO PUSH2 0xF13 JUMPI PUSH1 0x0 NOT PUSH1 0xF8 DUP9 PUSH1 0x3 SHL AND SHR NOT DUP5 DUP8 ADD CALLDATALOAD AND DUP2 SSTORE JUMPDEST POP POP PUSH1 0x1 DUP6 PUSH1 0x1 SHL ADD DUP4 SSTORE JUMPDEST POP POP POP POP POP JUMP JUMPDEST DUP6 DUP2 MSTORE PUSH1 0x1 PUSH1 0x1 PUSH1 0xA0 SHL SUB DUP6 DUP2 AND PUSH1 0x20 DUP4 ADD MSTORE DUP5 AND PUSH1 0x40 DUP3 ADD MSTORE PUSH1 0x80 PUSH1 0x60 DUP3 ADD DUP2 SWAP1 MSTORE DUP2 ADD DUP3 SWAP1 MSTORE PUSH1 0x0 DUP3 DUP5 PUSH1 0xA0 DUP5 ADD CALLDATACOPY PUSH1 0x0 PUSH1 0xA0 DUP5 DUP5 ADD ADD MSTORE PUSH1 0xA0 PUSH1 0x1F NOT PUSH1 0x1F DUP6 ADD AND DUP4 ADD ADD SWAP1 POP SWAP7 SWAP6 POP POP POP POP POP POP JUMP JUMPDEST DUP1 DUP3 ADD DUP1 DUP3 GT ISZERO PUSH2 0xF9A JUMPI PUSH4 0x4E487B71 PUSH1 0xE0 SHL PUSH1 0x0 MSTORE PUSH1 0x11 PUSH1 0x4 MSTORE PUSH1 0x24 PUSH1 0x0 REVERT JUMPDEST SWAP3 SWAP2 POP POP JUMP JUMPDEST PUSH1 0x40 MLOAD PUSH1 0x60 DUP2 ADD PUSH8 0xFFFFFFFFFFFFFFFF DUP2 GT DUP3 DUP3 LT OR ISZERO PUSH2 0xFC3 JUMPI PUSH2 0xFC3 PUSH2 0xD06 JUMP JUMPDEST PUSH1 0x40 MSTORE SWAP1 JUMP JUMPDEST PUSH1 0x40 MLOAD PUSH1 0x1F DUP3 ADD PUSH1 0x1F NOT AND DUP2 ADD PUSH8 0xFFFFFFFFFFFFFFFF DUP2 GT DUP3 DUP3 LT OR ISZERO PUSH2 0xFF2 JUMPI PUSH2 0xFF2 PUSH2 0xD06 JUMP JUMPDEST PUSH1 0x40 MSTORE SWAP2 SWAP1 POP JUMP JUMPDEST PUSH1 0x0 PUSH8 0xFFFFFFFFFFFFFFFF DUP3 GT ISZERO PUSH2 0x1014 JUMPI PUSH2 0x1014 PUSH2 0xD06 JUMP JUMPDEST POP PUSH1 0x5 SHL PUSH1 0x20 ADD SWAP1 JUMP JUMPDEST PUSH1 0x0 PUSH1 0x20 DUP1 DUP4 DUP6 SUB SLT ISZERO PUSH2 0x1031 JUMPI PUSH1 0x0 DUP1 REVERT JUMPDEST DUP3 MLOAD PUSH8 0xFFFFFFFFFFFFFFFF DUP1 DUP3 GT ISZERO PUSH2 0x1049 JUMPI PUSH1 0x0 DUP1 REVERT JUMPDEST DUP2 DUP6 ADD SWAP2 POP DUP6 PUSH1 0x1F DUP4 ADD SLT PUSH2 0x105D JUMPI PUSH1 0x0 DUP1 REVERT JUMPDEST DUP2 MLOAD PUSH2 0x1070 PUSH2 0x106B DUP3 PUSH2 0xFFA JUMP JUMPDEST PUSH2 0xFC9 JUMP JUMPDEST DUP2 DUP2 MSTORE PUSH1 0x5 SWAP2 SWAP1 SWAP2 SHL DUP4 ADD DUP5 ADD SWAP1 DUP5 DUP2 ADD SWAP1 DUP9 DUP4 GT ISZERO PUSH2 0x108F JUMPI PUSH1 0x0 DUP1 REVERT JUMPDEST DUP6 DUP6 ADD JUMPDEST DUP4 DUP2 LT ISZERO PUSH2 0x1187 JUMPI DUP1 MLOAD DUP6 DUP2 GT ISZERO PUSH2 0x10AB JUMPI PUSH1 0x0 DUP1 DUP2 REVERT JUMPDEST DUP7 ADD PUSH1 0x60 DUP2 DUP13 SUB PUSH1 0x1F NOT ADD DUP2 SGT ISZERO PUSH2 0x10C3 JUMPI PUSH1 0x0 DUP1 DUP2 REVERT JUMPDEST PUSH2 0x10CB PUSH2 0xFA0 JUMP JUMPDEST DUP10 DUP4 ADD MLOAD PUSH2 0x10D8 DUP2 PUSH2 0x9FE JUMP JUMPDEST DUP2 MSTORE PUSH1 0x40 DUP4 DUP2 ADD MLOAD PUSH2 0x10E9 DUP2 PUSH2 0xB99 JUMP JUMPDEST DUP3 DUP13 ADD MSTORE SWAP2 DUP4 ADD MLOAD SWAP2 DUP9 DUP4 GT ISZERO PUSH2 0x1100 JUMPI PUSH1 0x0 DUP1 DUP2 REVERT JUMPDEST DUP3 DUP5 ADD SWAP4 POP DUP14 PUSH1 0x3F DUP6 ADD SLT PUSH2 0x1117 JUMPI PUSH1 0x0 SWAP3 POP DUP3 DUP4 REVERT JUMPDEST DUP11 DUP5 ADD MLOAD SWAP3 POP PUSH2 0x1129 PUSH2 0x106B DUP5 PUSH2 0xFFA JUMP JUMPDEST DUP4 DUP2 MSTORE PUSH1 0x5 SWAP4 SWAP1 SWAP4 SHL DUP5 ADD DUP2 ADD SWAP3 DUP12 DUP2 ADD SWAP1 DUP16 DUP6 GT ISZERO PUSH2 0x1149 JUMPI PUSH1 0x0 DUP1 DUP2 REVERT JUMPDEST SWAP5 DUP3 ADD SWAP5 JUMPDEST DUP5 DUP7 LT ISZERO PUSH2 0x1170 JUMPI DUP6 MLOAD PUSH2 0x1161 DUP2 PUSH2 0xB25 JUMP JUMPDEST DUP3 MSTORE SWAP5 DUP13 ADD SWAP5 SWAP1 DUP13 ADD SWAP1 PUSH2 0x114E JUMP JUMPDEST SWAP2 DUP4 ADD SWAP2 SWAP1 SWAP2 MSTORE POP DUP6 MSTORE POP POP SWAP2 DUP7 ADD SWAP2 DUP7 ADD PUSH2 0x1093 JUMP JUMPDEST POP SWAP9 SWAP8 POP POP POP POP POP POP POP POP JUMP JUMPDEST PUSH1 0x0 DUP2 MLOAD DUP1 DUP5 MSTORE PUSH1 0x0 JUMPDEST DUP2 DUP2 LT ISZERO PUSH2 0x11BA JUMPI PUSH1 0x20 DUP2 DUP6 ADD DUP2 ADD MLOAD DUP7 DUP4 ADD DUP3 ADD MSTORE ADD PUSH2 0x119E JUMP JUMPDEST POP PUSH1 0x0 PUSH1 0x20 DUP3 DUP7 ADD ADD MSTORE PUSH1 0x20 PUSH1 0x1F NOT PUSH1 0x1F DUP4 ADD AND DUP6 ADD ADD SWAP2 POP POP SWAP3 SWAP2 POP POP JUMP JUMPDEST PUSH1 0x0 PUSH1 0x60 DUP1 DUP4 ADD DUP2 DUP5 MSTORE DUP1 DUP8 MLOAD DUP1 DUP4 MSTORE PUSH1 0x80 SWAP3 POP DUP3 DUP7 ADD SWAP2 POP DUP3 DUP2 PUSH1 0x5 SHL DUP8 ADD ADD PUSH1 0x20 DUP1 DUP12 ADD PUSH1 0x0 DUP1 JUMPDEST DUP6 DUP2 LT ISZERO PUSH2 0x1295 JUMPI DUP11 DUP6 SUB PUSH1 0x7F NOT ADD DUP8 MSTORE DUP3 MLOAD DUP1 MLOAD PUSH1 0x1 PUSH1 0x1 PUSH1 0xA0 SHL SUB AND DUP7 MSTORE DUP5 DUP2 ADD MLOAD DUP11 DUP8 ADD SWAP1 PUSH2 0x1238 DUP8 DUP10 ADD DUP3 PUSH2 0xBA6 JUMP JUMPDEST POP PUSH1 0x40 SWAP2 DUP3 ADD MLOAD SWAP2 DUP8 ADD DUP12 SWAP1 MSTORE DUP2 MLOAD SWAP1 DUP2 SWAP1 MSTORE SWAP1 DUP6 ADD SWAP1 DUP4 SWAP1 DUP11 DUP9 ADD SWAP1 JUMPDEST DUP1 DUP4 LT ISZERO PUSH2 0x1280 JUMPI DUP4 MLOAD PUSH1 0x1 PUSH1 0x1 PUSH1 0xE0 SHL SUB NOT AND DUP3 MSTORE SWAP3 DUP8 ADD SWAP3 PUSH1 0x1 SWAP3 SWAP1 SWAP3 ADD SWAP2 SWAP1 DUP8 ADD SWAP1 PUSH2 0x1256 JUMP JUMPDEST POP SWAP9 DUP7 ADD SWAP9 SWAP7 POP POP POP SWAP2 DUP4 ADD SWAP2 PUSH1 0x1 ADD PUSH2 0x1204 JUMP JUMPDEST POP POP POP PUSH1 0x1 PUSH1 0x1 PUSH1 0xA0 SHL SUB DUP11 AND SWAP1 DUP9 ADD MSTORE DUP7 DUP2 SUB PUSH1 0x40 DUP9 ADD MSTORE PUSH2 0x12B8 DUP2 DUP10 PUSH2 0x1194 JUMP JUMPDEST SWAP11 SWAP10 POP POP POP POP POP POP POP POP POP POP JUMP JUMPDEST PUSH1 0x0 PUSH1 0x20 DUP3 DUP5 SUB SLT ISZERO PUSH2 0x12D8 JUMPI PUSH1 0x0 DUP1 REVERT JUMPDEST DUP2 MLOAD PUSH2 0x12E3 DUP2 PUSH2 0x9FE JUMP JUMPDEST SWAP4 SWAP3 POP POP POP JUMP INVALID SWAP16 PUSH9 0x4A81EE6E6FB92A5AE5 LOG2 JUMP SIGNEXTEND 0xB2 PUSH8 0xD45AADA2BE404847 SLOAD SWAP9 0xC RETURNDATACOPY AND 0xE4 0x4D SWAP9 0xE0 SMOD 0x24 SAR XOR DUP10 0xEC DUP13 SDIV 0xDC DUP12 LT SWAP3 0xE6 0xA7 0xDC DUP9 PUSH23 0x97913FAABBDC9FE930D998AD974DE007241D1889EC8C05 0xDC DUP12 LT SWAP3 0xE6 0xA7 0xDC DUP9 PUSH23 0x97913FAABBDC9FE930D998AD974BA26469706673582212 KECCAK256 POP BLOCKHASH 0xCF 0xD2 0xAB 0xAC 0xA7 0xFB 0xCA SHL 0xA8 0xEE PUSH2 0x2BB8 CALLDATASIZE 0xB2 SWAP11 0x4D CODESIZE SWAP3 0xE9 0xC5 0x2F PUSH21 0x6D41DDB1C3571464736F6C63430008150033000000 "},"methodIdentifiers":{"emergencyBrake(bytes4,bool)":"8ef34cc1","eta(bytes32)":"088775a3","executeCut(bytes32)":"e9143174","proposeCut(bytes32,(address,uint8,bytes4[])[],address,bytes)":"1cecf99e","proposer(bytes32)":"ac7f05f9","queueCut(bytes32)":"b7575c5f","quorumBps()":"cd2ddd0c","timelock()":"d33219b4"}}}}}