{"contracts/facets/PauseFacet.sol":{"PauseFacet":{"abi":[{"anonymous":false,"inputs":[{"indexed":false,"internalType":"bytes4","name":"selector","type":"bytes4"},{"indexed":false,"internalType":"bool","name":"paused","type":"bool"}],"name":"FunctionPaused","type":"event"},{"anonymous":false,"inputs":[{"indexed":false,"internalType":"bool","name":"paused","type":"bool"}],"name":"GlobalPaused","type":"event"},{"inputs":[],"name":"isGlobalPaused","outputs":[{"internalType":"bool","name":"","type":"bool"}],"stateMutability":"view","type":"function"},{"inputs":[{"internalType":"bytes4","name":"selector","type":"bytes4"}],"name":"isPaused","outputs":[{"internalType":"bool","name":"","type":"bool"}],"stateMutability":"view","type":"function"},{"inputs":[{"internalType":"bytes4","name":"selector","type":"bytes4"},{"internalType":"bool","name":"paused","type":"bool"}],"name":"setFunctionPause","outputs":[],"stateMutability":"nonpayable","type":"function"},{"inputs":[{"internalType":"bool","name":"paused","type":"bool"}],"name":"setGlobalPause","outputs":[],"stateMutability":"nonpayable","type":"function"}],"evm":{"bytecode":{"linkReferences":{},"object":"608060405234801561001057600080fd5b506102c0806100206000396000f3fe608060405234801561001057600080fd5b506004361061004c5760003560e01c806309b65e66146100515780635ca145e6146100b157806369a6b3db146100c6578063b714fa3e146100d9575b600080fd5b61009d61005f36600461020a565b6001600160e01b03191660009081527fbe2039d0acebc8f39aca028faa2657d60691246a654ef49134d442fbe066df4f602052604090205460ff1690565b604051901515815260200160405180910390f35b6100c46100bf36600461023c565b610103565b005b6100c46100d436600461026f565b610187565b7fbe2039d0acebc8f39aca028faa2657d60691246a654ef49134d442fbe066df4e5460ff1661009d565b6001600160e01b0319821660008181527fbe2039d0acebc8f39aca028faa2657d60691246a654ef49134d442fbe066df4f6020908152604091829020805460ff191685151590811790915582519384529083015280517f8d55861a3463260ef86139a9feef380a290f3f1b3367862f20f8a761fd1989359281900390910190a15050565b7fbe2039d0acebc8f39aca028faa2657d60691246a654ef49134d442fbe066df4e805482151560ff19909116811790915560408051918252517f39faec09bfc6835902c79c4757f9177e0cf8ab328b2bb690494e800dfe8c9c949181900360200190a150565b80356001600160e01b03198116811461020557600080fd5b919050565b60006020828403121561021c57600080fd5b610225826101ed565b9392505050565b8035801515811461020557600080fd5b6000806040838503121561024f57600080fd5b610258836101ed565b91506102666020840161022c565b90509250929050565b60006020828403121561028157600080fd5b6102258261022c56fea2646970667358221220dd7c042ad33c62add5fa0734bb33bbce9b5e0124973a2941be8bc925a2c4965164736f6c63430008150033","opcodes":"PUSH1 0x80 PUSH1 0x40 MSTORE CALLVALUE DUP1 ISZERO PUSH2 0x10 JUMPI PUSH1 0x0 DUP1 REVERT JUMPDEST POP PUSH2 0x2C0 DUP1 PUSH2 0x20 PUSH1 0x0 CODECOPY PUSH1 0x0 RETURN INVALID PUSH1 0x80 PUSH1 0x40 MSTORE CALLVALUE DUP1 ISZERO PUSH2 0x10 JUMPI PUSH1 0x0 DUP1 REVERT JUMPDEST POP PUSH1 0x4 CALLDATASIZE LT PUSH2 0x4C JUMPI PUSH1 0x0 CALLDATALOAD PUSH1 0xE0 SHR DUP1 PUSH4 0x9B65E66 EQ PUSH2 0x51 JUMPI DUP1 PUSH4 0x5CA145E6 EQ PUSH2 0xB1 JUMPI DUP1 PUSH4 0x69A6B3DB EQ PUSH2 0xC6 JUMPI DUP1 PUSH4 0xB714FA3E EQ PUSH2 0xD9 JUMPI JUMPDEST PUSH1 0x0 DUP1 REVERT JUMPDEST PUSH2 0x9D PUSH2 0x5F CALLDATASIZE PUSH1 0x4 PUSH2 0x20A JUMP JUMPDEST PUSH1 0x1 PUSH1 0x1 PUSH1 0xE0 SHL SUB NOT AND PUSH1 0x0 SWAP1 DUP2 MSTORE PUSH32 0xBE2039D0ACEBC8F39ACA028FAA2657D60691246A654EF49134D442FBE066DF4F PUSH1 0x20 MSTORE PUSH1 0x40 SWAP1 KECCAK256 SLOAD PUSH1 0xFF AND SWAP1 JUMP JUMPDEST PUSH1 0x40 MLOAD SWAP1 ISZERO ISZERO DUP2 MSTORE PUSH1 0x20 ADD PUSH1 0x40 MLOAD DUP1 SWAP2 SUB SWAP1 RETURN JUMPDEST PUSH2 0xC4 PUSH2 0xBF CALLDATASIZE PUSH1 0x4 PUSH2 0x23C JUMP JUMPDEST PUSH2 0x103 JUMP JUMPDEST STOP JUMPDEST PUSH2 0xC4 PUSH2 0xD4 CALLDATASIZE PUSH1 0x4 PUSH2 0x26F JUMP JUMPDEST PUSH2 0x187 JUMP JUMPDEST PUSH32 0xBE2039D0ACEBC8F39ACA028FAA2657D60691246A654EF49134D442FBE066DF4E SLOAD PUSH1 0xFF AND PUSH2 0x9D JUMP JUMPDEST PUSH1 0x1 PUSH1 0x1 PUSH1 0xE0 SHL SUB NOT DUP3 AND PUSH1 0x0 DUP2 DUP2 MSTORE PUSH32 0xBE2039D0ACEBC8F39ACA028FAA2657D60691246A654EF49134D442FBE066DF4F PUSH1 0x20 SWAP1 DUP2 MSTORE PUSH1 0x40 SWAP2 DUP3 SWAP1 KECCAK256 DUP1 SLOAD PUSH1 0xFF NOT AND DUP6 ISZERO ISZERO SWAP1 DUP2 OR SWAP1 SWAP2 SSTORE DUP3 MLOAD SWAP4 DUP5 MSTORE SWAP1 DUP4 ADD MSTORE DUP1 MLOAD PUSH32 0x8D55861A3463260EF86139A9FEEF380A290F3F1B3367862F20F8A761FD198935 SWAP3 DUP2 SWAP1 SUB SWAP1 SWAP2 ADD SWAP1 LOG1 POP POP JUMP JUMPDEST PUSH32 0xBE2039D0ACEBC8F39ACA028FAA2657D60691246A654EF49134D442FBE066DF4E DUP1 SLOAD DUP3 ISZERO ISZERO PUSH1 0xFF NOT SWAP1 SWAP2 AND DUP2 OR SWAP1 SWAP2 SSTORE PUSH1 0x40 DUP1 MLOAD SWAP2 DUP3 MSTORE MLOAD PUSH32 0x39FAEC09BFC6835902C79C4757F9177E0CF8AB328B2BB690494E800DFE8C9C94 SWAP2 DUP2 SWAP1 SUB PUSH1 0x20 ADD SWAP1 LOG1 POP JUMP JUMPDEST DUP1 CALLDATALOAD PUSH1 0x1 PUSH1 0x1 PUSH1 0xE0 SHL SUB NOT DUP2 AND DUP2 EQ PUSH2 0x205 JUMPI PUSH1 0x0 DUP1 REVERT JUMPDEST SWAP2 SWAP1 POP JUMP JUMPDEST PUSH1 0x0 PUSH1 0x20 DUP3 DUP5 SUB SLT ISZERO PUSH2 0x21C JUMPI PUSH1 0x0 DUP1 REVERT JUMPDEST PUSH2 0x225 DUP3 PUSH2 0x1ED JUMP JUMPDEST SWAP4 SWAP3 POP POP POP JUMP JUMPDEST DUP1 CALLDATALOAD DUP1 ISZERO ISZERO DUP2 EQ PUSH2 0x205 JUMPI PUSH1 0x0 DUP1 REVERT JUMPDEST PUSH1 0x0 DUP1 PUSH1 0x40 DUP4 DUP6 SUB SLT ISZERO PUSH2 0x24F JUMPI PUSH1 0x0 DUP1 REVERT JUMPDEST PUSH2 0x258 DUP4 PUSH2 0x1ED JUMP JUMPDEST SWAP2 POP PUSH2 0x266 PUSH1 0x20 DUP5 ADD PUSH2 0x22C JUMP JUMPDEST SWAP1 POP SWAP3 POP SWAP3 SWAP1 POP JUMP JUMPDEST PUSH1 0x0 PUSH1 0x20 DUP3 DUP5 SUB SLT ISZERO PUSH2 0x281 JUMPI PUSH1 0x0 DUP1 REVERT JUMPDEST PUSH2 0x225 DUP3 PUSH2 0x22C JUMP INVALID LOG2 PUSH5 0x6970667358 0x22 SLT KECCAK256 0xDD PUSH29 0x42AD33C62ADD5FA0734BB33BBCE9B5E0124973A2941BE8BC925A2C496 MLOAD PUSH5 0x736F6C6343 STOP ADDMOD ISZERO STOP CALLER "},"methodIdentifiers":{"isGlobalPaused()":"b714fa3e","isPaused(bytes4)":"09b65e66","setFunctionPause(bytes4,bool)":"5ca145e6","setGlobalPause(bool)":"69a6b3db"}}}}}