{"contracts/facets/IndexFacet.sol":{"IndexFacet":{"abi":[{"anonymous":false,"inputs":[{"indexed":true,"internalType":"bytes32","name":"dashboardHash","type":"bytes32"},{"indexed":false,"internalType":"uint64","name":"globalVersion","type":"uint64"},{"indexed":false,"internalType":"uint256","name":"liCRI","type":"uint256"},{"indexed":false,"internalType":"uint256","name":"timestamp","type":"uint256"}],"name":"DashboardSnapshot","type":"event"},{"anonymous":false,"inputs":[{"indexed":true,"internalType":"bytes32","name":"id","type":"bytes32"},{"indexed":false,"internalType":"uint64","name":"version","type":"uint64"}],"name":"IndexWeightsUpdated","type":"event"},{"inputs":[{"internalType":"bytes32","name":"indexId","type":"bytes32"}],"name":"getIndex","outputs":[{"internalType":"uint64","name":"version","type":"uint64"},{"internalType":"bytes32[]","name":"keys","type":"bytes32[]"},{"internalType":"uint256[]","name":"weights","type":"uint256[]"},{"internalType":"bytes32","name":"dashboardHash","type":"bytes32"}],"stateMutability":"view","type":"function"},{"inputs":[],"name":"getLiCRI","outputs":[{"internalType":"uint256","name":"","type":"uint256"}],"stateMutability":"view","type":"function"},{"inputs":[{"internalType":"bytes32[]","name":"componentIds","type":"bytes32[]"},{"internalType":"uint256[]","name":"componentValues","type":"uint256[]"}],"name":"recalcLiCRI","outputs":[{"internalType":"uint256","name":"faceValueComposite","type":"uint256"}],"stateMutability":"nonpayable","type":"function"},{"inputs":[{"internalType":"bytes32","name":"dashboardHash","type":"bytes32"},{"internalType":"uint256","name":"liCRI","type":"uint256"},{"internalType":"uint64","name":"globalVersion","type":"uint64"}],"name":"setDashboardComposite","outputs":[],"stateMutability":"nonpayable","type":"function"},{"inputs":[{"internalType":"bytes32","name":"indexId","type":"bytes32"},{"internalType":"bytes32[]","name":"keys","type":"bytes32[]"},{"internalType":"uint256[]","name":"weights","type":"uint256[]"},{"internalType":"uint64","name":"version","type":"uint64"},{"internalType":"bytes32","name":"dashboardHash","type":"bytes32"}],"name":"setWeights","outputs":[],"stateMutability":"nonpayable","type":"function"}],"evm":{"bytecode":{"linkReferences":{},"object":"608060405234801561001057600080fd5b5061091e806100206000396000f3fe608060405234801561001057600080fd5b50600436106100575760003560e01c806351d7bc851461005c5780637a58d26a146100715780638527831b14610084578063a28de244146100b0578063c0af218d146100e1575b600080fd5b61006f61006a366004610682565b6100f4565b005b61006f61007f366004610716565b6102d3565b61009761009236600461074b565b61037d565b6040516100a79493929190610764565b60405180910390f35b7fed67d0daff738ccf71298a47a56dc9ef98b1ffb107ed17a564642a6aed1dd4df545b6040519081526020016100a7565b6100d36100ef3660046107fc565b610458565b84831461012e5760405162461bcd60e51b81526020600482015260036024820152622622a760e91b60448201526064015b60405180910390fd5b6000805b848110156101725785858281811061014c5761014c610868565b905060200201358261015e9190610894565b91508061016a816108ad565b915050610132565b5080670de0b6b3a7640000146101b05760405162461bcd60e51b815260206004820152600360248201526253554d60e81b6044820152606401610125565b60006101bb89610581565b805467ffffffffffffffff191667ffffffffffffffff86161781556001810184905590506101ed6002820160006105df565b6101fb6003820160006105df565b60005b87811015610288578160020189898381811061021c5761021c610868565b835460018101855560009485526020948590209190940292909201359190920155506003820187878381811061025457610254610868565b8354600181018555600094855260209485902091909402929092013591909201555080610280816108ad565b9150506101fe565b5060405167ffffffffffffffff8516815289907fd0bb3ba69f84be3b2eb470a3881f792dce20c4a660a4c1833fd576d38f7fa6ca9060200160405180910390a2505050505050505050565b7fed67d0daff738ccf71298a47a56dc9ef98b1ffb107ed17a564642a6aed1dd4df8290557fed67d0daff738ccf71298a47a56dc9ef98b1ffb107ed17a564642a6aed1dd4de805467ffffffffffffffff831667ffffffffffffffff1990911681178255604080519182526020820185905242828201525185917f6519f20914a226ac2380da7d29c110df4a8a62167ed605e3d5b09beb78933513919081900360600190a250505050565b600060608060008061038e86610581565b805460018201546002830180546040805160208084028201810190925282815267ffffffffffffffff9095169a509296509394509192908301828280156103f457602002820191906000526020600020905b8154815260200190600101908083116103e0575b505050505093508060030180548060200260200160405190810160405280929190818152602001828054801561044957602002820191906000526020600020905b815481526020019060010190808311610435575b50505050509250509193509193565b600083821461048f5760405162461bcd60e51b81526020600482015260036024820152622622a760e91b6044820152606401610125565b6000805b838110156104d3578484828181106104ad576104ad610868565b90506020020135826104bf9190610894565b9150806104cb816108ad565b915050610493565b506104de83826108c6565b7fed67d0daff738ccf71298a47a56dc9ef98b1ffb107ed17a564642a6aed1dd4df8190557fed67d0daff738ccf71298a47a56dc9ef98b1ffb107ed17a564642a6aed1dd4de80546040805167ffffffffffffffff90921682526020820184905242828201525192945090916000917f6519f20914a226ac2380da7d29c110df4a8a62167ed605e3d5b09beb78933513919081900360600190a25050949350505050565b600080827fed67d0daff738ccf71298a47a56dc9ef98b1ffb107ed17a564642a6aed1dd4de6040516020016105c0929190918252602082015260400190565b60408051601f1981840301815291905280516020909101209392505050565b50805460008255906000526020600020908101906105fd9190610600565b50565b5b808211156106155760008155600101610601565b5090565b60008083601f84011261062b57600080fd5b50813567ffffffffffffffff81111561064357600080fd5b6020830191508360208260051b850101111561065e57600080fd5b9250929050565b803567ffffffffffffffff8116811461067d57600080fd5b919050565b600080600080600080600060a0888a03121561069d57600080fd5b87359650602088013567ffffffffffffffff808211156106bc57600080fd5b6106c88b838c01610619565b909850965060408a01359150808211156106e157600080fd5b506106ee8a828b01610619565b9095509350610701905060608901610665565b91506080880135905092959891949750929550565b60008060006060848603121561072b57600080fd5b833592506020840135915061074260408501610665565b90509250925092565b60006020828403121561075d57600080fd5b5035919050565b60006080820167ffffffffffffffff87168352602060808185015281875180845260a086019150828901935060005b818110156107af57845183529383019391830191600101610793565b50508481036040860152865180825290820192508187019060005b818110156107e6578251855293830193918301916001016107ca565b5050505060609290920192909252949350505050565b6000806000806040858703121561081257600080fd5b843567ffffffffffffffff8082111561082a57600080fd5b61083688838901610619565b9096509450602087013591508082111561084f57600080fd5b5061085c87828801610619565b95989497509550505050565b634e487b7160e01b600052603260045260246000fd5b634e487b7160e01b600052601160045260246000fd5b808201808211156108a7576108a761087e565b92915050565b6000600182016108bf576108bf61087e565b5060010190565b6000826108e357634e487b7160e01b600052601260045260246000fd5b50049056fea2646970667358221220d2a5040f81a6942b768030dbc85ea07a625f572c0da850ff1b91a9908315a19e64736f6c63430008150033","opcodes":"PUSH1 0x80 PUSH1 0x40 MSTORE CALLVALUE DUP1 ISZERO PUSH2 0x10 JUMPI PUSH1 0x0 DUP1 REVERT JUMPDEST POP PUSH2 0x91E DUP1 PUSH2 0x20 PUSH1 0x0 CODECOPY PUSH1 0x0 RETURN INVALID PUSH1 0x80 PUSH1 0x40 MSTORE CALLVALUE DUP1 ISZERO PUSH2 0x10 JUMPI PUSH1 0x0 DUP1 REVERT JUMPDEST POP PUSH1 0x4 CALLDATASIZE LT PUSH2 0x57 JUMPI PUSH1 0x0 CALLDATALOAD PUSH1 0xE0 SHR DUP1 PUSH4 0x51D7BC85 EQ PUSH2 0x5C JUMPI DUP1 PUSH4 0x7A58D26A EQ PUSH2 0x71 JUMPI DUP1 PUSH4 0x8527831B EQ PUSH2 0x84 JUMPI DUP1 PUSH4 0xA28DE244 EQ PUSH2 0xB0 JUMPI DUP1 PUSH4 0xC0AF218D EQ PUSH2 0xE1 JUMPI JUMPDEST PUSH1 0x0 DUP1 REVERT JUMPDEST PUSH2 0x6F PUSH2 0x6A CALLDATASIZE PUSH1 0x4 PUSH2 0x682 JUMP JUMPDEST PUSH2 0xF4 JUMP JUMPDEST STOP JUMPDEST PUSH2 0x6F PUSH2 0x7F CALLDATASIZE PUSH1 0x4 PUSH2 0x716 JUMP JUMPDEST PUSH2 0x2D3 JUMP JUMPDEST PUSH2 0x97 PUSH2 0x92 CALLDATASIZE PUSH1 0x4 PUSH2 0x74B JUMP JUMPDEST PUSH2 0x37D JUMP JUMPDEST PUSH1 0x40 MLOAD PUSH2 0xA7 SWAP5 SWAP4 SWAP3 SWAP2 SWAP1 PUSH2 0x764 JUMP JUMPDEST PUSH1 0x40 MLOAD DUP1 SWAP2 SUB SWAP1 RETURN JUMPDEST PUSH32 0xED67D0DAFF738CCF71298A47A56DC9EF98B1FFB107ED17A564642A6AED1DD4DF SLOAD JUMPDEST PUSH1 0x40 MLOAD SWAP1 DUP2 MSTORE PUSH1 0x20 ADD PUSH2 0xA7 JUMP JUMPDEST PUSH2 0xD3 PUSH2 0xEF CALLDATASIZE PUSH1 0x4 PUSH2 0x7FC JUMP JUMPDEST PUSH2 0x458 JUMP JUMPDEST DUP5 DUP4 EQ PUSH2 0x12E JUMPI PUSH1 0x40 MLOAD PUSH3 0x461BCD PUSH1 0xE5 SHL DUP2 MSTORE PUSH1 0x20 PUSH1 0x4 DUP3 ADD MSTORE PUSH1 0x3 PUSH1 0x24 DUP3 ADD MSTORE PUSH3 0x2622A7 PUSH1 0xE9 SHL PUSH1 0x44 DUP3 ADD MSTORE PUSH1 0x64 ADD JUMPDEST PUSH1 0x40 MLOAD DUP1 SWAP2 SUB SWAP1 REVERT JUMPDEST PUSH1 0x0 DUP1 JUMPDEST DUP5 DUP2 LT ISZERO PUSH2 0x172 JUMPI DUP6 DUP6 DUP3 DUP2 DUP2 LT PUSH2 0x14C JUMPI PUSH2 0x14C PUSH2 0x868 JUMP JUMPDEST SWAP1 POP PUSH1 0x20 MUL ADD CALLDATALOAD DUP3 PUSH2 0x15E SWAP2 SWAP1 PUSH2 0x894 JUMP JUMPDEST SWAP2 POP DUP1 PUSH2 0x16A DUP2 PUSH2 0x8AD JUMP JUMPDEST SWAP2 POP POP PUSH2 0x132 JUMP JUMPDEST POP DUP1 PUSH8 0xDE0B6B3A7640000 EQ PUSH2 0x1B0 JUMPI PUSH1 0x40 MLOAD PUSH3 0x461BCD PUSH1 0xE5 SHL DUP2 MSTORE PUSH1 0x20 PUSH1 0x4 DUP3 ADD MSTORE PUSH1 0x3 PUSH1 0x24 DUP3 ADD MSTORE PUSH3 0x53554D PUSH1 0xE8 SHL PUSH1 0x44 DUP3 ADD MSTORE PUSH1 0x64 ADD PUSH2 0x125 JUMP JUMPDEST PUSH1 0x0 PUSH2 0x1BB DUP10 PUSH2 0x581 JUMP JUMPDEST DUP1 SLOAD PUSH8 0xFFFFFFFFFFFFFFFF NOT AND PUSH8 0xFFFFFFFFFFFFFFFF DUP7 AND OR DUP2 SSTORE PUSH1 0x1 DUP2 ADD DUP5 SWAP1 SSTORE SWAP1 POP PUSH2 0x1ED PUSH1 0x2 DUP3 ADD PUSH1 0x0 PUSH2 0x5DF JUMP JUMPDEST PUSH2 0x1FB PUSH1 0x3 DUP3 ADD PUSH1 0x0 PUSH2 0x5DF JUMP JUMPDEST PUSH1 0x0 JUMPDEST DUP8 DUP2 LT ISZERO PUSH2 0x288 JUMPI DUP2 PUSH1 0x2 ADD DUP10 DUP10 DUP4 DUP2 DUP2 LT PUSH2 0x21C JUMPI PUSH2 0x21C PUSH2 0x868 JUMP JUMPDEST DUP4 SLOAD PUSH1 0x1 DUP2 ADD DUP6 SSTORE PUSH1 0x0 SWAP5 DUP6 MSTORE PUSH1 0x20 SWAP5 DUP6 SWAP1 KECCAK256 SWAP2 SWAP1 SWAP5 MUL SWAP3 SWAP1 SWAP3 ADD CALLDATALOAD SWAP2 SWAP1 SWAP3 ADD SSTORE POP PUSH1 0x3 DUP3 ADD DUP8 DUP8 DUP4 DUP2 DUP2 LT PUSH2 0x254 JUMPI PUSH2 0x254 PUSH2 0x868 JUMP JUMPDEST DUP4 SLOAD PUSH1 0x1 DUP2 ADD DUP6 SSTORE PUSH1 0x0 SWAP5 DUP6 MSTORE PUSH1 0x20 SWAP5 DUP6 SWAP1 KECCAK256 SWAP2 SWAP1 SWAP5 MUL SWAP3 SWAP1 SWAP3 ADD CALLDATALOAD SWAP2 SWAP1 SWAP3 ADD SSTORE POP DUP1 PUSH2 0x280 DUP2 PUSH2 0x8AD JUMP JUMPDEST SWAP2 POP POP PUSH2 0x1FE JUMP JUMPDEST POP PUSH1 0x40 MLOAD PUSH8 0xFFFFFFFFFFFFFFFF DUP6 AND DUP2 MSTORE DUP10 SWAP1 PUSH32 0xD0BB3BA69F84BE3B2EB470A3881F792DCE20C4A660A4C1833FD576D38F7FA6CA SWAP1 PUSH1 0x20 ADD PUSH1 0x40 MLOAD DUP1 SWAP2 SUB SWAP1 LOG2 POP POP POP POP POP POP POP POP POP JUMP JUMPDEST PUSH32 0xED67D0DAFF738CCF71298A47A56DC9EF98B1FFB107ED17A564642A6AED1DD4DF DUP3 SWAP1 SSTORE PUSH32 0xED67D0DAFF738CCF71298A47A56DC9EF98B1FFB107ED17A564642A6AED1DD4DE DUP1 SLOAD PUSH8 0xFFFFFFFFFFFFFFFF DUP4 AND PUSH8 0xFFFFFFFFFFFFFFFF NOT SWAP1 SWAP2 AND DUP2 OR DUP3 SSTORE PUSH1 0x40 DUP1 MLOAD SWAP2 DUP3 MSTORE PUSH1 0x20 DUP3 ADD DUP6 SWAP1 MSTORE TIMESTAMP DUP3 DUP3 ADD MSTORE MLOAD DUP6 SWAP2 PUSH32 0x6519F20914A226AC2380DA7D29C110DF4A8A62167ED605E3D5B09BEB78933513 SWAP2 SWAP1 DUP2 SWAP1 SUB PUSH1 0x60 ADD SWAP1 LOG2 POP POP POP POP JUMP JUMPDEST PUSH1 0x0 PUSH1 0x60 DUP1 PUSH1 0x0 DUP1 PUSH2 0x38E DUP7 PUSH2 0x581 JUMP JUMPDEST DUP1 SLOAD PUSH1 0x1 DUP3 ADD SLOAD PUSH1 0x2 DUP4 ADD DUP1 SLOAD PUSH1 0x40 DUP1 MLOAD PUSH1 0x20 DUP1 DUP5 MUL DUP3 ADD DUP2 ADD SWAP1 SWAP3 MSTORE DUP3 DUP2 MSTORE PUSH8 0xFFFFFFFFFFFFFFFF SWAP1 SWAP6 AND SWAP11 POP SWAP3 SWAP7 POP SWAP4 SWAP5 POP SWAP2 SWAP3 SWAP1 DUP4 ADD DUP3 DUP3 DUP1 ISZERO PUSH2 0x3F4 JUMPI PUSH1 0x20 MUL DUP3 ADD SWAP2 SWAP1 PUSH1 0x0 MSTORE PUSH1 0x20 PUSH1 0x0 KECCAK256 SWAP1 JUMPDEST DUP2 SLOAD DUP2 MSTORE PUSH1 0x20 ADD SWAP1 PUSH1 0x1 ADD SWAP1 DUP1 DUP4 GT PUSH2 0x3E0 JUMPI JUMPDEST POP POP POP POP POP SWAP4 POP DUP1 PUSH1 0x3 ADD DUP1 SLOAD DUP1 PUSH1 0x20 MUL PUSH1 0x20 ADD PUSH1 0x40 MLOAD SWAP1 DUP2 ADD PUSH1 0x40 MSTORE DUP1 SWAP3 SWAP2 SWAP1 DUP2 DUP2 MSTORE PUSH1 0x20 ADD DUP3 DUP1 SLOAD DUP1 ISZERO PUSH2 0x449 JUMPI PUSH1 0x20 MUL DUP3 ADD SWAP2 SWAP1 PUSH1 0x0 MSTORE PUSH1 0x20 PUSH1 0x0 KECCAK256 SWAP1 JUMPDEST DUP2 SLOAD DUP2 MSTORE PUSH1 0x20 ADD SWAP1 PUSH1 0x1 ADD SWAP1 DUP1 DUP4 GT PUSH2 0x435 JUMPI JUMPDEST POP POP POP POP POP SWAP3 POP POP SWAP2 SWAP4 POP SWAP2 SWAP4 JUMP JUMPDEST PUSH1 0x0 DUP4 DUP3 EQ PUSH2 0x48F JUMPI PUSH1 0x40 MLOAD PUSH3 0x461BCD PUSH1 0xE5 SHL DUP2 MSTORE PUSH1 0x20 PUSH1 0x4 DUP3 ADD MSTORE PUSH1 0x3 PUSH1 0x24 DUP3 ADD MSTORE PUSH3 0x2622A7 PUSH1 0xE9 SHL PUSH1 0x44 DUP3 ADD MSTORE PUSH1 0x64 ADD PUSH2 0x125 JUMP JUMPDEST PUSH1 0x0 DUP1 JUMPDEST DUP4 DUP2 LT ISZERO PUSH2 0x4D3 JUMPI DUP5 DUP5 DUP3 DUP2 DUP2 LT PUSH2 0x4AD JUMPI PUSH2 0x4AD PUSH2 0x868 JUMP JUMPDEST SWAP1 POP PUSH1 0x20 MUL ADD CALLDATALOAD DUP3 PUSH2 0x4BF SWAP2 SWAP1 PUSH2 0x894 JUMP JUMPDEST SWAP2 POP DUP1 PUSH2 0x4CB DUP2 PUSH2 0x8AD JUMP JUMPDEST SWAP2 POP POP PUSH2 0x493 JUMP JUMPDEST POP PUSH2 0x4DE DUP4 DUP3 PUSH2 0x8C6 JUMP JUMPDEST PUSH32 0xED67D0DAFF738CCF71298A47A56DC9EF98B1FFB107ED17A564642A6AED1DD4DF DUP2 SWAP1 SSTORE PUSH32 0xED67D0DAFF738CCF71298A47A56DC9EF98B1FFB107ED17A564642A6AED1DD4DE DUP1 SLOAD PUSH1 0x40 DUP1 MLOAD PUSH8 0xFFFFFFFFFFFFFFFF SWAP1 SWAP3 AND DUP3 MSTORE PUSH1 0x20 DUP3 ADD DUP5 SWAP1 MSTORE TIMESTAMP DUP3 DUP3 ADD MSTORE MLOAD SWAP3 SWAP5 POP SWAP1 SWAP2 PUSH1 0x0 SWAP2 PUSH32 0x6519F20914A226AC2380DA7D29C110DF4A8A62167ED605E3D5B09BEB78933513 SWAP2 SWAP1 DUP2 SWAP1 SUB PUSH1 0x60 ADD SWAP1 LOG2 POP POP SWAP5 SWAP4 POP POP POP POP JUMP JUMPDEST PUSH1 0x0 DUP1 DUP3 PUSH32 0xED67D0DAFF738CCF71298A47A56DC9EF98B1FFB107ED17A564642A6AED1DD4DE PUSH1 0x40 MLOAD PUSH1 0x20 ADD PUSH2 0x5C0 SWAP3 SWAP2 SWAP1 SWAP2 DUP3 MSTORE PUSH1 0x20 DUP3 ADD MSTORE PUSH1 0x40 ADD SWAP1 JUMP JUMPDEST PUSH1 0x40 DUP1 MLOAD PUSH1 0x1F NOT DUP2 DUP5 SUB ADD DUP2 MSTORE SWAP2 SWAP1 MSTORE DUP1 MLOAD PUSH1 0x20 SWAP1 SWAP2 ADD KECCAK256 SWAP4 SWAP3 POP POP POP JUMP JUMPDEST POP DUP1 SLOAD PUSH1 0x0 DUP3 SSTORE SWAP1 PUSH1 0x0 MSTORE PUSH1 0x20 PUSH1 0x0 KECCAK256 SWAP1 DUP2 ADD SWAP1 PUSH2 0x5FD SWAP2 SWAP1 PUSH2 0x600 JUMP JUMPDEST POP JUMP JUMPDEST JUMPDEST DUP1 DUP3 GT ISZERO PUSH2 0x615 JUMPI PUSH1 0x0 DUP2 SSTORE PUSH1 0x1 ADD PUSH2 0x601 JUMP JUMPDEST POP SWAP1 JUMP JUMPDEST PUSH1 0x0 DUP1 DUP4 PUSH1 0x1F DUP5 ADD SLT PUSH2 0x62B JUMPI PUSH1 0x0 DUP1 REVERT JUMPDEST POP DUP2 CALLDATALOAD PUSH8 0xFFFFFFFFFFFFFFFF DUP2 GT ISZERO PUSH2 0x643 JUMPI PUSH1 0x0 DUP1 REVERT JUMPDEST PUSH1 0x20 DUP4 ADD SWAP2 POP DUP4 PUSH1 0x20 DUP3 PUSH1 0x5 SHL DUP6 ADD ADD GT ISZERO PUSH2 0x65E JUMPI PUSH1 0x0 DUP1 REVERT JUMPDEST SWAP3 POP SWAP3 SWAP1 POP JUMP JUMPDEST DUP1 CALLDATALOAD PUSH8 0xFFFFFFFFFFFFFFFF DUP2 AND DUP2 EQ PUSH2 0x67D JUMPI PUSH1 0x0 DUP1 REVERT JUMPDEST SWAP2 SWAP1 POP JUMP JUMPDEST PUSH1 0x0 DUP1 PUSH1 0x0 DUP1 PUSH1 0x0 DUP1 PUSH1 0x0 PUSH1 0xA0 DUP9 DUP11 SUB SLT ISZERO PUSH2 0x69D JUMPI PUSH1 0x0 DUP1 REVERT JUMPDEST DUP8 CALLDATALOAD SWAP7 POP PUSH1 0x20 DUP9 ADD CALLDATALOAD PUSH8 0xFFFFFFFFFFFFFFFF DUP1 DUP3 GT ISZERO PUSH2 0x6BC JUMPI PUSH1 0x0 DUP1 REVERT JUMPDEST PUSH2 0x6C8 DUP12 DUP4 DUP13 ADD PUSH2 0x619 JUMP JUMPDEST SWAP1 SWAP9 POP SWAP7 POP PUSH1 0x40 DUP11 ADD CALLDATALOAD SWAP2 POP DUP1 DUP3 GT ISZERO PUSH2 0x6E1 JUMPI PUSH1 0x0 DUP1 REVERT JUMPDEST POP PUSH2 0x6EE DUP11 DUP3 DUP12 ADD PUSH2 0x619 JUMP JUMPDEST SWAP1 SWAP6 POP SWAP4 POP PUSH2 0x701 SWAP1 POP PUSH1 0x60 DUP10 ADD PUSH2 0x665 JUMP JUMPDEST SWAP2 POP PUSH1 0x80 DUP9 ADD CALLDATALOAD SWAP1 POP SWAP3 SWAP6 SWAP9 SWAP2 SWAP5 SWAP8 POP SWAP3 SWAP6 POP JUMP JUMPDEST PUSH1 0x0 DUP1 PUSH1 0x0 PUSH1 0x60 DUP5 DUP7 SUB SLT ISZERO PUSH2 0x72B JUMPI PUSH1 0x0 DUP1 REVERT JUMPDEST DUP4 CALLDATALOAD SWAP3 POP PUSH1 0x20 DUP5 ADD CALLDATALOAD SWAP2 POP PUSH2 0x742 PUSH1 0x40 DUP6 ADD PUSH2 0x665 JUMP JUMPDEST SWAP1 POP SWAP3 POP SWAP3 POP SWAP3 JUMP JUMPDEST PUSH1 0x0 PUSH1 0x20 DUP3 DUP5 SUB SLT ISZERO PUSH2 0x75D JUMPI PUSH1 0x0 DUP1 REVERT JUMPDEST POP CALLDATALOAD SWAP2 SWAP1 POP JUMP JUMPDEST PUSH1 0x0 PUSH1 0x80 DUP3 ADD PUSH8 0xFFFFFFFFFFFFFFFF DUP8 AND DUP4 MSTORE PUSH1 0x20 PUSH1 0x80 DUP2 DUP6 ADD MSTORE DUP2 DUP8 MLOAD DUP1 DUP5 MSTORE PUSH1 0xA0 DUP7 ADD SWAP2 POP DUP3 DUP10 ADD SWAP4 POP PUSH1 0x0 JUMPDEST DUP2 DUP2 LT ISZERO PUSH2 0x7AF JUMPI DUP5 MLOAD DUP4 MSTORE SWAP4 DUP4 ADD SWAP4 SWAP2 DUP4 ADD SWAP2 PUSH1 0x1 ADD PUSH2 0x793 JUMP JUMPDEST POP POP DUP5 DUP2 SUB PUSH1 0x40 DUP7 ADD MSTORE DUP7 MLOAD DUP1 DUP3 MSTORE SWAP1 DUP3 ADD SWAP3 POP DUP2 DUP8 ADD SWAP1 PUSH1 0x0 JUMPDEST DUP2 DUP2 LT ISZERO PUSH2 0x7E6 JUMPI DUP3 MLOAD DUP6 MSTORE SWAP4 DUP4 ADD SWAP4 SWAP2 DUP4 ADD SWAP2 PUSH1 0x1 ADD PUSH2 0x7CA JUMP JUMPDEST POP POP POP POP PUSH1 0x60 SWAP3 SWAP1 SWAP3 ADD SWAP3 SWAP1 SWAP3 MSTORE SWAP5 SWAP4 POP POP POP POP JUMP JUMPDEST PUSH1 0x0 DUP1 PUSH1 0x0 DUP1 PUSH1 0x40 DUP6 DUP8 SUB SLT ISZERO PUSH2 0x812 JUMPI PUSH1 0x0 DUP1 REVERT JUMPDEST DUP5 CALLDATALOAD PUSH8 0xFFFFFFFFFFFFFFFF DUP1 DUP3 GT ISZERO PUSH2 0x82A JUMPI PUSH1 0x0 DUP1 REVERT JUMPDEST PUSH2 0x836 DUP9 DUP4 DUP10 ADD PUSH2 0x619 JUMP JUMPDEST SWAP1 SWAP7 POP SWAP5 POP PUSH1 0x20 DUP8 ADD CALLDATALOAD SWAP2 POP DUP1 DUP3 GT ISZERO PUSH2 0x84F JUMPI PUSH1 0x0 DUP1 REVERT JUMPDEST POP PUSH2 0x85C DUP8 DUP3 DUP9 ADD PUSH2 0x619 JUMP JUMPDEST SWAP6 SWAP9 SWAP5 SWAP8 POP SWAP6 POP POP POP POP JUMP JUMPDEST PUSH4 0x4E487B71 PUSH1 0xE0 SHL PUSH1 0x0 MSTORE PUSH1 0x32 PUSH1 0x4 MSTORE PUSH1 0x24 PUSH1 0x0 REVERT JUMPDEST PUSH4 0x4E487B71 PUSH1 0xE0 SHL PUSH1 0x0 MSTORE PUSH1 0x11 PUSH1 0x4 MSTORE PUSH1 0x24 PUSH1 0x0 REVERT JUMPDEST DUP1 DUP3 ADD DUP1 DUP3 GT ISZERO PUSH2 0x8A7 JUMPI PUSH2 0x8A7 PUSH2 0x87E JUMP JUMPDEST SWAP3 SWAP2 POP POP JUMP JUMPDEST PUSH1 0x0 PUSH1 0x1 DUP3 ADD PUSH2 0x8BF JUMPI PUSH2 0x8BF PUSH2 0x87E JUMP JUMPDEST POP PUSH1 0x1 ADD SWAP1 JUMP JUMPDEST PUSH1 0x0 DUP3 PUSH2 0x8E3 JUMPI PUSH4 0x4E487B71 PUSH1 0xE0 SHL PUSH1 0x0 MSTORE PUSH1 0x12 PUSH1 0x4 MSTORE PUSH1 0x24 PUSH1 0x0 REVERT JUMPDEST POP DIV SWAP1 JUMP INVALID LOG2 PUSH5 0x6970667358 0x22 SLT KECCAK256 0xD2 0xA5 DIV 0xF DUP2 0xA6 SWAP5 0x2B PUSH23 0x8030DBC85EA07A625F572C0DA850FF1B91A9908315A19E PUSH5 0x736F6C6343 STOP ADDMOD ISZERO STOP CALLER "},"methodIdentifiers":{"getIndex(bytes32)":"8527831b","getLiCRI()":"a28de244","recalcLiCRI(bytes32[],uint256[])":"c0af218d","setDashboardComposite(bytes32,uint256,uint64)":"7a58d26a","setWeights(bytes32,bytes32[],uint256[],uint64,bytes32)":"51d7bc85"}}}}}