{"contracts/facets/AccessFacet.sol":{"AccessFacet":{"abi":[{"anonymous":false,"inputs":[{"indexed":true,"internalType":"address","name":"account","type":"address"},{"indexed":false,"internalType":"uint256","name":"roleBits","type":"uint256"}],"name":"RoleGranted","type":"event"},{"anonymous":false,"inputs":[{"indexed":true,"internalType":"address","name":"account","type":"address"},{"indexed":false,"internalType":"uint256","name":"roleBits","type":"uint256"}],"name":"RoleRevoked","type":"event"},{"inputs":[{"internalType":"address","name":"account","type":"address"},{"internalType":"uint256","name":"roleBits","type":"uint256"}],"name":"grantRoles","outputs":[],"stateMutability":"nonpayable","type":"function"},{"inputs":[{"internalType":"address","name":"account","type":"address"},{"internalType":"uint256","name":"roleBits","type":"uint256"}],"name":"hasRoles","outputs":[{"internalType":"bool","name":"","type":"bool"}],"stateMutability":"view","type":"function"},{"inputs":[{"internalType":"address","name":"account","type":"address"},{"internalType":"uint256","name":"roleBits","type":"uint256"}],"name":"revokeRoles","outputs":[],"stateMutability":"nonpayable","type":"function"}],"evm":{"bytecode":{"linkReferences":{},"object":"608060405234801561001057600080fd5b50610223806100206000396000f3fe608060405234801561001057600080fd5b50600436106100415760003560e01c8063112ff489146100465780631c10893f146100a85780634a4ee7b1146100bd575b600080fd5b6100946100543660046101b5565b6001600160a01b039190911660009081527f9f684a81ee6e6fb92a5ae5a2560bb267d45aada2be40484754980c3e16e44d98602052604090205481161490565b604051901515815260200160405180910390f35b6100bb6100b63660046101b5565b6100d0565b005b6100bb6100cb3660046101b5565b610146565b6001600160a01b03821660008181527f9f684a81ee6e6fb92a5ae5a2560bb267d45aada2be40484754980c3e16e44d98602090815260409182902080548517905590518381527f179d9faeef78652d6b82f73b6ad9bf53b5b05d2a7f212a4ef46cb7b7d3c123db91015b60405180910390a25050565b6001600160a01b03821660008181527f9f684a81ee6e6fb92a5ae5a2560bb267d45aada2be40484754980c3e16e44d9860209081526040918290208054851916905590518381527f12982f922b0573398129ea86655ce1e8e425ec676c9e3d40bf5458688b1ef544910161013a565b600080604083850312156101c857600080fd5b82356001600160a01b03811681146101df57600080fd5b94602093909301359350505056fea2646970667358221220a49b68e68a8dfacf917ae79a1f092b89261630e231ecf15e4764c1e02b1f7b5d64736f6c63430008150033","opcodes":"PUSH1 0x80 PUSH1 0x40 MSTORE CALLVALUE DUP1 ISZERO PUSH2 0x10 JUMPI PUSH1 0x0 DUP1 REVERT JUMPDEST POP PUSH2 0x223 DUP1 PUSH2 0x20 PUSH1 0x0 CODECOPY PUSH1 0x0 RETURN INVALID PUSH1 0x80 PUSH1 0x40 MSTORE CALLVALUE DUP1 ISZERO PUSH2 0x10 JUMPI PUSH1 0x0 DUP1 REVERT JUMPDEST POP PUSH1 0x4 CALLDATASIZE LT PUSH2 0x41 JUMPI PUSH1 0x0 CALLDATALOAD PUSH1 0xE0 SHR DUP1 PUSH4 0x112FF489 EQ PUSH2 0x46 JUMPI DUP1 PUSH4 0x1C10893F EQ PUSH2 0xA8 JUMPI DUP1 PUSH4 0x4A4EE7B1 EQ PUSH2 0xBD JUMPI JUMPDEST PUSH1 0x0 DUP1 REVERT JUMPDEST PUSH2 0x94 PUSH2 0x54 CALLDATASIZE PUSH1 0x4 PUSH2 0x1B5 JUMP JUMPDEST PUSH1 0x1 PUSH1 0x1 PUSH1 0xA0 SHL SUB SWAP2 SWAP1 SWAP2 AND PUSH1 0x0 SWAP1 DUP2 MSTORE PUSH32 0x9F684A81EE6E6FB92A5AE5A2560BB267D45AADA2BE40484754980C3E16E44D98 PUSH1 0x20 MSTORE PUSH1 0x40 SWAP1 KECCAK256 SLOAD DUP2 AND EQ SWAP1 JUMP JUMPDEST PUSH1 0x40 MLOAD SWAP1 ISZERO ISZERO DUP2 MSTORE PUSH1 0x20 ADD PUSH1 0x40 MLOAD DUP1 SWAP2 SUB SWAP1 RETURN JUMPDEST PUSH2 0xBB PUSH2 0xB6 CALLDATASIZE PUSH1 0x4 PUSH2 0x1B5 JUMP JUMPDEST PUSH2 0xD0 JUMP JUMPDEST STOP JUMPDEST PUSH2 0xBB PUSH2 0xCB CALLDATASIZE PUSH1 0x4 PUSH2 0x1B5 JUMP JUMPDEST PUSH2 0x146 JUMP JUMPDEST PUSH1 0x1 PUSH1 0x1 PUSH1 0xA0 SHL SUB DUP3 AND PUSH1 0x0 DUP2 DUP2 MSTORE PUSH32 0x9F684A81EE6E6FB92A5AE5A2560BB267D45AADA2BE40484754980C3E16E44D98 PUSH1 0x20 SWAP1 DUP2 MSTORE PUSH1 0x40 SWAP2 DUP3 SWAP1 KECCAK256 DUP1 SLOAD DUP6 OR SWAP1 SSTORE SWAP1 MLOAD DUP4 DUP2 MSTORE PUSH32 0x179D9FAEEF78652D6B82F73B6AD9BF53B5B05D2A7F212A4EF46CB7B7D3C123DB SWAP2 ADD JUMPDEST PUSH1 0x40 MLOAD DUP1 SWAP2 SUB SWAP1 LOG2 POP POP JUMP JUMPDEST PUSH1 0x1 PUSH1 0x1 PUSH1 0xA0 SHL SUB DUP3 AND PUSH1 0x0 DUP2 DUP2 MSTORE PUSH32 0x9F684A81EE6E6FB92A5AE5A2560BB267D45AADA2BE40484754980C3E16E44D98 PUSH1 0x20 SWAP1 DUP2 MSTORE PUSH1 0x40 SWAP2 DUP3 SWAP1 KECCAK256 DUP1 SLOAD DUP6 NOT AND SWAP1 SSTORE SWAP1 MLOAD DUP4 DUP2 MSTORE PUSH32 0x12982F922B0573398129EA86655CE1E8E425EC676C9E3D40BF5458688B1EF544 SWAP2 ADD PUSH2 0x13A JUMP JUMPDEST PUSH1 0x0 DUP1 PUSH1 0x40 DUP4 DUP6 SUB SLT ISZERO PUSH2 0x1C8 JUMPI PUSH1 0x0 DUP1 REVERT JUMPDEST DUP3 CALLDATALOAD PUSH1 0x1 PUSH1 0x1 PUSH1 0xA0 SHL SUB DUP2 AND DUP2 EQ PUSH2 0x1DF JUMPI PUSH1 0x0 DUP1 REVERT JUMPDEST SWAP5 PUSH1 0x20 SWAP4 SWAP1 SWAP4 ADD CALLDATALOAD SWAP4 POP POP POP JUMP INVALID LOG2 PUSH5 0x6970667358 0x22 SLT KECCAK256 LOG4 SWAP12 PUSH9 0xE68A8DFACF917AE79A 0x1F MULMOD 0x2B DUP10 0x26 AND ADDRESS 0xE2 BALANCE 0xEC CALL 0x5E SELFBALANCE PUSH5 0xC1E02B1F7B 0x5D PUSH5 0x736F6C6343 STOP ADDMOD ISZERO STOP CALLER "},"methodIdentifiers":{"grantRoles(address,uint256)":"1c10893f","hasRoles(address,uint256)":"112ff489","revokeRoles(address,uint256)":"4a4ee7b1"}}}}}