{"contracts/facets/AuditFacet.sol":{"AuditFacet":{"abi":[{"anonymous":false,"inputs":[{"indexed":false,"internalType":"uint64","name":"period","type":"uint64"},{"indexed":false,"internalType":"bytes32","name":"root","type":"bytes32"},{"indexed":false,"internalType":"string","name":"ipfsRef","type":"string"}],"name":"PoRPosted","type":"event"},{"anonymous":false,"inputs":[{"indexed":false,"internalType":"uint64","name":"period","type":"uint64"}],"name":"PoRSealed","type":"event"},{"inputs":[{"internalType":"uint64","name":"period","type":"uint64"}],"name":"getPoR","outputs":[{"internalType":"bytes32","name":"merkleRoot","type":"bytes32"},{"internalType":"string","name":"ipfsRef","type":"string"},{"internalType":"bool","name":"isSealed","type":"bool"}],"stateMutability":"view","type":"function"},{"inputs":[{"internalType":"uint64","name":"period","type":"uint64"},{"internalType":"bytes32","name":"merkleRoot","type":"bytes32"},{"internalType":"string","name":"ipfsRef","type":"string"}],"name":"postPoR","outputs":[],"stateMutability":"nonpayable","type":"function"},{"inputs":[{"internalType":"uint64","name":"period","type":"uint64"}],"name":"seal","outputs":[],"stateMutability":"nonpayable","type":"function"}],"evm":{"bytecode":{"linkReferences":{},"object":"608060405234801561001057600080fd5b50610576806100206000396000f3fe608060405234801561001057600080fd5b50600436106100415760003560e01c80630368d8b214610046578063115960001461005b5780631b338d1214610086575b600080fd5b610059610054366004610291565b610099565b005b61006e610069366004610291565b6100f7565b60405161007d939291906102b3565b60405180910390f35b610059610094366004610312565b6101b8565b60006100a48261021c565b60028101805460ff1916600117905560405167ffffffffffffffff841681529091507fcbbc26abd8791c22cf6c82e4cdef0f05ea533b67f8bdba0a2f68def0726343e29060200160405180910390a15050565b600060606000806101078561021c565b80546002820154600183018054939450919260ff90911690829061012a90610399565b80601f016020809104026020016040519081016040528092919081815260200182805461015690610399565b80156101a35780601f10610178576101008083540402835291602001916101a3565b820191906000526020600020905b81548152906001019060200180831161018657829003601f168201915b50505050509150935093509350509193909250565b60006101c38561021c565b8481559050600181016101d7838583610438565b507f0688d37710c3cf1657809374bee1478dbdbf8a3beeb34791f9e44a614ac72cdb8585858560405161020d94939291906104f9565b60405180910390a15050505050565b6040805167ffffffffffffffff929092166020808401919091527f7f5b50c69171a0073d53951e48ad73b5f1c9430310c86e2f3d4ae27816378375838301528151808403830181526060909301909152815191012090565b803567ffffffffffffffff8116811461028c57600080fd5b919050565b6000602082840312156102a357600080fd5b6102ac82610274565b9392505050565b83815260006020606081840152845180606085015260005b818110156102e7578681018301518582016080015282016102cb565b506000608082860101526080601f19601f830116850101925050508215156040830152949350505050565b6000806000806060858703121561032857600080fd5b61033185610274565b935060208501359250604085013567ffffffffffffffff8082111561035557600080fd5b818701915087601f83011261036957600080fd5b81358181111561037857600080fd5b88602082850101111561038a57600080fd5b95989497505060200194505050565b600181811c908216806103ad57607f821691505b6020821081036103cd57634e487b7160e01b600052602260045260246000fd5b50919050565b634e487b7160e01b600052604160045260246000fd5b601f82111561043357600081815260208120601f850160051c810160208610156104105750805b601f850160051c820191505b8181101561042f5782815560010161041c565b5050505b505050565b67ffffffffffffffff831115610450576104506103d3565b6104648361045e8354610399565b836103e9565b6000601f84116001811461049857600085156104805750838201355b600019600387901b1c1916600186901b1783556104f2565b600083815260209020601f19861690835b828110156104c957868501358255602094850194600190920191016104a9565b50868210156104e65760001960f88860031b161c19848701351681555b505060018560011b0183555b5050505050565b67ffffffffffffffff8516815283602082015260606040820152816060820152818360808301376000818301608090810191909152601f909201601f19160101939250505056fea2646970667358221220359b40247c02781a85cfb702c21f8650520a0214d23d5de0aac5a3464f4a3d8a64736f6c63430008150033","opcodes":"PUSH1 0x80 PUSH1 0x40 MSTORE CALLVALUE DUP1 ISZERO PUSH2 0x10 JUMPI PUSH1 0x0 DUP1 REVERT JUMPDEST POP PUSH2 0x576 DUP1 PUSH2 0x20 PUSH1 0x0 CODECOPY PUSH1 0x0 RETURN INVALID PUSH1 0x80 PUSH1 0x40 MSTORE CALLVALUE DUP1 ISZERO PUSH2 0x10 JUMPI PUSH1 0x0 DUP1 REVERT JUMPDEST POP PUSH1 0x4 CALLDATASIZE LT PUSH2 0x41 JUMPI PUSH1 0x0 CALLDATALOAD PUSH1 0xE0 SHR DUP1 PUSH4 0x368D8B2 EQ PUSH2 0x46 JUMPI DUP1 PUSH4 0x11596000 EQ PUSH2 0x5B JUMPI DUP1 PUSH4 0x1B338D12 EQ PUSH2 0x86 JUMPI JUMPDEST PUSH1 0x0 DUP1 REVERT JUMPDEST PUSH2 0x59 PUSH2 0x54 CALLDATASIZE PUSH1 0x4 PUSH2 0x291 JUMP JUMPDEST PUSH2 0x99 JUMP JUMPDEST STOP JUMPDEST PUSH2 0x6E PUSH2 0x69 CALLDATASIZE PUSH1 0x4 PUSH2 0x291 JUMP JUMPDEST PUSH2 0xF7 JUMP JUMPDEST PUSH1 0x40 MLOAD PUSH2 0x7D SWAP4 SWAP3 SWAP2 SWAP1 PUSH2 0x2B3 JUMP JUMPDEST PUSH1 0x40 MLOAD DUP1 SWAP2 SUB SWAP1 RETURN JUMPDEST PUSH2 0x59 PUSH2 0x94 CALLDATASIZE PUSH1 0x4 PUSH2 0x312 JUMP JUMPDEST PUSH2 0x1B8 JUMP JUMPDEST PUSH1 0x0 PUSH2 0xA4 DUP3 PUSH2 0x21C JUMP JUMPDEST PUSH1 0x2 DUP2 ADD DUP1 SLOAD PUSH1 0xFF NOT AND PUSH1 0x1 OR SWAP1 SSTORE PUSH1 0x40 MLOAD PUSH8 0xFFFFFFFFFFFFFFFF DUP5 AND DUP2 MSTORE SWAP1 SWAP2 POP PUSH32 0xCBBC26ABD8791C22CF6C82E4CDEF0F05EA533B67F8BDBA0A2F68DEF0726343E2 SWAP1 PUSH1 0x20 ADD PUSH1 0x40 MLOAD DUP1 SWAP2 SUB SWAP1 LOG1 POP POP JUMP JUMPDEST PUSH1 0x0 PUSH1 0x60 PUSH1 0x0 DUP1 PUSH2 0x107 DUP6 PUSH2 0x21C JUMP JUMPDEST DUP1 SLOAD PUSH1 0x2 DUP3 ADD SLOAD PUSH1 0x1 DUP4 ADD DUP1 SLOAD SWAP4 SWAP5 POP SWAP2 SWAP3 PUSH1 0xFF SWAP1 SWAP2 AND SWAP1 DUP3 SWAP1 PUSH2 0x12A SWAP1 PUSH2 0x399 JUMP JUMPDEST DUP1 PUSH1 0x1F ADD PUSH1 0x20 DUP1 SWAP2 DIV MUL PUSH1 0x20 ADD PUSH1 0x40 MLOAD SWAP1 DUP2 ADD PUSH1 0x40 MSTORE DUP1 SWAP3 SWAP2 SWAP1 DUP2 DUP2 MSTORE PUSH1 0x20 ADD DUP3 DUP1 SLOAD PUSH2 0x156 SWAP1 PUSH2 0x399 JUMP JUMPDEST DUP1 ISZERO PUSH2 0x1A3 JUMPI DUP1 PUSH1 0x1F LT PUSH2 0x178 JUMPI PUSH2 0x100 DUP1 DUP4 SLOAD DIV MUL DUP4 MSTORE SWAP2 PUSH1 0x20 ADD SWAP2 PUSH2 0x1A3 JUMP JUMPDEST DUP3 ADD SWAP2 SWAP1 PUSH1 0x0 MSTORE PUSH1 0x20 PUSH1 0x0 KECCAK256 SWAP1 JUMPDEST DUP2 SLOAD DUP2 MSTORE SWAP1 PUSH1 0x1 ADD SWAP1 PUSH1 0x20 ADD DUP1 DUP4 GT PUSH2 0x186 JUMPI DUP3 SWAP1 SUB PUSH1 0x1F AND DUP3 ADD SWAP2 JUMPDEST POP POP POP POP POP SWAP2 POP SWAP4 POP SWAP4 POP SWAP4 POP POP SWAP2 SWAP4 SWAP1 SWAP3 POP JUMP JUMPDEST PUSH1 0x0 PUSH2 0x1C3 DUP6 PUSH2 0x21C JUMP JUMPDEST DUP5 DUP2 SSTORE SWAP1 POP PUSH1 0x1 DUP2 ADD PUSH2 0x1D7 DUP4 DUP6 DUP4 PUSH2 0x438 JUMP JUMPDEST POP PUSH32 0x688D37710C3CF1657809374BEE1478DBDBF8A3BEEB34791F9E44A614AC72CDB DUP6 DUP6 DUP6 DUP6 PUSH1 0x40 MLOAD PUSH2 0x20D SWAP5 SWAP4 SWAP3 SWAP2 SWAP1 PUSH2 0x4F9 JUMP JUMPDEST PUSH1 0x40 MLOAD DUP1 SWAP2 SUB SWAP1 LOG1 POP POP POP POP POP JUMP JUMPDEST PUSH1 0x40 DUP1 MLOAD PUSH8 0xFFFFFFFFFFFFFFFF SWAP3 SWAP1 SWAP3 AND PUSH1 0x20 DUP1 DUP5 ADD SWAP2 SWAP1 SWAP2 MSTORE PUSH32 0x7F5B50C69171A0073D53951E48AD73B5F1C9430310C86E2F3D4AE27816378375 DUP4 DUP4 ADD MSTORE DUP2 MLOAD DUP1 DUP5 SUB DUP4 ADD DUP2 MSTORE PUSH1 0x60 SWAP1 SWAP4 ADD SWAP1 SWAP2 MSTORE DUP2 MLOAD SWAP2 ADD KECCAK256 SWAP1 JUMP JUMPDEST DUP1 CALLDATALOAD PUSH8 0xFFFFFFFFFFFFFFFF DUP2 AND DUP2 EQ PUSH2 0x28C JUMPI PUSH1 0x0 DUP1 REVERT JUMPDEST SWAP2 SWAP1 POP JUMP JUMPDEST PUSH1 0x0 PUSH1 0x20 DUP3 DUP5 SUB SLT ISZERO PUSH2 0x2A3 JUMPI PUSH1 0x0 DUP1 REVERT JUMPDEST PUSH2 0x2AC DUP3 PUSH2 0x274 JUMP JUMPDEST SWAP4 SWAP3 POP POP POP JUMP JUMPDEST DUP4 DUP2 MSTORE PUSH1 0x0 PUSH1 0x20 PUSH1 0x60 DUP2 DUP5 ADD MSTORE DUP5 MLOAD DUP1 PUSH1 0x60 DUP6 ADD MSTORE PUSH1 0x0 JUMPDEST DUP2 DUP2 LT ISZERO PUSH2 0x2E7 JUMPI DUP7 DUP2 ADD DUP4 ADD MLOAD DUP6 DUP3 ADD PUSH1 0x80 ADD MSTORE DUP3 ADD PUSH2 0x2CB JUMP JUMPDEST POP PUSH1 0x0 PUSH1 0x80 DUP3 DUP7 ADD ADD MSTORE PUSH1 0x80 PUSH1 0x1F NOT PUSH1 0x1F DUP4 ADD AND DUP6 ADD ADD SWAP3 POP POP POP DUP3 ISZERO ISZERO PUSH1 0x40 DUP4 ADD MSTORE SWAP5 SWAP4 POP POP POP POP JUMP JUMPDEST PUSH1 0x0 DUP1 PUSH1 0x0 DUP1 PUSH1 0x60 DUP6 DUP8 SUB SLT ISZERO PUSH2 0x328 JUMPI PUSH1 0x0 DUP1 REVERT JUMPDEST PUSH2 0x331 DUP6 PUSH2 0x274 JUMP JUMPDEST SWAP4 POP PUSH1 0x20 DUP6 ADD CALLDATALOAD SWAP3 POP PUSH1 0x40 DUP6 ADD CALLDATALOAD PUSH8 0xFFFFFFFFFFFFFFFF DUP1 DUP3 GT ISZERO PUSH2 0x355 JUMPI PUSH1 0x0 DUP1 REVERT JUMPDEST DUP2 DUP8 ADD SWAP2 POP DUP8 PUSH1 0x1F DUP4 ADD SLT PUSH2 0x369 JUMPI PUSH1 0x0 DUP1 REVERT JUMPDEST DUP2 CALLDATALOAD DUP2 DUP2 GT ISZERO PUSH2 0x378 JUMPI PUSH1 0x0 DUP1 REVERT JUMPDEST DUP9 PUSH1 0x20 DUP3 DUP6 ADD ADD GT ISZERO PUSH2 0x38A JUMPI PUSH1 0x0 DUP1 REVERT JUMPDEST SWAP6 SWAP9 SWAP5 SWAP8 POP POP PUSH1 0x20 ADD SWAP5 POP POP POP JUMP JUMPDEST PUSH1 0x1 DUP2 DUP2 SHR SWAP1 DUP3 AND DUP1 PUSH2 0x3AD JUMPI PUSH1 0x7F DUP3 AND SWAP2 POP JUMPDEST PUSH1 0x20 DUP3 LT DUP2 SUB PUSH2 0x3CD JUMPI PUSH4 0x4E487B71 PUSH1 0xE0 SHL PUSH1 0x0 MSTORE PUSH1 0x22 PUSH1 0x4 MSTORE PUSH1 0x24 PUSH1 0x0 REVERT JUMPDEST POP SWAP2 SWAP1 POP JUMP JUMPDEST PUSH4 0x4E487B71 PUSH1 0xE0 SHL PUSH1 0x0 MSTORE PUSH1 0x41 PUSH1 0x4 MSTORE PUSH1 0x24 PUSH1 0x0 REVERT JUMPDEST PUSH1 0x1F DUP3 GT ISZERO PUSH2 0x433 JUMPI PUSH1 0x0 DUP2 DUP2 MSTORE PUSH1 0x20 DUP2 KECCAK256 PUSH1 0x1F DUP6 ADD PUSH1 0x5 SHR DUP2 ADD PUSH1 0x20 DUP7 LT ISZERO PUSH2 0x410 JUMPI POP DUP1 JUMPDEST PUSH1 0x1F DUP6 ADD PUSH1 0x5 SHR DUP3 ADD SWAP2 POP JUMPDEST DUP2 DUP2 LT ISZERO PUSH2 0x42F JUMPI DUP3 DUP2 SSTORE PUSH1 0x1 ADD PUSH2 0x41C JUMP JUMPDEST POP POP POP JUMPDEST POP POP POP JUMP JUMPDEST PUSH8 0xFFFFFFFFFFFFFFFF DUP4 GT ISZERO PUSH2 0x450 JUMPI PUSH2 0x450 PUSH2 0x3D3 JUMP JUMPDEST PUSH2 0x464 DUP4 PUSH2 0x45E DUP4 SLOAD PUSH2 0x399 JUMP JUMPDEST DUP4 PUSH2 0x3E9 JUMP JUMPDEST PUSH1 0x0 PUSH1 0x1F DUP5 GT PUSH1 0x1 DUP2 EQ PUSH2 0x498 JUMPI PUSH1 0x0 DUP6 ISZERO PUSH2 0x480 JUMPI POP DUP4 DUP3 ADD CALLDATALOAD JUMPDEST PUSH1 0x0 NOT PUSH1 0x3 DUP8 SWAP1 SHL SHR NOT AND PUSH1 0x1 DUP7 SWAP1 SHL OR DUP4 SSTORE PUSH2 0x4F2 JUMP JUMPDEST PUSH1 0x0 DUP4 DUP2 MSTORE PUSH1 0x20 SWAP1 KECCAK256 PUSH1 0x1F NOT DUP7 AND SWAP1 DUP4 JUMPDEST DUP3 DUP2 LT ISZERO PUSH2 0x4C9 JUMPI DUP7 DUP6 ADD CALLDATALOAD DUP3 SSTORE PUSH1 0x20 SWAP5 DUP6 ADD SWAP5 PUSH1 0x1 SWAP1 SWAP3 ADD SWAP2 ADD PUSH2 0x4A9 JUMP JUMPDEST POP DUP7 DUP3 LT ISZERO PUSH2 0x4E6 JUMPI PUSH1 0x0 NOT PUSH1 0xF8 DUP9 PUSH1 0x3 SHL AND SHR NOT DUP5 DUP8 ADD CALLDATALOAD AND DUP2 SSTORE JUMPDEST POP POP PUSH1 0x1 DUP6 PUSH1 0x1 SHL ADD DUP4 SSTORE JUMPDEST POP POP POP POP POP JUMP JUMPDEST PUSH8 0xFFFFFFFFFFFFFFFF DUP6 AND DUP2 MSTORE DUP4 PUSH1 0x20 DUP3 ADD MSTORE PUSH1 0x60 PUSH1 0x40 DUP3 ADD MSTORE DUP2 PUSH1 0x60 DUP3 ADD MSTORE DUP2 DUP4 PUSH1 0x80 DUP4 ADD CALLDATACOPY PUSH1 0x0 DUP2 DUP4 ADD PUSH1 0x80 SWAP1 DUP2 ADD SWAP2 SWAP1 SWAP2 MSTORE PUSH1 0x1F SWAP1 SWAP3 ADD PUSH1 0x1F NOT AND ADD ADD SWAP4 SWAP3 POP POP POP JUMP INVALID LOG2 PUSH5 0x6970667358 0x22 SLT KECCAK256 CALLDATALOAD SWAP12 BLOCKHASH 0x24 PUSH29 0x2781A85CFB702C21F8650520A0214D23D5DE0AAC5A3464F4A3D8A6473 PUSH16 0x6C634300081500330000000000000000 "},"methodIdentifiers":{"getPoR(uint64)":"11596000","postPoR(uint64,bytes32,string)":"1b338d12","seal(uint64)":"0368d8b2"}}}}}