{"contracts/facets/GovernanceFacet.sol":{"GovernanceFacet":{"abi":[{"anonymous":false,"inputs":[{"indexed":false,"internalType":"bytes32","name":"id","type":"bytes32"}],"name":"CutExecuted","type":"event"},{"anonymous":false,"inputs":[{"indexed":false,"internalType":"bytes32","name":"id","type":"bytes32"},{"indexed":false,"internalType":"address","name":"proposer","type":"address"}],"name":"CutProposed","type":"event"},{"anonymous":false,"inputs":[{"indexed":false,"internalType":"bytes32","name":"id","type":"bytes32"},{"indexed":false,"internalType":"uint256","name":"eta","type":"uint256"}],"name":"CutQueued","type":"event"},{"anonymous":false,"inputs":[{"indexed":false,"internalType":"bytes4","name":"selector","type":"bytes4"},{"indexed":false,"internalType":"bool","name":"paused","type":"bool"}],"name":"EmergencyBrake","type":"event"},{"inputs":[{"internalType":"bytes4","name":"selector","type":"bytes4"},{"internalType":"bool","name":"pause","type":"bool"}],"name":"emergencyBrake","outputs":[],"stateMutability":"nonpayable","type":"function"},{"inputs":[{"internalType":"bytes32","name":"id","type":"bytes32"}],"name":"executeCut","outputs":[],"stateMutability":"nonpayable","type":"function"},{"inputs":[{"internalType":"bytes32","name":"id","type":"bytes32"},{"components":[{"internalType":"address","name":"facetAddress","type":"address"},{"internalType":"enum IDiamondCut.FacetCutAction","name":"action","type":"uint8"},{"internalType":"bytes4[]","name":"functionSelectors","type":"bytes4[]"}],"internalType":"struct IDiamondCut.FacetCut[]","name":"cut","type":"tuple[]"}],"name":"proposeCut","outputs":[],"stateMutability":"nonpayable","type":"function"},{"inputs":[{"internalType":"bytes32","name":"id","type":"bytes32"}],"name":"queueCut","outputs":[],"stateMutability":"nonpayable","type":"function"},{"inputs":[],"name":"quorumBps","outputs":[{"internalType":"uint256","name":"","type":"uint256"}],"stateMutability":"view","type":"function"},{"inputs":[],"name":"timelock","outputs":[{"internalType":"uint256","name":"","type":"uint256"}],"stateMutability":"view","type":"function"}],"evm":{"bytecode":{"linkReferences":{},"object":"608060405234801561001057600080fd5b5061038a806100206000396000f3fe608060405234801561001057600080fd5b50600436106100625760003560e01c80638ef34cc114610067578063b7575c5f1461007c578063cd2ddd0c1461008f578063d33219b4146100c4578063e9143174146100eb578063f863a5d1146100fe575b600080fd5b61007a61007536600461024a565b610111565b005b61007a61008a366004610295565b610159565b7fe007241d1889ec8c05dc8b1092e6a7dc887697913faabbdc9fe930d998ad974c545b60405190815260200160405180910390f35b7fe007241d1889ec8c05dc8b1092e6a7dc887697913faabbdc9fe930d998ad974b546100b2565b61007a6100f9366004610295565b6101df565b61007a61010c3660046102ae565b610215565b604080516001600160e01b03198416815282151560208201527fd688aac15b110bdbdd9c1549b5030e42a2b092c356fe4f8f1ec89445413aff37910160405180910390a15050565b7fe007241d1889ec8c05dc8b1092e6a7dc887697913faabbdc9fe930d998ad974b8054600090610189904261032d565b600084815260028401602090815260409182902083905581518681529081018390529192507f185c36da5b944ceebbc4ad0efe1091f62afc94dff2cfe54bbc0eee969fd44aa491015b60405180910390a1505050565b6040518181527fa1a0ac873c8783a53a3894276ae096d022c74a662925adc3dd1b364a5024355a9060200160405180910390a150565b604080518481523360208201527f7e3f3c574475d1a2820194c2f95fa4ac83c1d7f7424f0daee601c97e29a3c5a991016101d2565b6000806040838503121561025d57600080fd5b82356001600160e01b03198116811461027557600080fd5b91506020830135801515811461028a57600080fd5b809150509250929050565b6000602082840312156102a757600080fd5b5035919050565b6000806000604084860312156102c357600080fd5b83359250602084013567ffffffffffffffff808211156102e257600080fd5b818601915086601f8301126102f657600080fd5b81358181111561030557600080fd5b8760208260051b850101111561031a57600080fd5b6020830194508093505050509250925092565b8082018082111561034e57634e487b7160e01b600052601160045260246000fd5b9291505056fea264697066735822122076bfe16640112f4f29d987d3b722f09415e5df149c21349768ea70e5372f66bb64736f6c63430008150033","opcodes":"PUSH1 0x80 PUSH1 0x40 MSTORE CALLVALUE DUP1 ISZERO PUSH2 0x10 JUMPI PUSH1 0x0 DUP1 REVERT JUMPDEST POP PUSH2 0x38A DUP1 PUSH2 0x20 PUSH1 0x0 CODECOPY PUSH1 0x0 RETURN INVALID PUSH1 0x80 PUSH1 0x40 MSTORE CALLVALUE DUP1 ISZERO PUSH2 0x10 JUMPI PUSH1 0x0 DUP1 REVERT JUMPDEST POP PUSH1 0x4 CALLDATASIZE LT PUSH2 0x62 JUMPI PUSH1 0x0 CALLDATALOAD PUSH1 0xE0 SHR DUP1 PUSH4 0x8EF34CC1 EQ PUSH2 0x67 JUMPI DUP1 PUSH4 0xB7575C5F EQ PUSH2 0x7C JUMPI DUP1 PUSH4 0xCD2DDD0C EQ PUSH2 0x8F JUMPI DUP1 PUSH4 0xD33219B4 EQ PUSH2 0xC4 JUMPI DUP1 PUSH4 0xE9143174 EQ PUSH2 0xEB JUMPI DUP1 PUSH4 0xF863A5D1 EQ PUSH2 0xFE JUMPI JUMPDEST PUSH1 0x0 DUP1 REVERT JUMPDEST PUSH2 0x7A PUSH2 0x75 CALLDATASIZE PUSH1 0x4 PUSH2 0x24A JUMP JUMPDEST PUSH2 0x111 JUMP JUMPDEST STOP JUMPDEST PUSH2 0x7A PUSH2 0x8A CALLDATASIZE PUSH1 0x4 PUSH2 0x295 JUMP JUMPDEST PUSH2 0x159 JUMP JUMPDEST PUSH32 0xE007241D1889EC8C05DC8B1092E6A7DC887697913FAABBDC9FE930D998AD974C SLOAD JUMPDEST PUSH1 0x40 MLOAD SWAP1 DUP2 MSTORE PUSH1 0x20 ADD PUSH1 0x40 MLOAD DUP1 SWAP2 SUB SWAP1 RETURN JUMPDEST PUSH32 0xE007241D1889EC8C05DC8B1092E6A7DC887697913FAABBDC9FE930D998AD974B SLOAD PUSH2 0xB2 JUMP JUMPDEST PUSH2 0x7A PUSH2 0xF9 CALLDATASIZE PUSH1 0x4 PUSH2 0x295 JUMP JUMPDEST PUSH2 0x1DF JUMP JUMPDEST PUSH2 0x7A PUSH2 0x10C CALLDATASIZE PUSH1 0x4 PUSH2 0x2AE JUMP JUMPDEST PUSH2 0x215 JUMP JUMPDEST PUSH1 0x40 DUP1 MLOAD PUSH1 0x1 PUSH1 0x1 PUSH1 0xE0 SHL SUB NOT DUP5 AND DUP2 MSTORE DUP3 ISZERO ISZERO PUSH1 0x20 DUP3 ADD MSTORE PUSH32 0xD688AAC15B110BDBDD9C1549B5030E42A2B092C356FE4F8F1EC89445413AFF37 SWAP2 ADD PUSH1 0x40 MLOAD DUP1 SWAP2 SUB SWAP1 LOG1 POP POP JUMP JUMPDEST PUSH32 0xE007241D1889EC8C05DC8B1092E6A7DC887697913FAABBDC9FE930D998AD974B DUP1 SLOAD PUSH1 0x0 SWAP1 PUSH2 0x189 SWAP1 TIMESTAMP PUSH2 0x32D JUMP JUMPDEST PUSH1 0x0 DUP5 DUP2 MSTORE PUSH1 0x2 DUP5 ADD PUSH1 0x20 SWAP1 DUP2 MSTORE PUSH1 0x40 SWAP2 DUP3 SWAP1 KECCAK256 DUP4 SWAP1 SSTORE DUP2 MLOAD DUP7 DUP2 MSTORE SWAP1 DUP2 ADD DUP4 SWAP1 MSTORE SWAP2 SWAP3 POP PUSH32 0x185C36DA5B944CEEBBC4AD0EFE1091F62AFC94DFF2CFE54BBC0EEE969FD44AA4 SWAP2 ADD JUMPDEST PUSH1 0x40 MLOAD DUP1 SWAP2 SUB SWAP1 LOG1 POP POP POP JUMP JUMPDEST PUSH1 0x40 MLOAD DUP2 DUP2 MSTORE PUSH32 0xA1A0AC873C8783A53A3894276AE096D022C74A662925ADC3DD1B364A5024355A SWAP1 PUSH1 0x20 ADD PUSH1 0x40 MLOAD DUP1 SWAP2 SUB SWAP1 LOG1 POP JUMP JUMPDEST PUSH1 0x40 DUP1 MLOAD DUP5 DUP2 MSTORE CALLER PUSH1 0x20 DUP3 ADD MSTORE PUSH32 0x7E3F3C574475D1A2820194C2F95FA4AC83C1D7F7424F0DAEE601C97E29A3C5A9 SWAP2 ADD PUSH2 0x1D2 JUMP JUMPDEST PUSH1 0x0 DUP1 PUSH1 0x40 DUP4 DUP6 SUB SLT ISZERO PUSH2 0x25D JUMPI PUSH1 0x0 DUP1 REVERT JUMPDEST DUP3 CALLDATALOAD PUSH1 0x1 PUSH1 0x1 PUSH1 0xE0 SHL SUB NOT DUP2 AND DUP2 EQ PUSH2 0x275 JUMPI PUSH1 0x0 DUP1 REVERT JUMPDEST SWAP2 POP PUSH1 0x20 DUP4 ADD CALLDATALOAD DUP1 ISZERO ISZERO DUP2 EQ PUSH2 0x28A JUMPI PUSH1 0x0 DUP1 REVERT JUMPDEST DUP1 SWAP2 POP POP SWAP3 POP SWAP3 SWAP1 POP JUMP JUMPDEST PUSH1 0x0 PUSH1 0x20 DUP3 DUP5 SUB SLT ISZERO PUSH2 0x2A7 JUMPI PUSH1 0x0 DUP1 REVERT JUMPDEST POP CALLDATALOAD SWAP2 SWAP1 POP JUMP JUMPDEST PUSH1 0x0 DUP1 PUSH1 0x0 PUSH1 0x40 DUP5 DUP7 SUB SLT ISZERO PUSH2 0x2C3 JUMPI PUSH1 0x0 DUP1 REVERT JUMPDEST DUP4 CALLDATALOAD SWAP3 POP PUSH1 0x20 DUP5 ADD CALLDATALOAD PUSH8 0xFFFFFFFFFFFFFFFF DUP1 DUP3 GT ISZERO PUSH2 0x2E2 JUMPI PUSH1 0x0 DUP1 REVERT JUMPDEST DUP2 DUP7 ADD SWAP2 POP DUP7 PUSH1 0x1F DUP4 ADD SLT PUSH2 0x2F6 JUMPI PUSH1 0x0 DUP1 REVERT JUMPDEST DUP2 CALLDATALOAD DUP2 DUP2 GT ISZERO PUSH2 0x305 JUMPI PUSH1 0x0 DUP1 REVERT JUMPDEST DUP8 PUSH1 0x20 DUP3 PUSH1 0x5 SHL DUP6 ADD ADD GT ISZERO PUSH2 0x31A JUMPI PUSH1 0x0 DUP1 REVERT JUMPDEST PUSH1 0x20 DUP4 ADD SWAP5 POP DUP1 SWAP4 POP POP POP POP SWAP3 POP SWAP3 POP SWAP3 JUMP JUMPDEST DUP1 DUP3 ADD DUP1 DUP3 GT ISZERO PUSH2 0x34E JUMPI PUSH4 0x4E487B71 PUSH1 0xE0 SHL PUSH1 0x0 MSTORE PUSH1 0x11 PUSH1 0x4 MSTORE PUSH1 0x24 PUSH1 0x0 REVERT JUMPDEST SWAP3 SWAP2 POP POP JUMP INVALID LOG2 PUSH5 0x6970667358 0x22 SLT KECCAK256 PUSH23 0xBFE16640112F4F29D987D3B722F09415E5DF149C213497 PUSH9 0xEA70E5372F66BB6473 PUSH16 0x6C634300081500330000000000000000 "},"methodIdentifiers":{"emergencyBrake(bytes4,bool)":"8ef34cc1","executeCut(bytes32)":"e9143174","proposeCut(bytes32,(address,uint8,bytes4[])[])":"f863a5d1","queueCut(bytes32)":"b7575c5f","quorumBps()":"cd2ddd0c","timelock()":"d33219b4"}}}}}