{"contracts/facets/IndexFacet.sol":{"IndexFacet":{"abi":[{"anonymous":false,"inputs":[{"indexed":true,"internalType":"bytes32","name":"id","type":"bytes32"},{"indexed":false,"internalType":"uint64","name":"version","type":"uint64"}],"name":"IndexWeightsUpdated","type":"event"},{"inputs":[{"internalType":"bytes32","name":"indexId","type":"bytes32"}],"name":"getIndex","outputs":[{"internalType":"uint64","name":"version","type":"uint64"},{"internalType":"bytes32[]","name":"keys","type":"bytes32[]"},{"internalType":"uint256[]","name":"weights","type":"uint256[]"}],"stateMutability":"view","type":"function"},{"inputs":[],"name":"getLiCRI","outputs":[{"internalType":"uint256","name":"","type":"uint256"}],"stateMutability":"view","type":"function"},{"inputs":[],"name":"recalcLiCRI","outputs":[{"internalType":"uint256","name":"faceValueComposite","type":"uint256"}],"stateMutability":"view","type":"function"},{"inputs":[{"internalType":"bytes32","name":"indexId","type":"bytes32"},{"internalType":"bytes32[]","name":"keys","type":"bytes32[]"},{"internalType":"uint256[]","name":"weights","type":"uint256[]"},{"internalType":"uint64","name":"version","type":"uint64"}],"name":"setWeights","outputs":[],"stateMutability":"nonpayable","type":"function"}],"evm":{"bytecode":{"linkReferences":{},"object":"608060405234801561001057600080fd5b50610459806100206000396000f3fe608060405234801561001057600080fd5b506004361061004c5760003560e01c80638527831b146100515780638602a3d8146100bf578063a28de244146100bf578063d2f76c02146100ef575b600080fd5b6100a761005f36600461023e565b507fed67d0daff738ccf71298a47a56dc9ef98b1ffb107ed17a564642a6aed1dd4de546040805160008082526020820190815281830190925267ffffffffffffffff90921692565b6040516100b693929190610257565b60405180910390f35b7fed67d0daff738ccf71298a47a56dc9ef98b1ffb107ed17a564642a6aed1dd4e0546040519081526020016100b6565b6101026100fd366004610333565b610104565b005b83821461013e5760405162461bcd60e51b81526020600482015260036024820152622622a760e91b60448201526064015b60405180910390fd5b6000805b838110156101825784848281811061015c5761015c6103c5565b905060200201358261016e91906103f1565b91508061017a8161040a565b915050610142565b5080670de0b6b3a7640000146101c05760405162461bcd60e51b815260206004820152600360248201526253554d60e81b6044820152606401610135565b7fed67d0daff738ccf71298a47a56dc9ef98b1ffb107ed17a564642a6aed1dd4de805467ffffffffffffffff841667ffffffffffffffff1990911681178255604080519182525189917fd0bb3ba69f84be3b2eb470a3881f792dce20c4a660a4c1833fd576d38f7fa6ca919081900360200190a25050505050505050565b60006020828403121561025057600080fd5b5035919050565b60006060820167ffffffffffffffff861683526020606081850152818651808452608086019150828801935060005b818110156102a257845183529383019391830191600101610286565b50508481036040860152855180825290820192508186019060005b818110156102d9578251855293830193918301916001016102bd565b509298975050505050505050565b60008083601f8401126102f957600080fd5b50813567ffffffffffffffff81111561031157600080fd5b6020830191508360208260051b850101111561032c57600080fd5b9250929050565b6000806000806000806080878903121561034c57600080fd5b86359550602087013567ffffffffffffffff8082111561036b57600080fd5b6103778a838b016102e7565b9097509550604089013591508082111561039057600080fd5b61039c8a838b016102e7565b90955093506060890135915080821682146103b657600080fd5b50809150509295509295509295565b634e487b7160e01b600052603260045260246000fd5b634e487b7160e01b600052601160045260246000fd5b80820180821115610404576104046103db565b92915050565b60006001820161041c5761041c6103db565b506001019056fea2646970667358221220e887e1460924c2bdfdde421970fc3e460967a498e76c1f35de69781ac028799864736f6c63430008150033","opcodes":"PUSH1 0x80 PUSH1 0x40 MSTORE CALLVALUE DUP1 ISZERO PUSH2 0x10 JUMPI PUSH1 0x0 DUP1 REVERT JUMPDEST POP PUSH2 0x459 DUP1 PUSH2 0x20 PUSH1 0x0 CODECOPY PUSH1 0x0 RETURN INVALID PUSH1 0x80 PUSH1 0x40 MSTORE CALLVALUE DUP1 ISZERO PUSH2 0x10 JUMPI PUSH1 0x0 DUP1 REVERT JUMPDEST POP PUSH1 0x4 CALLDATASIZE LT PUSH2 0x4C JUMPI PUSH1 0x0 CALLDATALOAD PUSH1 0xE0 SHR DUP1 PUSH4 0x8527831B EQ PUSH2 0x51 JUMPI DUP1 PUSH4 0x8602A3D8 EQ PUSH2 0xBF JUMPI DUP1 PUSH4 0xA28DE244 EQ PUSH2 0xBF JUMPI DUP1 PUSH4 0xD2F76C02 EQ PUSH2 0xEF JUMPI JUMPDEST PUSH1 0x0 DUP1 REVERT JUMPDEST PUSH2 0xA7 PUSH2 0x5F CALLDATASIZE PUSH1 0x4 PUSH2 0x23E JUMP JUMPDEST POP PUSH32 0xED67D0DAFF738CCF71298A47A56DC9EF98B1FFB107ED17A564642A6AED1DD4DE SLOAD PUSH1 0x40 DUP1 MLOAD PUSH1 0x0 DUP1 DUP3 MSTORE PUSH1 0x20 DUP3 ADD SWAP1 DUP2 MSTORE DUP2 DUP4 ADD SWAP1 SWAP3 MSTORE PUSH8 0xFFFFFFFFFFFFFFFF SWAP1 SWAP3 AND SWAP3 JUMP JUMPDEST PUSH1 0x40 MLOAD PUSH2 0xB6 SWAP4 SWAP3 SWAP2 SWAP1 PUSH2 0x257 JUMP JUMPDEST PUSH1 0x40 MLOAD DUP1 SWAP2 SUB SWAP1 RETURN JUMPDEST PUSH32 0xED67D0DAFF738CCF71298A47A56DC9EF98B1FFB107ED17A564642A6AED1DD4E0 SLOAD PUSH1 0x40 MLOAD SWAP1 DUP2 MSTORE PUSH1 0x20 ADD PUSH2 0xB6 JUMP JUMPDEST PUSH2 0x102 PUSH2 0xFD CALLDATASIZE PUSH1 0x4 PUSH2 0x333 JUMP JUMPDEST PUSH2 0x104 JUMP JUMPDEST STOP JUMPDEST DUP4 DUP3 EQ PUSH2 0x13E JUMPI PUSH1 0x40 MLOAD PUSH3 0x461BCD PUSH1 0xE5 SHL DUP2 MSTORE PUSH1 0x20 PUSH1 0x4 DUP3 ADD MSTORE PUSH1 0x3 PUSH1 0x24 DUP3 ADD MSTORE PUSH3 0x2622A7 PUSH1 0xE9 SHL PUSH1 0x44 DUP3 ADD MSTORE PUSH1 0x64 ADD JUMPDEST PUSH1 0x40 MLOAD DUP1 SWAP2 SUB SWAP1 REVERT JUMPDEST PUSH1 0x0 DUP1 JUMPDEST DUP4 DUP2 LT ISZERO PUSH2 0x182 JUMPI DUP5 DUP5 DUP3 DUP2 DUP2 LT PUSH2 0x15C JUMPI PUSH2 0x15C PUSH2 0x3C5 JUMP JUMPDEST SWAP1 POP PUSH1 0x20 MUL ADD CALLDATALOAD DUP3 PUSH2 0x16E SWAP2 SWAP1 PUSH2 0x3F1 JUMP JUMPDEST SWAP2 POP DUP1 PUSH2 0x17A DUP2 PUSH2 0x40A JUMP JUMPDEST SWAP2 POP POP PUSH2 0x142 JUMP JUMPDEST POP DUP1 PUSH8 0xDE0B6B3A7640000 EQ PUSH2 0x1C0 JUMPI PUSH1 0x40 MLOAD PUSH3 0x461BCD PUSH1 0xE5 SHL DUP2 MSTORE PUSH1 0x20 PUSH1 0x4 DUP3 ADD MSTORE PUSH1 0x3 PUSH1 0x24 DUP3 ADD MSTORE PUSH3 0x53554D PUSH1 0xE8 SHL PUSH1 0x44 DUP3 ADD MSTORE PUSH1 0x64 ADD PUSH2 0x135 JUMP JUMPDEST PUSH32 0xED67D0DAFF738CCF71298A47A56DC9EF98B1FFB107ED17A564642A6AED1DD4DE DUP1 SLOAD PUSH8 0xFFFFFFFFFFFFFFFF DUP5 AND PUSH8 0xFFFFFFFFFFFFFFFF NOT SWAP1 SWAP2 AND DUP2 OR DUP3 SSTORE PUSH1 0x40 DUP1 MLOAD SWAP2 DUP3 MSTORE MLOAD DUP10 SWAP2 PUSH32 0xD0BB3BA69F84BE3B2EB470A3881F792DCE20C4A660A4C1833FD576D38F7FA6CA SWAP2 SWAP1 DUP2 SWAP1 SUB PUSH1 0x20 ADD SWAP1 LOG2 POP POP POP POP POP POP POP POP JUMP JUMPDEST PUSH1 0x0 PUSH1 0x20 DUP3 DUP5 SUB SLT ISZERO PUSH2 0x250 JUMPI PUSH1 0x0 DUP1 REVERT JUMPDEST POP CALLDATALOAD SWAP2 SWAP1 POP JUMP JUMPDEST PUSH1 0x0 PUSH1 0x60 DUP3 ADD PUSH8 0xFFFFFFFFFFFFFFFF DUP7 AND DUP4 MSTORE PUSH1 0x20 PUSH1 0x60 DUP2 DUP6 ADD MSTORE DUP2 DUP7 MLOAD DUP1 DUP5 MSTORE PUSH1 0x80 DUP7 ADD SWAP2 POP DUP3 DUP9 ADD SWAP4 POP PUSH1 0x0 JUMPDEST DUP2 DUP2 LT ISZERO PUSH2 0x2A2 JUMPI DUP5 MLOAD DUP4 MSTORE SWAP4 DUP4 ADD SWAP4 SWAP2 DUP4 ADD SWAP2 PUSH1 0x1 ADD PUSH2 0x286 JUMP JUMPDEST POP POP DUP5 DUP2 SUB PUSH1 0x40 DUP7 ADD MSTORE DUP6 MLOAD DUP1 DUP3 MSTORE SWAP1 DUP3 ADD SWAP3 POP DUP2 DUP7 ADD SWAP1 PUSH1 0x0 JUMPDEST DUP2 DUP2 LT ISZERO PUSH2 0x2D9 JUMPI DUP3 MLOAD DUP6 MSTORE SWAP4 DUP4 ADD SWAP4 SWAP2 DUP4 ADD SWAP2 PUSH1 0x1 ADD PUSH2 0x2BD JUMP JUMPDEST POP SWAP3 SWAP9 SWAP8 POP POP POP POP POP POP POP POP JUMP JUMPDEST PUSH1 0x0 DUP1 DUP4 PUSH1 0x1F DUP5 ADD SLT PUSH2 0x2F9 JUMPI PUSH1 0x0 DUP1 REVERT JUMPDEST POP DUP2 CALLDATALOAD PUSH8 0xFFFFFFFFFFFFFFFF DUP2 GT ISZERO PUSH2 0x311 JUMPI PUSH1 0x0 DUP1 REVERT JUMPDEST PUSH1 0x20 DUP4 ADD SWAP2 POP DUP4 PUSH1 0x20 DUP3 PUSH1 0x5 SHL DUP6 ADD ADD GT ISZERO PUSH2 0x32C JUMPI PUSH1 0x0 DUP1 REVERT JUMPDEST SWAP3 POP SWAP3 SWAP1 POP JUMP JUMPDEST PUSH1 0x0 DUP1 PUSH1 0x0 DUP1 PUSH1 0x0 DUP1 PUSH1 0x80 DUP8 DUP10 SUB SLT ISZERO PUSH2 0x34C JUMPI PUSH1 0x0 DUP1 REVERT JUMPDEST DUP7 CALLDATALOAD SWAP6 POP PUSH1 0x20 DUP8 ADD CALLDATALOAD PUSH8 0xFFFFFFFFFFFFFFFF DUP1 DUP3 GT ISZERO PUSH2 0x36B JUMPI PUSH1 0x0 DUP1 REVERT JUMPDEST PUSH2 0x377 DUP11 DUP4 DUP12 ADD PUSH2 0x2E7 JUMP JUMPDEST SWAP1 SWAP8 POP SWAP6 POP PUSH1 0x40 DUP10 ADD CALLDATALOAD SWAP2 POP DUP1 DUP3 GT ISZERO PUSH2 0x390 JUMPI PUSH1 0x0 DUP1 REVERT JUMPDEST PUSH2 0x39C DUP11 DUP4 DUP12 ADD PUSH2 0x2E7 JUMP JUMPDEST SWAP1 SWAP6 POP SWAP4 POP PUSH1 0x60 DUP10 ADD CALLDATALOAD SWAP2 POP DUP1 DUP3 AND DUP3 EQ PUSH2 0x3B6 JUMPI PUSH1 0x0 DUP1 REVERT JUMPDEST POP DUP1 SWAP2 POP POP SWAP3 SWAP6 POP SWAP3 SWAP6 POP SWAP3 SWAP6 JUMP JUMPDEST PUSH4 0x4E487B71 PUSH1 0xE0 SHL PUSH1 0x0 MSTORE PUSH1 0x32 PUSH1 0x4 MSTORE PUSH1 0x24 PUSH1 0x0 REVERT JUMPDEST PUSH4 0x4E487B71 PUSH1 0xE0 SHL PUSH1 0x0 MSTORE PUSH1 0x11 PUSH1 0x4 MSTORE PUSH1 0x24 PUSH1 0x0 REVERT JUMPDEST DUP1 DUP3 ADD DUP1 DUP3 GT ISZERO PUSH2 0x404 JUMPI PUSH2 0x404 PUSH2 0x3DB JUMP JUMPDEST SWAP3 SWAP2 POP POP JUMP JUMPDEST PUSH1 0x0 PUSH1 0x1 DUP3 ADD PUSH2 0x41C JUMPI PUSH2 0x41C PUSH2 0x3DB JUMP JUMPDEST POP PUSH1 0x1 ADD SWAP1 JUMP INVALID LOG2 PUSH5 0x6970667358 0x22 SLT KECCAK256 0xE8 DUP8 0xE1 CHAINID MULMOD 0x24 0xC2 0xBD REVERT 0xDE TIMESTAMP NOT PUSH17 0xFC3E460967A498E76C1F35DE69781AC028 PUSH26 0x9864736F6C634300081500330000000000000000000000000000 "},"methodIdentifiers":{"getIndex(bytes32)":"8527831b","getLiCRI()":"a28de244","recalcLiCRI()":"8602a3d8","setWeights(bytes32,bytes32[],uint256[],uint64)":"d2f76c02"}}}}}