{"contracts/facets/TriangulationFacet.sol":{"TriangulationFacet":{"abi":[{"inputs":[{"internalType":"uint256","name":"input","type":"uint256"},{"internalType":"uint8","name":"n","type":"uint8"},{"internalType":"uint256","name":"feeBps","type":"uint256"}],"name":"atomicLoop7to10","outputs":[{"internalType":"uint256","name":"expanded","type":"uint256"}],"stateMutability":"nonpayable","type":"function"},{"inputs":[{"internalType":"uint256","name":"gruAmount","type":"uint256"}],"name":"redeemFromGRU","outputs":[{"internalType":"uint256","name":"xauOut","type":"uint256"}],"stateMutability":"nonpayable","type":"function"},{"inputs":[{"internalType":"uint256","name":"feeBps","type":"uint256"}],"name":"setFees","outputs":[],"stateMutability":"nonpayable","type":"function"},{"inputs":[{"internalType":"uint256","name":"xauAmount","type":"uint256"}],"name":"triangulateToGRU","outputs":[{"internalType":"uint256","name":"gruOut","type":"uint256"}],"stateMutability":"nonpayable","type":"function"}],"evm":{"bytecode":{"linkReferences":{},"object":"608060405234801561001057600080fd5b50610313806100206000396000f3fe608060405234801561001057600080fd5b506004361061004c5760003560e01c80631189e745146100515780632ed7215d146100765780633d18678e14610089578063533e750114610051575b600080fd5b61006461005f3660046101ff565b61009e565b60405190815260200160405180910390f35b610064610084366004610218565b6100d9565b61009c6100973660046101ff565b6101c2565b005b60405162461bcd60e51b81526020600482015260086024820152671393d517d253541360c21b60448201526000906064015b60405180910390fd5b6000808360ff161180156100f1575060038360ff1611155b6101215760405162461bcd60e51b81526020600482015260016024820152603760f91b60448201526064016100d0565b6101c28211156101595760405162461bcd60e51b815260206004820152600360248201526266656560e81b60448201526064016100d0565b8360005b8460ff168160ff1610156101b957600761017883600a61026c565b6101829190610289565b915061271061019185826102ab565b61019b908461026c565b6101a59190610289565b9150806101b1816102be565b91505061015d565b50949350505050565b6101c28111156101fa5760405162461bcd60e51b815260206004820152600360248201526266656560e81b60448201526064016100d0565b600055565b60006020828403121561021157600080fd5b5035919050565b60008060006060848603121561022d57600080fd5b83359250602084013560ff8116811461024557600080fd5b929592945050506040919091013590565b634e487b7160e01b600052601160045260246000fd5b808202811582820484141761028357610283610256565b92915050565b6000826102a657634e487b7160e01b600052601260045260246000fd5b500490565b8181038181111561028357610283610256565b600060ff821660ff81036102d4576102d4610256565b6001019291505056fea2646970667358221220afec6529e20bed243ab7bf6cca8f5b33a44935b5db66d5a6b252d4e5971f21d364736f6c63430008150033","opcodes":"PUSH1 0x80 PUSH1 0x40 MSTORE CALLVALUE DUP1 ISZERO PUSH2 0x10 JUMPI PUSH1 0x0 DUP1 REVERT JUMPDEST POP PUSH2 0x313 DUP1 PUSH2 0x20 PUSH1 0x0 CODECOPY PUSH1 0x0 RETURN INVALID PUSH1 0x80 PUSH1 0x40 MSTORE CALLVALUE DUP1 ISZERO PUSH2 0x10 JUMPI PUSH1 0x0 DUP1 REVERT JUMPDEST POP PUSH1 0x4 CALLDATASIZE LT PUSH2 0x4C JUMPI PUSH1 0x0 CALLDATALOAD PUSH1 0xE0 SHR DUP1 PUSH4 0x1189E745 EQ PUSH2 0x51 JUMPI DUP1 PUSH4 0x2ED7215D EQ PUSH2 0x76 JUMPI DUP1 PUSH4 0x3D18678E EQ PUSH2 0x89 JUMPI DUP1 PUSH4 0x533E7501 EQ PUSH2 0x51 JUMPI JUMPDEST PUSH1 0x0 DUP1 REVERT JUMPDEST PUSH2 0x64 PUSH2 0x5F CALLDATASIZE PUSH1 0x4 PUSH2 0x1FF JUMP JUMPDEST PUSH2 0x9E JUMP JUMPDEST PUSH1 0x40 MLOAD SWAP1 DUP2 MSTORE PUSH1 0x20 ADD PUSH1 0x40 MLOAD DUP1 SWAP2 SUB SWAP1 RETURN JUMPDEST PUSH2 0x64 PUSH2 0x84 CALLDATASIZE PUSH1 0x4 PUSH2 0x218 JUMP JUMPDEST PUSH2 0xD9 JUMP JUMPDEST PUSH2 0x9C PUSH2 0x97 CALLDATASIZE PUSH1 0x4 PUSH2 0x1FF JUMP JUMPDEST PUSH2 0x1C2 JUMP JUMPDEST STOP JUMPDEST PUSH1 0x40 MLOAD PUSH3 0x461BCD PUSH1 0xE5 SHL DUP2 MSTORE PUSH1 0x20 PUSH1 0x4 DUP3 ADD MSTORE PUSH1 0x8 PUSH1 0x24 DUP3 ADD MSTORE PUSH8 0x1393D517D2535413 PUSH1 0xC2 SHL PUSH1 0x44 DUP3 ADD MSTORE PUSH1 0x0 SWAP1 PUSH1 0x64 ADD JUMPDEST PUSH1 0x40 MLOAD DUP1 SWAP2 SUB SWAP1 REVERT JUMPDEST PUSH1 0x0 DUP1 DUP4 PUSH1 0xFF AND GT DUP1 ISZERO PUSH2 0xF1 JUMPI POP PUSH1 0x3 DUP4 PUSH1 0xFF AND GT ISZERO JUMPDEST PUSH2 0x121 JUMPI PUSH1 0x40 MLOAD PUSH3 0x461BCD PUSH1 0xE5 SHL DUP2 MSTORE PUSH1 0x20 PUSH1 0x4 DUP3 ADD MSTORE PUSH1 0x1 PUSH1 0x24 DUP3 ADD MSTORE PUSH1 0x37 PUSH1 0xF9 SHL PUSH1 0x44 DUP3 ADD MSTORE PUSH1 0x64 ADD PUSH2 0xD0 JUMP JUMPDEST PUSH2 0x1C2 DUP3 GT ISZERO PUSH2 0x159 JUMPI PUSH1 0x40 MLOAD PUSH3 0x461BCD PUSH1 0xE5 SHL DUP2 MSTORE PUSH1 0x20 PUSH1 0x4 DUP3 ADD MSTORE PUSH1 0x3 PUSH1 0x24 DUP3 ADD MSTORE PUSH3 0x666565 PUSH1 0xE8 SHL PUSH1 0x44 DUP3 ADD MSTORE PUSH1 0x64 ADD PUSH2 0xD0 JUMP JUMPDEST DUP4 PUSH1 0x0 JUMPDEST DUP5 PUSH1 0xFF AND DUP2 PUSH1 0xFF AND LT ISZERO PUSH2 0x1B9 JUMPI PUSH1 0x7 PUSH2 0x178 DUP4 PUSH1 0xA PUSH2 0x26C JUMP JUMPDEST PUSH2 0x182 SWAP2 SWAP1 PUSH2 0x289 JUMP JUMPDEST SWAP2 POP PUSH2 0x2710 PUSH2 0x191 DUP6 DUP3 PUSH2 0x2AB JUMP JUMPDEST PUSH2 0x19B SWAP1 DUP5 PUSH2 0x26C JUMP JUMPDEST PUSH2 0x1A5 SWAP2 SWAP1 PUSH2 0x289 JUMP JUMPDEST SWAP2 POP DUP1 PUSH2 0x1B1 DUP2 PUSH2 0x2BE JUMP JUMPDEST SWAP2 POP POP PUSH2 0x15D JUMP JUMPDEST POP SWAP5 SWAP4 POP POP POP POP JUMP JUMPDEST PUSH2 0x1C2 DUP2 GT ISZERO PUSH2 0x1FA JUMPI PUSH1 0x40 MLOAD PUSH3 0x461BCD PUSH1 0xE5 SHL DUP2 MSTORE PUSH1 0x20 PUSH1 0x4 DUP3 ADD MSTORE PUSH1 0x3 PUSH1 0x24 DUP3 ADD MSTORE PUSH3 0x666565 PUSH1 0xE8 SHL PUSH1 0x44 DUP3 ADD MSTORE PUSH1 0x64 ADD PUSH2 0xD0 JUMP JUMPDEST PUSH1 0x0 SSTORE JUMP JUMPDEST PUSH1 0x0 PUSH1 0x20 DUP3 DUP5 SUB SLT ISZERO PUSH2 0x211 JUMPI PUSH1 0x0 DUP1 REVERT JUMPDEST POP CALLDATALOAD SWAP2 SWAP1 POP JUMP JUMPDEST PUSH1 0x0 DUP1 PUSH1 0x0 PUSH1 0x60 DUP5 DUP7 SUB SLT ISZERO PUSH2 0x22D JUMPI PUSH1 0x0 DUP1 REVERT JUMPDEST DUP4 CALLDATALOAD SWAP3 POP PUSH1 0x20 DUP5 ADD CALLDATALOAD PUSH1 0xFF DUP2 AND DUP2 EQ PUSH2 0x245 JUMPI PUSH1 0x0 DUP1 REVERT JUMPDEST SWAP3 SWAP6 SWAP3 SWAP5 POP POP POP PUSH1 0x40 SWAP2 SWAP1 SWAP2 ADD CALLDATALOAD SWAP1 JUMP JUMPDEST PUSH4 0x4E487B71 PUSH1 0xE0 SHL PUSH1 0x0 MSTORE PUSH1 0x11 PUSH1 0x4 MSTORE PUSH1 0x24 PUSH1 0x0 REVERT JUMPDEST DUP1 DUP3 MUL DUP2 ISZERO DUP3 DUP3 DIV DUP5 EQ OR PUSH2 0x283 JUMPI PUSH2 0x283 PUSH2 0x256 JUMP JUMPDEST SWAP3 SWAP2 POP POP JUMP JUMPDEST PUSH1 0x0 DUP3 PUSH2 0x2A6 JUMPI PUSH4 0x4E487B71 PUSH1 0xE0 SHL PUSH1 0x0 MSTORE PUSH1 0x12 PUSH1 0x4 MSTORE PUSH1 0x24 PUSH1 0x0 REVERT JUMPDEST POP DIV SWAP1 JUMP JUMPDEST DUP2 DUP2 SUB DUP2 DUP2 GT ISZERO PUSH2 0x283 JUMPI PUSH2 0x283 PUSH2 0x256 JUMP JUMPDEST PUSH1 0x0 PUSH1 0xFF DUP3 AND PUSH1 0xFF DUP2 SUB PUSH2 0x2D4 JUMPI PUSH2 0x2D4 PUSH2 0x256 JUMP JUMPDEST PUSH1 0x1 ADD SWAP3 SWAP2 POP POP JUMP INVALID LOG2 PUSH5 0x6970667358 0x22 SLT KECCAK256 0xAF 0xEC PUSH6 0x29E20BED243A 0xB7 0xBF PUSH13 0xCA8F5B33A44935B5DB66D5A6B2 MSTORE 0xD4 0xE5 SWAP8 0x1F 0x21 0xD3 PUSH5 0x736F6C6343 STOP ADDMOD ISZERO STOP CALLER "},"methodIdentifiers":{"atomicLoop7to10(uint256,uint8,uint256)":"2ed7215d","redeemFromGRU(uint256)":"533e7501","setFees(uint256)":"3d18678e","triangulateToGRU(uint256)":"1189e745"}}}}}