{
  "_format": "hh-sol-artifact-1",
  "contractName": "GovernanceFacet",
  "sourceName": "contracts/facets/GovernanceFacet.sol",
  "abi": [
    {
      "anonymous": false,
      "inputs": [
        {
          "indexed": false,
          "internalType": "bytes32",
          "name": "id",
          "type": "bytes32"
        }
      ],
      "name": "CutExecuted",
      "type": "event"
    },
    {
      "anonymous": false,
      "inputs": [
        {
          "indexed": false,
          "internalType": "bytes32",
          "name": "id",
          "type": "bytes32"
        },
        {
          "indexed": false,
          "internalType": "address",
          "name": "proposer",
          "type": "address"
        }
      ],
      "name": "CutProposed",
      "type": "event"
    },
    {
      "anonymous": false,
      "inputs": [
        {
          "indexed": false,
          "internalType": "bytes32",
          "name": "id",
          "type": "bytes32"
        },
        {
          "indexed": false,
          "internalType": "uint256",
          "name": "eta",
          "type": "uint256"
        }
      ],
      "name": "CutQueued",
      "type": "event"
    },
    {
      "anonymous": false,
      "inputs": [
        {
          "indexed": false,
          "internalType": "bytes4",
          "name": "selector",
          "type": "bytes4"
        },
        {
          "indexed": false,
          "internalType": "bool",
          "name": "paused",
          "type": "bool"
        }
      ],
      "name": "EmergencyBrake",
      "type": "event"
    },
    {
      "inputs": [
        {
          "internalType": "bytes4",
          "name": "selector",
          "type": "bytes4"
        },
        {
          "internalType": "bool",
          "name": "pause",
          "type": "bool"
        }
      ],
      "name": "emergencyBrake",
      "outputs": [],
      "stateMutability": "nonpayable",
      "type": "function"
    },
    {
      "inputs": [
        {
          "internalType": "bytes32",
          "name": "id",
          "type": "bytes32"
        }
      ],
      "name": "executeCut",
      "outputs": [],
      "stateMutability": "nonpayable",
      "type": "function"
    },
    {
      "inputs": [
        {
          "internalType": "bytes32",
          "name": "id",
          "type": "bytes32"
        },
        {
          "components": [
            {
              "internalType": "address",
              "name": "facetAddress",
              "type": "address"
            },
            {
              "internalType": "enum IDiamondCut.FacetCutAction",
              "name": "action",
              "type": "uint8"
            },
            {
              "internalType": "bytes4[]",
              "name": "functionSelectors",
              "type": "bytes4[]"
            }
          ],
          "internalType": "struct IDiamondCut.FacetCut[]",
          "name": "cut",
          "type": "tuple[]"
        }
      ],
      "name": "proposeCut",
      "outputs": [],
      "stateMutability": "nonpayable",
      "type": "function"
    },
    {
      "inputs": [
        {
          "internalType": "bytes32",
          "name": "id",
          "type": "bytes32"
        }
      ],
      "name": "queueCut",
      "outputs": [],
      "stateMutability": "nonpayable",
      "type": "function"
    },
    {
      "inputs": [],
      "name": "quorumBps",
      "outputs": [
        {
          "internalType": "uint256",
          "name": "",
          "type": "uint256"
        }
      ],
      "stateMutability": "view",
      "type": "function"
    },
    {
      "inputs": [],
      "name": "timelock",
      "outputs": [
        {
          "internalType": "uint256",
          "name": "",
          "type": "uint256"
        }
      ],
      "stateMutability": "view",
      "type": "function"
    }
  ],
  "bytecode": "0x608060405234801561001057600080fd5b5061038a806100206000396000f3fe608060405234801561001057600080fd5b50600436106100625760003560e01c80638ef34cc114610067578063b7575c5f1461007c578063cd2ddd0c1461008f578063d33219b4146100c4578063e9143174146100eb578063f863a5d1146100fe575b600080fd5b61007a61007536600461024a565b610111565b005b61007a61008a366004610295565b610159565b7fe007241d1889ec8c05dc8b1092e6a7dc887697913faabbdc9fe930d998ad974c545b60405190815260200160405180910390f35b7fe007241d1889ec8c05dc8b1092e6a7dc887697913faabbdc9fe930d998ad974b546100b2565b61007a6100f9366004610295565b6101df565b61007a61010c3660046102ae565b610215565b604080516001600160e01b03198416815282151560208201527fd688aac15b110bdbdd9c1549b5030e42a2b092c356fe4f8f1ec89445413aff37910160405180910390a15050565b7fe007241d1889ec8c05dc8b1092e6a7dc887697913faabbdc9fe930d998ad974b8054600090610189904261032d565b600084815260028401602090815260409182902083905581518681529081018390529192507f185c36da5b944ceebbc4ad0efe1091f62afc94dff2cfe54bbc0eee969fd44aa491015b60405180910390a1505050565b6040518181527fa1a0ac873c8783a53a3894276ae096d022c74a662925adc3dd1b364a5024355a9060200160405180910390a150565b604080518481523360208201527f7e3f3c574475d1a2820194c2f95fa4ac83c1d7f7424f0daee601c97e29a3c5a991016101d2565b6000806040838503121561025d57600080fd5b82356001600160e01b03198116811461027557600080fd5b91506020830135801515811461028a57600080fd5b809150509250929050565b6000602082840312156102a757600080fd5b5035919050565b6000806000604084860312156102c357600080fd5b83359250602084013567ffffffffffffffff808211156102e257600080fd5b818601915086601f8301126102f657600080fd5b81358181111561030557600080fd5b8760208260051b850101111561031a57600080fd5b6020830194508093505050509250925092565b8082018082111561034e57634e487b7160e01b600052601160045260246000fd5b9291505056fea264697066735822122076bfe16640112f4f29d987d3b722f09415e5df149c21349768ea70e5372f66bb64736f6c63430008150033",
  "linkReferences": {},
  "deployedLinkReferences": {}
}