{
  "_format": "hh-sol-artifact-1",
  "contractName": "GovernanceFacet",
  "sourceName": "contracts/facets/GovernanceFacet.sol",
  "abi": [
    {
      "inputs": [],
      "name": "ErrGovernanceRole",
      "type": "error"
    },
    {
      "inputs": [],
      "name": "ErrNoProposal",
      "type": "error"
    },
    {
      "inputs": [],
      "name": "ErrNotReady",
      "type": "error"
    },
    {
      "inputs": [],
      "name": "ErrProposalExists",
      "type": "error"
    },
    {
      "inputs": [],
      "name": "ErrProposalUsed",
      "type": "error"
    },
    {
      "inputs": [],
      "name": "ErrUpgradeRole",
      "type": "error"
    },
    {
      "anonymous": false,
      "inputs": [
        {
          "indexed": true,
          "internalType": "bytes32",
          "name": "id",
          "type": "bytes32"
        }
      ],
      "name": "CutExecuted",
      "type": "event"
    },
    {
      "anonymous": false,
      "inputs": [
        {
          "indexed": true,
          "internalType": "bytes32",
          "name": "id",
          "type": "bytes32"
        },
        {
          "indexed": false,
          "internalType": "address",
          "name": "proposer",
          "type": "address"
        },
        {
          "indexed": false,
          "internalType": "address",
          "name": "init",
          "type": "address"
        },
        {
          "indexed": false,
          "internalType": "bytes",
          "name": "initData",
          "type": "bytes"
        }
      ],
      "name": "CutProposed",
      "type": "event"
    },
    {
      "anonymous": false,
      "inputs": [
        {
          "indexed": true,
          "internalType": "bytes32",
          "name": "id",
          "type": "bytes32"
        },
        {
          "indexed": false,
          "internalType": "uint256",
          "name": "eta",
          "type": "uint256"
        }
      ],
      "name": "CutQueued",
      "type": "event"
    },
    {
      "anonymous": false,
      "inputs": [
        {
          "indexed": true,
          "internalType": "bytes4",
          "name": "selector",
          "type": "bytes4"
        },
        {
          "indexed": false,
          "internalType": "bool",
          "name": "paused",
          "type": "bool"
        }
      ],
      "name": "EmergencyBrake",
      "type": "event"
    },
    {
      "inputs": [
        {
          "internalType": "bytes4",
          "name": "selector",
          "type": "bytes4"
        },
        {
          "internalType": "bool",
          "name": "pause",
          "type": "bool"
        }
      ],
      "name": "emergencyBrake",
      "outputs": [],
      "stateMutability": "nonpayable",
      "type": "function"
    },
    {
      "inputs": [
        {
          "internalType": "bytes32",
          "name": "id",
          "type": "bytes32"
        }
      ],
      "name": "eta",
      "outputs": [
        {
          "internalType": "uint256",
          "name": "",
          "type": "uint256"
        }
      ],
      "stateMutability": "view",
      "type": "function"
    },
    {
      "inputs": [
        {
          "internalType": "bytes32",
          "name": "id",
          "type": "bytes32"
        }
      ],
      "name": "executeCut",
      "outputs": [],
      "stateMutability": "nonpayable",
      "type": "function"
    },
    {
      "inputs": [
        {
          "internalType": "bytes32",
          "name": "id",
          "type": "bytes32"
        },
        {
          "components": [
            {
              "internalType": "address",
              "name": "facetAddress",
              "type": "address"
            },
            {
              "internalType": "enum IDiamondCut.FacetCutAction",
              "name": "action",
              "type": "uint8"
            },
            {
              "internalType": "bytes4[]",
              "name": "functionSelectors",
              "type": "bytes4[]"
            }
          ],
          "internalType": "struct IDiamondCut.FacetCut[]",
          "name": "cut",
          "type": "tuple[]"
        },
        {
          "internalType": "address",
          "name": "init",
          "type": "address"
        },
        {
          "internalType": "bytes",
          "name": "initData",
          "type": "bytes"
        }
      ],
      "name": "proposeCut",
      "outputs": [],
      "stateMutability": "nonpayable",
      "type": "function"
    },
    {
      "inputs": [
        {
          "internalType": "bytes32",
          "name": "id",
          "type": "bytes32"
        }
      ],
      "name": "proposer",
      "outputs": [
        {
          "internalType": "address",
          "name": "",
          "type": "address"
        }
      ],
      "stateMutability": "view",
      "type": "function"
    },
    {
      "inputs": [
        {
          "internalType": "bytes32",
          "name": "id",
          "type": "bytes32"
        }
      ],
      "name": "queueCut",
      "outputs": [],
      "stateMutability": "nonpayable",
      "type": "function"
    },
    {
      "inputs": [],
      "name": "quorumBps",
      "outputs": [
        {
          "internalType": "uint256",
          "name": "",
          "type": "uint256"
        }
      ],
      "stateMutability": "view",
      "type": "function"
    },
    {
      "inputs": [
        {
          "internalType": "uint256",
          "name": "timelockSeconds",
          "type": "uint256"
        },
        {
          "internalType": "uint256",
          "name": "quorumBps",
          "type": "uint256"
        }
      ],
      "name": "setGovernanceParams",
      "outputs": [],
      "stateMutability": "nonpayable",
      "type": "function"
    },
    {
      "inputs": [],
      "name": "timelock",
      "outputs": [
        {
          "internalType": "uint256",
          "name": "",
          "type": "uint256"
        }
      ],
      "stateMutability": "view",
      "type": "function"
    }
  ],
  "bytecode": "0x608060405234801561001057600080fd5b50611378806100206000396000f3fe608060405234801561001057600080fd5b50600436106100935760003560e01c8063ac7f05f911610066578063ac7f05f914610113578063b7575c5f14610173578063cd2ddd0c14610186578063d33219b4146101ad578063e9143174146101c257600080fd5b8063088775a3146100985780631cecf99e146100d857806389210385146100ed5780638ef34cc114610100575b600080fd5b6100c56100a63660046109e2565b6000908152600080516020611303833981519152602052604090205490565b6040519081526020015b60405180910390f35b6100eb6100e6366004610a69565b6101d5565b005b6100eb6100fb366004610b22565b610358565b6100eb61010e366004610b5a565b6103df565b61015b6101213660046109e2565b60009081527fe007241d1889ec8c05dc8b1092e6a7dc887697913faabbdc9fe930d998ad975160205260409020546001600160a01b031690565b6040516001600160a01b0390911681526020016100cf565b6100eb6101813660046109e2565b6104d3565b7fe007241d1889ec8c05dc8b1092e6a7dc887697913faabbdc9fe930d998ad974c546100c5565b600080516020611323833981519152546100c5565b6100eb6101d03660046109e2565b610603565b6101dd61090f565b15801561020757503360009081526000805160206112e38339815191526020526040902054600216155b156102255760405163030f2d0160e01b815260040160405180910390fd5b60008681526000805160206113038339815191526020526040902054600080516020611323833981519152901561026f576040516377889cb960e11b815260040160405180910390fd5b8585604051602001610282929190610c11565b60408051601f1981840301815291815260008981526003840160205220906102aa9082610da4565b506000878152600482016020908152604080832080546001600160a01b0319166001600160a01b0389161790556005840190915290206102eb838583610e64565b5060008781526006820160205260409081902080546001600160a01b03191633908117909155905188917f4b6f537ec3651d114b7f1da43925340ccc5da8ae647b03b6e86a7e262291c3e4916103479190889088908890610f25565b60405180910390a250505050505050565b61036061090f565b15801561038a57503360009081526000805160206112e38339815191526020526040902054600216155b156103a85760405163030f2d0160e01b815260040160405180910390fd5b600080516020611323833981519152919091557fe007241d1889ec8c05dc8b1092e6a7dc887697913faabbdc9fe930d998ad974c55565b6103e761090f565b15801561041157503360009081526000805160206112e38339815191526020526040902054600216155b1561042f5760405163030f2d0160e01b815260040160405180910390fd5b6001600160e01b0319821660008181527fbe2039d0acebc8f39aca028faa2657d60691246a654ef49134d442fbe066df4f6020908152604091829020805460ff191685151590811790915591519182527fbe2039d0acebc8f39aca028faa2657d60691246a654ef49134d442fbe066df4e92917fd688aac15b110bdbdd9c1549b5030e42a2b092c356fe4f8f1ec89445413aff3791015b60405180910390a2505050565b6104db61090f565b15801561050557503360009081526000805160206112e38339815191526020526040902054600216155b156105235760405163030f2d0160e01b815260040160405180910390fd5b60008181526000805160206113038339815191526020526040902054600080516020611323833981519152901561056d5760405163366ced8160e11b815260040160405180910390fd5b60008281526003820160205260409020805461058890610d1b565b90506000036105aa5760405163315a6ff360e11b815260040160405180910390fd5b80546000906105b99042610f71565b6000848152600284016020526040908190208290555190915083907f185c36da5b944ceebbc4ad0efe1091f62afc94dff2cfe54bbc0eee969fd44aa4906104c69084815260200190565b61060b61090f565b15801561063557503360009081526000805160206112e38339815191526020526040902054600116155b1561065357604051637a73faf760e11b815260040160405180910390fd5b600081815260008051602061130383398151915260205260409020546000805160206113238339815191529080158061068b57508042105b156106a957604051634e395b8560e01b815260040160405180910390fd5b6000838152600383016020526040812080546106c490610d1b565b80601f01602080910402602001604051908101604052809291908181526020018280546106f090610d1b565b801561073d5780601f106107125761010080835404028352916020019161073d565b820191906000526020600020905b81548152906001019060200180831161072057829003601f168201915b50505050508060200190518101906107559190611016565b600085815260048501602090815260408083205460058801909252822080549394506001600160a01b039091169261078c90610d1b565b80601f01602080910402602001604051908101604052809291908181526020018280546107b890610d1b565b80156108055780601f106107da57610100808354040283529160200191610805565b820191906000526020600020905b8154815290600101906020018083116107e857829003601f168201915b50506040516307e4c70760e21b81529394503093631f931c1c93506108349250879150869086906004016111d2565b600060405180830381600087803b15801561084e57600080fd5b505af1158015610862573d6000803e3d6000fd5b5050506000878152600287016020908152604080832083905560038901909152812061088f92509061098c565b6000868152600486016020908152604080832080546001600160a01b03191690556005880190915281206108c29161098c565b600086815260068601602052604080822080546001600160a01b03191690555187917fa1a0ac873c8783a53a3894276ae096d022c74a662925adc3dd1b364a5024355a91a2505050505050565b6000336001600160a01b0316306001600160a01b0316638da5cb5b6040518163ffffffff1660e01b8152600401602060405180830381865afa158015610959573d6000803e3d6000fd5b505050506040513d601f19601f8201168201806040525081019061097d91906112be565b6001600160a01b031614905090565b50805461099890610d1b565b6000825580601f106109a8575050565b601f0160209004906000526020600020908101906109c691906109c9565b50565b5b808211156109de57600081556001016109ca565b5090565b6000602082840312156109f457600080fd5b5035919050565b6001600160a01b03811681146109c657600080fd5b8035610a1b816109fb565b919050565b60008083601f840112610a3257600080fd5b50813567ffffffffffffffff811115610a4a57600080fd5b602083019150836020828501011115610a6257600080fd5b9250929050565b60008060008060008060808789031215610a8257600080fd5b86359550602087013567ffffffffffffffff80821115610aa157600080fd5b818901915089601f830112610ab557600080fd5b813581811115610ac457600080fd5b8a60208260051b8501011115610ad957600080fd5b6020830197509550610aed60408a01610a10565b94506060890135915080821115610b0357600080fd5b50610b1089828a01610a20565b979a9699509497509295939492505050565b60008060408385031215610b3557600080fd5b50508035926020909101359150565b6001600160e01b0319811681146109c657600080fd5b60008060408385031215610b6d57600080fd5b8235610b7881610b44565b915060208301358015158114610b8d57600080fd5b809150509250929050565b600381106109c657600080fd5b60038110610bc357634e487b7160e01b600052602160045260246000fd5b9052565b8183526000602080850194508260005b85811015610c06578135610bea81610b44565b6001600160e01b03191687529582019590820190600101610bd7565b509495945050505050565b60208082528181018390526000906040808401600586811b8601830188865b89811015610cf657888303603f190185528135368c9003605e19018112610c5657600080fd5b8b0160608135610c65816109fb565b6001600160a01b0316855281890135610c7d81610b98565b610c898a870182610ba5565b5087820135601e19833603018112610ca057600080fd5b90910188810191903567ffffffffffffffff811115610cbe57600080fd5b80871b3603831315610ccf57600080fd5b8189870152610ce18287018285610bc7565b978a0197955050509187019150600101610c30565b50909998505050505050505050565b634e487b7160e01b600052604160045260246000fd5b600181811c90821680610d2f57607f821691505b602082108103610d4f57634e487b7160e01b600052602260045260246000fd5b50919050565b601f821115610d9f57600081815260208120601f850160051c81016020861015610d7c5750805b601f850160051c820191505b81811015610d9b57828155600101610d88565b5050505b505050565b815167ffffffffffffffff811115610dbe57610dbe610d05565b610dd281610dcc8454610d1b565b84610d55565b602080601f831160018114610e075760008415610def5750858301515b600019600386901b1c1916600185901b178555610d9b565b600085815260208120601f198616915b82811015610e3657888601518255948401946001909101908401610e17565b5085821015610e545787850151600019600388901b60f8161c191681555b5050505050600190811b01905550565b67ffffffffffffffff831115610e7c57610e7c610d05565b610e9083610e8a8354610d1b565b83610d55565b6000601f841160018114610ec45760008515610eac5750838201355b600019600387901b1c1916600186901b178355610f1e565b600083815260209020601f19861690835b82811015610ef55786850135825560209485019460019092019101610ed5565b5086821015610f125760001960f88860031b161c19848701351681555b505060018560011b0183555b5050505050565b6001600160a01b0385811682528416602082015260606040820181905281018290526000828460808401376000608084840101526080601f19601f850116830101905095945050505050565b80820180821115610f9257634e487b7160e01b600052601160045260246000fd5b92915050565b6040516060810167ffffffffffffffff81118282101715610fbb57610fbb610d05565b60405290565b604051601f8201601f1916810167ffffffffffffffff81118282101715610fea57610fea610d05565b604052919050565b600067ffffffffffffffff82111561100c5761100c610d05565b5060051b60200190565b6000602080838503121561102957600080fd5b825167ffffffffffffffff8082111561104157600080fd5b818501915085601f83011261105557600080fd5b815161106861106382610ff2565b610fc1565b81815260059190911b8301840190848101908883111561108757600080fd5b8585015b8381101561117f578051858111156110a35760008081fd5b86016060818c03601f19018113156110bb5760008081fd5b6110c3610f98565b898301516110d0816109fb565b81526040838101516110e181610b98565b828c01529183015191888311156110f85760008081fd5b82840193508d603f85011261110f57600092508283fd5b8a840151925061112161106384610ff2565b83815260059390931b84018101928b8101908f8511156111415760008081fd5b948201945b8486101561116857855161115981610b44565b8252948c0194908c0190611146565b91830191909152508552505091860191860161108b565b5098975050505050505050565b6000815180845260005b818110156111b257602081850181015186830182015201611196565b506000602082860101526020601f19601f83011685010191505092915050565b60006060808301818452808751808352608092508286019150828160051b8701016020808b016000805b8581101561128d578a8503607f19018752825180516001600160a01b03168652848101518a87019061123087890182610ba5565b506040918201519187018b90528151908190529085019083908a8801905b808310156112785783516001600160e01b031916825292870192600192909201919087019061124e565b509886019896505050918301916001016111fc565b5050506001600160a01b038a169088015286810360408801526112b0818961118c565b9a9950505050505050505050565b6000602082840312156112d057600080fd5b81516112db816109fb565b939250505056fe9f684a81ee6e6fb92a5ae5a2560bb267d45aada2be40484754980c3e16e44d98e007241d1889ec8c05dc8b1092e6a7dc887697913faabbdc9fe930d998ad974de007241d1889ec8c05dc8b1092e6a7dc887697913faabbdc9fe930d998ad974ba2646970667358221220e8b1215c1fe1429ab811ed8771e794412d6af39c7db3e835fb9029287fe9b56e64736f6c63430008150033",
  "linkReferences": {},
  "deployedLinkReferences": {}
}