{
  "_format": "hh-sol-artifact-1",
  "contractName": "GovernanceFacet",
  "sourceName": "contracts/facets/GovernanceFacet.sol",
  "abi": [
    {
      "anonymous": false,
      "inputs": [
        {
          "indexed": false,
          "internalType": "bytes32",
          "name": "id",
          "type": "bytes32"
        }
      ],
      "name": "CutExecuted",
      "type": "event"
    },
    {
      "anonymous": false,
      "inputs": [
        {
          "indexed": false,
          "internalType": "bytes32",
          "name": "id",
          "type": "bytes32"
        },
        {
          "indexed": false,
          "internalType": "address",
          "name": "proposer",
          "type": "address"
        },
        {
          "indexed": false,
          "internalType": "address",
          "name": "init",
          "type": "address"
        },
        {
          "indexed": false,
          "internalType": "bytes",
          "name": "initData",
          "type": "bytes"
        }
      ],
      "name": "CutProposed",
      "type": "event"
    },
    {
      "anonymous": false,
      "inputs": [
        {
          "indexed": false,
          "internalType": "bytes32",
          "name": "id",
          "type": "bytes32"
        },
        {
          "indexed": false,
          "internalType": "uint256",
          "name": "eta",
          "type": "uint256"
        }
      ],
      "name": "CutQueued",
      "type": "event"
    },
    {
      "anonymous": false,
      "inputs": [
        {
          "indexed": false,
          "internalType": "bytes4",
          "name": "selector",
          "type": "bytes4"
        },
        {
          "indexed": false,
          "internalType": "bool",
          "name": "paused",
          "type": "bool"
        }
      ],
      "name": "EmergencyBrake",
      "type": "event"
    },
    {
      "inputs": [
        {
          "internalType": "bytes4",
          "name": "selector",
          "type": "bytes4"
        },
        {
          "internalType": "bool",
          "name": "pause",
          "type": "bool"
        }
      ],
      "name": "emergencyBrake",
      "outputs": [],
      "stateMutability": "nonpayable",
      "type": "function"
    },
    {
      "inputs": [
        {
          "internalType": "bytes32",
          "name": "id",
          "type": "bytes32"
        }
      ],
      "name": "eta",
      "outputs": [
        {
          "internalType": "uint256",
          "name": "",
          "type": "uint256"
        }
      ],
      "stateMutability": "view",
      "type": "function"
    },
    {
      "inputs": [
        {
          "internalType": "bytes32",
          "name": "id",
          "type": "bytes32"
        }
      ],
      "name": "executeCut",
      "outputs": [],
      "stateMutability": "nonpayable",
      "type": "function"
    },
    {
      "inputs": [
        {
          "internalType": "bytes32",
          "name": "id",
          "type": "bytes32"
        },
        {
          "components": [
            {
              "internalType": "address",
              "name": "facetAddress",
              "type": "address"
            },
            {
              "internalType": "enum IDiamondCut.FacetCutAction",
              "name": "action",
              "type": "uint8"
            },
            {
              "internalType": "bytes4[]",
              "name": "functionSelectors",
              "type": "bytes4[]"
            }
          ],
          "internalType": "struct IDiamondCut.FacetCut[]",
          "name": "cut",
          "type": "tuple[]"
        },
        {
          "internalType": "address",
          "name": "init",
          "type": "address"
        },
        {
          "internalType": "bytes",
          "name": "initData",
          "type": "bytes"
        }
      ],
      "name": "proposeCut",
      "outputs": [],
      "stateMutability": "nonpayable",
      "type": "function"
    },
    {
      "inputs": [
        {
          "internalType": "bytes32",
          "name": "id",
          "type": "bytes32"
        }
      ],
      "name": "proposer",
      "outputs": [
        {
          "internalType": "address",
          "name": "",
          "type": "address"
        }
      ],
      "stateMutability": "view",
      "type": "function"
    },
    {
      "inputs": [
        {
          "internalType": "bytes32",
          "name": "id",
          "type": "bytes32"
        }
      ],
      "name": "queueCut",
      "outputs": [],
      "stateMutability": "nonpayable",
      "type": "function"
    },
    {
      "inputs": [],
      "name": "quorumBps",
      "outputs": [
        {
          "internalType": "uint256",
          "name": "",
          "type": "uint256"
        }
      ],
      "stateMutability": "view",
      "type": "function"
    },
    {
      "inputs": [],
      "name": "timelock",
      "outputs": [
        {
          "internalType": "uint256",
          "name": "",
          "type": "uint256"
        }
      ],
      "stateMutability": "view",
      "type": "function"
    }
  ],
  "bytecode": "0x608060405234801561001057600080fd5b50611380806100206000396000f3fe608060405234801561001057600080fd5b50600436106100885760003560e01c8063b7575c5f1161005b578063b7575c5f14610155578063cd2ddd0c14610168578063d33219b41461018f578063e9143174146101a457600080fd5b8063088775a31461008d5780631cecf99e146100cd5780638ef34cc1146100e2578063ac7f05f9146100f5575b600080fd5b6100ba61009b3660046109e5565b600090815260008051602061130b833981519152602052604090205490565b6040519081526020015b60405180910390f35b6100e06100db366004610a6c565b6101b7565b005b6100e06100f0366004610b3b565b61035a565b61013d6101033660046109e5565b60009081527fe007241d1889ec8c05dc8b1092e6a7dc887697913faabbdc9fe930d998ad975160205260409020546001600160a01b031690565b6040516001600160a01b0390911681526020016100c4565b6100e06101633660046109e5565b610450565b7fe007241d1889ec8c05dc8b1092e6a7dc887697913faabbdc9fe930d998ad974c546100ba565b60008051602061132b833981519152546100ba565b6100e06101b23660046109e5565b6105ba565b6101bf610912565b1580156101e957503360009081526000805160206112eb8339815191526020526040902054600216155b1561020f5760405162461bcd60e51b815260040161020690610b79565b60405180910390fd5b600086815260008051602061130b833981519152602052604090205460008051602061132b83398151915290156102715760405162461bcd60e51b815260206004820152600660248201526545584953545360d01b6044820152606401610206565b8585604051602001610284929190610c12565b60408051601f1981840301815291815260008981526003840160205220906102ac9082610da5565b506000878152600482016020908152604080832080546001600160a01b0319166001600160a01b0389161790556005840190915290206102ed838583610e65565b5060008781526006820160205260409081902080546001600160a01b0319163390811790915590517f4b6f537ec3651d114b7f1da43925340ccc5da8ae647b03b6e86a7e262291c3e491610349918a9190889088908890610f26565b60405180910390a150505050505050565b610362610912565b15801561038c57503360009081526000805160206112eb8339815191526020526040902054600216155b156103a95760405162461bcd60e51b815260040161020690610b79565b6001600160e01b0319821660008181527fbe2039d0acebc8f39aca028faa2657d60691246a654ef49134d442fbe066df4f6020908152604091829020805460ff19168515159081179091558251938452908301527fbe2039d0acebc8f39aca028faa2657d60691246a654ef49134d442fbe066df4e917fd688aac15b110bdbdd9c1549b5030e42a2b092c356fe4f8f1ec89445413aff3791015b60405180910390a1505050565b610458610912565b15801561048257503360009081526000805160206112eb8339815191526020526040902054600216155b1561049f5760405162461bcd60e51b815260040161020690610b79565b600081815260008051602061130b833981519152602052604090205460008051602061132b833981519152901561050a5760405162461bcd60e51b815260206004820152600f60248201526e1393d7d41493d417d3d497d554d151608a1b6044820152606401610206565b60008281526003820160205260408120805461052590610d1c565b90501161055e5760405162461bcd60e51b815260206004820152600760248201526604e4f5f50524f560cc1b6044820152606401610206565b805460009061056d9042610f79565b600084815260028401602090815260409182902083905581518681529081018390529192507f185c36da5b944ceebbc4ad0efe1091f62afc94dff2cfe54bbc0eee969fd44aa49101610443565b6105c2610912565b1580156105ec57503360009081526000805160206112eb8339815191526020526040902054600116155b156106265760405162461bcd60e51b815260206004820152600a6024820152694e4f5f5550475241444560b01b6044820152606401610206565b600081815260008051602061130b833981519152602052604090205460008051602061132b8339815191529080158015906106615750804210155b6106995760405162461bcd60e51b81526020600482015260096024820152684e4f545f524541445960b81b6044820152606401610206565b6000838152600383016020526040812080546106b490610d1c565b80601f01602080910402602001604051908101604052809291908181526020018280546106e090610d1c565b801561072d5780601f106107025761010080835404028352916020019161072d565b820191906000526020600020905b81548152906001019060200180831161071057829003601f168201915b5050505050806020019051810190610745919061101e565b600085815260048501602090815260408083205460058801909252822080549394506001600160a01b039091169261077c90610d1c565b80601f01602080910402602001604051908101604052809291908181526020018280546107a890610d1c565b80156107f55780601f106107ca576101008083540402835291602001916107f5565b820191906000526020600020905b8154815290600101906020018083116107d857829003601f168201915b50506040516307e4c70760e21b81529394503093631f931c1c93506108249250879150869086906004016111da565b600060405180830381600087803b15801561083e57600080fd5b505af1158015610852573d6000803e3d6000fd5b5050506000878152600287016020908152604080832083905560038901909152812061087f92509061098f565b6000868152600486016020908152604080832080546001600160a01b03191690556005880190915281206108b29161098f565b60008681526006860160205260409081902080546001600160a01b0319169055517fa1a0ac873c8783a53a3894276ae096d022c74a662925adc3dd1b364a5024355a906109029088815260200190565b60405180910390a1505050505050565b6000336001600160a01b0316306001600160a01b0316638da5cb5b6040518163ffffffff1660e01b8152600401602060405180830381865afa15801561095c573d6000803e3d6000fd5b505050506040513d601f19601f8201168201806040525081019061098091906112c6565b6001600160a01b031614905090565b50805461099b90610d1c565b6000825580601f106109ab575050565b601f0160209004906000526020600020908101906109c991906109cc565b50565b5b808211156109e157600081556001016109cd565b5090565b6000602082840312156109f757600080fd5b5035919050565b6001600160a01b03811681146109c957600080fd5b8035610a1e816109fe565b919050565b60008083601f840112610a3557600080fd5b50813567ffffffffffffffff811115610a4d57600080fd5b602083019150836020828501011115610a6557600080fd5b9250929050565b60008060008060008060808789031215610a8557600080fd5b86359550602087013567ffffffffffffffff80821115610aa457600080fd5b818901915089601f830112610ab857600080fd5b813581811115610ac757600080fd5b8a60208260051b8501011115610adc57600080fd5b6020830197509550610af060408a01610a13565b94506060890135915080821115610b0657600080fd5b50610b1389828a01610a23565b979a9699509497509295939492505050565b6001600160e01b0319811681146109c957600080fd5b60008060408385031215610b4e57600080fd5b8235610b5981610b25565b915060208301358015158114610b6e57600080fd5b809150509250929050565b6020808252600690820152652727afa3a7ab60d11b604082015260600190565b600381106109c957600080fd5b60038110610bc457634e487b7160e01b600052602160045260246000fd5b9052565b8183526000602080850194508260005b85811015610c07578135610beb81610b25565b6001600160e01b03191687529582019590820190600101610bd8565b509495945050505050565b60208082528181018390526000906040808401600586811b8601830188865b89811015610cf757888303603f190185528135368c9003605e19018112610c5757600080fd5b8b0160608135610c66816109fe565b6001600160a01b0316855281890135610c7e81610b99565b610c8a8a870182610ba6565b5087820135601e19833603018112610ca157600080fd5b90910188810191903567ffffffffffffffff811115610cbf57600080fd5b80871b3603831315610cd057600080fd5b8189870152610ce28287018285610bc8565b978a0197955050509187019150600101610c31565b50909998505050505050505050565b634e487b7160e01b600052604160045260246000fd5b600181811c90821680610d3057607f821691505b602082108103610d5057634e487b7160e01b600052602260045260246000fd5b50919050565b601f821115610da057600081815260208120601f850160051c81016020861015610d7d5750805b601f850160051c820191505b81811015610d9c57828155600101610d89565b5050505b505050565b815167ffffffffffffffff811115610dbf57610dbf610d06565b610dd381610dcd8454610d1c565b84610d56565b602080601f831160018114610e085760008415610df05750858301515b600019600386901b1c1916600185901b178555610d9c565b600085815260208120601f198616915b82811015610e3757888601518255948401946001909101908401610e18565b5085821015610e555787850151600019600388901b60f8161c191681555b5050505050600190811b01905550565b67ffffffffffffffff831115610e7d57610e7d610d06565b610e9183610e8b8354610d1c565b83610d56565b6000601f841160018114610ec55760008515610ead5750838201355b600019600387901b1c1916600186901b178355610f1f565b600083815260209020601f19861690835b82811015610ef65786850135825560209485019460019092019101610ed6565b5086821015610f135760001960f88860031b161c19848701351681555b505060018560011b0183555b5050505050565b8581526001600160a01b0385811660208301528416604082015260806060820181905281018290526000828460a0840137600060a0848401015260a0601f19601f85011683010190509695505050505050565b80820180821115610f9a57634e487b7160e01b600052601160045260246000fd5b92915050565b6040516060810167ffffffffffffffff81118282101715610fc357610fc3610d06565b60405290565b604051601f8201601f1916810167ffffffffffffffff81118282101715610ff257610ff2610d06565b604052919050565b600067ffffffffffffffff82111561101457611014610d06565b5060051b60200190565b6000602080838503121561103157600080fd5b825167ffffffffffffffff8082111561104957600080fd5b818501915085601f83011261105d57600080fd5b815161107061106b82610ffa565b610fc9565b81815260059190911b8301840190848101908883111561108f57600080fd5b8585015b83811015611187578051858111156110ab5760008081fd5b86016060818c03601f19018113156110c35760008081fd5b6110cb610fa0565b898301516110d8816109fe565b81526040838101516110e981610b99565b828c01529183015191888311156111005760008081fd5b82840193508d603f85011261111757600092508283fd5b8a840151925061112961106b84610ffa565b83815260059390931b84018101928b8101908f8511156111495760008081fd5b948201945b8486101561117057855161116181610b25565b8252948c0194908c019061114e565b918301919091525085525050918601918601611093565b5098975050505050505050565b6000815180845260005b818110156111ba5760208185018101518683018201520161119e565b506000602082860101526020601f19601f83011685010191505092915050565b60006060808301818452808751808352608092508286019150828160051b8701016020808b016000805b85811015611295578a8503607f19018752825180516001600160a01b03168652848101518a87019061123887890182610ba6565b506040918201519187018b90528151908190529085019083908a8801905b808310156112805783516001600160e01b0319168252928701926001929092019190870190611256565b50988601989650505091830191600101611204565b5050506001600160a01b038a169088015286810360408801526112b88189611194565b9a9950505050505050505050565b6000602082840312156112d857600080fd5b81516112e3816109fe565b939250505056fe9f684a81ee6e6fb92a5ae5a2560bb267d45aada2be40484754980c3e16e44d98e007241d1889ec8c05dc8b1092e6a7dc887697913faabbdc9fe930d998ad974de007241d1889ec8c05dc8b1092e6a7dc887697913faabbdc9fe930d998ad974ba26469706673582212205040cfd2abaca7fbca1ba8ee612bb836b29a4d3892e9c52f746d41ddb1c3571464736f6c63430008150033",
  "linkReferences": {},
  "deployedLinkReferences": {}
}