{
  "_format": "hh-sol-artifact-1",
  "contractName": "OracleAggregatorFacet",
  "sourceName": "contracts/facets/OracleAggregatorFacet.sol",
  "abi": [
    {
      "inputs": [],
      "name": "ErrMissingRole",
      "type": "error"
    },
    {
      "inputs": [],
      "name": "ErrNotReady",
      "type": "error"
    },
    {
      "inputs": [
        {
          "internalType": "bytes32",
          "name": "assetId",
          "type": "bytes32"
        }
      ],
      "name": "medianPrice",
      "outputs": [
        {
          "internalType": "uint256",
          "name": "price",
          "type": "uint256"
        },
        {
          "internalType": "uint16",
          "name": "confidenceBps",
          "type": "uint16"
        },
        {
          "internalType": "uint64",
          "name": "timestamp",
          "type": "uint64"
        }
      ],
      "stateMutability": "view",
      "type": "function"
    },
    {
      "inputs": [
        {
          "internalType": "bytes32",
          "name": "assetId",
          "type": "bytes32"
        },
        {
          "internalType": "address",
          "name": "feedAddress",
          "type": "address"
        },
        {
          "internalType": "uint256",
          "name": "price",
          "type": "uint256"
        },
        {
          "internalType": "uint64",
          "name": "ts",
          "type": "uint64"
        },
        {
          "internalType": "uint16",
          "name": "confidenceBps",
          "type": "uint16"
        }
      ],
      "name": "pushPrice",
      "outputs": [],
      "stateMutability": "nonpayable",
      "type": "function"
    },
    {
      "inputs": [
        {
          "internalType": "bytes32",
          "name": "assetId",
          "type": "bytes32"
        },
        {
          "internalType": "address",
          "name": "feedAddress",
          "type": "address"
        }
      ],
      "name": "registerFeed",
      "outputs": [],
      "stateMutability": "nonpayable",
      "type": "function"
    }
  ],
  "bytecode": "0x608060405234801561001057600080fd5b506102c5806100206000396000f3fe608060405234801561001057600080fd5b50600436106100415760003560e01c80631c145ce5146100465780634a84d0211461008a578063e4bcf3231461009f575b600080fd5b61005e610054366004610197565b5060009081908190565b6040805193845261ffff909216602084015267ffffffffffffffff169082015260600160405180910390f35b61009d6100983660046101c8565b6100ad565b005b61009d6100983660046101f8565b336001600160a01b0316306001600160a01b0316638da5cb5b6040518163ffffffff1660e01b8152600401602060405180830381865afa1580156100f5573d6000803e3d6000fd5b505050506040513d601f19601f82011682018060405250810190610119919061026b565b6001600160a01b03161415801561016057503360009081527f9f684a81ee6e6fb92a5ae5a2560bb267d45aada2be40484754980c3e16e44d98602090815260409091205416155b1561017e5760405163de55e85d60e01b815260040160405180910390fd5b604051634e395b8560e01b815260040160405180910390fd5b6000602082840312156101a957600080fd5b5035919050565b6001600160a01b03811681146101c557600080fd5b50565b600080604083850312156101db57600080fd5b8235915060208301356101ed816101b0565b809150509250929050565b600080600080600060a0868803121561021057600080fd5b853594506020860135610222816101b0565b935060408601359250606086013567ffffffffffffffff8116811461024657600080fd5b9150608086013561ffff8116811461025d57600080fd5b809150509295509295909350565b60006020828403121561027d57600080fd5b8151610288816101b0565b939250505056fea26469706673582212207634ab910ec34f18a094b586f4366a535db7b9c7fc351ada41d9cbfaf02ba19664736f6c63430008150033",
  "linkReferences": {},
  "deployedLinkReferences": {}
}