{
  "_format": "hh-sol-artifact-1",
  "contractName": "IndexFacet",
  "sourceName": "contracts/facets/IndexFacet.sol",
  "abi": [
    {
      "inputs": [],
      "name": "ErrIndexRole",
      "type": "error"
    },
    {
      "inputs": [],
      "name": "ErrLengthMismatch",
      "type": "error"
    },
    {
      "inputs": [],
      "name": "ErrSumInvalid",
      "type": "error"
    },
    {
      "anonymous": false,
      "inputs": [
        {
          "indexed": true,
          "internalType": "bytes32",
          "name": "dashboardHash",
          "type": "bytes32"
        },
        {
          "indexed": false,
          "internalType": "uint64",
          "name": "globalVersion",
          "type": "uint64"
        },
        {
          "indexed": false,
          "internalType": "uint256",
          "name": "liCRI",
          "type": "uint256"
        },
        {
          "indexed": false,
          "internalType": "uint256",
          "name": "timestamp",
          "type": "uint256"
        }
      ],
      "name": "DashboardSnapshot",
      "type": "event"
    },
    {
      "anonymous": false,
      "inputs": [
        {
          "indexed": true,
          "internalType": "bytes32",
          "name": "id",
          "type": "bytes32"
        },
        {
          "indexed": false,
          "internalType": "uint64",
          "name": "version",
          "type": "uint64"
        }
      ],
      "name": "IndexWeightsUpdated",
      "type": "event"
    },
    {
      "inputs": [
        {
          "internalType": "bytes32",
          "name": "indexId",
          "type": "bytes32"
        }
      ],
      "name": "getIndex",
      "outputs": [
        {
          "internalType": "uint64",
          "name": "version",
          "type": "uint64"
        },
        {
          "internalType": "bytes32[]",
          "name": "keys",
          "type": "bytes32[]"
        },
        {
          "internalType": "uint256[]",
          "name": "weights",
          "type": "uint256[]"
        },
        {
          "internalType": "bytes32",
          "name": "dashboardHash",
          "type": "bytes32"
        }
      ],
      "stateMutability": "view",
      "type": "function"
    },
    {
      "inputs": [
        {
          "internalType": "bytes32",
          "name": "indexId",
          "type": "bytes32"
        }
      ],
      "name": "getIndexValue",
      "outputs": [
        {
          "internalType": "uint256",
          "name": "",
          "type": "uint256"
        }
      ],
      "stateMutability": "view",
      "type": "function"
    },
    {
      "inputs": [],
      "name": "getLiCRI",
      "outputs": [
        {
          "internalType": "uint256",
          "name": "",
          "type": "uint256"
        }
      ],
      "stateMutability": "view",
      "type": "function"
    },
    {
      "inputs": [
        {
          "internalType": "bytes32[]",
          "name": "componentIds",
          "type": "bytes32[]"
        },
        {
          "internalType": "uint256[]",
          "name": "componentValues",
          "type": "uint256[]"
        }
      ],
      "name": "recalcLiCRI",
      "outputs": [
        {
          "internalType": "uint256",
          "name": "faceValueComposite",
          "type": "uint256"
        }
      ],
      "stateMutability": "nonpayable",
      "type": "function"
    },
    {
      "inputs": [
        {
          "internalType": "bytes32",
          "name": "dashboardHash",
          "type": "bytes32"
        },
        {
          "internalType": "uint256",
          "name": "liCRI",
          "type": "uint256"
        },
        {
          "internalType": "uint64",
          "name": "globalVersion",
          "type": "uint64"
        }
      ],
      "name": "setDashboardComposite",
      "outputs": [],
      "stateMutability": "nonpayable",
      "type": "function"
    },
    {
      "inputs": [
        {
          "internalType": "bytes32",
          "name": "indexId",
          "type": "bytes32"
        },
        {
          "internalType": "uint256",
          "name": "value",
          "type": "uint256"
        }
      ],
      "name": "setIndexValue",
      "outputs": [],
      "stateMutability": "nonpayable",
      "type": "function"
    },
    {
      "inputs": [
        {
          "internalType": "bytes32",
          "name": "indexId",
          "type": "bytes32"
        },
        {
          "internalType": "bytes32[]",
          "name": "keys",
          "type": "bytes32[]"
        },
        {
          "internalType": "uint256[]",
          "name": "weights",
          "type": "uint256[]"
        },
        {
          "internalType": "uint64",
          "name": "version",
          "type": "uint64"
        },
        {
          "internalType": "bytes32",
          "name": "dashboardHash",
          "type": "bytes32"
        }
      ],
      "name": "setWeights",
      "outputs": [],
      "stateMutability": "nonpayable",
      "type": "function"
    }
  ],
  "bytecode": "0x608060405234801561001057600080fd5b50610b28806100206000396000f3fe608060405234801561001057600080fd5b506004361061007d5760003560e01c80638527831b1161005b5780638527831b146100d0578063a28de244146100f3578063c0af218d1461011a578063c0f2d5f71461012d57600080fd5b806351d7bc851461008257806355f62ed9146100975780637a58d26a146100bd575b600080fd5b61009561009036600461084a565b610140565b005b6100aa6100a53660046108de565b61032f565b6040519081526020015b60405180910390f35b6100956100cb3660046108f7565b610378565b6100e36100de3660046108de565b610461565b6040516100b4949392919061092c565b7fed67d0daff738ccf71298a47a56dc9ef98b1ffb107ed17a564642a6aed1dd4df546100aa565b6100aa6101283660046109c4565b61053c565b61009561013b366004610a30565b61068d565b336000908152600080516020610ad38339815191526020526040812054600416900361017f5760405163326aaca960e11b815260040160405180910390fd5b84831461019f5760405163ab3a7f9960e01b815260040160405180910390fd5b6000805b848110156101e3578585828181106101bd576101bd610a52565b90506020020135826101cf9190610a7e565b9150806101db81610a97565b9150506101a3565b5080670de0b6b3a76400001461020c5760405163044c9ce160e41b815260040160405180910390fd5b600061021789610749565b805467ffffffffffffffff191667ffffffffffffffff86161781556001810184905590506102496002820160006107a7565b6102576003820160006107a7565b60005b878110156102e4578160020189898381811061027857610278610a52565b83546001810185556000948552602094859020919094029290920135919092015550600382018787838181106102b0576102b0610a52565b83546001810185556000948552602094859020919094029290920135919092015550806102dc81610a97565b91505061025a565b5060405167ffffffffffffffff8516815289907fd0bb3ba69f84be3b2eb470a3881f792dce20c4a660a4c1833fd576d38f7fa6ca9060200160405180910390a2505050505050505050565b60008061033b83610749565b60038101549091501561036e578060030160008154811061035e5761035e610a52565b9060005260206000200154610371565b60005b9392505050565b336000908152600080516020610ad3833981519152602052604081205460041690036103b75760405163326aaca960e11b815260040160405180910390fd5b7fed67d0daff738ccf71298a47a56dc9ef98b1ffb107ed17a564642a6aed1dd4df8290557fed67d0daff738ccf71298a47a56dc9ef98b1ffb107ed17a564642a6aed1dd4de805467ffffffffffffffff831667ffffffffffffffff1990911681178255604080519182526020820185905242828201525185917f6519f20914a226ac2380da7d29c110df4a8a62167ed605e3d5b09beb78933513919081900360600190a250505050565b600060608060008061047286610749565b805460018201546002830180546040805160208084028201810190925282815267ffffffffffffffff9095169a509296509394509192908301828280156104d857602002820191906000526020600020905b8154815260200190600101908083116104c4575b505050505093508060030180548060200260200160405190810160405280929190818152602001828054801561052d57602002820191906000526020600020905b815481526020019060010190808311610519575b50505050509250509193509193565b336000908152600080516020610ad38339815191526020526040812054600416810361057b5760405163326aaca960e11b815260040160405180910390fd5b83821461059b5760405163ab3a7f9960e01b815260040160405180910390fd5b6000805b838110156105df578484828181106105b9576105b9610a52565b90506020020135826105cb9190610a7e565b9150806105d781610a97565b91505061059f565b506105ea8382610ab0565b7fed67d0daff738ccf71298a47a56dc9ef98b1ffb107ed17a564642a6aed1dd4df8190557fed67d0daff738ccf71298a47a56dc9ef98b1ffb107ed17a564642a6aed1dd4de80546040805167ffffffffffffffff90921682526020820184905242828201525192945090916000917f6519f20914a226ac2380da7d29c110df4a8a62167ed605e3d5b09beb78933513919081900360600190a25050949350505050565b336000908152600080516020610ad3833981519152602052604081205460041690036106cc5760405163326aaca960e11b815260040160405180910390fd5b60006106d783610749565b60028101549091506000036107215760028101805460018082018355600092835260208084206456414c554560d81b93019290925560039093018054938401815582529020015550565b818160030160008154811061073857610738610a52565b600091825260209091200155505050565b600080827fed67d0daff738ccf71298a47a56dc9ef98b1ffb107ed17a564642a6aed1dd4de604051602001610788929190918252602082015260400190565b60408051601f1981840301815291905280516020909101209392505050565b50805460008255906000526020600020908101906107c591906107c8565b50565b5b808211156107dd57600081556001016107c9565b5090565b60008083601f8401126107f357600080fd5b50813567ffffffffffffffff81111561080b57600080fd5b6020830191508360208260051b850101111561082657600080fd5b9250929050565b803567ffffffffffffffff8116811461084557600080fd5b919050565b600080600080600080600060a0888a03121561086557600080fd5b87359650602088013567ffffffffffffffff8082111561088457600080fd5b6108908b838c016107e1565b909850965060408a01359150808211156108a957600080fd5b506108b68a828b016107e1565b90955093506108c990506060890161082d565b91506080880135905092959891949750929550565b6000602082840312156108f057600080fd5b5035919050565b60008060006060848603121561090c57600080fd5b83359250602084013591506109236040850161082d565b90509250925092565b60006080820167ffffffffffffffff87168352602060808185015281875180845260a086019150828901935060005b818110156109775784518352938301939183019160010161095b565b50508481036040860152865180825290820192508187019060005b818110156109ae57825185529383019391830191600101610992565b5050505060609290920192909252949350505050565b600080600080604085870312156109da57600080fd5b843567ffffffffffffffff808211156109f257600080fd5b6109fe888389016107e1565b90965094506020870135915080821115610a1757600080fd5b50610a24878288016107e1565b95989497509550505050565b60008060408385031215610a4357600080fd5b50508035926020909101359150565b634e487b7160e01b600052603260045260246000fd5b634e487b7160e01b600052601160045260246000fd5b80820180821115610a9157610a91610a68565b92915050565b600060018201610aa957610aa9610a68565b5060010190565b600082610acd57634e487b7160e01b600052601260045260246000fd5b50049056fe9f684a81ee6e6fb92a5ae5a2560bb267d45aada2be40484754980c3e16e44d98a26469706673582212209f2bbeaf2ccc27ee38126edb475dc26b893628a6dea3ce3ce78518d37450002064736f6c63430008150033",
  "linkReferences": {},
  "deployedLinkReferences": {}
}