{
  "_format": "hh-sol-artifact-1",
  "contractName": "IndexFacet",
  "sourceName": "contracts/facets/IndexFacet.sol",
  "abi": [
    {
      "inputs": [],
      "name": "ErrIndexRole",
      "type": "error"
    },
    {
      "inputs": [],
      "name": "ErrLengthMismatch",
      "type": "error"
    },
    {
      "inputs": [],
      "name": "ErrSumInvalid",
      "type": "error"
    },
    {
      "anonymous": false,
      "inputs": [
        {
          "indexed": true,
          "internalType": "bytes32",
          "name": "dashboardHash",
          "type": "bytes32"
        },
        {
          "indexed": false,
          "internalType": "uint64",
          "name": "globalVersion",
          "type": "uint64"
        },
        {
          "indexed": false,
          "internalType": "uint256",
          "name": "liCRI",
          "type": "uint256"
        },
        {
          "indexed": false,
          "internalType": "uint256",
          "name": "timestamp",
          "type": "uint256"
        }
      ],
      "name": "DashboardSnapshot",
      "type": "event"
    },
    {
      "anonymous": false,
      "inputs": [
        {
          "indexed": true,
          "internalType": "bytes32",
          "name": "id",
          "type": "bytes32"
        },
        {
          "indexed": false,
          "internalType": "uint64",
          "name": "version",
          "type": "uint64"
        }
      ],
      "name": "IndexWeightsUpdated",
      "type": "event"
    },
    {
      "inputs": [
        {
          "internalType": "bytes32",
          "name": "indexId",
          "type": "bytes32"
        }
      ],
      "name": "getIndex",
      "outputs": [
        {
          "internalType": "uint64",
          "name": "version",
          "type": "uint64"
        },
        {
          "internalType": "bytes32[]",
          "name": "keys",
          "type": "bytes32[]"
        },
        {
          "internalType": "uint256[]",
          "name": "weights",
          "type": "uint256[]"
        },
        {
          "internalType": "bytes32",
          "name": "dashboardHash",
          "type": "bytes32"
        }
      ],
      "stateMutability": "view",
      "type": "function"
    },
    {
      "inputs": [
        {
          "internalType": "bytes32",
          "name": "indexId",
          "type": "bytes32"
        }
      ],
      "name": "getIndexValue",
      "outputs": [
        {
          "internalType": "uint256",
          "name": "",
          "type": "uint256"
        }
      ],
      "stateMutability": "view",
      "type": "function"
    },
    {
      "inputs": [],
      "name": "getLiCRI",
      "outputs": [
        {
          "internalType": "uint256",
          "name": "",
          "type": "uint256"
        }
      ],
      "stateMutability": "view",
      "type": "function"
    },
    {
      "inputs": [
        {
          "internalType": "bytes32[]",
          "name": "componentIds",
          "type": "bytes32[]"
        },
        {
          "internalType": "uint256[]",
          "name": "componentValues",
          "type": "uint256[]"
        }
      ],
      "name": "recalcLiCRI",
      "outputs": [
        {
          "internalType": "uint256",
          "name": "faceValueComposite",
          "type": "uint256"
        }
      ],
      "stateMutability": "nonpayable",
      "type": "function"
    },
    {
      "inputs": [
        {
          "internalType": "bytes32[]",
          "name": "componentIds",
          "type": "bytes32[]"
        },
        {
          "internalType": "uint256[]",
          "name": "componentValues",
          "type": "uint256[]"
        },
        {
          "internalType": "uint256[]",
          "name": "weights",
          "type": "uint256[]"
        }
      ],
      "name": "recalcLiCRIWeighted",
      "outputs": [
        {
          "internalType": "uint256",
          "name": "liCRI",
          "type": "uint256"
        }
      ],
      "stateMutability": "nonpayable",
      "type": "function"
    },
    {
      "inputs": [
        {
          "internalType": "bytes32",
          "name": "dashboardHash",
          "type": "bytes32"
        },
        {
          "internalType": "uint256",
          "name": "liCRI",
          "type": "uint256"
        },
        {
          "internalType": "uint64",
          "name": "globalVersion",
          "type": "uint64"
        }
      ],
      "name": "setDashboardComposite",
      "outputs": [],
      "stateMutability": "nonpayable",
      "type": "function"
    },
    {
      "inputs": [
        {
          "internalType": "bytes32",
          "name": "indexId",
          "type": "bytes32"
        },
        {
          "internalType": "uint256",
          "name": "value",
          "type": "uint256"
        }
      ],
      "name": "setIndexValue",
      "outputs": [],
      "stateMutability": "nonpayable",
      "type": "function"
    },
    {
      "inputs": [
        {
          "internalType": "bytes32",
          "name": "indexId",
          "type": "bytes32"
        },
        {
          "internalType": "bytes32[]",
          "name": "keys",
          "type": "bytes32[]"
        },
        {
          "internalType": "uint256[]",
          "name": "weights",
          "type": "uint256[]"
        },
        {
          "internalType": "uint64",
          "name": "version",
          "type": "uint64"
        },
        {
          "internalType": "bytes32",
          "name": "dashboardHash",
          "type": "bytes32"
        }
      ],
      "name": "setWeights",
      "outputs": [],
      "stateMutability": "nonpayable",
      "type": "function"
    }
  ],
  "bytecode": "0x608060405234801561001057600080fd5b50610d83806100206000396000f3fe608060405234801561001057600080fd5b50600436106100885760003560e01c8063a28de2441161005b578063a28de244146100fe578063c0af218d14610113578063c0f2d5f714610126578063e6b51a981461013957600080fd5b806351d7bc851461008d57806355f62ed9146100a25780637a58d26a146100c85780638527831b146100db575b600080fd5b6100a061009b3660046109b4565b61014c565b005b6100b56100b0366004610a48565b61033b565b6040519081526020015b60405180910390f35b6100a06100d6366004610a61565b610384565b6100ee6100e9366004610a48565b610449565b6040516100bf9493929190610a96565b600080516020610d0e833981519152546100b5565b6100b5610121366004610b2e565b610524565b6100a0610134366004610b9a565b610651565b6100b5610147366004610bbc565b61070d565b336000908152600080516020610cee8339815191526020526040812054600416900361018b5760405163326aaca960e11b815260040160405180910390fd5b8483146101ab5760405163ab3a7f9960e01b815260040160405180910390fd5b6000805b848110156101ef578585828181106101c9576101c9610c56565b90506020020135826101db9190610c82565b9150806101e781610c9b565b9150506101af565b5080670de0b6b3a7640000146102185760405163044c9ce160e41b815260040160405180910390fd5b6000610223896108c5565b805467ffffffffffffffff191667ffffffffffffffff8616178155600181018490559050610255600282016000610911565b610263600382016000610911565b60005b878110156102f0578160020189898381811061028457610284610c56565b83546001810185556000948552602094859020919094029290920135919092015550600382018787838181106102bc576102bc610c56565b83546001810185556000948552602094859020919094029290920135919092015550806102e881610c9b565b915050610266565b5060405167ffffffffffffffff8516815289907fd0bb3ba69f84be3b2eb470a3881f792dce20c4a660a4c1833fd576d38f7fa6ca9060200160405180910390a2505050505050505050565b600080610347836108c5565b60038101549091501561037a578060030160008154811061036a5761036a610c56565b906000526020600020015461037d565b60005b9392505050565b336000908152600080516020610cee833981519152602052604081205460041690036103c35760405163326aaca960e11b815260040160405180910390fd5b600080516020610d0e833981519152829055600080516020610d2e833981519152805467ffffffffffffffff831667ffffffffffffffff1990911681178255604080519182526020820185905242828201525185917f6519f20914a226ac2380da7d29c110df4a8a62167ed605e3d5b09beb78933513919081900360600190a250505050565b600060608060008061045a866108c5565b805460018201546002830180546040805160208084028201810190925282815267ffffffffffffffff9095169a509296509394509192908301828280156104c057602002820191906000526020600020905b8154815260200190600101908083116104ac575b505050505093508060030180548060200260200160405190810160405280929190818152602001828054801561051557602002820191906000526020600020905b815481526020019060010190808311610501575b50505050509250509193509193565b336000908152600080516020610cee833981519152602052604081205460041681036105635760405163326aaca960e11b815260040160405180910390fd5b8382146105835760405163ab3a7f9960e01b815260040160405180910390fd5b6000805b838110156105c7578484828181106105a1576105a1610c56565b90506020020135826105b39190610c82565b9150806105bf81610c9b565b915050610587565b506105d28382610cb4565b600080516020610d0e833981519152819055600080516020610d2e83398151915280546040805167ffffffffffffffff90921682526020820184905242828201525192945090916000917f6519f20914a226ac2380da7d29c110df4a8a62167ed605e3d5b09beb78933513919081900360600190a25050949350505050565b336000908152600080516020610cee833981519152602052604081205460041690036106905760405163326aaca960e11b815260040160405180910390fd5b600061069b836108c5565b60028101549091506000036106e55760028101805460018082018355600092835260208084206456414c554560d81b93019290925560039093018054938401815582529020015550565b81816003016000815481106106fc576106fc610c56565b600091825260209091200155505050565b336000908152600080516020610cee8339815191526020526040812054600416810361074c5760405163326aaca960e11b815260040160405180910390fd5b858414158061075b5750858214155b156107795760405163ab3a7f9960e01b815260040160405180910390fd5b60008060005b8481101561081a5785858281811061079957610799610c56565b90506020020135836107ab9190610c82565b9250670de0b6b3a76400008686838181106107c8576107c8610c56565b905060200201358989848181106107e1576107e1610c56565b905060200201356107f29190610cd6565b6107fc9190610cb4565b6108069083610c82565b91508061081281610c9b565b91505061077f565b5081670de0b6b3a7640000146108435760405163044c9ce160e41b815260040160405180910390fd5b600080516020610d0e833981519152819055600080516020610d2e83398151915280546040805167ffffffffffffffff90921682526020820184905242828201525192945084926000917f6519f20914a226ac2380da7d29c110df4a8a62167ed605e3d5b09beb78933513919081900360600190a25050509695505050505050565b60008082600080516020610d2e8339815191526040516020016108f2929190918252602082015260400190565b60408051601f1981840301815291905280516020909101209392505050565b508054600082559060005260206000209081019061092f9190610932565b50565b5b808211156109475760008155600101610933565b5090565b60008083601f84011261095d57600080fd5b50813567ffffffffffffffff81111561097557600080fd5b6020830191508360208260051b850101111561099057600080fd5b9250929050565b803567ffffffffffffffff811681146109af57600080fd5b919050565b600080600080600080600060a0888a0312156109cf57600080fd5b87359650602088013567ffffffffffffffff808211156109ee57600080fd5b6109fa8b838c0161094b565b909850965060408a0135915080821115610a1357600080fd5b50610a208a828b0161094b565b9095509350610a33905060608901610997565b91506080880135905092959891949750929550565b600060208284031215610a5a57600080fd5b5035919050565b600080600060608486031215610a7657600080fd5b8335925060208401359150610a8d60408501610997565b90509250925092565b60006080820167ffffffffffffffff87168352602060808185015281875180845260a086019150828901935060005b81811015610ae157845183529383019391830191600101610ac5565b50508481036040860152865180825290820192508187019060005b81811015610b1857825185529383019391830191600101610afc565b5050505060609290920192909252949350505050565b60008060008060408587031215610b4457600080fd5b843567ffffffffffffffff80821115610b5c57600080fd5b610b688883890161094b565b90965094506020870135915080821115610b8157600080fd5b50610b8e8782880161094b565b95989497509550505050565b60008060408385031215610bad57600080fd5b50508035926020909101359150565b60008060008060008060608789031215610bd557600080fd5b863567ffffffffffffffff80821115610bed57600080fd5b610bf98a838b0161094b565b90985096506020890135915080821115610c1257600080fd5b610c1e8a838b0161094b565b90965094506040890135915080821115610c3757600080fd5b50610c4489828a0161094b565b979a9699509497509295939492505050565b634e487b7160e01b600052603260045260246000fd5b634e487b7160e01b600052601160045260246000fd5b80820180821115610c9557610c95610c6c565b92915050565b600060018201610cad57610cad610c6c565b5060010190565b600082610cd157634e487b7160e01b600052601260045260246000fd5b500490565b8082028115828204841417610c9557610c95610c6c56fe9f684a81ee6e6fb92a5ae5a2560bb267d45aada2be40484754980c3e16e44d98ed67d0daff738ccf71298a47a56dc9ef98b1ffb107ed17a564642a6aed1dd4dfed67d0daff738ccf71298a47a56dc9ef98b1ffb107ed17a564642a6aed1dd4dea264697066735822122007e2596bb241c939e71c0641bcc8ea37c18f470ac92c864f4cb1a63f88edac8d64736f6c63430008150033",
  "linkReferences": {},
  "deployedLinkReferences": {}
}