{
  "_format": "hh-sol-artifact-1",
  "contractName": "IndexFacet",
  "sourceName": "contracts/facets/IndexFacet.sol",
  "abi": [
    {
      "anonymous": false,
      "inputs": [
        {
          "indexed": true,
          "internalType": "bytes32",
          "name": "id",
          "type": "bytes32"
        },
        {
          "indexed": false,
          "internalType": "uint64",
          "name": "version",
          "type": "uint64"
        }
      ],
      "name": "IndexWeightsUpdated",
      "type": "event"
    },
    {
      "inputs": [
        {
          "internalType": "bytes32",
          "name": "indexId",
          "type": "bytes32"
        }
      ],
      "name": "getIndex",
      "outputs": [
        {
          "internalType": "uint64",
          "name": "version",
          "type": "uint64"
        },
        {
          "internalType": "bytes32[]",
          "name": "keys",
          "type": "bytes32[]"
        },
        {
          "internalType": "uint256[]",
          "name": "weights",
          "type": "uint256[]"
        }
      ],
      "stateMutability": "view",
      "type": "function"
    },
    {
      "inputs": [],
      "name": "getLiCRI",
      "outputs": [
        {
          "internalType": "uint256",
          "name": "",
          "type": "uint256"
        }
      ],
      "stateMutability": "view",
      "type": "function"
    },
    {
      "inputs": [],
      "name": "recalcLiCRI",
      "outputs": [
        {
          "internalType": "uint256",
          "name": "faceValueComposite",
          "type": "uint256"
        }
      ],
      "stateMutability": "view",
      "type": "function"
    },
    {
      "inputs": [
        {
          "internalType": "bytes32",
          "name": "indexId",
          "type": "bytes32"
        },
        {
          "internalType": "bytes32[]",
          "name": "keys",
          "type": "bytes32[]"
        },
        {
          "internalType": "uint256[]",
          "name": "weights",
          "type": "uint256[]"
        },
        {
          "internalType": "uint64",
          "name": "version",
          "type": "uint64"
        }
      ],
      "name": "setWeights",
      "outputs": [],
      "stateMutability": "nonpayable",
      "type": "function"
    }
  ],
  "bytecode": "0x608060405234801561001057600080fd5b50610459806100206000396000f3fe608060405234801561001057600080fd5b506004361061004c5760003560e01c80638527831b146100515780638602a3d8146100bf578063a28de244146100bf578063d2f76c02146100ef575b600080fd5b6100a761005f36600461023e565b507fed67d0daff738ccf71298a47a56dc9ef98b1ffb107ed17a564642a6aed1dd4de546040805160008082526020820190815281830190925267ffffffffffffffff90921692565b6040516100b693929190610257565b60405180910390f35b7fed67d0daff738ccf71298a47a56dc9ef98b1ffb107ed17a564642a6aed1dd4e0546040519081526020016100b6565b6101026100fd366004610333565b610104565b005b83821461013e5760405162461bcd60e51b81526020600482015260036024820152622622a760e91b60448201526064015b60405180910390fd5b6000805b838110156101825784848281811061015c5761015c6103c5565b905060200201358261016e91906103f1565b91508061017a8161040a565b915050610142565b5080670de0b6b3a7640000146101c05760405162461bcd60e51b815260206004820152600360248201526253554d60e81b6044820152606401610135565b7fed67d0daff738ccf71298a47a56dc9ef98b1ffb107ed17a564642a6aed1dd4de805467ffffffffffffffff841667ffffffffffffffff1990911681178255604080519182525189917fd0bb3ba69f84be3b2eb470a3881f792dce20c4a660a4c1833fd576d38f7fa6ca919081900360200190a25050505050505050565b60006020828403121561025057600080fd5b5035919050565b60006060820167ffffffffffffffff861683526020606081850152818651808452608086019150828801935060005b818110156102a257845183529383019391830191600101610286565b50508481036040860152855180825290820192508186019060005b818110156102d9578251855293830193918301916001016102bd565b509298975050505050505050565b60008083601f8401126102f957600080fd5b50813567ffffffffffffffff81111561031157600080fd5b6020830191508360208260051b850101111561032c57600080fd5b9250929050565b6000806000806000806080878903121561034c57600080fd5b86359550602087013567ffffffffffffffff8082111561036b57600080fd5b6103778a838b016102e7565b9097509550604089013591508082111561039057600080fd5b61039c8a838b016102e7565b90955093506060890135915080821682146103b657600080fd5b50809150509295509295509295565b634e487b7160e01b600052603260045260246000fd5b634e487b7160e01b600052601160045260246000fd5b80820180821115610404576104046103db565b92915050565b60006001820161041c5761041c6103db565b506001019056fea2646970667358221220e887e1460924c2bdfdde421970fc3e460967a498e76c1f35de69781ac028799864736f6c63430008150033",
  "linkReferences": {},
  "deployedLinkReferences": {}
}