{
  "_format": "hh-sol-artifact-1",
  "contractName": "IndexFacet",
  "sourceName": "contracts/facets/IndexFacet.sol",
  "abi": [
    {
      "anonymous": false,
      "inputs": [
        {
          "indexed": true,
          "internalType": "bytes32",
          "name": "dashboardHash",
          "type": "bytes32"
        },
        {
          "indexed": false,
          "internalType": "uint64",
          "name": "globalVersion",
          "type": "uint64"
        },
        {
          "indexed": false,
          "internalType": "uint256",
          "name": "liCRI",
          "type": "uint256"
        },
        {
          "indexed": false,
          "internalType": "uint256",
          "name": "timestamp",
          "type": "uint256"
        }
      ],
      "name": "DashboardSnapshot",
      "type": "event"
    },
    {
      "anonymous": false,
      "inputs": [
        {
          "indexed": true,
          "internalType": "bytes32",
          "name": "id",
          "type": "bytes32"
        },
        {
          "indexed": false,
          "internalType": "uint64",
          "name": "version",
          "type": "uint64"
        }
      ],
      "name": "IndexWeightsUpdated",
      "type": "event"
    },
    {
      "inputs": [
        {
          "internalType": "bytes32",
          "name": "indexId",
          "type": "bytes32"
        }
      ],
      "name": "getIndex",
      "outputs": [
        {
          "internalType": "uint64",
          "name": "version",
          "type": "uint64"
        },
        {
          "internalType": "bytes32[]",
          "name": "keys",
          "type": "bytes32[]"
        },
        {
          "internalType": "uint256[]",
          "name": "weights",
          "type": "uint256[]"
        },
        {
          "internalType": "bytes32",
          "name": "dashboardHash",
          "type": "bytes32"
        }
      ],
      "stateMutability": "view",
      "type": "function"
    },
    {
      "inputs": [],
      "name": "getLiCRI",
      "outputs": [
        {
          "internalType": "uint256",
          "name": "",
          "type": "uint256"
        }
      ],
      "stateMutability": "view",
      "type": "function"
    },
    {
      "inputs": [
        {
          "internalType": "bytes32[]",
          "name": "componentIds",
          "type": "bytes32[]"
        },
        {
          "internalType": "uint256[]",
          "name": "componentValues",
          "type": "uint256[]"
        }
      ],
      "name": "recalcLiCRI",
      "outputs": [
        {
          "internalType": "uint256",
          "name": "faceValueComposite",
          "type": "uint256"
        }
      ],
      "stateMutability": "nonpayable",
      "type": "function"
    },
    {
      "inputs": [
        {
          "internalType": "bytes32",
          "name": "dashboardHash",
          "type": "bytes32"
        },
        {
          "internalType": "uint256",
          "name": "liCRI",
          "type": "uint256"
        },
        {
          "internalType": "uint64",
          "name": "globalVersion",
          "type": "uint64"
        }
      ],
      "name": "setDashboardComposite",
      "outputs": [],
      "stateMutability": "nonpayable",
      "type": "function"
    },
    {
      "inputs": [
        {
          "internalType": "bytes32",
          "name": "indexId",
          "type": "bytes32"
        },
        {
          "internalType": "bytes32[]",
          "name": "keys",
          "type": "bytes32[]"
        },
        {
          "internalType": "uint256[]",
          "name": "weights",
          "type": "uint256[]"
        },
        {
          "internalType": "uint64",
          "name": "version",
          "type": "uint64"
        },
        {
          "internalType": "bytes32",
          "name": "dashboardHash",
          "type": "bytes32"
        }
      ],
      "name": "setWeights",
      "outputs": [],
      "stateMutability": "nonpayable",
      "type": "function"
    }
  ],
  "bytecode": "0x608060405234801561001057600080fd5b5061091e806100206000396000f3fe608060405234801561001057600080fd5b50600436106100575760003560e01c806351d7bc851461005c5780637a58d26a146100715780638527831b14610084578063a28de244146100b0578063c0af218d146100e1575b600080fd5b61006f61006a366004610682565b6100f4565b005b61006f61007f366004610716565b6102d3565b61009761009236600461074b565b61037d565b6040516100a79493929190610764565b60405180910390f35b7fed67d0daff738ccf71298a47a56dc9ef98b1ffb107ed17a564642a6aed1dd4df545b6040519081526020016100a7565b6100d36100ef3660046107fc565b610458565b84831461012e5760405162461bcd60e51b81526020600482015260036024820152622622a760e91b60448201526064015b60405180910390fd5b6000805b848110156101725785858281811061014c5761014c610868565b905060200201358261015e9190610894565b91508061016a816108ad565b915050610132565b5080670de0b6b3a7640000146101b05760405162461bcd60e51b815260206004820152600360248201526253554d60e81b6044820152606401610125565b60006101bb89610581565b805467ffffffffffffffff191667ffffffffffffffff86161781556001810184905590506101ed6002820160006105df565b6101fb6003820160006105df565b60005b87811015610288578160020189898381811061021c5761021c610868565b835460018101855560009485526020948590209190940292909201359190920155506003820187878381811061025457610254610868565b8354600181018555600094855260209485902091909402929092013591909201555080610280816108ad565b9150506101fe565b5060405167ffffffffffffffff8516815289907fd0bb3ba69f84be3b2eb470a3881f792dce20c4a660a4c1833fd576d38f7fa6ca9060200160405180910390a2505050505050505050565b7fed67d0daff738ccf71298a47a56dc9ef98b1ffb107ed17a564642a6aed1dd4df8290557fed67d0daff738ccf71298a47a56dc9ef98b1ffb107ed17a564642a6aed1dd4de805467ffffffffffffffff831667ffffffffffffffff1990911681178255604080519182526020820185905242828201525185917f6519f20914a226ac2380da7d29c110df4a8a62167ed605e3d5b09beb78933513919081900360600190a250505050565b600060608060008061038e86610581565b805460018201546002830180546040805160208084028201810190925282815267ffffffffffffffff9095169a509296509394509192908301828280156103f457602002820191906000526020600020905b8154815260200190600101908083116103e0575b505050505093508060030180548060200260200160405190810160405280929190818152602001828054801561044957602002820191906000526020600020905b815481526020019060010190808311610435575b50505050509250509193509193565b600083821461048f5760405162461bcd60e51b81526020600482015260036024820152622622a760e91b6044820152606401610125565b6000805b838110156104d3578484828181106104ad576104ad610868565b90506020020135826104bf9190610894565b9150806104cb816108ad565b915050610493565b506104de83826108c6565b7fed67d0daff738ccf71298a47a56dc9ef98b1ffb107ed17a564642a6aed1dd4df8190557fed67d0daff738ccf71298a47a56dc9ef98b1ffb107ed17a564642a6aed1dd4de80546040805167ffffffffffffffff90921682526020820184905242828201525192945090916000917f6519f20914a226ac2380da7d29c110df4a8a62167ed605e3d5b09beb78933513919081900360600190a25050949350505050565b600080827fed67d0daff738ccf71298a47a56dc9ef98b1ffb107ed17a564642a6aed1dd4de6040516020016105c0929190918252602082015260400190565b60408051601f1981840301815291905280516020909101209392505050565b50805460008255906000526020600020908101906105fd9190610600565b50565b5b808211156106155760008155600101610601565b5090565b60008083601f84011261062b57600080fd5b50813567ffffffffffffffff81111561064357600080fd5b6020830191508360208260051b850101111561065e57600080fd5b9250929050565b803567ffffffffffffffff8116811461067d57600080fd5b919050565b600080600080600080600060a0888a03121561069d57600080fd5b87359650602088013567ffffffffffffffff808211156106bc57600080fd5b6106c88b838c01610619565b909850965060408a01359150808211156106e157600080fd5b506106ee8a828b01610619565b9095509350610701905060608901610665565b91506080880135905092959891949750929550565b60008060006060848603121561072b57600080fd5b833592506020840135915061074260408501610665565b90509250925092565b60006020828403121561075d57600080fd5b5035919050565b60006080820167ffffffffffffffff87168352602060808185015281875180845260a086019150828901935060005b818110156107af57845183529383019391830191600101610793565b50508481036040860152865180825290820192508187019060005b818110156107e6578251855293830193918301916001016107ca565b5050505060609290920192909252949350505050565b6000806000806040858703121561081257600080fd5b843567ffffffffffffffff8082111561082a57600080fd5b61083688838901610619565b9096509450602087013591508082111561084f57600080fd5b5061085c87828801610619565b95989497509550505050565b634e487b7160e01b600052603260045260246000fd5b634e487b7160e01b600052601160045260246000fd5b808201808211156108a7576108a761087e565b92915050565b6000600182016108bf576108bf61087e565b5060010190565b6000826108e357634e487b7160e01b600052601260045260246000fd5b50049056fea2646970667358221220738fa7d3d0c274b55f7edbf34f5b5c6eefd61fa425d51508ccc0d7bb4a7d5ff264736f6c63430008150033",
  "linkReferences": {},
  "deployedLinkReferences": {}
}