{
  "_format": "hh-sol-artifact-1",
  "contractName": "TriangulationFacet",
  "sourceName": "contracts/facets/TriangulationFacet.sol",
  "abi": [
    {
      "inputs": [
        {
          "internalType": "uint256",
          "name": "input",
          "type": "uint256"
        },
        {
          "internalType": "uint8",
          "name": "n",
          "type": "uint8"
        },
        {
          "internalType": "uint256",
          "name": "feeBps",
          "type": "uint256"
        }
      ],
      "name": "atomicLoop7to10",
      "outputs": [
        {
          "internalType": "uint256",
          "name": "expanded",
          "type": "uint256"
        }
      ],
      "stateMutability": "nonpayable",
      "type": "function"
    },
    {
      "inputs": [
        {
          "internalType": "uint256",
          "name": "gruAmount",
          "type": "uint256"
        }
      ],
      "name": "redeemFromGRU",
      "outputs": [
        {
          "internalType": "uint256",
          "name": "xauOut",
          "type": "uint256"
        }
      ],
      "stateMutability": "nonpayable",
      "type": "function"
    },
    {
      "inputs": [
        {
          "internalType": "uint256",
          "name": "feeBps",
          "type": "uint256"
        }
      ],
      "name": "setFees",
      "outputs": [],
      "stateMutability": "nonpayable",
      "type": "function"
    },
    {
      "inputs": [
        {
          "internalType": "uint256",
          "name": "xauAmount",
          "type": "uint256"
        }
      ],
      "name": "triangulateToGRU",
      "outputs": [
        {
          "internalType": "uint256",
          "name": "gruOut",
          "type": "uint256"
        }
      ],
      "stateMutability": "nonpayable",
      "type": "function"
    }
  ],
  "bytecode": "0x608060405234801561001057600080fd5b50610313806100206000396000f3fe608060405234801561001057600080fd5b506004361061004c5760003560e01c80631189e745146100515780632ed7215d146100765780633d18678e14610089578063533e750114610051575b600080fd5b61006461005f3660046101ff565b61009e565b60405190815260200160405180910390f35b610064610084366004610218565b6100d9565b61009c6100973660046101ff565b6101c2565b005b60405162461bcd60e51b81526020600482015260086024820152671393d517d253541360c21b60448201526000906064015b60405180910390fd5b6000808360ff161180156100f1575060038360ff1611155b6101215760405162461bcd60e51b81526020600482015260016024820152603760f91b60448201526064016100d0565b6101c28211156101595760405162461bcd60e51b815260206004820152600360248201526266656560e81b60448201526064016100d0565b8360005b8460ff168160ff1610156101b957600761017883600a61026c565b6101829190610289565b915061271061019185826102ab565b61019b908461026c565b6101a59190610289565b9150806101b1816102be565b91505061015d565b50949350505050565b6101c28111156101fa5760405162461bcd60e51b815260206004820152600360248201526266656560e81b60448201526064016100d0565b600055565b60006020828403121561021157600080fd5b5035919050565b60008060006060848603121561022d57600080fd5b83359250602084013560ff8116811461024557600080fd5b929592945050506040919091013590565b634e487b7160e01b600052601160045260246000fd5b808202811582820484141761028357610283610256565b92915050565b6000826102a657634e487b7160e01b600052601260045260246000fd5b500490565b8181038181111561028357610283610256565b600060ff821660ff81036102d4576102d4610256565b6001019291505056fea2646970667358221220afec6529e20bed243ab7bf6cca8f5b33a44935b5db66d5a6b252d4e5971f21d364736f6c63430008150033",
  "linkReferences": {},
  "deployedLinkReferences": {}
}