{
  "_format": "hh-sol-artifact-1",
  "contractName": "TriangulationFacet",
  "sourceName": "contracts/facets/TriangulationFacet.sol",
  "abi": [
    {
      "inputs": [],
      "name": "ErrFeeTooHigh",
      "type": "error"
    },
    {
      "inputs": [],
      "name": "ErrGovernanceRole",
      "type": "error"
    },
    {
      "inputs": [],
      "name": "ErrRateUnset",
      "type": "error"
    },
    {
      "inputs": [],
      "name": "ErrReentrancy",
      "type": "error"
    },
    {
      "anonymous": false,
      "inputs": [
        {
          "indexed": false,
          "internalType": "uint256",
          "name": "oldFeeBps",
          "type": "uint256"
        },
        {
          "indexed": false,
          "internalType": "uint256",
          "name": "newFeeBps",
          "type": "uint256"
        }
      ],
      "name": "FeeUpdated",
      "type": "event"
    },
    {
      "anonymous": false,
      "inputs": [
        {
          "indexed": true,
          "internalType": "bytes32",
          "name": "fromAsset",
          "type": "bytes32"
        },
        {
          "indexed": true,
          "internalType": "bytes32",
          "name": "toAsset",
          "type": "bytes32"
        },
        {
          "indexed": false,
          "internalType": "uint256",
          "name": "rate",
          "type": "uint256"
        }
      ],
      "name": "RateSet",
      "type": "event"
    },
    {
      "anonymous": false,
      "inputs": [
        {
          "indexed": true,
          "internalType": "bytes32",
          "name": "fromAsset",
          "type": "bytes32"
        },
        {
          "indexed": true,
          "internalType": "bytes32",
          "name": "toAsset",
          "type": "bytes32"
        },
        {
          "indexed": false,
          "internalType": "uint256",
          "name": "inputAmount",
          "type": "uint256"
        },
        {
          "indexed": false,
          "internalType": "uint256",
          "name": "outputAmount",
          "type": "uint256"
        }
      ],
      "name": "Redeemed",
      "type": "event"
    },
    {
      "anonymous": false,
      "inputs": [
        {
          "indexed": true,
          "internalType": "bytes32",
          "name": "fromAsset",
          "type": "bytes32"
        },
        {
          "indexed": true,
          "internalType": "bytes32",
          "name": "toAsset",
          "type": "bytes32"
        },
        {
          "indexed": false,
          "internalType": "uint256",
          "name": "inputAmount",
          "type": "uint256"
        },
        {
          "indexed": false,
          "internalType": "uint256",
          "name": "outputAmount",
          "type": "uint256"
        }
      ],
      "name": "Triangulated",
      "type": "event"
    },
    {
      "inputs": [],
      "name": "feeBps",
      "outputs": [
        {
          "internalType": "uint256",
          "name": "",
          "type": "uint256"
        }
      ],
      "stateMutability": "view",
      "type": "function"
    },
    {
      "inputs": [
        {
          "internalType": "bytes32",
          "name": "fromAsset",
          "type": "bytes32"
        },
        {
          "internalType": "bytes32",
          "name": "toAsset",
          "type": "bytes32"
        }
      ],
      "name": "getRate",
      "outputs": [
        {
          "internalType": "uint256",
          "name": "rate",
          "type": "uint256"
        }
      ],
      "stateMutability": "view",
      "type": "function"
    },
    {
      "inputs": [
        {
          "internalType": "bytes32",
          "name": "fromAsset",
          "type": "bytes32"
        },
        {
          "internalType": "bytes32",
          "name": "toAsset",
          "type": "bytes32"
        },
        {
          "internalType": "uint256",
          "name": "amount",
          "type": "uint256"
        }
      ],
      "name": "redeem",
      "outputs": [
        {
          "internalType": "uint256",
          "name": "outAmount",
          "type": "uint256"
        }
      ],
      "stateMutability": "nonpayable",
      "type": "function"
    },
    {
      "inputs": [
        {
          "internalType": "uint256",
          "name": "feeBps_",
          "type": "uint256"
        }
      ],
      "name": "setFees",
      "outputs": [],
      "stateMutability": "nonpayable",
      "type": "function"
    },
    {
      "inputs": [
        {
          "internalType": "bytes32",
          "name": "fromAsset",
          "type": "bytes32"
        },
        {
          "internalType": "bytes32",
          "name": "toAsset",
          "type": "bytes32"
        },
        {
          "internalType": "uint256",
          "name": "rate",
          "type": "uint256"
        }
      ],
      "name": "setRate",
      "outputs": [],
      "stateMutability": "nonpayable",
      "type": "function"
    },
    {
      "inputs": [
        {
          "internalType": "bytes32",
          "name": "fromAsset",
          "type": "bytes32"
        },
        {
          "internalType": "bytes32",
          "name": "toAsset",
          "type": "bytes32"
        },
        {
          "internalType": "uint256",
          "name": "amount",
          "type": "uint256"
        }
      ],
      "name": "triangulate",
      "outputs": [
        {
          "internalType": "uint256",
          "name": "outAmount",
          "type": "uint256"
        }
      ],
      "stateMutability": "nonpayable",
      "type": "function"
    }
  ],
  "bytecode": "0x608060405234801561001057600080fd5b5061080d806100206000396000f3fe608060405234801561001057600080fd5b50600436106100625760003560e01c8063051fe9941461006757806324a9d853146100b15780633d18678e146100c65780637da02e6d146100db578063df4db9d5146100ee578063fd28b9c614610101575b600080fd5b61009f610075366004610678565b60009182526000805160206107788339815191526020908152604080842092845291905290205490565b60405190815260200160405180910390f35b6000805160206107988339815191525461009f565b6100d96100d436600461069a565b610114565b005b61009f6100e93660046106b3565b610291565b61009f6100fc3660046106b3565b6103c0565b6100d961010f3660046106b3565b6104d8565b336001600160a01b0316306001600160a01b0316638da5cb5b6040518163ffffffff1660e01b8152600401602060405180830381865afa15801561015c573d6000803e3d6000fd5b505050506040513d601f19601f8201168201806040525081019061018091906106df565b6001600160a01b0316141580156101c657503360009081527f9f684a81ee6e6fb92a5ae5a2560bb267d45aada2be40484754980c3e16e44d986020526040902054600216155b156101e45760405163030f2d0160e01b815260040160405180910390fd5b6000805160206107b8833981519152805460010361021557604051633626e13f60e01b815260040160405180910390fd5b600181556101c282111561023c57604051632e917a5b60e21b815260040160405180910390fd5b6000805160206107988339815191528054604080519182526020820185905280517f528d9479e9f9889a87a3c30c7f7ba537e5e59c4c85a37733b16e57c62df613029281900390910190a19190915560009055565b6000805160206107b88339815191528054600091906001036102c657604051633626e13f60e01b815260040160405180910390fd5b60018155600085815260008051602061077883398151915260209081526040808320878452909152812054600080516020610798833981519152918190036103215760405163cf412cc560e01b815260040160405180910390fd5b670de0b6b3a76400006103348287610725565b61033e9190610742565b935060006127108360000154866103559190610725565b61035f9190610742565b905061036b8186610764565b945086887f341359d52f66ee383b6b15ec2040e94c395dea2b6c8ab93ae926cbc2237a52e988886040516103a9929190918252602082015260400190565b60405180910390a350506000909155509392505050565b6000805160206107b88339815191528054600091906001036103f557604051633626e13f60e01b815260040160405180910390fd5b60018155600085815260008051602061077883398151915260209081526040808320878452909152812054600080516020610798833981519152918190036104505760405163cf412cc560e01b815260040160405180910390fd5b670de0b6b3a76400006104638287610725565b61046d9190610742565b935060006127108360000154866104849190610725565b61048e9190610742565b905061049a8186610764565b945086887f8682d2e78b5fd027850b8e4fc4f29f6a0a8cca06c99a31a069c0bbec592abd5688886040516103a9929190918252602082015260400190565b336001600160a01b0316306001600160a01b0316638da5cb5b6040518163ffffffff1660e01b8152600401602060405180830381865afa158015610520573d6000803e3d6000fd5b505050506040513d601f19601f8201168201806040525081019061054491906106df565b6001600160a01b03161415801561058a57503360009081527f9f684a81ee6e6fb92a5ae5a2560bb267d45aada2be40484754980c3e16e44d986020526040902054600216155b156105a85760405163030f2d0160e01b815260040160405180910390fd5b6000805160206107b883398151915280546001036105d957604051633626e13f60e01b815260040160405180910390fd5b6001815560008290036105ff5760405163cf412cc560e01b815260040160405180910390fd5b6000848152600080516020610778833981519152602090815260408083208684528252918290208490558151848152915160008051602061079883398151915292869288927f519c20dedfa00d10e7f5aafa672eeaf02420ce07f96e9dabbf5d4d78e07a24219281900390910190a35060009055505050565b6000806040838503121561068b57600080fd5b50508035926020909101359150565b6000602082840312156106ac57600080fd5b5035919050565b6000806000606084860312156106c857600080fd5b505081359360208301359350604090920135919050565b6000602082840312156106f157600080fd5b81516001600160a01b038116811461070857600080fd5b9392505050565b634e487b7160e01b600052601160045260246000fd5b808202811582820484141761073c5761073c61070f565b92915050565b60008261075f57634e487b7160e01b600052601260045260246000fd5b500490565b8181038181111561073c5761073c61070f56fec7bb3c94db8505934cf43639cde1fc76ec964132b83b1fc071cef0d2c126b428c7bb3c94db8505934cf43639cde1fc76ec964132b83b1fc071cef0d2c126b427519812a5a8413af10e6fb42e920313e95458e6fafa6523e34000f1c70d4fd501a2646970667358221220dbd60222b5aae4c9aed29c603f2587baa9c8c6b7e4e388aad48526139b4b90c264736f6c63430008150033",
  "linkReferences": {},
  "deployedLinkReferences": {}
}