{
  "_format": "hh-sol-artifact-1",
  "contractName": "AuditFacet",
  "sourceName": "contracts/facets/AuditFacet.sol",
  "abi": [
    {
      "inputs": [],
      "name": "ErrGovernanceRole",
      "type": "error"
    },
    {
      "inputs": [],
      "name": "ErrPeriodSealed",
      "type": "error"
    },
    {
      "anonymous": false,
      "inputs": [
        {
          "indexed": true,
          "internalType": "uint64",
          "name": "period",
          "type": "uint64"
        },
        {
          "indexed": false,
          "internalType": "bytes32",
          "name": "root",
          "type": "bytes32"
        },
        {
          "indexed": false,
          "internalType": "string",
          "name": "ipfsRef",
          "type": "string"
        }
      ],
      "name": "PoRPosted",
      "type": "event"
    },
    {
      "anonymous": false,
      "inputs": [
        {
          "indexed": true,
          "internalType": "uint64",
          "name": "period",
          "type": "uint64"
        }
      ],
      "name": "PoRSealed",
      "type": "event"
    },
    {
      "inputs": [
        {
          "internalType": "uint64",
          "name": "period",
          "type": "uint64"
        }
      ],
      "name": "getPoR",
      "outputs": [
        {
          "internalType": "bytes32",
          "name": "merkleRoot",
          "type": "bytes32"
        },
        {
          "internalType": "string",
          "name": "ipfsRef",
          "type": "string"
        },
        {
          "internalType": "bool",
          "name": "isSealed",
          "type": "bool"
        }
      ],
      "stateMutability": "view",
      "type": "function"
    },
    {
      "inputs": [
        {
          "internalType": "uint64",
          "name": "period",
          "type": "uint64"
        },
        {
          "internalType": "bytes32",
          "name": "merkleRoot",
          "type": "bytes32"
        },
        {
          "internalType": "string",
          "name": "ipfsRef",
          "type": "string"
        }
      ],
      "name": "postPoR",
      "outputs": [],
      "stateMutability": "nonpayable",
      "type": "function"
    },
    {
      "inputs": [
        {
          "internalType": "uint64",
          "name": "period",
          "type": "uint64"
        }
      ],
      "name": "seal",
      "outputs": [],
      "stateMutability": "nonpayable",
      "type": "function"
    }
  ],
  "bytecode": "0x608060405234801561001057600080fd5b5061077c806100206000396000f3fe608060405234801561001057600080fd5b50600436106100415760003560e01c80630368d8b214610046578063115960001461005b5780631b338d1214610086575b600080fd5b61005961005436600461047f565b610099565b005b61006e61006936600461047f565b6101e5565b60405161007d939291906104a1565b60405180910390f35b610059610094366004610500565b6102a6565b336001600160a01b0316306001600160a01b0316638da5cb5b6040518163ffffffff1660e01b8152600401602060405180830381865afa1580156100e1573d6000803e3d6000fd5b505050506040513d601f19601f820116820180604052508101906101059190610587565b6001600160a01b03161415801561014b57503360009081527f9f684a81ee6e6fb92a5ae5a2560bb267d45aada2be40484754980c3e16e44d986020526040902054600216155b156101695760405163030f2d0160e01b815260040160405180910390fd5b60006101748261040a565b600281015490915060ff161561019d57604051630e7f342360e41b815260040160405180910390fd5b60028101805460ff1916600117905560405167ffffffffffffffff8316907fcbbc26abd8791c22cf6c82e4cdef0f05ea533b67f8bdba0a2f68def0726343e290600090a25050565b600060606000806101f58561040a565b80546002820154600183018054939450919260ff909116908290610218906105b0565b80601f0160208091040260200160405190810160405280929190818152602001828054610244906105b0565b80156102915780601f1061026657610100808354040283529160200191610291565b820191906000526020600020905b81548152906001019060200180831161027457829003601f168201915b50505050509150935093509350509193909250565b336001600160a01b0316306001600160a01b0316638da5cb5b6040518163ffffffff1660e01b8152600401602060405180830381865afa1580156102ee573d6000803e3d6000fd5b505050506040513d601f19601f820116820180604052508101906103129190610587565b6001600160a01b03161415801561035857503360009081527f9f684a81ee6e6fb92a5ae5a2560bb267d45aada2be40484754980c3e16e44d986020526040902054600216155b156103765760405163030f2d0160e01b815260040160405180910390fd5b60006103818561040a565b600281015490915060ff16156103aa57604051630e7f342360e41b815260040160405180910390fd5b838155600181016103bc83858361064f565b508467ffffffffffffffff167f0688d37710c3cf1657809374bee1478dbdbf8a3beeb34791f9e44a614ac72cdb8585856040516103fb93929190610710565b60405180910390a25050505050565b6040805167ffffffffffffffff929092166020808401919091527f7f5b50c69171a0073d53951e48ad73b5f1c9430310c86e2f3d4ae27816378375838301528151808403830181526060909301909152815191012090565b803567ffffffffffffffff8116811461047a57600080fd5b919050565b60006020828403121561049157600080fd5b61049a82610462565b9392505050565b83815260006020606081840152845180606085015260005b818110156104d5578681018301518582016080015282016104b9565b506000608082860101526080601f19601f830116850101925050508215156040830152949350505050565b6000806000806060858703121561051657600080fd5b61051f85610462565b935060208501359250604085013567ffffffffffffffff8082111561054357600080fd5b818701915087601f83011261055757600080fd5b81358181111561056657600080fd5b88602082850101111561057857600080fd5b95989497505060200194505050565b60006020828403121561059957600080fd5b81516001600160a01b038116811461049a57600080fd5b600181811c908216806105c457607f821691505b6020821081036105e457634e487b7160e01b600052602260045260246000fd5b50919050565b634e487b7160e01b600052604160045260246000fd5b601f82111561064a57600081815260208120601f850160051c810160208610156106275750805b601f850160051c820191505b8181101561064657828155600101610633565b5050505b505050565b67ffffffffffffffff831115610667576106676105ea565b61067b8361067583546105b0565b83610600565b6000601f8411600181146106af57600085156106975750838201355b600019600387901b1c1916600186901b178355610709565b600083815260209020601f19861690835b828110156106e057868501358255602094850194600190920191016106c0565b50868210156106fd5760001960f88860031b161c19848701351681555b505060018560011b0183555b5050505050565b83815260406020820152816040820152818360608301376000818301606090810191909152601f909201601f191601019291505056fea2646970667358221220a0c41fe3b3be43c90bcc25e14ac5c1043d642cb5e6437289705883fc98bf0c6964736f6c63430008150033",
  "linkReferences": {},
  "deployedLinkReferences": {}
}