{
  "_format": "hh-sol-artifact-1",
  "contractName": "PauseFacet",
  "sourceName": "contracts/facets/PauseFacet.sol",
  "abi": [
    {
      "anonymous": false,
      "inputs": [
        {
          "indexed": false,
          "internalType": "bytes4",
          "name": "selector",
          "type": "bytes4"
        },
        {
          "indexed": false,
          "internalType": "bool",
          "name": "paused",
          "type": "bool"
        }
      ],
      "name": "FunctionPaused",
      "type": "event"
    },
    {
      "anonymous": false,
      "inputs": [
        {
          "indexed": false,
          "internalType": "bool",
          "name": "paused",
          "type": "bool"
        }
      ],
      "name": "GlobalPaused",
      "type": "event"
    },
    {
      "inputs": [],
      "name": "isGlobalPaused",
      "outputs": [
        {
          "internalType": "bool",
          "name": "",
          "type": "bool"
        }
      ],
      "stateMutability": "view",
      "type": "function"
    },
    {
      "inputs": [
        {
          "internalType": "bytes4",
          "name": "selector",
          "type": "bytes4"
        }
      ],
      "name": "isPaused",
      "outputs": [
        {
          "internalType": "bool",
          "name": "",
          "type": "bool"
        }
      ],
      "stateMutability": "view",
      "type": "function"
    },
    {
      "inputs": [
        {
          "internalType": "bytes4",
          "name": "selector",
          "type": "bytes4"
        },
        {
          "internalType": "bool",
          "name": "paused",
          "type": "bool"
        }
      ],
      "name": "setFunctionPause",
      "outputs": [],
      "stateMutability": "nonpayable",
      "type": "function"
    },
    {
      "inputs": [
        {
          "internalType": "bool",
          "name": "paused",
          "type": "bool"
        }
      ],
      "name": "setGlobalPause",
      "outputs": [],
      "stateMutability": "nonpayable",
      "type": "function"
    }
  ],
  "bytecode": "0x608060405234801561001057600080fd5b506104be806100206000396000f3fe608060405234801561001057600080fd5b506004361061004c5760003560e01c806309b65e66146100515780635ca145e6146100b157806369a6b3db146100c6578063b714fa3e146100d9575b600080fd5b61009d61005f3660046103df565b6001600160e01b03191660009081527fbe2039d0acebc8f39aca028faa2657d60691246a654ef49134d442fbe066df4f602052604090205460ff1690565b604051901515815260200160405180910390f35b6100c46100bf366004610411565b610103565b005b6100c46100d4366004610444565b610274565b7fbe2039d0acebc8f39aca028faa2657d60691246a654ef49134d442fbe066df4e5460ff1661009d565b336001600160a01b0316306001600160a01b0316638da5cb5b6040518163ffffffff1660e01b8152600401602060405180830381865afa15801561014b573d6000803e3d6000fd5b505050506040513d601f19601f8201168201806040525081019061016f919061045f565b6001600160a01b0316141580156101b557503360009081527f9f684a81ee6e6fb92a5ae5a2560bb267d45aada2be40484754980c3e16e44d986020526040902054600216155b156101f05760405162461bcd60e51b81526020600482015260066024820152652727afa3a7ab60d11b60448201526064015b60405180910390fd5b6001600160e01b0319821660008181527fbe2039d0acebc8f39aca028faa2657d60691246a654ef49134d442fbe066df4f6020908152604091829020805460ff191685151590811790915582519384529083015280517f8d55861a3463260ef86139a9feef380a290f3f1b3367862f20f8a761fd1989359281900390910190a15050565b336001600160a01b0316306001600160a01b0316638da5cb5b6040518163ffffffff1660e01b8152600401602060405180830381865afa1580156102bc573d6000803e3d6000fd5b505050506040513d601f19601f820116820180604052508101906102e0919061045f565b6001600160a01b03161415801561032657503360009081527f9f684a81ee6e6fb92a5ae5a2560bb267d45aada2be40484754980c3e16e44d986020526040902054600216155b1561035c5760405162461bcd60e51b81526020600482015260066024820152652727afa3a7ab60d11b60448201526064016101e7565b7fbe2039d0acebc8f39aca028faa2657d60691246a654ef49134d442fbe066df4e805482151560ff19909116811790915560408051918252517f39faec09bfc6835902c79c4757f9177e0cf8ab328b2bb690494e800dfe8c9c949181900360200190a150565b80356001600160e01b0319811681146103da57600080fd5b919050565b6000602082840312156103f157600080fd5b6103fa826103c2565b9392505050565b803580151581146103da57600080fd5b6000806040838503121561042457600080fd5b61042d836103c2565b915061043b60208401610401565b90509250929050565b60006020828403121561045657600080fd5b6103fa82610401565b60006020828403121561047157600080fd5b81516001600160a01b03811681146103fa57600080fdfea2646970667358221220a68682704f5522af5f71cf44d4c84307a7a9673564073de723037e442f47d18364736f6c63430008150033",
  "linkReferences": {},
  "deployedLinkReferences": {}
}