{
  "_format": "hh-sol-artifact-1",
  "contractName": "ComplianceFacet",
  "sourceName": "contracts/facets/ComplianceFacet.sol",
  "abi": [
    {
      "inputs": [],
      "name": "ErrMissingRole",
      "type": "error"
    },
    {
      "inputs": [],
      "name": "ErrNotReady",
      "type": "error"
    },
    {
      "inputs": [
        {
          "internalType": "address",
          "name": "from",
          "type": "address"
        },
        {
          "internalType": "address",
          "name": "to",
          "type": "address"
        },
        {
          "internalType": "uint256",
          "name": "amount",
          "type": "uint256"
        }
      ],
      "name": "checkTransfer",
      "outputs": [
        {
          "internalType": "bool",
          "name": "allowed",
          "type": "bool"
        },
        {
          "internalType": "string",
          "name": "reason",
          "type": "string"
        }
      ],
      "stateMutability": "view",
      "type": "function"
    },
    {
      "inputs": [
        {
          "internalType": "bytes16",
          "name": "jurisdiction",
          "type": "bytes16"
        },
        {
          "internalType": "uint256",
          "name": "durationSecs",
          "type": "uint256"
        }
      ],
      "name": "emergencyJurisdictionPause",
      "outputs": [],
      "stateMutability": "nonpayable",
      "type": "function"
    },
    {
      "inputs": [
        {
          "internalType": "address",
          "name": "account",
          "type": "address"
        },
        {
          "internalType": "uint8",
          "name": "riskTier",
          "type": "uint8"
        },
        {
          "internalType": "bytes32",
          "name": "reason",
          "type": "bytes32"
        }
      ],
      "name": "setAMLRisk",
      "outputs": [],
      "stateMutability": "nonpayable",
      "type": "function"
    },
    {
      "inputs": [
        {
          "internalType": "address",
          "name": "account",
          "type": "address"
        },
        {
          "internalType": "uint8",
          "name": "level",
          "type": "uint8"
        },
        {
          "internalType": "uint64",
          "name": "expiry",
          "type": "uint64"
        }
      ],
      "name": "setKYC",
      "outputs": [],
      "stateMutability": "nonpayable",
      "type": "function"
    }
  ],
  "bytecode": "0x608060405234801561001057600080fd5b506103c5806100206000396000f3fe608060405234801561001057600080fd5b506004361061004c5760003560e01c806304a143521461005157806368581d1d14610066578063cc1dd94f14610074578063f649c6e1146100d7575b600080fd5b61006461005f3660046101fc565b6100e5565b005b61006461005f36600461023a565b6100c061008236600461027c565b505060408051808201909152601d81527f535455423a20636f6d706c69616e6365206e6f7420656e666f726365640000006020820152600192909150565b6040516100ce9291906102bd565b60405180910390f35b61006461005f366004610315565b336001600160a01b0316306001600160a01b0316638da5cb5b6040518163ffffffff1660e01b8152600401602060405180830381865afa15801561012d573d6000803e3d6000fd5b505050506040513d601f19601f82011682018060405250810190610151919061036b565b6001600160a01b03161415801561019757503360009081527f9f684a81ee6e6fb92a5ae5a2560bb267d45aada2be40484754980c3e16e44d986020526040902054601016155b156101b55760405163de55e85d60e01b815260040160405180910390fd5b604051634e395b8560e01b815260040160405180910390fd5b6001600160a01b03811681146101e357600080fd5b50565b803560ff811681146101f757600080fd5b919050565b60008060006060848603121561021157600080fd5b833561021c816101ce565b925061022a602085016101e6565b9150604084013590509250925092565b6000806040838503121561024d57600080fd5b82356fffffffffffffffffffffffffffffffff198116811461026e57600080fd5b946020939093013593505050565b60008060006060848603121561029157600080fd5b833561029c816101ce565b925060208401356102ac816101ce565b929592945050506040919091013590565b821515815260006020604081840152835180604085015260005b818110156102f3578581018301518582016060015282016102d7565b506000606082860101526060601f19601f830116850101925050509392505050565b60008060006060848603121561032a57600080fd5b8335610335816101ce565b9250610343602085016101e6565b9150604084013567ffffffffffffffff8116811461036057600080fd5b809150509250925092565b60006020828403121561037d57600080fd5b8151610388816101ce565b939250505056fea264697066735822122001aca4e997a268eff9b67b97bc28d8848a3a4b39dd677aef346faa5a392acbdd64736f6c63430008150033",
  "linkReferences": {},
  "deployedLinkReferences": {}
}