{
  "_format": "hh-sol-artifact-1",
  "contractName": "AccessFacet",
  "sourceName": "contracts/facets/AccessFacet.sol",
  "abi": [
    {
      "inputs": [],
      "name": "ErrMissingRole",
      "type": "error"
    },
    {
      "anonymous": false,
      "inputs": [
        {
          "indexed": true,
          "internalType": "address",
          "name": "account",
          "type": "address"
        },
        {
          "indexed": false,
          "internalType": "uint256",
          "name": "roleBits",
          "type": "uint256"
        }
      ],
      "name": "RoleGranted",
      "type": "event"
    },
    {
      "anonymous": false,
      "inputs": [
        {
          "indexed": true,
          "internalType": "address",
          "name": "account",
          "type": "address"
        },
        {
          "indexed": false,
          "internalType": "uint256",
          "name": "roleBits",
          "type": "uint256"
        }
      ],
      "name": "RoleRevoked",
      "type": "event"
    },
    {
      "inputs": [],
      "name": "ROLE_GOVERNANCE_BIT",
      "outputs": [
        {
          "internalType": "uint256",
          "name": "",
          "type": "uint256"
        }
      ],
      "stateMutability": "pure",
      "type": "function"
    },
    {
      "inputs": [],
      "name": "ROLE_INDEX_BIT",
      "outputs": [
        {
          "internalType": "uint256",
          "name": "",
          "type": "uint256"
        }
      ],
      "stateMutability": "pure",
      "type": "function"
    },
    {
      "inputs": [],
      "name": "ROLE_MONETARY_BIT",
      "outputs": [
        {
          "internalType": "uint256",
          "name": "",
          "type": "uint256"
        }
      ],
      "stateMutability": "pure",
      "type": "function"
    },
    {
      "inputs": [],
      "name": "ROLE_UPGRADE_BIT",
      "outputs": [
        {
          "internalType": "uint256",
          "name": "",
          "type": "uint256"
        }
      ],
      "stateMutability": "pure",
      "type": "function"
    },
    {
      "inputs": [
        {
          "internalType": "address",
          "name": "account",
          "type": "address"
        },
        {
          "internalType": "uint256",
          "name": "roleBits",
          "type": "uint256"
        }
      ],
      "name": "grantRoles",
      "outputs": [],
      "stateMutability": "nonpayable",
      "type": "function"
    },
    {
      "inputs": [
        {
          "internalType": "address",
          "name": "account",
          "type": "address"
        },
        {
          "internalType": "uint256",
          "name": "roleBits",
          "type": "uint256"
        }
      ],
      "name": "hasRoles",
      "outputs": [
        {
          "internalType": "bool",
          "name": "",
          "type": "bool"
        }
      ],
      "stateMutability": "view",
      "type": "function"
    },
    {
      "inputs": [
        {
          "internalType": "address",
          "name": "account",
          "type": "address"
        },
        {
          "internalType": "uint256",
          "name": "roleBits",
          "type": "uint256"
        }
      ],
      "name": "revokeRoles",
      "outputs": [],
      "stateMutability": "nonpayable",
      "type": "function"
    }
  ],
  "bytecode": "0x608060405234801561001057600080fd5b506103c0806100206000396000f3fe608060405234801561001057600080fd5b506004361061007d5760003560e01c80634a4ee7b11161005b5780634a4ee7b1146100f95780636662654d1461010c578063714f2e4514610113578063b52fef661461011a57600080fd5b8063112ff489146100825780631c10893f146100d357806340300101146100e8575b600080fd5b6100be61009036600461031a565b6001600160a01b0391909116600090815260008051602061036b833981519152602052604090205481161490565b60405190151581526020015b60405180910390f35b6100e66100e136600461031a565b610121565b005b60045b6040519081526020016100ca565b6100e661010736600461031a565b6101d7565b60026100eb565b60016100eb565b60086100eb565b600261012b610285565b158015610154575033600090815260008051602061036b83398151915260205260409020548116155b156101725760405163de55e85d60e01b815260040160405180910390fd5b6001600160a01b038316600081815260008051602061036b833981519152602090815260409182902080548617905590518481527f179d9faeef78652d6b82f73b6ad9bf53b5b05d2a7f212a4ef46cb7b7d3c123db91015b60405180910390a2505050565b60026101e1610285565b15801561020a575033600090815260008051602061036b83398151915260205260409020548116155b156102285760405163de55e85d60e01b815260040160405180910390fd5b6001600160a01b038316600081815260008051602061036b83398151915260209081526040918290208054861916905590518481527f12982f922b0573398129ea86655ce1e8e425ec676c9e3d40bf5458688b1ef54491016101ca565b6000336001600160a01b0316306001600160a01b0316638da5cb5b6040518163ffffffff1660e01b8152600401602060405180830381865afa1580156102cf573d6000803e3d6000fd5b505050506040513d601f19601f820116820180604052508101906102f39190610346565b6001600160a01b031614905090565b6001600160a01b038116811461031757600080fd5b50565b6000806040838503121561032d57600080fd5b823561033881610302565b946020939093013593505050565b60006020828403121561035857600080fd5b815161036381610302565b939250505056fe9f684a81ee6e6fb92a5ae5a2560bb267d45aada2be40484754980c3e16e44d98a2646970667358221220850c4e4b57f5bb836a49a6d71ad17183a5289585f13d9ccae94569ccd56db5e964736f6c63430008150033",
  "linkReferences": {},
  "deployedLinkReferences": {}
}