{
  "_format": "hh-sol-artifact-1",
  "contractName": "AccessFacet",
  "sourceName": "contracts/facets/AccessFacet.sol",
  "abi": [
    {
      "anonymous": false,
      "inputs": [
        {
          "indexed": true,
          "internalType": "address",
          "name": "account",
          "type": "address"
        },
        {
          "indexed": false,
          "internalType": "uint256",
          "name": "roleBits",
          "type": "uint256"
        }
      ],
      "name": "RoleGranted",
      "type": "event"
    },
    {
      "anonymous": false,
      "inputs": [
        {
          "indexed": true,
          "internalType": "address",
          "name": "account",
          "type": "address"
        },
        {
          "indexed": false,
          "internalType": "uint256",
          "name": "roleBits",
          "type": "uint256"
        }
      ],
      "name": "RoleRevoked",
      "type": "event"
    },
    {
      "inputs": [
        {
          "internalType": "address",
          "name": "account",
          "type": "address"
        },
        {
          "internalType": "uint256",
          "name": "roleBits",
          "type": "uint256"
        }
      ],
      "name": "grantRoles",
      "outputs": [],
      "stateMutability": "nonpayable",
      "type": "function"
    },
    {
      "inputs": [
        {
          "internalType": "address",
          "name": "account",
          "type": "address"
        },
        {
          "internalType": "uint256",
          "name": "roleBits",
          "type": "uint256"
        }
      ],
      "name": "hasRoles",
      "outputs": [
        {
          "internalType": "bool",
          "name": "",
          "type": "bool"
        }
      ],
      "stateMutability": "view",
      "type": "function"
    },
    {
      "inputs": [
        {
          "internalType": "address",
          "name": "account",
          "type": "address"
        },
        {
          "internalType": "uint256",
          "name": "roleBits",
          "type": "uint256"
        }
      ],
      "name": "revokeRoles",
      "outputs": [],
      "stateMutability": "nonpayable",
      "type": "function"
    }
  ],
  "bytecode": "0x608060405234801561001057600080fd5b50610223806100206000396000f3fe608060405234801561001057600080fd5b50600436106100415760003560e01c8063112ff489146100465780631c10893f146100a85780634a4ee7b1146100bd575b600080fd5b6100946100543660046101b5565b6001600160a01b039190911660009081527f9f684a81ee6e6fb92a5ae5a2560bb267d45aada2be40484754980c3e16e44d98602052604090205481161490565b604051901515815260200160405180910390f35b6100bb6100b63660046101b5565b6100d0565b005b6100bb6100cb3660046101b5565b610146565b6001600160a01b03821660008181527f9f684a81ee6e6fb92a5ae5a2560bb267d45aada2be40484754980c3e16e44d98602090815260409182902080548517905590518381527f179d9faeef78652d6b82f73b6ad9bf53b5b05d2a7f212a4ef46cb7b7d3c123db91015b60405180910390a25050565b6001600160a01b03821660008181527f9f684a81ee6e6fb92a5ae5a2560bb267d45aada2be40484754980c3e16e44d9860209081526040918290208054851916905590518381527f12982f922b0573398129ea86655ce1e8e425ec676c9e3d40bf5458688b1ef544910161013a565b600080604083850312156101c857600080fd5b82356001600160a01b03811681146101df57600080fd5b94602093909301359350505056fea2646970667358221220a49b68e68a8dfacf917ae79a1f092b89261630e231ecf15e4764c1e02b1f7b5d64736f6c63430008150033",
  "linkReferences": {},
  "deployedLinkReferences": {}
}