{
  "_format": "hh-sol-artifact-1",
  "contractName": "ReenterInit",
  "sourceName": "contracts/test/ReenterInit.sol",
  "abi": [
    {
      "inputs": [
        {
          "internalType": "address",
          "name": "diamond",
          "type": "address"
        }
      ],
      "name": "init",
      "outputs": [],
      "stateMutability": "nonpayable",
      "type": "function"
    }
  ],
  "bytecode": "0x608060405234801561001057600080fd5b50610211806100206000396000f3fe608060405234801561001057600080fd5b506004361061002b5760003560e01c806319ab453c14610030575b600080fd5b61004361003e3660046100ad565b610045565b005b6040516307e4c70760e21b81526060906001600160a01b03831690631f931c1c906100779084906000906004016100dd565b600060405180830381600087803b15801561009157600080fd5b505af11580156100a5573d6000803e3d6000fd5b505050505050565b6000602082840312156100bf57600080fd5b81356001600160a01b03811681146100d657600080fd5b9392505050565b60006060808301818452808651808352608092508286019150828160051b8701016020808a0160005b848110156101ad57898403607f19018652815180516001600160a01b0316855283810151898601906003811061014c57634e487b7160e01b600052602160045260246000fd5b868601526040918201519186018a905281519081905290840190600090898701905b808310156101985783516001600160e01b031916825292860192600192909201919086019061016e565b50978501979550505090820190600101610106565b50506001600160a01b038916888201525086810360408801526000815260208101999850505050505050505056fea264697066735822122088020ec0e4bcd89ff2099398c38fbe2e1fb7c04bbe179a5d76a9cd02b0ec339464736f6c63430008150033",
  "linkReferences": {},
  "deployedLinkReferences": {}
}