{
  "_format": "hh-sol-artifact-1",
  "contractName": "BondFacet",
  "sourceName": "contracts/facets/BondFacet.sol",
  "abi": [
    {
      "inputs": [],
      "name": "ErrCoverageFail",
      "type": "error"
    },
    {
      "inputs": [],
      "name": "ErrGovernanceRole",
      "type": "error"
    },
    {
      "inputs": [],
      "name": "ErrSeriesExists",
      "type": "error"
    },
    {
      "inputs": [],
      "name": "ErrSeriesInactive",
      "type": "error"
    },
    {
      "inputs": [],
      "name": "ErrZeroAddress",
      "type": "error"
    },
    {
      "inputs": [],
      "name": "ErrZeroNotional",
      "type": "error"
    },
    {
      "anonymous": false,
      "inputs": [
        {
          "indexed": true,
          "internalType": "bytes32",
          "name": "series",
          "type": "bytes32"
        },
        {
          "indexed": false,
          "internalType": "uint256",
          "name": "principalClosed",
          "type": "uint256"
        }
      ],
      "name": "BondBuyback",
      "type": "event"
    },
    {
      "anonymous": false,
      "inputs": [
        {
          "indexed": true,
          "internalType": "bytes32",
          "name": "series",
          "type": "bytes32"
        },
        {
          "indexed": true,
          "internalType": "address",
          "name": "to",
          "type": "address"
        },
        {
          "indexed": false,
          "internalType": "uint256",
          "name": "notional",
          "type": "uint256"
        }
      ],
      "name": "BondIssued",
      "type": "event"
    },
    {
      "anonymous": false,
      "inputs": [
        {
          "indexed": true,
          "internalType": "bytes32",
          "name": "series",
          "type": "bytes32"
        },
        {
          "indexed": false,
          "internalType": "uint256",
          "name": "amount",
          "type": "uint256"
        }
      ],
      "name": "CouponsAccrued",
      "type": "event"
    },
    {
      "inputs": [
        {
          "internalType": "bytes32",
          "name": "series",
          "type": "bytes32"
        }
      ],
      "name": "accrueCoupons",
      "outputs": [
        {
          "internalType": "uint256",
          "name": "accrued",
          "type": "uint256"
        }
      ],
      "stateMutability": "nonpayable",
      "type": "function"
    },
    {
      "inputs": [
        {
          "internalType": "bytes32",
          "name": "series",
          "type": "bytes32"
        }
      ],
      "name": "buyback",
      "outputs": [
        {
          "internalType": "uint256",
          "name": "principalClosed",
          "type": "uint256"
        }
      ],
      "stateMutability": "nonpayable",
      "type": "function"
    },
    {
      "inputs": [
        {
          "internalType": "bytes32",
          "name": "series",
          "type": "bytes32"
        }
      ],
      "name": "coverageCheck",
      "outputs": [
        {
          "internalType": "bool",
          "name": "ok",
          "type": "bool"
        },
        {
          "internalType": "uint256",
          "name": "coverageRatio",
          "type": "uint256"
        }
      ],
      "stateMutability": "view",
      "type": "function"
    },
    {
      "inputs": [
        {
          "internalType": "bytes32",
          "name": "series",
          "type": "bytes32"
        },
        {
          "internalType": "address",
          "name": "to",
          "type": "address"
        },
        {
          "internalType": "uint256",
          "name": "notional",
          "type": "uint256"
        }
      ],
      "name": "issueLi99",
      "outputs": [],
      "stateMutability": "nonpayable",
      "type": "function"
    }
  ],
  "bytecode": "0x608060405234801561001057600080fd5b506106be806100206000396000f3fe608060405234801561001057600080fd5b506004361061004c5760003560e01c8063581f2c97146100515780636e3aba8b14610080578063a6a1534c146100a1578063c802b83e146100b6575b600080fd5b61006461005f366004610593565b6100c9565b6040805192151583526020830191909152015b60405180910390f35b61009361008e366004610593565b61014a565b604051908152602001610077565b6100b46100af3660046105c4565b61024e565b005b6100936100c4366004610593565b610435565b60008060006100d784610535565b6003810154909150600160801b900460ff166100f95750600093849350915050565b80541561011f57805460649061011090607d610612565b61011a919061062f565b610122565b60005b8154909250606490610135906078610612565b61013f919061062f565b821015925050915091565b60008061015683610535565b6003810154909150600160801b900460ff16610185576040516387511c4b60e01b815260040160405180910390fd5b60038101546000906101a890600160401b900467ffffffffffffffff1642610651565b90506301e133806101bb81612710610612565b6002840154845484916101cd91610612565b6101d79190610612565b6101e1919061062f565b6003840180546fffffffffffffffff00000000000000001916600160401b4267ffffffffffffffff160217905560405181815290945085907f6586bdd758ad3f8dff410ea3729110aac933888bd10dff222fd07cbcafb5fb889060200160405180910390a2505050919050565b336001600160a01b0316306001600160a01b0316638da5cb5b6040518163ffffffff1660e01b8152600401602060405180830381865afa158015610296573d6000803e3d6000fd5b505050506040513d601f19601f820116820180604052508101906102ba9190610664565b6001600160a01b03161415801561030057503360009081527f9f684a81ee6e6fb92a5ae5a2560bb267d45aada2be40484754980c3e16e44d986020526040902054600216155b1561031e5760405163030f2d0160e01b815260040160405180910390fd5b6001600160a01b03821661034557604051630ecc6fdf60e41b815260040160405180910390fd5b806000036103665760405163695ebf3b60e01b815260040160405180910390fd5b600061037184610535565b6003810154909150600160801b900460ff16156103a15760405163ef6d80a160e01b815260040160405180910390fd5b6003810180548383556101f4600284015570010000000000000000000000000000000570ffffffffffffffffffffffffffffffffff19909116600160401b67ffffffffffffffff421602171790556040518281526001600160a01b0384169085907f4a866e50648fda9ada0789ae3880a53fd8cf60d5f7596c908eb1df855c4932b99060200160405180910390a350505050565b60008061044183610535565b6003810154909150600160801b900460ff16610470576040516387511c4b60e01b815260040160405180910390fd5b8054156104e2578054600090156104a057815460649061049190607d610612565b61049b919061062f565b6104a3565b60005b82549091506064906104b6906078610612565b6104c0919061062f565b8110156104e05760405163b16115d760e01b815260040160405180910390fd5b505b80546000825560038201805460ff60801b1916905560405181815290925083907f48146e9caac6c395f8db7047f90c6a642f220d1d29646519a5248f0bdb7e329d9060200160405180910390a250919050565b600080827f23e6825cf11da11dc4f25f47999b0244a7d895a8fc1ee15a958743bd88ce2052604051602001610574929190918252602082015260400190565b60408051601f1981840301815291905280516020909101209392505050565b6000602082840312156105a557600080fd5b5035919050565b6001600160a01b03811681146105c157600080fd5b50565b6000806000606084860312156105d957600080fd5b8335925060208401356105eb816105ac565b929592945050506040919091013590565b634e487b7160e01b600052601160045260246000fd5b8082028115828204841417610629576106296105fc565b92915050565b60008261064c57634e487b7160e01b600052601260045260246000fd5b500490565b81810381811115610629576106296105fc565b60006020828403121561067657600080fd5b8151610681816105ac565b939250505056fea264697066735822122079954845ecee92b57c737b7ce59e7f3a9c42687bc386a4f1d324038f88b485de64736f6c63430008150033",
  "linkReferences": {},
  "deployedLinkReferences": {}
}