{
  "_format": "hh-sol-artifact-1",
  "contractName": "BondFacet",
  "sourceName": "contracts/facets/BondFacet.sol",
  "abi": [
    {
      "inputs": [],
      "name": "ErrCoverageFail",
      "type": "error"
    },
    {
      "inputs": [],
      "name": "ErrGovernanceRole",
      "type": "error"
    },
    {
      "inputs": [],
      "name": "ErrReentrancy",
      "type": "error"
    },
    {
      "inputs": [],
      "name": "ErrSeriesExists",
      "type": "error"
    },
    {
      "inputs": [],
      "name": "ErrSeriesInactive",
      "type": "error"
    },
    {
      "inputs": [],
      "name": "ErrZeroAddress",
      "type": "error"
    },
    {
      "inputs": [],
      "name": "ErrZeroNotional",
      "type": "error"
    },
    {
      "anonymous": false,
      "inputs": [
        {
          "indexed": true,
          "internalType": "bytes32",
          "name": "series",
          "type": "bytes32"
        },
        {
          "indexed": false,
          "internalType": "uint256",
          "name": "principalClosed",
          "type": "uint256"
        }
      ],
      "name": "BondBuyback",
      "type": "event"
    },
    {
      "anonymous": false,
      "inputs": [
        {
          "indexed": true,
          "internalType": "bytes32",
          "name": "series",
          "type": "bytes32"
        },
        {
          "indexed": true,
          "internalType": "address",
          "name": "to",
          "type": "address"
        },
        {
          "indexed": false,
          "internalType": "uint256",
          "name": "notional",
          "type": "uint256"
        }
      ],
      "name": "BondIssued",
      "type": "event"
    },
    {
      "anonymous": false,
      "inputs": [
        {
          "indexed": true,
          "internalType": "bytes32",
          "name": "series",
          "type": "bytes32"
        },
        {
          "indexed": false,
          "internalType": "uint256",
          "name": "amount",
          "type": "uint256"
        }
      ],
      "name": "CouponsAccrued",
      "type": "event"
    },
    {
      "inputs": [
        {
          "internalType": "bytes32",
          "name": "series",
          "type": "bytes32"
        }
      ],
      "name": "accrueCoupons",
      "outputs": [
        {
          "internalType": "uint256",
          "name": "accrued",
          "type": "uint256"
        }
      ],
      "stateMutability": "nonpayable",
      "type": "function"
    },
    {
      "inputs": [
        {
          "internalType": "bytes32",
          "name": "series",
          "type": "bytes32"
        }
      ],
      "name": "buyback",
      "outputs": [
        {
          "internalType": "uint256",
          "name": "principalClosed",
          "type": "uint256"
        }
      ],
      "stateMutability": "nonpayable",
      "type": "function"
    },
    {
      "inputs": [
        {
          "internalType": "bytes32",
          "name": "series",
          "type": "bytes32"
        }
      ],
      "name": "coverageCheck",
      "outputs": [
        {
          "internalType": "bool",
          "name": "ok",
          "type": "bool"
        },
        {
          "internalType": "uint256",
          "name": "coverageRatio",
          "type": "uint256"
        }
      ],
      "stateMutability": "view",
      "type": "function"
    },
    {
      "inputs": [
        {
          "internalType": "bytes32",
          "name": "series",
          "type": "bytes32"
        },
        {
          "internalType": "address",
          "name": "to",
          "type": "address"
        },
        {
          "internalType": "uint256",
          "name": "notional",
          "type": "uint256"
        }
      ],
      "name": "issueLi99",
      "outputs": [],
      "stateMutability": "nonpayable",
      "type": "function"
    }
  ],
  "bytecode": "0x608060405234801561001057600080fd5b506107a6806100206000396000f3fe608060405234801561001057600080fd5b506004361061004c5760003560e01c8063581f2c97146100515780636e3aba8b14610080578063a6a1534c146100a1578063c802b83e146100b6575b600080fd5b61006461005f36600461067b565b6100c9565b6040805192151583526020830191909152015b60405180910390f35b61009361008e36600461067b565b61014a565b604051908152602001610077565b6100b46100af3660046106ac565b61029d565b005b6100936100c436600461067b565b6104cf565b60008060006100d78461061d565b6003810154909150600160801b900460ff166100f95750600093849350915050565b80541561011f57805460649061011090607d6106fa565b61011a9190610717565b610122565b60005b81549092506064906101359060786106fa565b61013f9190610717565b821015925050915091565b7f519812a5a8413af10e6fb42e920313e95458e6fafa6523e34000f1c70d4fd50180546000919060010361019157604051633626e13f60e01b815260040160405180910390fd5b6001815560006101a08461061d565b6003810154909150600160801b900460ff166101cf576040516387511c4b60e01b815260040160405180910390fd5b60038101546000906101f290600160401b900467ffffffffffffffff1642610739565b90506301e13380610205816127106106fa565b600284015484548491610217916106fa565b61022191906106fa565b61022b9190610717565b6003840180546fffffffffffffffff00000000000000001916600160401b4267ffffffffffffffff160217905560405181815290955086907f6586bdd758ad3f8dff410ea3729110aac933888bd10dff222fd07cbcafb5fb889060200160405180910390a25050600090915550919050565b336001600160a01b0316306001600160a01b0316638da5cb5b6040518163ffffffff1660e01b8152600401602060405180830381865afa1580156102e5573d6000803e3d6000fd5b505050506040513d601f19601f82011682018060405250810190610309919061074c565b6001600160a01b03161415801561034f57503360009081527f9f684a81ee6e6fb92a5ae5a2560bb267d45aada2be40484754980c3e16e44d986020526040902054600216155b1561036d5760405163030f2d0160e01b815260040160405180910390fd5b7f519812a5a8413af10e6fb42e920313e95458e6fafa6523e34000f1c70d4fd50180546001036103b057604051633626e13f60e01b815260040160405180910390fd5b600181556001600160a01b0383166103db57604051630ecc6fdf60e41b815260040160405180910390fd5b816000036103fc5760405163695ebf3b60e01b815260040160405180910390fd5b60006104078561061d565b6003810154909150600160801b900460ff16156104375760405163ef6d80a160e01b815260040160405180910390fd5b6003810180548483556101f4600284015570010000000000000000000000000000000570ffffffffffffffffffffffffffffffffff19909116600160401b67ffffffffffffffff421602171790556040518381526001600160a01b0385169086907f4a866e50648fda9ada0789ae3880a53fd8cf60d5f7596c908eb1df855c4932b99060200160405180910390a35060009055505050565b7f519812a5a8413af10e6fb42e920313e95458e6fafa6523e34000f1c70d4fd50180546000919060010361051657604051633626e13f60e01b815260040160405180910390fd5b6001815560006105258461061d565b6003810154909150600160801b900460ff16610554576040516387511c4b60e01b815260040160405180910390fd5b8054156105c65780546000901561058457815460649061057590607d6106fa565b61057f9190610717565b610587565b60005b825490915060649061059a9060786106fa565b6105a49190610717565b8110156105c45760405163b16115d760e01b815260040160405180910390fd5b505b80546000825560038201805460ff60801b1916905560405181815290935084907f48146e9caac6c395f8db7047f90c6a642f220d1d29646519a5248f0bdb7e329d9060200160405180910390a25060009055919050565b600080827f23e6825cf11da11dc4f25f47999b0244a7d895a8fc1ee15a958743bd88ce205260405160200161065c929190918252602082015260400190565b60408051601f1981840301815291905280516020909101209392505050565b60006020828403121561068d57600080fd5b5035919050565b6001600160a01b03811681146106a957600080fd5b50565b6000806000606084860312156106c157600080fd5b8335925060208401356106d381610694565b929592945050506040919091013590565b634e487b7160e01b600052601160045260246000fd5b8082028115828204841417610711576107116106e4565b92915050565b60008261073457634e487b7160e01b600052601260045260246000fd5b500490565b81810381811115610711576107116106e4565b60006020828403121561075e57600080fd5b815161076981610694565b939250505056fea26469706673582212206690b5bbb71abf84fa1f1503356c8bf3f1c1431069d6ee97a38d6a4ffda67eef64736f6c63430008150033",
  "linkReferences": {},
  "deployedLinkReferences": {}
}